{
  "contractName": "TestContract",
  "abi": [
    {
      "inputs": [],
      "payable": false,
      "stateMutability": "nonpayable",
      "type": "constructor"
    },
    {
      "constant": true,
      "inputs": [
        {
          "name": "a",
          "type": "uint256"
        }
      ],
      "name": "TestOne",
      "outputs": [
        {
          "name": "success",
          "type": "bool"
        }
      ],
      "payable": false,
      "stateMutability": "view",
      "type": "function"
    },
    {
      "constant": true,
      "inputs": [
        {
          "name": "b",
          "type": "uint256"
        }
      ],
      "name": "TestTwo",
      "outputs": [
        {
          "name": "success",
          "type": "bool"
        }
      ],
      "payable": false,
      "stateMutability": "view",
      "type": "function"
    },
    {
      "constant": true,
      "inputs": [
        {
          "name": "c",
          "type": "uint256"
        }
      ],
      "name": "TestThree",
      "outputs": [
        {
          "name": "success",
          "type": "bool"
        }
      ],
      "payable": false,
      "stateMutability": "view",
      "type": "function"
    }
  ],
  "bytecode": "0x608060405234801561001057600080fd5b506101db806100206000396000f3fe608060405260043610610057576000357c0100000000000000000000000000000000000000000000000000000000900463ffffffff168063066c36e21461005c57806354d31552146100af578063ad6fc25914610102575b600080fd5b34801561006857600080fd5b506100956004803603602081101561007f57600080fd5b8101908080359060200190929190505050610155565b604051808215151515815260200191505060405180910390f35b3480156100bb57600080fd5b506100e8600480360360208110156100d257600080fd5b8101908080359060200190929190505050610173565b604051808215151515815260200191505060405180910390f35b34801561010e57600080fd5b5061013b6004803603602081101561012557600080fd5b8101908080359060200190929190505050610191565b604051808215151515815260200191505060405180910390f35b60006080821415610169576000905061016e565b600190505b919050565b60006080821415610187576000905061018c565b600190505b919050565b600060808214156101a557600090506101aa565b600190505b91905056fea165627a7a723058209dbf991e34d14767eff28790f50e426b497756f49d37074c1bed822c1d0b686e0029",
  "source": "pragma solidity ^0.5.0;\n\ncontract TestContract{\n\nconstructor() public {\n}\n\nfunction TestOne(uint a) public view returns(bool success){\n  if (a == 128){\n    return false;\n  }\n  else{\n      return true;\n  }\n}\n\nfunction TestTwo(uint b) public view returns(bool success){\n  if (b == 128){\n    return false;\n  }\n  else{\n      return true;\n  }\n}\n\nfunction TestThree(uint c) public view returns(bool success){\n  if (c == 128){\n    return false;\n  }\n  else{\n      return true;\n  }\n}\n}\n",
  "sourcePath": "/home/stefan/JADS/Scriptie/Master_Thesis/Code/Smart Contracts/eq631/contracts/TestContract.sol",
  "compiler": {
    "name": "solc",
    "version": "0.5.0+commit.1d4f565a.Emscripten.clang"
  },
  "schemaVersion": "3.0.9",
  "updatedAt": "2019-05-30T19:40:01.484Z",
  "devdoc": {
    "methods": {}
  },
  "userdoc": {
    "methods": {}
  }
}