{
  "contractName": "Randomness",
  "abi": [
    {
      "inputs": [],
      "payable": false,
      "stateMutability": "nonpayable",
      "type": "constructor"
    },
    {
      "constant": false,
      "inputs": [
        {
          "name": "_sealedSeed",
          "type": "bytes32"
        }
      ],
      "name": "setSealedSeed",
      "outputs": [],
      "payable": false,
      "stateMutability": "nonpayable",
      "type": "function"
    },
    {
      "constant": false,
      "inputs": [],
      "name": "bet",
      "outputs": [],
      "payable": false,
      "stateMutability": "nonpayable",
      "type": "function"
    },
    {
      "constant": false,
      "inputs": [
        {
          "name": "_seed",
          "type": "bytes32"
        }
      ],
      "name": "reveal",
      "outputs": [],
      "payable": false,
      "stateMutability": "nonpayable",
      "type": "function"
    }
  ],
  "bytecode": "0x60806040526000600160006101000a81548160ff02191690831515021790555060006001806101000a81548160ff02191690831515021790555034801561004557600080fd5b5033600360006101000a81548173ffffffffffffffffffffffffffffffffffffffff021916908373ffffffffffffffffffffffffffffffffffffffff160217905550610311806100966000396000f300608060405260043610610057576000357c0100000000000000000000000000000000000000000000000000000000900463ffffffff16806311610c251461005c5780634111453814610073578063701fd0f1146100a4575b600080fd5b34801561006857600080fd5b506100716100d5565b005b34801561007f57600080fd5b506100a260048036038101908080356000191690602001909291905050506100f2565b005b3480156100b057600080fd5b506100d360048036038101908080356000191690602001909291905050506101b6565b005b6001809054906101000a900460ff161515156100f057600080fd5b565b600160009054906101000a900460ff1615151561010e57600080fd5b600360009054906101000a900473ffffffffffffffffffffffffffffffffffffffff1673ffffffffffffffffffffffffffffffffffffffff163373ffffffffffffffffffffffffffffffffffffffff1614151561016a57600080fd5b60018060016101000a81548160ff02191690831515021790555080600081600019169055506001430160028190555060018060006101000a81548160ff02191690831515021790555050565b6000600160009054906101000a900460ff1615156101d357600080fd5b6001809054906101000a900460ff1615156101ed57600080fd5b436002541015156101fd57600080fd5b600054600019163383604051808373ffffffffffffffffffffffffffffffffffffffff1673ffffffffffffffffffffffffffffffffffffffff166c0100000000000000000000000002815260140182600019166000191681526020019250505060405180910390206000191614151561027557600080fd5b816002544060405180836000191660001916815260200182600019166000191681526020019250505060405180910390206001900490506000600160006101000a81548160ff02191690831515021790555060006001806101000a81548160ff02191690831515021790555050505600a165627a7a72305820fdd5b2f85e6f8dc76e7ccc65158acf259b363968b095475855eb1c92a9104dcd0029",
  "source": "// This code has not been professionally audited, therefore I cannot make any promises about\n// safety or correctness. Use at own risk.\n\npragma solidity ^0.4.22;\n\ncontract Randomness {\n\n    bytes32 sealedSeed;\n    bool seedSet = false;\n    bool betsClosed = false;\n    uint storedBlockNumber;\n    address trustedParty;\n\n    function Randomness() public {\n      trustedParty = msg.sender;\n    }\n\n    function setSealedSeed(bytes32 _sealedSeed) public {\n        require(!seedSet);\n        require (msg.sender == trustedParty);\n        betsClosed = true;\n        sealedSeed = _sealedSeed;\n        storedBlockNumber = block.number + 1;\n        seedSet = true;\n    }\n\n    function bet() public {\n        require(!betsClosed);\n        // Make bets here\n    }\n\n    function reveal(bytes32 _seed) public {\n        require(seedSet);\n        require(betsClosed);\n        require(storedBlockNumber < block.number);\n        require(keccak256(msg.sender, _seed) == sealedSeed);\n        uint random = uint(keccak256(_seed, blockhash(storedBlockNumber)));\n        // Insert logic for usage of random number here;\n        seedSet = false;\n        betsClosed = false;\n    }\n}\n",
  "sourcePath": "/Users/stefan/Documents/PhD/SolMOSA/Smart Contracts/RWContracts/Randomness/contracts/Randomness.sol",
  "compiler": {
    "name": "solc",
    "version": "0.4.22+commit.4cb486ee.Emscripten.clang"
  },
  "schemaVersion": "3.0.19",
  "updatedAt": "2020-04-02T15:03:50.045Z",
  "devdoc": {
    "methods": {}
  },
  "userdoc": {
    "methods": {}
  }
}