{
  "contractName": "theRun",
  "abi": [
    {
      "inputs": [],
      "payable": false,
      "stateMutability": "nonpayable",
      "type": "constructor"
    },
    {
      "payable": false,
      "stateMutability": "nonpayable",
      "type": "fallback"
    },
    {
      "constant": false,
      "inputs": [
        {
          "name": "_owner",
          "type": "address"
        }
      ],
      "name": "ChangeOwnership",
      "outputs": [],
      "payable": false,
      "stateMutability": "nonpayable",
      "type": "function"
    },
    {
      "constant": true,
      "inputs": [],
      "name": "WatchBalance",
      "outputs": [
        {
          "name": "TotalBalance",
          "type": "uint256"
        }
      ],
      "payable": false,
      "stateMutability": "view",
      "type": "function"
    },
    {
      "constant": true,
      "inputs": [],
      "name": "WatchBalanceInEther",
      "outputs": [
        {
          "name": "TotalBalanceInEther",
          "type": "uint256"
        }
      ],
      "payable": false,
      "stateMutability": "view",
      "type": "function"
    },
    {
      "constant": false,
      "inputs": [],
      "name": "CollectAllFees",
      "outputs": [],
      "payable": false,
      "stateMutability": "nonpayable",
      "type": "function"
    },
    {
      "constant": false,
      "inputs": [
        {
          "name": "p",
          "type": "uint256"
        }
      ],
      "name": "GetAndReduceFeesByFraction",
      "outputs": [],
      "payable": false,
      "stateMutability": "nonpayable",
      "type": "function"
    },
    {
      "constant": true,
      "inputs": [],
      "name": "NextPayout",
      "outputs": [
        {
          "name": "NextPayout",
          "type": "uint256"
        }
      ],
      "payable": false,
      "stateMutability": "view",
      "type": "function"
    },
    {
      "constant": true,
      "inputs": [],
      "name": "WatchFees",
      "outputs": [
        {
          "name": "CollectedFees",
          "type": "uint256"
        }
      ],
      "payable": false,
      "stateMutability": "view",
      "type": "function"
    },
    {
      "constant": true,
      "inputs": [],
      "name": "WatchWinningPot",
      "outputs": [
        {
          "name": "WinningPot",
          "type": "uint256"
        }
      ],
      "payable": false,
      "stateMutability": "view",
      "type": "function"
    },
    {
      "constant": true,
      "inputs": [],
      "name": "WatchLastPayout",
      "outputs": [
        {
          "name": "payout",
          "type": "uint256"
        }
      ],
      "payable": false,
      "stateMutability": "view",
      "type": "function"
    },
    {
      "constant": true,
      "inputs": [],
      "name": "Total_of_Players",
      "outputs": [
        {
          "name": "NumberOfPlayers",
          "type": "uint256"
        }
      ],
      "payable": false,
      "stateMutability": "view",
      "type": "function"
    },
    {
      "constant": true,
      "inputs": [
        {
          "name": "id",
          "type": "uint256"
        }
      ],
      "name": "PlayerInfo",
      "outputs": [
        {
          "name": "Address",
          "type": "address"
        },
        {
          "name": "Payout",
          "type": "uint256"
        },
        {
          "name": "UserPaid",
          "type": "bool"
        }
      ],
      "payable": false,
      "stateMutability": "view",
      "type": "function"
    },
    {
      "constant": true,
      "inputs": [],
      "name": "PayoutQueueSize",
      "outputs": [
        {
          "name": "QueueSize",
          "type": "uint256"
        }
      ],
      "payable": false,
      "stateMutability": "view",
      "type": "function"
    }
  ],
  "bytecode": "0x60606040526000805560006001556000600255600060035561044c60045560006005556014600655601e600755341561003757600080fd5b33600860006101000a81548173ffffffffffffffffffffffffffffffffffffffff021916908373ffffffffffffffffffffffffffffffffffffffff160217905550610c94806100876000396000f3006060604052600436106100ba576000357c0100000000000000000000000000000000000000000000000000000000900463ffffffff16806320bfec70146100cf578063244ded7a146100f857806363aea3e0146101315780636b3a87d2146101a65780637879e19e146101cf57806385db2dda146101e4578063a88c5ef71461020d578063c8edf65e14610236578063c9734ebd14610259578063d628e0a614610282578063dc19266f146102ab578063e0834ea4146102d4575b34156100c557600080fd5b6100cd6102fd565b005b34156100da57600080fd5b6100e26103b9565b6040518082815260200191505060405180910390f35b341561010357600080fd5b61012f600480803573ffffffffffffffffffffffffffffffffffffffff169060200190919050506103cf565b005b341561013c57600080fd5b610152600480803590602001909190505061046a565b604051808473ffffffffffffffffffffffffffffffffffffffff1673ffffffffffffffffffffffffffffffffffffffff16815260200183815260200182151515158152602001935050505060405180910390f35b34156101b157600080fd5b6101b9610527565b6040518082815260200191505060405180910390f35b34156101da57600080fd5b6101e261053b565b005b34156101ef57600080fd5b6101f7610617565b6040518082815260200191505060405180910390f35b341561021857600080fd5b610220610628565b6040518082815260200191505060405180910390f35b341561024157600080fd5b610257600480803590602001909190505061065e565b005b341561026457600080fd5b61026c61075f565b6040518082815260200191505060405180910390f35b341561028d57600080fd5b610295610769565b6040518082815260200191505060405180910390f35b34156102b657600080fd5b6102be61077f565b6040518082815260200191505060405180910390f35b34156102df57600080fd5b6102e761078c565b6040518082815260200191505060405180910390f35b60003490506706f05b59d3b2000034101561034d573373ffffffffffffffffffffffffffffffffffffffff166108fc349081150290604051600060405180830381858888f19350505050506103b6565b6801158e460913d000003411156103ac573373ffffffffffffffffffffffffffffffffffffffff166108fc6801158e460913d0000034039081150290604051600060405180830381858888f19350505050506801158e460913d0000090505b6103b5816107a9565b5b50565b600060016005548115156103c957fe5b04905090565b600860009054906101000a900473ffffffffffffffffffffffffffffffffffffffff1673ffffffffffffffffffffffffffffffffffffffff163373ffffffffffffffffffffffffffffffffffffffff1614156104675780600860006101000a81548173ffffffffffffffffffffffffffffffffffffffff021916908373ffffffffffffffffffffffffffffffffffffffff1602179055505b50565b6000806000600980549050841115156105205760098481548110151561048c57fe5b906000526020600020906003020160000160009054906101000a900473ffffffffffffffffffffffffffffffffffffffff16925060016009858154811015156104d157fe5b9060005260206000209060030201600101548115156104ec57fe5b0491506009848154811015156104fe57fe5b906000526020600020906003020160020160009054906101000a900460ff1690505b9193909250565b600060018181151561053557fe5b04905090565b600860009054906101000a900473ffffffffffffffffffffffffffffffffffffffff1673ffffffffffffffffffffffffffffffffffffffff163373ffffffffffffffffffffffffffffffffffffffff16141561061557600060055414156105a157600080fd5b600860009054906101000a900473ffffffffffffffffffffffffffffffffffffffff1673ffffffffffffffffffffffffffffffffffffffff166108fc6005549081150290604051600060405180830381858888f1935050505050600160066000828254039250508190555060006005819055505b565b600060015460098054905003905090565b60006001600960015481548110151561063d57fe5b90600052602060002090600302016001015481151561065857fe5b04905090565b600860009054906101000a900473ffffffffffffffffffffffffffffffffffffffff1673ffffffffffffffffffffffffffffffffffffffff163373ffffffffffffffffffffffffffffffffffffffff16141561075c57600060055414156106d15760016006600082825403925050819055505b600860009054906101000a900473ffffffffffffffffffffffffffffffffffffffff1673ffffffffffffffffffffffffffffffffffffffff166108fc826103e860055481151561071d57fe5b04029081150290604051600060405180830381858888f1935050505050806103e860055481151561074a57fe5b04026005600082825403925050819055505b50565b6000600254905090565b6000600160005481151561077957fe5b04905090565b6000600980549050905090565b6000670de0b6b3a76400006000548115156107a357fe5b04905090565b6000806004549150670de0b6b3a76400006000541080156107cf57506001600980549050115b156107db576064820191505b6000600a6009805490508115156107ee57fe5b0614801561080157506001600980549050115b1561080d576064820191505b600980548060010182816108219190610bd4565b916000526020600020906003020160006060604051908101604052803373ffffffffffffffffffffffffffffffffffffffff1681526020016103e887890281151561086857fe5b04815260200160001515815250909190915060008201518160000160006101000a81548173ffffffffffffffffffffffffffffffffffffffff021916908373ffffffffffffffffffffffffffffffffffffffff1602179055506020820151816001015560408201518160020160006101000a81548160ff0219169083151502179055505050506103e860075484028115156108ff57fe5b046003600082825401925050819055506103e8600654840281151561092057fe5b046005600082825401925050819055506103e8600754600654016103e803840281151561094957fe5b046000808282540192505081905550670de0b6b3a7640000831180156109905750600960015481548110151561097b57fe5b90600052602060002090600302016001015483115b156109f85761099f6064610b4e565b90506000600a828115156109af57fe5b0614156109f7573373ffffffffffffffffffffffffffffffffffffffff166108fc6003549081150290604051600060405180830381858888f193505050505060006003819055505b5b5b6009600154815481101515610a0a57fe5b9060005260206000209060030201600101546000541115610b49576009600154815481101515610a3657fe5b9060005260206000209060030201600101546002819055506009600154815481101515610a5f57fe5b906000526020600020906003020160000160009054906101000a900473ffffffffffffffffffffffffffffffffffffffff1673ffffffffffffffffffffffffffffffffffffffff166108fc6002549081150290604051600060405180830381858888f19350505050506009600154815481101515610ad957fe5b906000526020600020906003020160010154600080828254039250508190555060016009600154815481101515610b0c57fe5b906000526020600020906003020160020160006101000a81548160ff021916908315150217905550600180600082825401925050819055506109f9565b505050565b60008060008060008560644202811515610b6457fe5b049350600542811515610b7357fe5b06434202811515610b8057fe5b0492508260025461012c42811515610b9457fe5b06600343811515610ba157fe5b04010101915081406001900490506001868583811515610bbd57fe5b04811515610bc757fe5b0601945050505050919050565b815481835581811511610c0157600302816003028360005260206000209182019101610c009190610c06565b5b505050565b610c6591905b80821115610c6157600080820160006101000a81549073ffffffffffffffffffffffffffffffffffffffff021916905560018201600090556002820160006101000a81549060ff021916905550600301610c0c565b5090565b905600a165627a7a72305820b69d65c47c6b2b5aa887e87f27bebc76317e1139fd3647d4ea6b05973fd684a20029",
  "source": "contract theRun {\n        uint private Balance = 0;\n        uint private Payout_id = 0;\n        uint private Last_Payout = 0;\n        uint private WinningPot = 0;\n        uint private Min_multiplier = 1100; //110%\n\n\n        //Fees are necessary and set very low, to maintain the website. The fees will decrease each time they are collected.\n        //Fees are just here to maintain the website at beginning, and will progressively go to 0% :)\n        uint private fees = 0;\n        uint private feeFrac = 20; //Fraction for fees in per\"thousand\", not percent, so 20 is 2%\n\n        uint private PotFrac = 30; //For the WinningPot ,30=> 3% are collected. This is fixed.\n\n\n        address private admin;\n\n        function theRun() {\n            admin = msg.sender;\n        }\n\n        modifier onlyowner {if (msg.sender == admin) _;  }\n\n        struct Player {\n            address addr;\n            uint payout;\n            bool paid;\n        }\n\n        Player[] private players;\n\n        //--Fallback function\n        function() {\n            init();\n        }\n\n        //--initiated function\n        function init() private {\n            uint deposit=msg.value;\n            if (msg.value < 500 finney) { //only participation with >1 ether accepted\n                    msg.sender.send(msg.value);\n                    return;\n            }\n            if (msg.value > 20 ether) { //only participation with <20 ether accepted\n                    msg.sender.send(msg.value- (20 ether));\n                    deposit=20 ether;\n            }\n            Participate(deposit);\n        }\n\n        //------- Core of the game----------\n        function Participate(uint deposit) private {\n                //calculate the multiplier to apply to the future payout\n\n\n                uint total_multiplier=Min_multiplier; //initiate total_multiplier\n                if(Balance < 1 ether && players.length>1){\n                    total_multiplier+=100; // + 10 %\n                }\n                if( (players.length % 10)==0 && players.length>1 ){ //Every 10th participant gets a 10% bonus, play smart !\n                    total_multiplier+=100; // + 10 %\n                }\n\n                //add new player in the queue !\n                players.push(Player(msg.sender, (deposit * total_multiplier) / 1000, false));\n\n                //--- UPDATING CONTRACT STATS ----\n                WinningPot += (deposit * PotFrac) / 1000; // take some 3% to add for the winning pot !\n                fees += (deposit * feeFrac) / 1000; // collect maintenance fees 2%\n                Balance += (deposit * (1000 - ( feeFrac + PotFrac ))) / 1000; // update balance\n\n                // Winning the Pot :) Condition : paying at least 1 people with deposit > 2 ether and having luck !\n                if(  ( deposit > 1 ether ) && (deposit > players[Payout_id].payout) ){\n                    uint roll = random(100); //take a random number between 1 & 100\n                    if( roll % 10 == 0 ){ //if lucky : Chances : 1 out of 10 !\n                        msg.sender.send(WinningPot); // Bravo !\n                        WinningPot=0;\n                    }\n\n                }\n\n                //Classic payout for the participants\n                while ( Balance > players[Payout_id].payout ) {\n                    Last_Payout = players[Payout_id].payout;\n                    players[Payout_id].addr.send(Last_Payout); //pay the man, please !\n                    Balance -= players[Payout_id].payout; //update the balance\n                    players[Payout_id].paid=true;\n\n                    Payout_id += 1;\n                }\n        }\n\n\n\n    uint256 constant private salt =  block.timestamp;\n\n    function random(uint Max) constant private returns (uint256 result){\n        //get the best seed for randomness\n        uint256 x = salt * 100 / Max;\n        uint256 y = salt * block.number / (salt % 5) ;\n        uint256 seed = block.number/3 + (salt % 300) + Last_Payout +y;\n        uint256 h = uint256(block.blockhash(seed));\n\n        return uint256((h / x)) % Max + 1; //random number between 1 and Max\n    }\n\n\n\n    //---Contract management functions\n    function ChangeOwnership(address _owner) onlyowner {\n        admin = _owner;\n    }\n    function WatchBalance() constant returns(uint TotalBalance) {\n        TotalBalance = Balance /  1 wei;\n    }\n\n    function WatchBalanceInEther() constant returns(uint TotalBalanceInEther) {\n        TotalBalanceInEther = Balance /  1 ether;\n    }\n\n\n    //Fee functions for creator\n    function CollectAllFees() onlyowner {\n        if (fees == 0) throw;\n        admin.send(fees);\n        feeFrac-=1;\n        fees = 0;\n    }\n\n    function GetAndReduceFeesByFraction(uint p) onlyowner {\n        if (fees == 0) feeFrac-=1; //Reduce fees.\n        admin.send(fees / 1000 * p);//send a percent of fees\n        fees -= fees / 1000 * p;\n    }\n\n\n//---Contract informations\nfunction NextPayout() constant returns(uint NextPayout) {\n    NextPayout = players[Payout_id].payout /  1 wei;\n}\n\nfunction WatchFees() constant returns(uint CollectedFees) {\n    CollectedFees = fees / 1 wei;\n}\n\n\nfunction WatchWinningPot() constant returns(uint WinningPot) {\n    WinningPot = WinningPot / 1 wei;\n}\n\nfunction WatchLastPayout() constant returns(uint payout) {\n    payout = Last_Payout;\n}\n\nfunction Total_of_Players() constant returns(uint NumberOfPlayers) {\n    NumberOfPlayers = players.length;\n}\n\nfunction PlayerInfo(uint id) constant returns(address Address, uint Payout, bool UserPaid) {\n    if (id <= players.length) {\n        Address = players[id].addr;\n        Payout = players[id].payout / 1 wei;\n        UserPaid=players[id].paid;\n    }\n}\n\nfunction PayoutQueueSize() constant returns(uint QueueSize) {\n    QueueSize = players.length - Payout_id;\n}\n\n}\n",
  "sourcePath": "/Users/stefan/Documents/PhD/SolMOSA/Smart Contracts/RWContracts/theRun/contracts/theRun.sol",
  "compiler": {
    "name": "solc",
    "version": "0.4.21+commit.dfe3193c.Emscripten.clang"
  },
  "schemaVersion": "3.0.19",
  "updatedAt": "2020-04-10T07:57:17.549Z",
  "devdoc": {
    "methods": {}
  },
  "userdoc": {
    "methods": {}
  }
}