{
  "contractName": "Strings",
  "abi": [
    {
      "constant": true,
      "inputs": [
        {
          "internalType": "string",
          "name": "_base",
          "type": "string"
        },
        {
          "internalType": "string",
          "name": "_value",
          "type": "string"
        }
      ],
      "name": "concat",
      "outputs": [
        {
          "internalType": "string",
          "name": "",
          "type": "string"
        }
      ],
      "payable": false,
      "stateMutability": "pure",
      "type": "function"
    },
    {
      "constant": true,
      "inputs": [
        {
          "internalType": "string",
          "name": "_base",
          "type": "string"
        },
        {
          "internalType": "string",
          "name": "_value",
          "type": "string"
        }
      ],
      "name": "indexOf",
      "outputs": [
        {
          "internalType": "int256",
          "name": "",
          "type": "int256"
        }
      ],
      "payable": false,
      "stateMutability": "pure",
      "type": "function"
    },
    {
      "constant": true,
      "inputs": [
        {
          "internalType": "string",
          "name": "_base",
          "type": "string"
        },
        {
          "internalType": "string",
          "name": "_value",
          "type": "string"
        },
        {
          "internalType": "uint256",
          "name": "_offset",
          "type": "uint256"
        }
      ],
      "name": "_indexOf",
      "outputs": [
        {
          "internalType": "int256",
          "name": "",
          "type": "int256"
        }
      ],
      "payable": false,
      "stateMutability": "pure",
      "type": "function"
    },
    {
      "constant": true,
      "inputs": [
        {
          "internalType": "string",
          "name": "_base",
          "type": "string"
        }
      ],
      "name": "length",
      "outputs": [
        {
          "internalType": "uint256",
          "name": "",
          "type": "uint256"
        }
      ],
      "payable": false,
      "stateMutability": "pure",
      "type": "function"
    },
    {
      "constant": true,
      "inputs": [
        {
          "internalType": "string",
          "name": "_base",
          "type": "string"
        },
        {
          "internalType": "int256",
          "name": "_length",
          "type": "int256"
        }
      ],
      "name": "substring",
      "outputs": [
        {
          "internalType": "string",
          "name": "",
          "type": "string"
        }
      ],
      "payable": false,
      "stateMutability": "pure",
      "type": "function"
    },
    {
      "constant": true,
      "inputs": [
        {
          "internalType": "string",
          "name": "_base",
          "type": "string"
        },
        {
          "internalType": "int256",
          "name": "_length",
          "type": "int256"
        },
        {
          "internalType": "int256",
          "name": "_offset",
          "type": "int256"
        }
      ],
      "name": "_substring",
      "outputs": [
        {
          "internalType": "string",
          "name": "",
          "type": "string"
        }
      ],
      "payable": false,
      "stateMutability": "pure",
      "type": "function"
    },
    {
      "constant": true,
      "inputs": [
        {
          "internalType": "string",
          "name": "_base",
          "type": "string"
        },
        {
          "internalType": "string",
          "name": "_value",
          "type": "string"
        }
      ],
      "name": "compareTo",
      "outputs": [
        {
          "internalType": "bool",
          "name": "",
          "type": "bool"
        }
      ],
      "payable": false,
      "stateMutability": "pure",
      "type": "function"
    },
    {
      "constant": true,
      "inputs": [
        {
          "internalType": "string",
          "name": "_base",
          "type": "string"
        },
        {
          "internalType": "string",
          "name": "_value",
          "type": "string"
        }
      ],
      "name": "compareToIgnoreCase",
      "outputs": [
        {
          "internalType": "bool",
          "name": "",
          "type": "bool"
        }
      ],
      "payable": false,
      "stateMutability": "pure",
      "type": "function"
    },
    {
      "constant": true,
      "inputs": [
        {
          "internalType": "string",
          "name": "_base",
          "type": "string"
        }
      ],
      "name": "upper",
      "outputs": [
        {
          "internalType": "string",
          "name": "",
          "type": "string"
        }
      ],
      "payable": false,
      "stateMutability": "pure",
      "type": "function"
    },
    {
      "constant": true,
      "inputs": [
        {
          "internalType": "string",
          "name": "_base",
          "type": "string"
        }
      ],
      "name": "lower",
      "outputs": [
        {
          "internalType": "string",
          "name": "",
          "type": "string"
        }
      ],
      "payable": false,
      "stateMutability": "pure",
      "type": "function"
    }
  ],
  "bytecode": "0x608060405234801561001057600080fd5b50611582806100206000396000f3fe608060405234801561001057600080fd5b506004361061009e5760003560e01c806389c19ddb1161006657806389c19ddb146106b45780638a0807b71461087f5780638f0563b9146109e5578063a586fd0f14610b23578063f9ce67dd14610c6b5761009e565b806326f86791146100a3578063436a66e7146102135780637d1a6e3f146102e25780637e9ad0461461044c57806384b2e59d14610580575b600080fd5b6101fd600480360360608110156100b957600080fd5b81019080803590602001906401000000008111156100d657600080fd5b8201836020820111156100e857600080fd5b8035906020019184600183028401116401000000008311171561010a57600080fd5b91908080601f016020809104026020016040519081016040528093929190818152602001838380828437600081840152601f19601f8201169050808301925050505050505091929192908035906020019064010000000081111561016d57600080fd5b82018360208201111561017f57600080fd5b803590602001918460018302840111640100000000831117156101a157600080fd5b91908080601f016020809104026020016040519081016040528093929190818152602001838380828437600081840152601f19601f82011690508083019250505050505050919291929080359060200190929190505050610dd5565b6040518082815260200191505060405180910390f35b6102cc6004803603602081101561022957600080fd5b810190808035906020019064010000000081111561024657600080fd5b82018360208201111561025857600080fd5b8035906020019184600183028401116401000000008311171561027a57600080fd5b91908080601f016020809104026020016040519081016040528093929190818152602001838380828437600081840152601f19601f820116905080830192505050505050509192919290505050610eba565b6040518082815260200191505060405180910390f35b610432600480360360408110156102f857600080fd5b810190808035906020019064010000000081111561031557600080fd5b82018360208201111561032757600080fd5b8035906020019184600183028401116401000000008311171561034957600080fd5b91908080601f016020809104026020016040519081016040528093929190818152602001838380828437600081840152601f19601f820116905080830192505050505050509192919290803590602001906401000000008111156103ac57600080fd5b8201836020820111156103be57600080fd5b803590602001918460018302840111640100000000831117156103e057600080fd5b91908080601f016020809104026020016040519081016040528093929190818152602001838380828437600081840152601f19601f820116905080830192505050505050509192919290505050610ecb565b604051808215151515815260200191505060405180910390f35b6105056004803603602081101561046257600080fd5b810190808035906020019064010000000081111561047f57600080fd5b82018360208201111561049157600080fd5b803590602001918460018302840111640100000000831117156104b357600080fd5b91908080601f016020809104026020016040519081016040528093929190818152602001838380828437600081840152601f19601f820116905080830192505050505050509192919290505050610f98565b6040518080602001828103825283818151815260200191508051906020019080838360005b8381101561054557808201518184015260208101905061052a565b50505050905090810190601f1680156105725780820380516001836020036101000a031916815260200191505b509250505060405180910390f35b6106396004803603602081101561059657600080fd5b81019080803590602001906401000000008111156105b357600080fd5b8201836020820111156105c557600080fd5b803590602001918460018302840111640100000000831117156105e757600080fd5b91908080601f016020809104026020016040519081016040528093929190818152602001838380828437600081840152601f19601f82011690508083019250505050505050919291929050505061101e565b6040518080602001828103825283818151815260200191508051906020019080838360005b8381101561067957808201518184015260208101905061065e565b50505050905090810190601f1680156106a65780820380516001836020036101000a031916815260200191505b509250505060405180910390f35b610804600480360360408110156106ca57600080fd5b81019080803590602001906401000000008111156106e757600080fd5b8201836020820111156106f957600080fd5b8035906020019184600183028401116401000000008311171561071b57600080fd5b91908080601f016020809104026020016040519081016040528093929190818152602001838380828437600081840152601f19601f8201169050808301925050505050505091929192908035906020019064010000000081111561077e57600080fd5b82018360208201111561079057600080fd5b803590602001918460018302840111640100000000831117156107b257600080fd5b91908080601f016020809104026020016040519081016040528093929190818152602001838380828437600081840152601f19601f8201169050808301925050505050505091929192905050506110a4565b6040518080602001828103825283818151815260200191508051906020019080838360005b83811015610844578082015181840152602081019050610829565b50505050905090810190601f1680156108715780820380516001836020036101000a031916815260200191505b509250505060405180910390f35b6109cf6004803603604081101561089557600080fd5b81019080803590602001906401000000008111156108b257600080fd5b8201836020820111156108c457600080fd5b803590602001918460018302840111640100000000831117156108e657600080fd5b91908080601f016020809104026020016040519081016040528093929190818152602001838380828437600081840152601f19601f8201169050808301925050505050505091929192908035906020019064010000000081111561094957600080fd5b82018360208201111561095b57600080fd5b8035906020019184600183028401116401000000008311171561097d57600080fd5b91908080601f016020809104026020016040519081016040528093929190818152602001838380828437600081840152601f19601f8201169050808301925050505050505091929192905050506111f3565b6040518082815260200191505060405180910390f35b610aa8600480360360408110156109fb57600080fd5b8101908080359060200190640100000000811115610a1857600080fd5b820183602082011115610a2a57600080fd5b80359060200191846001830284011164010000000083111715610a4c57600080fd5b91908080601f016020809104026020016040519081016040528093929190818152602001838380828437600081840152601f19601f82011690508083019250505050505050919291929080359060200190929190505050611209565b6040518080602001828103825283818151815260200191508051906020019080838360005b83811015610ae8578082015181840152602081019050610acd565b50505050905090810190601f168015610b155780820380516001836020036101000a031916815260200191505b509250505060405180910390f35b610bf060048036036060811015610b3957600080fd5b8101908080359060200190640100000000811115610b5657600080fd5b820183602082011115610b6857600080fd5b80359060200191846001830284011164010000000083111715610b8a57600080fd5b91908080601f016020809104026020016040519081016040528093929190818152602001838380828437600081840152601f19601f820116905080830192505050505050509192919290803590602001909291908035906020019092919050505061121f565b6040518080602001828103825283818151815260200191508051906020019080838360005b83811015610c30578082015181840152602081019050610c15565b50505050905090810190601f168015610c5d5780820380516001836020036101000a031916815260200191505b509250505060405180910390f35b610dbb60048036036040811015610c8157600080fd5b8101908080359060200190640100000000811115610c9e57600080fd5b820183602082011115610cb057600080fd5b80359060200191846001830284011164010000000083111715610cd257600080fd5b91908080601f016020809104026020016040519081016040528093929190818152602001838380828437600081840152601f19601f82011690508083019250505050505050919291929080359060200190640100000000811115610d3557600080fd5b820183602082011115610d4757600080fd5b80359060200191846001830284011164010000000083111715610d6957600080fd5b91908080601f016020809104026020016040519081016040528093929190818152602001838380828437600081840152601f19601f8201169050808301925050505050505091929192905050506112f8565b604051808215151515815260200191505060405180910390f35b6000606084905060608490506001815114610dec57fe5b60008490505b8251811015610e8c5781600081518110610e0857fe5b602001015160f81c60f81b7effffffffffffffffffffffffffffffffffffffffffffffffffffffffffffff1916838281518110610e4157fe5b602001015160f81c60f81b7effffffffffffffffffffffffffffffffffffffffffffffffffffffffffffff19161415610e7f57809350505050610eb3565b8080600101915050610df2565b507fffffffffffffffffffffffffffffffffffffffffffffffffffffffffffffffff925050505b9392505050565b600060608290508051915050919050565b6000606083905060608390508051825114610eeb57600092505050610f92565b60008090505b8251811015610f8a57818181518110610f0657fe5b602001015160f81c60f81b7effffffffffffffffffffffffffffffffffffffffffffffffffffffffffffff1916838281518110610f3f57fe5b602001015160f81c60f81b7effffffffffffffffffffffffffffffffffffffffffffffffffffffffffffff191614610f7d5760009350505050610f92565b8080600101915050610ef1565b506001925050505b92915050565b60608082905060008090505b815181101561101457610fcc828281518110610fbc57fe5b602001015160f81c60f81b611453565b828281518110610fd857fe5b60200101907effffffffffffffffffffffffffffffffffffffffffffffffffffffffffffff1916908160001a9053508080600101915050610fa4565b5080915050919050565b60608082905060008090505b815181101561109a5761105282828151811061104257fe5b602001015160f81c60f81b6114d0565b82828151811061105e57fe5b60200101907effffffffffffffffffffffffffffffffffffffffffffffffffffffffffffff1916908160001a905350808060010191505061102a565b5080915050919050565b606080839050606083905060008151116110ba57fe5b606081518351016040519080825280601f01601f1916602001820160405280156110f35781602001600182028038833980820191505090505b5090506060819050600080600091505b85518210156111715785828151811061111857fe5b602001015160f81c60f81b83828060010193508151811061113557fe5b60200101907effffffffffffffffffffffffffffffffffffffffffffffffffffffffffffff1916908160001a9053508180600101925050611103565b600091505b84518210156111e45784828151811061118b57fe5b602001015160f81c60f81b8382806001019350815181106111a857fe5b60200101907effffffffffffffffffffffffffffffffffffffffffffffffffffffffffffff1916908160001a9053508180600101925050611176565b82965050505050505092915050565b600061120183836000610dd5565b905092915050565b60606112178383600061121f565b905092915050565b6060808490508051848401111561123257fe5b6060846040519080825280601f01601f1916602001820160405280156112675781602001600182028038833980820191505090505b5090506060819050600080905060008690505b8787018110156112e95784818151811061129057fe5b602001015160f81c60f81b8383806001019450815181106112ad57fe5b60200101907effffffffffffffffffffffffffffffffffffffffffffffffffffffffffffff1916908160001a905350808060010191505061127a565b50819450505050509392505050565b60006060839050606083905080518251146113185760009250505061144d565b60008090505b82518110156114455781818151811061133357fe5b602001015160f81c60f81b7effffffffffffffffffffffffffffffffffffffffffffffffffffffffffffff191683828151811061136c57fe5b602001015160f81c60f81b7effffffffffffffffffffffffffffffffffffffffffffffffffffffffffffff19161415801561142757506113c18282815181106113b157fe5b602001015160f81c60f81b611453565b7effffffffffffffffffffffffffffffffffffffffffffffffffffffffffffff19166114028483815181106113f257fe5b602001015160f81c60f81b611453565b7effffffffffffffffffffffffffffffffffffffffffffffffffffffffffffff191614155b15611438576000935050505061144d565b808060010191505061131e565b506001925050505b92915050565b6000606160f81b827effffffffffffffffffffffffffffffffffffffffffffffffffffffffffffff1916101580156114b15750607a60f81b827effffffffffffffffffffffffffffffffffffffffffffffffffffffffffffff191611155b156114c75760208260f81c0360f81b90506114cb565b8190505b919050565b6000604160f81b827effffffffffffffffffffffffffffffffffffffffffffffffffffffffffffff19161015801561152e5750605a60f81b827effffffffffffffffffffffffffffffffffffffffffffffffffffffffffffff191611155b156115445760208260f81c0160f81b9050611548565b8190505b91905056fea265627a7a7231582046cd803de1197088ceabe297456dc4d9aff9e5d39960fdf78ebd7a6686128f2864736f6c634300050c0032",
  "source": "pragma solidity ^0.5.0;\n\n/**\n * Strings Library\n *\n * In summary this is a simple library of string functions which make simple\n * string operations less tedious in solidity.\n *\n * Please be aware these functions can be quite gas heavy so use them only when\n * necessary not to clog the blockchain with expensive transactions.\n *\n * @author James Lockhart <james@n3tw0rk.co.uk>\n */\ncontract Strings {\n\n    /**\n     * Concat (High gas cost)\n     *\n     * Appends two strings together and returns a new value\n     *\n     * @param _base When being used for a data type this is the extended object\n     *              otherwise this is the string which will be the concatenated\n     *              prefix\n     * @param _value The value to be the concatenated suffix\n     * @return string The resulting string from combinging the base and value\n     */\n    function concat(string memory _base, string memory _value)\n        public\n        pure\n        returns (string memory) {\n        bytes memory _baseBytes = bytes(_base);\n        bytes memory _valueBytes = bytes(_value);\n\n        assert(_valueBytes.length > 0);\n\n        string memory _tmpValue = new string(_baseBytes.length +\n            _valueBytes.length);\n        bytes memory _newValue = bytes(_tmpValue);\n\n        uint i;\n        uint j;\n\n        for (i = 0; i < _baseBytes.length; i++) {\n            _newValue[j++] = _baseBytes[i];\n        }\n\n        for (i = 0; i < _valueBytes.length; i++) {\n            _newValue[j++] = _valueBytes[i];\n        }\n\n        return string(_newValue);\n    }\n\n    /**\n     * Index Of\n     *\n     * Locates and returns the position of a character within a string\n     *\n     * @param _base When being used for a data type this is the extended object\n     *              otherwise this is the string acting as the haystack to be\n     *              searched\n     * @param _value The needle to search for, at present this is currently\n     *               limited to one character\n     * @return int The position of the needle starting from 0 and returning -1\n     *             in the case of no matches found\n     */\n    function indexOf(string memory _base, string memory _value)\n        public\n        pure\n        returns (int) {\n        return _indexOf(_base, _value, 0);\n    }\n\n    /**\n     * Index Of\n     *\n     * Locates and returns the position of a character within a string starting\n     * from a defined offset\n     *\n     * @param _base When being used for a data type this is the extended object\n     *              otherwise this is the string acting as the haystack to be\n     *              searched\n     * @param _value The needle to search for, at present this is currently\n     *               limited to one character\n     * @param _offset The starting point to start searching from which can start\n     *                from 0, but must not exceed the length of the string\n     * @return int The position of the needle starting from 0 and returning -1\n     *             in the case of no matches found\n     */\n    function _indexOf(string memory _base, string memory _value, uint _offset)\n        public\n        pure\n        returns (int) {\n        bytes memory _baseBytes = bytes(_base);\n        bytes memory _valueBytes = bytes(_value);\n\n        assert(_valueBytes.length == 1);\n\n        for (uint i = _offset; i < _baseBytes.length; i++) {\n            if (_baseBytes[i] == _valueBytes[0]) {\n                return int(i);\n            }\n        }\n\n        return -1;\n    }\n\n    /**\n     * Length\n     *\n     * Returns the length of the specified string\n     *\n     * @param _base When being used for a data type this is the extended object\n     *              otherwise this is the string to be measured\n     * @return uint The length of the passed string\n     */\n    function length(string memory _base)\n        public\n        pure\n        returns (uint) {\n        bytes memory _baseBytes = bytes(_base);\n        return _baseBytes.length;\n    }\n\n    /**\n     * Sub String\n     *\n     * Extracts the beginning part of a string based on the desired length\n     *\n     * @param _base When being used for a data type this is the extended object\n     *              otherwise this is the string that will be used for\n     *              extracting the sub string from\n     * @param _length The length of the sub string to be extracted from the base\n     * @return string The extracted sub string\n     */\n    function substring(string memory _base, int _length)\n        public\n        pure\n        returns (string memory) {\n        return _substring(_base, _length, 0);\n    }\n\n    /**\n     * Sub String\n     *\n     * Extracts the part of a string based on the desired length and offset. The\n     * offset and length must not exceed the lenth of the base string.\n     *\n     * @param _base When being used for a data type this is the extended object\n     *              otherwise this is the string that will be used for\n     *              extracting the sub string from\n     * @param _length The length of the sub string to be extracted from the base\n     * @param _offset The starting point to extract the sub string from\n     * @return string The extracted sub string\n     */\n    function _substring(string memory _base, int _length, int _offset)\n        public\n        pure\n        returns (string memory) {\n        bytes memory _baseBytes = bytes(_base);\n\n        assert(uint(_offset + _length) <= _baseBytes.length);\n\n        string memory _tmp = new string(uint(_length));\n        bytes memory _tmpBytes = bytes(_tmp);\n\n        uint j = 0;\n        for (uint i = uint(_offset); i < uint(_offset + _length); i++) {\n            _tmpBytes[j++] = _baseBytes[i];\n        }\n\n        return string(_tmpBytes);\n    }\n\n    /**\n     * String Split (Very high gas cost)\n     *\n     * Splits a string into an array of strings based off the delimiter value.\n     * Please note this can be quite a gas expensive function due to the use of\n     * storage so only use if really required.\n     *\n     * @param _base When being used for a data type this is the extended object\n     *               otherwise this is the string value to be split.\n     * @param _value The delimiter to split the string on which must be a single\n     *               character\n     * @return string[] An array of values split based off the delimiter, but\n     *                  do not container the delimiter.\n     */\n    function split(string memory _base, string memory _value)\n        internal\n        pure\n        returns (string[] memory splitArr) {\n        bytes memory _baseBytes = bytes(_base);\n\n        uint _offset = 0;\n        uint _splitsCount = 1;\n        while (_offset < _baseBytes.length - 1) {\n            int _limit = _indexOf(_base, _value, _offset);\n            if (_limit == -1)\n                break;\n            else {\n                _splitsCount++;\n                _offset = uint(_limit) + 1;\n            }\n        }\n\n        splitArr = new string[](_splitsCount);\n\n        _offset = 0;\n        _splitsCount = 0;\n        while (_offset < _baseBytes.length - 1) {\n\n            int _limit = _indexOf(_base, _value, _offset);\n            if (_limit == - 1) {\n                _limit = int(_baseBytes.length);\n            }\n\n            string memory _tmp = new string(uint(_limit) - _offset);\n            bytes memory _tmpBytes = bytes(_tmp);\n\n            uint j = 0;\n            for (uint i = _offset; i < uint(_limit); i++) {\n                _tmpBytes[j++] = _baseBytes[i];\n            }\n            _offset = uint(_limit) + 1;\n            splitArr[_splitsCount++] = string(_tmpBytes);\n        }\n        return splitArr;\n    }\n\n    /**\n     * Compare To\n     *\n     * Compares the characters of two strings, to ensure that they have an\n     * identical footprint\n     *\n     * @param _base When being used for a data type this is the extended object\n     *               otherwise this is the string base to compare against\n     * @param _value The string the base is being compared to\n     * @return bool Simply notates if the two string have an equivalent\n     */\n    function compareTo(string memory _base, string memory _value)\n        public\n        pure\n        returns (bool) {\n        bytes memory _baseBytes = bytes(_base);\n        bytes memory _valueBytes = bytes(_value);\n\n        if (_baseBytes.length != _valueBytes.length) {\n            return false;\n        }\n\n        for (uint i = 0; i < _baseBytes.length; i++) {\n            if (_baseBytes[i] != _valueBytes[i]) {\n                return false;\n            }\n        }\n\n        return true;\n    }\n\n    /**\n     * Compare To Ignore Case (High gas cost)\n     *\n     * Compares the characters of two strings, converting them to the same case\n     * where applicable to alphabetic characters to distinguish if the values\n     * match.\n     *\n     * @param _base When being used for a data type this is the extended object\n     *               otherwise this is the string base to compare against\n     * @param _value The string the base is being compared to\n     * @return bool Simply notates if the two string have an equivalent value\n     *              discarding case\n     */\n    function compareToIgnoreCase(string memory _base, string memory _value)\n        public\n        pure\n        returns (bool) {\n        bytes memory _baseBytes = bytes(_base);\n        bytes memory _valueBytes = bytes(_value);\n\n        if (_baseBytes.length != _valueBytes.length) {\n            return false;\n        }\n\n        for (uint i = 0; i < _baseBytes.length; i++) {\n            if (_baseBytes[i] != _valueBytes[i] &&\n            _upper(_baseBytes[i]) != _upper(_valueBytes[i])) {\n                return false;\n            }\n        }\n\n        return true;\n    }\n\n    /**\n     * Upper\n     *\n     * Converts all the values of a string to their corresponding upper case\n     * value.\n     *\n     * @param _base When being used for a data type this is the extended object\n     *              otherwise this is the string base to convert to upper case\n     * @return string\n     */\n    function upper(string memory _base)\n        public\n        pure\n        returns (string memory) {\n        bytes memory _baseBytes = bytes(_base);\n        for (uint i = 0; i < _baseBytes.length; i++) {\n            _baseBytes[i] = _upper(_baseBytes[i]);\n        }\n        return string(_baseBytes);\n    }\n\n    /**\n     * Lower\n     *\n     * Converts all the values of a string to their corresponding lower case\n     * value.\n     *\n     * @param _base When being used for a data type this is the extended object\n     *              otherwise this is the string base to convert to lower case\n     * @return string\n     */\n    function lower(string memory _base)\n        public\n        pure\n        returns (string memory) {\n        bytes memory _baseBytes = bytes(_base);\n        for (uint i = 0; i < _baseBytes.length; i++) {\n            _baseBytes[i] = _lower(_baseBytes[i]);\n        }\n        return string(_baseBytes);\n    }\n\n    /**\n     * Upper\n     *\n     * Convert an alphabetic character to upper case and return the original\n     * value when not alphabetic\n     *\n     * @param _b1 The byte to be converted to upper case\n     * @return bytes1 The converted value if the passed value was alphabetic\n     *                and in a lower case otherwise returns the original value\n     */\n    function _upper(bytes1 _b1)\n        private\n        pure\n        returns (bytes1) {\n\n        if (_b1 >= 0x61 && _b1 <= 0x7A) {\n            return bytes1(uint8(_b1) - 32);\n        }\n\n        return _b1;\n    }\n\n    /**\n     * Lower\n     *\n     * Convert an alphabetic character to lower case and return the original\n     * value when not alphabetic\n     *\n     * @param _b1 The byte to be converted to lower case\n     * @return bytes1 The converted value if the passed value was alphabetic\n     *                and in a upper case otherwise returns the original value\n     */\n    function _lower(bytes1 _b1)\n        private\n        pure\n        returns (bytes1) {\n\n        if (_b1 >= 0x41 && _b1 <= 0x5A) {\n            return bytes1(uint8(_b1) + 32);\n        }\n\n        return _b1;\n    }\n}\n",
  "sourcePath": "/Users/stefan/Documents/PhD/SolMOSA/Smart Contracts/Problematic Contracts/willitscale/contracts/Strings.sol",
  "compiler": {
    "name": "solc",
    "version": "0.5.12+commit.7709ece9.Emscripten.clang"
  },
  "schemaVersion": "3.0.19",
  "updatedAt": "2020-04-15T14:34:31.814Z",
  "devdoc": {
    "author": "James Lockhart <james@n3tw0rk.co.uk>",
    "methods": {
      "_indexOf(string,string,uint256)": {
        "params": {
          "_base": "When being used for a data type this is the extended object             otherwise this is the string acting as the haystack to be             searched",
          "_offset": "The starting point to start searching from which can start               from 0, but must not exceed the length of the string",
          "_value": "The needle to search for, at present this is currently              limited to one character"
        },
        "return": "int The position of the needle starting from 0 and returning -1            in the case of no matches found"
      },
      "_substring(string,int256,int256)": {
        "params": {
          "_base": "When being used for a data type this is the extended object             otherwise this is the string that will be used for             extracting the sub string from",
          "_length": "The length of the sub string to be extracted from the base",
          "_offset": "The starting point to extract the sub string from"
        },
        "return": "string The extracted sub string"
      },
      "compareTo(string,string)": {
        "params": {
          "_base": "When being used for a data type this is the extended object              otherwise this is the string base to compare against",
          "_value": "The string the base is being compared to"
        },
        "return": "bool Simply notates if the two string have an equivalent"
      },
      "compareToIgnoreCase(string,string)": {
        "params": {
          "_base": "When being used for a data type this is the extended object              otherwise this is the string base to compare against",
          "_value": "The string the base is being compared to"
        },
        "return": "bool Simply notates if the two string have an equivalent value             discarding case"
      },
      "concat(string,string)": {
        "params": {
          "_base": "When being used for a data type this is the extended object             otherwise this is the string which will be the concatenated             prefix",
          "_value": "The value to be the concatenated suffix"
        },
        "return": "string The resulting string from combinging the base and value"
      },
      "indexOf(string,string)": {
        "params": {
          "_base": "When being used for a data type this is the extended object             otherwise this is the string acting as the haystack to be             searched",
          "_value": "The needle to search for, at present this is currently              limited to one character"
        },
        "return": "int The position of the needle starting from 0 and returning -1            in the case of no matches found"
      },
      "length(string)": {
        "params": {
          "_base": "When being used for a data type this is the extended object             otherwise this is the string to be measured"
        },
        "return": "uint The length of the passed string"
      },
      "lower(string)": {
        "params": {
          "_base": "When being used for a data type this is the extended object             otherwise this is the string base to convert to lower case"
        },
        "return": "string"
      },
      "substring(string,int256)": {
        "params": {
          "_base": "When being used for a data type this is the extended object             otherwise this is the string that will be used for             extracting the sub string from",
          "_length": "The length of the sub string to be extracted from the base"
        },
        "return": "string The extracted sub string"
      },
      "upper(string)": {
        "params": {
          "_base": "When being used for a data type this is the extended object             otherwise this is the string base to convert to upper case"
        },
        "return": "string"
      }
    }
  },
  "userdoc": {
    "methods": {
      "_indexOf(string,string,uint256)": {
        "notice": "Index Of     * Locates and returns the position of a character within a string starting from a defined offset"
      },
      "_substring(string,int256,int256)": {
        "notice": "Sub String     * Extracts the part of a string based on the desired length and offset. The offset and length must not exceed the lenth of the base string."
      },
      "compareTo(string,string)": {
        "notice": "Compare To     * Compares the characters of two strings, to ensure that they have an identical footprint"
      },
      "compareToIgnoreCase(string,string)": {
        "notice": "Compare To Ignore Case (High gas cost)     * Compares the characters of two strings, converting them to the same case where applicable to alphabetic characters to distinguish if the values match."
      },
      "concat(string,string)": {
        "notice": "Concat (High gas cost)     * Appends two strings together and returns a new value"
      },
      "indexOf(string,string)": {
        "notice": "Index Of     * Locates and returns the position of a character within a string"
      },
      "length(string)": {
        "notice": "Length     * Returns the length of the specified string"
      },
      "lower(string)": {
        "notice": "Lower     * Converts all the values of a string to their corresponding lower case value."
      },
      "substring(string,int256)": {
        "notice": "Sub String     * Extracts the beginning part of a string based on the desired length"
      },
      "upper(string)": {
        "notice": "Upper     * Converts all the values of a string to their corresponding upper case value."
      }
    },
    "notice": "Strings Library * In summary this is a simple library of string functions which make simple string operations less tedious in solidity. * Please be aware these functions can be quite gas heavy so use them only when necessary not to clog the blockchain with expensive transactions."
  }
}