{
  "contractName": "GuardCheck",
  "abi": [
    {
      "constant": false,
      "inputs": [
        {
          "name": "addr",
          "type": "address"
        }
      ],
      "name": "donate",
      "outputs": [],
      "payable": true,
      "stateMutability": "payable",
      "type": "function"
    }
  ],
  "bytecode": "0x6060604052341561000f57600080fd5b6101e98061001e6000396000f300606060405260043610610040576000357c0100000000000000000000000000000000000000000000000000000000900463ffffffff168062362a9514610045575b600080fd5b610071600480803573ffffffffffffffffffffffffffffffffffffffff16906020019091905050610073565b005b600080600073ffffffffffffffffffffffffffffffffffffffff168373ffffffffffffffffffffffffffffffffffffffff16141515156100b257600080fd5b600034141515156100c257600080fd5b3073ffffffffffffffffffffffffffffffffffffffff1631915060008373ffffffffffffffffffffffffffffffffffffffff1631141561010457349050610154565b3373ffffffffffffffffffffffffffffffffffffffff16318373ffffffffffffffffffffffffffffffffffffffff1631101561014e5760023481151561014657fe5b049050610153565b600080fd5b5b8273ffffffffffffffffffffffffffffffffffffffff166108fc829081150290604051600060405180830381858888f19350505050151561019457600080fd5b8082033073ffffffffffffffffffffffffffffffffffffffff16311415156101b857fe5b5050505600a165627a7a72305820a61f75a0016f27b8fbb7e6653ac71678649fed2f346539160f37ac971fd987290029",
  "source": "\n// This code has not been professionally audited, therefore I cannot make any promises about\n// safety or correctness. Use at own risk.\n\npragma solidity ^0.4.20;\n\ncontract GuardCheck {\n\n    function donate(address addr) payable public {\n        require(addr != address(0));\n        require(msg.value != 0);\n        uint balanceBeforeTransfer = this.balance;\n        uint transferAmount;\n\n        if (addr.balance == 0) {\n            transferAmount = msg.value;\n        } else if (addr.balance < msg.sender.balance) {\n            transferAmount = msg.value / 2;\n        } else {\n            revert();\n        }\n\n        addr.transfer(transferAmount);\n        assert(this.balance == balanceBeforeTransfer - transferAmount);\n    }\n}\n",
  "sourcePath": "/Users/stefan/Documents/PhD/SolMOSA/RWContracts/GuardCheck/contracts/GuardCheck.sol",
  "compiler": {
    "name": "solc",
    "version": "0.4.20+commit.3155dd80.Emscripten.clang"
  },
  "schemaVersion": "3.0.19",
  "updatedAt": "2020-02-20T15:12:33.121Z",
  "devdoc": {
    "methods": {}
  },
  "userdoc": {
    "methods": {}
  }
}