{
  "contractName": "IdentityManager",
  "abi": [
    {
      "constant": true,
      "inputs": [
        {
          "name": "account",
          "type": "address"
        }
      ],
      "name": "addressKnown",
      "outputs": [
        {
          "name": "",
          "type": "bool"
        }
      ],
      "payable": false,
      "stateMutability": "view",
      "type": "function"
    },
    {
      "constant": false,
      "inputs": [
        {
          "name": "newValidator",
          "type": "address"
        }
      ],
      "name": "addValidator",
      "outputs": [],
      "payable": false,
      "stateMutability": "nonpayable",
      "type": "function"
    },
    {
      "constant": false,
      "inputs": [
        {
          "name": "account",
          "type": "address"
        }
      ],
      "name": "convertAddress",
      "outputs": [
        {
          "name": "",
          "type": "uint256"
        }
      ],
      "payable": false,
      "stateMutability": "nonpayable",
      "type": "function"
    },
    {
      "constant": true,
      "inputs": [
        {
          "name": "identity",
          "type": "uint256"
        },
        {
          "name": "account",
          "type": "address"
        }
      ],
      "name": "equals",
      "outputs": [
        {
          "name": "",
          "type": "bool"
        }
      ],
      "payable": false,
      "stateMutability": "view",
      "type": "function"
    },
    {
      "constant": true,
      "inputs": [
        {
          "name": "account",
          "type": "address"
        }
      ],
      "name": "getIdentity",
      "outputs": [
        {
          "name": "identity",
          "type": "uint256"
        }
      ],
      "payable": false,
      "stateMutability": "view",
      "type": "function"
    },
    {
      "constant": true,
      "inputs": [
        {
          "name": "index",
          "type": "uint256"
        }
      ],
      "name": "identityExists",
      "outputs": [
        {
          "name": "exists",
          "type": "bool"
        }
      ],
      "payable": false,
      "stateMutability": "view",
      "type": "function"
    },
    {
      "constant": true,
      "inputs": [
        {
          "name": "identity",
          "type": "uint256"
        }
      ],
      "name": "isSender",
      "outputs": [
        {
          "name": "",
          "type": "bool"
        }
      ],
      "payable": false,
      "stateMutability": "view",
      "type": "function"
    },
    {
      "constant": false,
      "inputs": [
        {
          "name": "index",
          "type": "uint256"
        },
        {
          "name": "newPointer",
          "type": "address"
        }
      ],
      "name": "recover",
      "outputs": [],
      "payable": false,
      "stateMutability": "nonpayable",
      "type": "function"
    },
    {
      "constant": false,
      "inputs": [
        {
          "name": "validator",
          "type": "uint256"
        }
      ],
      "name": "removeValidator",
      "outputs": [],
      "payable": false,
      "stateMutability": "nonpayable",
      "type": "function"
    },
    {
      "constant": false,
      "inputs": [
        {
          "name": "identity",
          "type": "uint256"
        }
      ],
      "name": "stopValidatingFor",
      "outputs": [],
      "payable": false,
      "stateMutability": "nonpayable",
      "type": "function"
    }
  ],
  "bytecode": "0x60606040526000600255341561001457600080fd5b610caf806100236000396000f300606060405236156100a2576000357c0100000000000000000000000000000000000000000000000000000000900463ffffffff1680632748c1c2146100a75780632fea7b81146100f45780634d238c8e146101415780634eea48e21461017a5780635b5aed3a146101bc57806386c4c809146101f75780638ac0209914610232578063b5e6d5cb14610255578063cc48927a146102a6578063f94e186714610300575b600080fd5b34156100b257600080fd5b6100de600480803573ffffffffffffffffffffffffffffffffffffffff16906020019091905050610323565b6040518082815260200191505060405180910390f35b34156100ff57600080fd5b61012b600480803573ffffffffffffffffffffffffffffffffffffffff16906020019091905050610386565b6040518082815260200191505060405180910390f35b341561014c57600080fd5b610178600480803573ffffffffffffffffffffffffffffffffffffffff169060200190919050506103cf565b005b341561018557600080fd5b6101ba600480803590602001909190803573ffffffffffffffffffffffffffffffffffffffff169060200190919050506104bf565b005b34156101c757600080fd5b6101dd6004808035906020019091905050610645565b604051808215151515815260200191505060405180910390f35b341561020257600080fd5b610218600480803590602001909190505061069d565b604051808215151515815260200191505060405180910390f35b341561023d57600080fd5b610253600480803590602001909190505061070a565b005b341561026057600080fd5b61028c600480803573ffffffffffffffffffffffffffffffffffffffff16906020019091905050610886565b604051808215151515815260200191505060405180910390f35b34156102b157600080fd5b6102e6600480803590602001909190803573ffffffffffffffffffffffffffffffffffffffff169060200190919050506108d1565b604051808215151515815260200191505060405180910390f35b341561030b57600080fd5b6103216004808035906020019091905050610946565b005b600061032e82610886565b151561033f5761033d82610a42565b505b600160008373ffffffffffffffffffffffffffffffffffffffff1673ffffffffffffffffffffffffffffffffffffffff168152602001908152602001600020549050919050565b6000600160008373ffffffffffffffffffffffffffffffffffffffff1673ffffffffffffffffffffffffffffffffffffffff168152602001908152602001600020549050919050565b6000806103db33610886565b15156103e657600080fd5b6103ef83610886565b15156103fa57600080fd5b600160003373ffffffffffffffffffffffffffffffffffffffff1673ffffffffffffffffffffffffffffffffffffffff168152602001908152602001600020549150600160008473ffffffffffffffffffffffffffffffffffffffff1673ffffffffffffffffffffffffffffffffffffffff16815260200190815260200160002054905060008083815260200190815260200160002060010180548060010182816104a59190610be5565b916000526020600020900160008390919091505550505050565b6000826104cb81610645565b15156104d657600080fd5b61051f81600160003373ffffffffffffffffffffffffffffffffffffffff1673ffffffffffffffffffffffffffffffffffffffff16815260200190815260200160002054610b66565b151561052a57600080fd5b60008085815260200190815260200160002060000160009054906101000a900473ffffffffffffffffffffffffffffffffffffffff1691508260008086815260200190815260200160002060000160006101000a81548173ffffffffffffffffffffffffffffffffffffffff021916908373ffffffffffffffffffffffffffffffffffffffff1602179055506000600160008473ffffffffffffffffffffffffffffffffffffffff1673ffffffffffffffffffffffffffffffffffffffff1681526020019081526020016000208190555083600160008573ffffffffffffffffffffffffffffffffffffffff1673ffffffffffffffffffffffffffffffffffffffff1681526020019081526020016000208190555050505050565b60008060008084815260200190815260200160002060000160009054906101000a900473ffffffffffffffffffffffffffffffffffffffff1673ffffffffffffffffffffffffffffffffffffffff1614159050919050565b60003373ffffffffffffffffffffffffffffffffffffffff1660008084815260200190815260200160002060000160009054906101000a900473ffffffffffffffffffffffffffffffffffffffff1673ffffffffffffffffffffffffffffffffffffffff16149050919050565b6000808261071781610645565b151561072257600080fd5b8361072c81610645565b151561073757600080fd5b61078081600160003373ffffffffffffffffffffffffffffffffffffffff1673ffffffffffffffffffffffffffffffffffffffff16815260200190815260200160002054610b66565b151561078b57600080fd5b61079433610886565b151561079f57600080fd5b600160003373ffffffffffffffffffffffffffffffffffffffff1673ffffffffffffffffffffffffffffffffffffffff168152602001908152602001600020549350600092505b6000808681526020019081526020016000206001018054905083101561087e57836000808781526020019081526020016000206001018481548110151561082957fe5b9060005260206000209001541415610871576000808681526020019081526020016000206001018381548110151561085d57fe5b90600052602060002090016000905561087f565b82806001019350506107e6565b5b5050505050565b600080600160008473ffffffffffffffffffffffffffffffffffffffff1673ffffffffffffffffffffffffffffffffffffffff16815260200190815260200160002054119050919050565b60006108dc82610886565b80156108ed57506108ec83610645565b5b1561093b57600160008373ffffffffffffffffffffffffffffffffffffffff1673ffffffffffffffffffffffffffffffffffffffff1681526020019081526020016000205483149050610940565b600090505b92915050565b60008061095233610886565b151561095d57600080fd5b600160003373ffffffffffffffffffffffffffffffffffffffff1673ffffffffffffffffffffffffffffffffffffffff168152602001908152602001600020549150600090505b60008083815260200190815260200160002060010180549050811015610a3c5782600080848152602001908152602001600020600101828154811015156109e757fe5b9060005260206000209001541415610a2f5760008083815260200190815260200160002060010181815481101515610a1b57fe5b906000526020600020900160009055610a3d565b80806001019150506109a4565b5b505050565b600080600260008154600101919050819055905060408051908101604052808473ffffffffffffffffffffffffffffffffffffffff1681526020016000604051805910610a8c5750595b908082528060200260200182016040525081525060008083815260200190815260200160002060008201518160000160006101000a81548173ffffffffffffffffffffffffffffffffffffffff021916908373ffffffffffffffffffffffffffffffffffffffff1602179055506020820151816001019080519060200190610b15929190610c11565b5090505080600160008573ffffffffffffffffffffffffffffffffffffffff1673ffffffffffffffffffffffffffffffffffffffff1681526020019081526020016000208190555080915050919050565b600080600090505b60008085815260200190815260200160002060010180549050811015610bd9578260008086815260200190815260200160002060010182815481101515610bb157fe5b9060005260206000209001541415610bcc5760019150610bde565b8080600101915050610b6e565b600091505b5092915050565b815481835581811511610c0c57818360005260206000209182019101610c0b9190610c5e565b5b505050565b828054828255906000526020600020908101928215610c4d579160200282015b82811115610c4c578251825591602001919060010190610c31565b5b509050610c5a9190610c5e565b5090565b610c8091905b80821115610c7c576000816000905550600101610c64565b5090565b905600a165627a7a723058208017dfbc9dd448dd36073e26b1a495b01a3d42e234de5c72fc732cb1800ce4340029",
  "source": "pragma solidity ^0.4.17;\n\ncontract IdentityManager {\n    // double reference for quick searching\n    mapping ( uint => Identity ) _identities;\n    mapping ( address => uint ) _index;\n    uint _currentIndex = 0;\n\n    struct Identity {\n        address pointer; // the address of the user it represents\n        uint[] validators; // the addresses of the identities of the validators\n    }\n\n    modifier requiresExistanceOf(uint index) {\n        require(identityExists(index));\n        _;\n    }\n\n    modifier requiresValidatorOf(uint index) {\n        require(identityExists(index));\n        require(isValidatorOf(index, _index[msg.sender]));\n        _;\n    }\n\n    function addressKnown(address account) public view returns (bool) {\n        return _index[account] > 0;\n    }\n\n    function addValidator(address newValidator) public {\n        require(addressKnown(msg.sender));\n        require(addressKnown(newValidator));\n        uint index = _index[msg.sender];\n        uint valIndex = _index[newValidator];\n        _identities[index].validators.push(valIndex);\n    }\n\n    function convertAddress(address account) public returns (uint) {\n        if (!addressKnown(account)) {\n            createIdentity(account);\n        }\n        return _index[account];\n    }\n\n    function createIdentity(address account) private returns (uint) {\n        uint index = ++_currentIndex;\n        _identities[index] = Identity({\n            pointer: account,\n            validators: new uint[](0)\n        });\n        _index[account] = index;\n        return index;\n    }\n\n    function equals(uint identity, address account) public view returns (bool) {\n        if (addressKnown(account) && identityExists(identity)) {\n            return identity == _index[account];\n        }\n        return false;\n    }\n\n    function getAddress(uint index) private view returns (address account) {\n        return _identities[index].pointer;\n    }\n\n    function getIdentity(address account) public view returns (uint identity) {\n        return _index[account];\n    }\n\n    function identityExists(uint index) public view returns (bool exists) {\n        return _identities[index].pointer != 0;\n    }\n\n    function isSender(uint identity) public view returns (bool) {\n        return (_identities[identity].pointer == msg.sender);\n    }\n\n    function isValidatorOf(uint identity, uint validator) private view returns (bool) {\n        for (uint i = 0; i < _identities[identity].validators.length; i++) {\n            if (_identities[identity].validators[i] == validator) {\n                return true;\n            }\n        }\n        return false;\n    }\n\n    function recover(uint index, address newPointer) public requiresValidatorOf(index) {\n        address oldPointer = _identities[index].pointer;\n        _identities[index].pointer = newPointer;\n        _index[oldPointer] = 0;\n        _index[newPointer] = index;\n    }\n\n    function removeValidator(uint validator) public {\n        require(addressKnown(msg.sender));\n        uint index = _index[msg.sender];\n        for (uint i = 0; i < _identities[index].validators.length; i++) {\n            if (_identities[index].validators[i] == validator) {\n                delete _identities[index].validators[i];\n                return;\n            }\n        }\n    }\n\n    function stopValidatingFor(uint identity) public requiresExistanceOf(identity) requiresValidatorOf(identity) {\n        require(addressKnown(msg.sender));\n        uint valIndex = _index[msg.sender];\n        for (uint i = 0; i < _identities[identity].validators.length; i++) {\n            if (_identities[identity].validators[i] == valIndex) {\n                delete _identities[identity].validators[i];\n                return;\n            }\n        }\n    }\n}\n",
  "sourcePath": "/Users/stefan/Documents/PhD/SolMOSA/Smart Contracts/RWContracts/teamforus/IdentityManager/contracts/IdentityManager.sol",
  "compiler": {
    "name": "solc",
    "version": "0.4.17+commit.bdeb9e52.Emscripten.clang"
  },
  "schemaVersion": "3.0.19",
  "updatedAt": "2020-04-08T08:49:46.767Z",
  "devdoc": {
    "methods": {}
  },
  "userdoc": {
    "methods": {}
  }
}