{
  "contractName": "TestContract",
  "abi": [
    {
      "inputs": [],
      "payable": false,
      "stateMutability": "nonpayable",
      "type": "constructor"
    },
    {
      "constant": true,
      "inputs": [
        {
          "internalType": "uint256",
          "name": "a",
          "type": "uint256"
        }
      ],
      "name": "TestOne",
      "outputs": [
        {
          "internalType": "bool",
          "name": "success",
          "type": "bool"
        }
      ],
      "payable": false,
      "stateMutability": "view",
      "type": "function"
    },
    {
      "constant": true,
      "inputs": [
        {
          "internalType": "uint256",
          "name": "b",
          "type": "uint256"
        }
      ],
      "name": "TestTwo",
      "outputs": [
        {
          "internalType": "bool",
          "name": "success",
          "type": "bool"
        }
      ],
      "payable": false,
      "stateMutability": "view",
      "type": "function"
    },
    {
      "constant": true,
      "inputs": [
        {
          "internalType": "uint256",
          "name": "c",
          "type": "uint256"
        }
      ],
      "name": "TestThree",
      "outputs": [
        {
          "internalType": "bool",
          "name": "success",
          "type": "bool"
        }
      ],
      "payable": false,
      "stateMutability": "view",
      "type": "function"
    },
    {
      "constant": true,
      "inputs": [
        {
          "internalType": "uint256",
          "name": "d",
          "type": "uint256"
        }
      ],
      "name": "TestFour",
      "outputs": [
        {
          "internalType": "bool",
          "name": "success",
          "type": "bool"
        }
      ],
      "payable": false,
      "stateMutability": "view",
      "type": "function"
    },
    {
      "constant": true,
      "inputs": [
        {
          "internalType": "uint256",
          "name": "e",
          "type": "uint256"
        }
      ],
      "name": "TestFive",
      "outputs": [
        {
          "internalType": "bool",
          "name": "success",
          "type": "bool"
        }
      ],
      "payable": false,
      "stateMutability": "view",
      "type": "function"
    },
    {
      "constant": true,
      "inputs": [
        {
          "internalType": "uint256",
          "name": "f",
          "type": "uint256"
        }
      ],
      "name": "TestSix",
      "outputs": [
        {
          "internalType": "bool",
          "name": "success",
          "type": "bool"
        }
      ],
      "payable": false,
      "stateMutability": "view",
      "type": "function"
    },
    {
      "constant": true,
      "inputs": [
        {
          "internalType": "uint256",
          "name": "g",
          "type": "uint256"
        }
      ],
      "name": "TestSeven",
      "outputs": [
        {
          "internalType": "bool",
          "name": "success",
          "type": "bool"
        }
      ],
      "payable": false,
      "stateMutability": "view",
      "type": "function"
    },
    {
      "constant": true,
      "inputs": [
        {
          "internalType": "uint256",
          "name": "h",
          "type": "uint256"
        }
      ],
      "name": "TestEight",
      "outputs": [
        {
          "internalType": "bool",
          "name": "success",
          "type": "bool"
        }
      ],
      "payable": false,
      "stateMutability": "view",
      "type": "function"
    },
    {
      "constant": true,
      "inputs": [
        {
          "internalType": "uint256",
          "name": "i",
          "type": "uint256"
        }
      ],
      "name": "TestNine",
      "outputs": [
        {
          "internalType": "bool",
          "name": "success",
          "type": "bool"
        }
      ],
      "payable": false,
      "stateMutability": "view",
      "type": "function"
    },
    {
      "constant": true,
      "inputs": [
        {
          "internalType": "uint256",
          "name": "j",
          "type": "uint256"
        }
      ],
      "name": "TestTen",
      "outputs": [
        {
          "internalType": "bool",
          "name": "success",
          "type": "bool"
        }
      ],
      "payable": false,
      "stateMutability": "view",
      "type": "function"
    },
    {
      "constant": true,
      "inputs": [
        {
          "internalType": "uint256",
          "name": "k",
          "type": "uint256"
        }
      ],
      "name": "TestEleven",
      "outputs": [
        {
          "internalType": "bool",
          "name": "success",
          "type": "bool"
        }
      ],
      "payable": false,
      "stateMutability": "view",
      "type": "function"
    },
    {
      "constant": true,
      "inputs": [
        {
          "internalType": "uint256",
          "name": "l",
          "type": "uint256"
        }
      ],
      "name": "TestTwelve",
      "outputs": [
        {
          "internalType": "bool",
          "name": "success",
          "type": "bool"
        }
      ],
      "payable": false,
      "stateMutability": "view",
      "type": "function"
    },
    {
      "constant": true,
      "inputs": [
        {
          "internalType": "uint256",
          "name": "m",
          "type": "uint256"
        }
      ],
      "name": "TestThirteen",
      "outputs": [
        {
          "internalType": "bool",
          "name": "success",
          "type": "bool"
        }
      ],
      "payable": false,
      "stateMutability": "view",
      "type": "function"
    },
    {
      "constant": true,
      "inputs": [
        {
          "internalType": "uint256",
          "name": "n",
          "type": "uint256"
        }
      ],
      "name": "TestFourteen",
      "outputs": [
        {
          "internalType": "bool",
          "name": "success",
          "type": "bool"
        }
      ],
      "payable": false,
      "stateMutability": "view",
      "type": "function"
    },
    {
      "constant": true,
      "inputs": [
        {
          "internalType": "uint256",
          "name": "o",
          "type": "uint256"
        }
      ],
      "name": "TestFifteen",
      "outputs": [
        {
          "internalType": "bool",
          "name": "success",
          "type": "bool"
        }
      ],
      "payable": false,
      "stateMutability": "view",
      "type": "function"
    },
    {
      "constant": true,
      "inputs": [
        {
          "internalType": "uint256",
          "name": "p",
          "type": "uint256"
        }
      ],
      "name": "TestSixteen",
      "outputs": [
        {
          "internalType": "bool",
          "name": "success",
          "type": "bool"
        }
      ],
      "payable": false,
      "stateMutability": "view",
      "type": "function"
    },
    {
      "constant": true,
      "inputs": [
        {
          "internalType": "uint256",
          "name": "q",
          "type": "uint256"
        }
      ],
      "name": "TestSeventeen",
      "outputs": [
        {
          "internalType": "bool",
          "name": "success",
          "type": "bool"
        }
      ],
      "payable": false,
      "stateMutability": "view",
      "type": "function"
    },
    {
      "constant": true,
      "inputs": [
        {
          "internalType": "uint256",
          "name": "r",
          "type": "uint256"
        }
      ],
      "name": "TestEighteen",
      "outputs": [
        {
          "internalType": "bool",
          "name": "success",
          "type": "bool"
        }
      ],
      "payable": false,
      "stateMutability": "view",
      "type": "function"
    },
    {
      "constant": true,
      "inputs": [
        {
          "internalType": "uint256",
          "name": "s",
          "type": "uint256"
        }
      ],
      "name": "TestNineteen",
      "outputs": [
        {
          "internalType": "bool",
          "name": "success",
          "type": "bool"
        }
      ],
      "payable": false,
      "stateMutability": "view",
      "type": "function"
    },
    {
      "constant": true,
      "inputs": [
        {
          "internalType": "uint256",
          "name": "t",
          "type": "uint256"
        }
      ],
      "name": "TestTwenty",
      "outputs": [
        {
          "internalType": "bool",
          "name": "success",
          "type": "bool"
        }
      ],
      "payable": false,
      "stateMutability": "view",
      "type": "function"
    }
  ],
  "bytecode": "0x608060405234801561001057600080fd5b50610936806100206000396000f3fe608060405234801561001057600080fd5b506004361061012c5760003560e01c8063ac357632116100ad578063d7667f9911610071578063d7667f991461054b578063e2b9dcd514610591578063eed687c7146105d7578063f9392b591461061d578063fc78699e146106635761012c565b8063ac357632146103ed578063ad6fc25914610433578063ba5278d314610479578063bd76f3ba146104bf578063c63e6427146105055761012c565b80635a2cd2f3116100f45780635a2cd2f31461028f5780636623e5f4146102d557806372fdcfd31461031b57806384efc000146103615780638f10e3a0146103a75761012c565b8063066c36e2146101315780631a5e90f9146101775780632650b6c5146101bd57806354d315521461020357806356208a6d14610249575b600080fd5b61015d6004803603602081101561014757600080fd5b81019080803590602001909291905050506106a9565b604051808215151515815260200191505060405180910390f35b6101a36004803603602081101561018d57600080fd5b81019080803590602001909291905050506106c7565b604051808215151515815260200191505060405180910390f35b6101e9600480360360208110156101d357600080fd5b81019080803590602001909291905050506106e5565b604051808215151515815260200191505060405180910390f35b61022f6004803603602081101561021957600080fd5b8101908080359060200190929190505050610703565b604051808215151515815260200191505060405180910390f35b6102756004803603602081101561025f57600080fd5b8101908080359060200190929190505050610721565b604051808215151515815260200191505060405180910390f35b6102bb600480360360208110156102a557600080fd5b810190808035906020019092919050505061073f565b604051808215151515815260200191505060405180910390f35b610301600480360360208110156102eb57600080fd5b810190808035906020019092919050505061075d565b604051808215151515815260200191505060405180910390f35b6103476004803603602081101561033157600080fd5b810190808035906020019092919050505061077b565b604051808215151515815260200191505060405180910390f35b61038d6004803603602081101561037757600080fd5b8101908080359060200190929190505050610799565b604051808215151515815260200191505060405180910390f35b6103d3600480360360208110156103bd57600080fd5b81019080803590602001909291905050506107b7565b604051808215151515815260200191505060405180910390f35b6104196004803603602081101561040357600080fd5b81019080803590602001909291905050506107d5565b604051808215151515815260200191505060405180910390f35b61045f6004803603602081101561044957600080fd5b81019080803590602001909291905050506107f3565b604051808215151515815260200191505060405180910390f35b6104a56004803603602081101561048f57600080fd5b8101908080359060200190929190505050610811565b604051808215151515815260200191505060405180910390f35b6104eb600480360360208110156104d557600080fd5b810190808035906020019092919050505061082f565b604051808215151515815260200191505060405180910390f35b6105316004803603602081101561051b57600080fd5b810190808035906020019092919050505061084d565b604051808215151515815260200191505060405180910390f35b6105776004803603602081101561056157600080fd5b810190808035906020019092919050505061086b565b604051808215151515815260200191505060405180910390f35b6105bd600480360360208110156105a757600080fd5b8101908080359060200190929190505050610889565b604051808215151515815260200191505060405180910390f35b610603600480360360208110156105ed57600080fd5b81019080803590602001909291905050506108a7565b604051808215151515815260200191505060405180910390f35b6106496004803603602081101561063357600080fd5b81019080803590602001909291905050506108c5565b604051808215151515815260200191505060405180910390f35b61068f6004803603602081101561067957600080fd5b81019080803590602001909291905050506108e3565b604051808215151515815260200191505060405180910390f35b600060808214156106bd57600090506106c2565b600190505b919050565b600060808214156106db57600090506106e0565b600190505b919050565b600060808214156106f957600090506106fe565b600190505b919050565b60006080821415610717576000905061071c565b600190505b919050565b60006080821415610735576000905061073a565b600190505b919050565b600060808214156107535760009050610758565b600190505b919050565b600060808214156107715760009050610776565b600190505b919050565b6000608082141561078f5760009050610794565b600190505b919050565b600060808214156107ad57600090506107b2565b600190505b919050565b600060808214156107cb57600090506107d0565b600190505b919050565b600060808214156107e957600090506107ee565b600190505b919050565b60006080821415610807576000905061080c565b600190505b919050565b60006080821415610825576000905061082a565b600190505b919050565b600060808214156108435760009050610848565b600190505b919050565b600060808214156108615760009050610866565b600190505b919050565b6000608082141561087f5760009050610884565b600190505b919050565b6000608082141561089d57600090506108a2565b600190505b919050565b600060808214156108bb57600090506108c0565b600190505b919050565b600060808214156108d957600090506108de565b600190505b919050565b600060808214156108f757600090506108fc565b600190505b91905056fea265627a7a723158204e5e73fbefb184bdcc942d5864d57242af569a591514f4e670098b6c95737d4c64736f6c634300050c0032",
  "source": "pragma solidity ^0.5.0;\n\ncontract TestContract{\n\nconstructor() public {\n}\n\nfunction TestOne(uint a) public view returns(bool success){\n  if (a == 128){\n    return false;\n  }\n  else{\n      return true;\n  }\n}\n\nfunction TestTwo(uint b) public view returns(bool success){\n  if (b == 128){\n    return false;\n  }\n  else{\n      return true;\n  }\n}\n\nfunction TestThree(uint c) public view returns(bool success){\n  if (c == 128){\n    return false;\n  }\n  else{\n      return true;\n  }\n}\n\nfunction TestFour(uint d) public view returns(bool success){\n  if (d == 128){\n    return false;\n  }\n  else{\n      return true;\n  }\n}\n\nfunction TestFive(uint e) public view returns(bool success){\n  if (e == 128){\n    return false;\n  }\n  else{\n      return true;\n  }\n}\n\nfunction TestSix(uint f) public view returns(bool success){\n  if (f == 128){\n    return false;\n  }\n  else{\n      return true;\n  }\n}\n\nfunction TestSeven(uint g) public view returns(bool success){\n  if (g == 128){\n    return false;\n  }\n  else{\n      return true;\n  }\n}\n\nfunction TestEight(uint h) public view returns(bool success){\n  if (h == 128){\n    return false;\n  }\n  else{\n      return true;\n  }\n}\n\nfunction TestNine(uint i) public view returns(bool success){\n  if (i == 128){\n    return false;\n  }\n  else{\n      return true;\n  }\n}\n\nfunction TestTen(uint j) public view returns(bool success){\n  if (j == 128){\n    return false;\n  }\n  else{\n      return true;\n  }\n}\n\nfunction TestEleven(uint k) public view returns(bool success){\n  if (k == 128){\n    return false;\n  }\n  else{\n      return true;\n  }\n}\n\nfunction TestTwelve(uint l) public view returns(bool success){\n  if (l == 128){\n    return false;\n  }\n  else{\n      return true;\n  }\n}\n\nfunction TestThirteen(uint m) public view returns(bool success){\n  if (m == 128){\n    return false;\n  }\n  else{\n      return true;\n  }\n}\n\nfunction TestFourteen(uint n) public view returns(bool success){\n  if (n == 128){\n    return false;\n  }\n  else{\n      return true;\n  }\n}\n\nfunction TestFifteen(uint o) public view returns(bool success){\n  if (o == 128){\n    return false;\n  }\n  else{\n      return true;\n  }\n}\n\nfunction TestSixteen(uint p) public view returns(bool success){\n  if (p == 128){\n    return false;\n  }\n  else{\n      return true;\n  }\n}\n\nfunction TestSeventeen(uint q) public view returns(bool success){\n  if (q == 128){\n    return false;\n  }\n  else{\n      return true;\n  }\n}\n\nfunction TestEighteen(uint r) public view returns(bool success){\n  if (r == 128){\n    return false;\n  }\n  else{\n      return true;\n  }\n}\n\nfunction TestNineteen(uint s) public view returns(bool success){\n  if (s == 128){\n    return false;\n  }\n  else{\n      return true;\n  }\n}\n\nfunction TestTwenty(uint t) public view returns(bool success){\n  if (t == 128){\n    return false;\n  }\n  else{\n      return true;\n  }\n}\n}\n",
  "sourcePath": "/Users/stefan/Documents/PhD/SolMOSA/Smart Contracts/eq40201/contracts/TestContract.sol",
  "compiler": {
    "name": "solc",
    "version": "0.5.12+commit.7709ece9.Emscripten.clang"
  },
  "schemaVersion": "3.0.19",
  "updatedAt": "2019-12-06T11:08:01.328Z",
  "devdoc": {
    "methods": {}
  },
  "userdoc": {
    "methods": {}
  }
}