{
  "contractName": "GuessTheNumberChallenge",
  "abi": [
    {
      "inputs": [],
      "payable": true,
      "stateMutability": "payable",
      "type": "constructor"
    },
    {
      "constant": true,
      "inputs": [],
      "name": "isComplete",
      "outputs": [
        {
          "name": "",
          "type": "bool"
        }
      ],
      "payable": false,
      "stateMutability": "view",
      "type": "function"
    },
    {
      "constant": false,
      "inputs": [
        {
          "name": "n",
          "type": "uint8"
        }
      ],
      "name": "guess",
      "outputs": [],
      "payable": true,
      "stateMutability": "payable",
      "type": "function"
    }
  ],
  "bytecode": "0x6060604052602a6000806101000a81548160ff021916908360ff160217905550670de0b6b3a76400003414151561003557600080fd5b610164806100446000396000f30060606040526004361061004c576000357c0100000000000000000000000000000000000000000000000000000000900463ffffffff1680634ba4c16b14610051578063b2fa1c9e1461006c575b600080fd5b61006a600480803560ff16906020019091905050610099565b005b341561007757600080fd5b61007f610117565b604051808215151515815260200191505060405180910390f35b670de0b6b3a7640000341415156100af57600080fd5b6000809054906101000a900460ff1660ff168160ff161415610114573373ffffffffffffffffffffffffffffffffffffffff166108fc671bc16d674ec800009081150290604051600060405180830381858888f19350505050151561011357600080fd5b5b50565b6000803073ffffffffffffffffffffffffffffffffffffffff1631149050905600a165627a7a7230582046e62fded462589b7d234cc2cf1f73e1e3c7297d17a1ad9f72c471ec6237358a0029",
  "source": "/*\n * @source: https://capturetheether.com/challenges/lotteries/guess-the-number/\n * @author: Steve Marx\n */\n\n\npragma solidity ^0.4.21;\n\ncontract GuessTheNumberChallenge {\n    uint8 answer = 42;\n\n    function GuessTheNumberChallenge() public payable {\n        require(msg.value == 1 ether);\n    }\n\n    function isComplete() public view returns (bool) {\n        return address(this).balance == 0;\n    }\n\n    function guess(uint8 n) public payable {\n        require(msg.value == 1 ether);\n\n        if (n == answer) {\n            msg.sender.transfer(2 ether);\n        }\n    }\n}\n",
  "sourcePath": "/Users/stefan/Documents/PhD/SolMOSA/Smart Contracts/RWContracts/mythx-playground/GuessTheNumberChallenge/contracts/GuessTheNumberChallenge.sol",
  "compiler": {
    "name": "solc",
    "version": "0.4.21+commit.dfe3193c.Emscripten.clang"
  },
  "schemaVersion": "3.0.19",
  "updatedAt": "2020-03-31T09:32:25.166Z",
  "devdoc": {
    "methods": {}
  },
  "userdoc": {
    "methods": {}
  }
}