{
  "contractName": "TestContract",
  "abi": [
    {
      "inputs": [],
      "payable": false,
      "stateMutability": "nonpayable",
      "type": "constructor"
    },
    {
      "constant": true,
      "inputs": [
        {
          "internalType": "uint256",
          "name": "a",
          "type": "uint256"
        }
      ],
      "name": "TestOne",
      "outputs": [
        {
          "internalType": "bool",
          "name": "success",
          "type": "bool"
        }
      ],
      "payable": false,
      "stateMutability": "view",
      "type": "function"
    },
    {
      "constant": true,
      "inputs": [
        {
          "internalType": "uint256",
          "name": "b",
          "type": "uint256"
        }
      ],
      "name": "TestTwo",
      "outputs": [
        {
          "internalType": "bool",
          "name": "success",
          "type": "bool"
        }
      ],
      "payable": false,
      "stateMutability": "view",
      "type": "function"
    },
    {
      "constant": true,
      "inputs": [
        {
          "internalType": "uint256",
          "name": "c",
          "type": "uint256"
        }
      ],
      "name": "TestThree",
      "outputs": [
        {
          "internalType": "bool",
          "name": "success",
          "type": "bool"
        }
      ],
      "payable": false,
      "stateMutability": "view",
      "type": "function"
    }
  ],
  "bytecode": "0x608060405234801561001057600080fd5b506101a7806100206000396000f3fe608060405234801561001057600080fd5b50600436106100415760003560e01c8063066c36e21461004657806354d315521461008c578063ad6fc259146100d2575b600080fd5b6100726004803603602081101561005c57600080fd5b8101908080359060200190929190505050610118565b604051808215151515815260200191505060405180910390f35b6100b8600480360360208110156100a257600080fd5b8101908080359060200190929190505050610136565b604051808215151515815260200191505060405180910390f35b6100fe600480360360208110156100e857600080fd5b8101908080359060200190929190505050610154565b604051808215151515815260200191505060405180910390f35b6000600d82101561012c5760009050610131565b600190505b919050565b6000600d82101561014a576000905061014f565b600190505b919050565b6000600d821015610168576000905061016d565b600190505b91905056fea265627a7a7231582045a046a88591931860e8b14547b97d2d42a710b019c8bc8d53a264083e13e64e64736f6c634300050c0032",
  "source": "pragma solidity ^0.5.0;\n\ncontract TestContract{\n\nconstructor() public {\n}\n\nfunction TestOne(uint a) public view returns(bool success){\n  if (a < 13){\n    return false;\n  }\n  else{\n      return true;\n  }\n}\n\nfunction TestTwo(uint b) public view returns(bool success){\n  if (b < 13){\n    return false;\n  }\n  else{\n      return true;\n  }\n}\n\nfunction TestThree(uint c) public view returns(bool success){\n  if (c < 13){\n    return false;\n  }\n  else{\n      return true;\n  }\n}}\n",
  "sourcePath": "/Users/stefan/Documents/PhD/SolMOSA/Smart Contracts/leq631/contracts/TestContract.sol",
  "compiler": {
    "name": "solc",
    "version": "0.5.12+commit.7709ece9.Emscripten.clang"
  },
  "schemaVersion": "3.0.19",
  "updatedAt": "2019-12-05T15:39:46.148Z",
  "devdoc": {
    "methods": {}
  },
  "userdoc": {
    "methods": {}
  }
}