{
  "contractName": "TestContract",
  "abi": [
    {
      "inputs": [],
      "payable": false,
      "stateMutability": "nonpayable",
      "type": "constructor"
    },
    {
      "constant": true,
      "inputs": [
        {
          "name": "a",
          "type": "uint256"
        }
      ],
      "name": "TestOne",
      "outputs": [
        {
          "name": "success",
          "type": "bool"
        }
      ],
      "payable": false,
      "stateMutability": "view",
      "type": "function"
    },
    {
      "constant": true,
      "inputs": [
        {
          "name": "b",
          "type": "uint256"
        }
      ],
      "name": "TestTwo",
      "outputs": [
        {
          "name": "success",
          "type": "bool"
        }
      ],
      "payable": false,
      "stateMutability": "view",
      "type": "function"
    },
    {
      "constant": true,
      "inputs": [
        {
          "name": "c",
          "type": "uint256"
        }
      ],
      "name": "TestThree",
      "outputs": [
        {
          "name": "success",
          "type": "bool"
        }
      ],
      "payable": false,
      "stateMutability": "view",
      "type": "function"
    },
    {
      "constant": true,
      "inputs": [
        {
          "name": "d",
          "type": "uint256"
        }
      ],
      "name": "TestFour",
      "outputs": [
        {
          "name": "success",
          "type": "bool"
        }
      ],
      "payable": false,
      "stateMutability": "view",
      "type": "function"
    },
    {
      "constant": true,
      "inputs": [
        {
          "name": "e",
          "type": "uint256"
        }
      ],
      "name": "TestFive",
      "outputs": [
        {
          "name": "success",
          "type": "bool"
        }
      ],
      "payable": false,
      "stateMutability": "view",
      "type": "function"
    }
  ],
  "bytecode": "0x608060405234801561001057600080fd5b506102d3806100206000396000f3fe60806040526004361061006d576000357c0100000000000000000000000000000000000000000000000000000000900463ffffffff168063066c36e21461007257806354d31552146100c5578063ad6fc25914610118578063bd76f3ba1461016b578063c63e6427146101be575b600080fd5b34801561007e57600080fd5b506100ab6004803603602081101561009557600080fd5b8101908080359060200190929190505050610211565b604051808215151515815260200191505060405180910390f35b3480156100d157600080fd5b506100fe600480360360208110156100e857600080fd5b810190808035906020019092919050505061022f565b604051808215151515815260200191505060405180910390f35b34801561012457600080fd5b506101516004803603602081101561013b57600080fd5b810190808035906020019092919050505061024d565b604051808215151515815260200191505060405180910390f35b34801561017757600080fd5b506101a46004803603602081101561018e57600080fd5b810190808035906020019092919050505061026b565b604051808215151515815260200191505060405180910390f35b3480156101ca57600080fd5b506101f7600480360360208110156101e157600080fd5b8101908080359060200190929190505050610289565b604051808215151515815260200191505060405180910390f35b6000600d821015610225576000905061022a565b600190505b919050565b6000600d8210156102435760009050610248565b600190505b919050565b6000600d8210156102615760009050610266565b600190505b919050565b6000600d82101561027f5760009050610284565b600190505b919050565b6000600d82101561029d57600090506102a2565b600190505b91905056fea165627a7a723058206d8316ebf69e435a3ec4287c49c9f2396daafe9a6036e83cbc12f4b4e12488d30029",
  "source": "pragma solidity ^0.5.0;\n\ncontract TestContract{\n\nconstructor() public {\n}\n\nfunction TestOne(uint a) public view returns(bool success){\n  if (a < 13){\n    return false;\n  }\n  else{\n      return true;\n  }\n}\n\nfunction TestTwo(uint b) public view returns(bool success){\n  if (b < 13){\n    return false;\n  }\n  else{\n      return true;\n  }\n}\n\nfunction TestThree(uint c) public view returns(bool success){\n  if (c < 13){\n    return false;\n  }\n  else{\n      return true;\n  }\n}\n\nfunction TestFour(uint d) public view returns(bool success){\n  if (d < 13){\n    return false;\n  }\n  else{\n      return true;\n  }\n}\n\nfunction TestFive(uint e) public view returns(bool success){\n  if (e < 13){\n    return false;\n  }\n  else{\n      return true;\n  }\n}\n}\n",
  "sourcePath": "/home/stefan/JADS/Scriptie/Master_Thesis/Code/Smart Contracts/leq1051/contracts/TestContract.sol",
  "compiler": {
    "name": "solc",
    "version": "0.5.0+commit.1d4f565a.Emscripten.clang"
  },
  "schemaVersion": "3.0.9",
  "updatedAt": "2019-05-30T19:49:19.329Z",
  "devdoc": {
    "methods": {}
  },
  "userdoc": {
    "methods": {}
  }
}