{
  "contractName": "KingOfTheEtherThrone",
  "abi": [
    {
      "constant": true,
      "inputs": [],
      "name": "currentClaimPrice",
      "outputs": [
        {
          "name": "",
          "type": "uint256"
        }
      ],
      "payable": false,
      "stateMutability": "view",
      "type": "function"
    },
    {
      "constant": true,
      "inputs": [
        {
          "name": "",
          "type": "uint256"
        }
      ],
      "name": "pastMonarchs",
      "outputs": [
        {
          "name": "etherAddress",
          "type": "address"
        },
        {
          "name": "name",
          "type": "string"
        },
        {
          "name": "claimPrice",
          "type": "uint256"
        },
        {
          "name": "coronationTimestamp",
          "type": "uint256"
        }
      ],
      "payable": false,
      "stateMutability": "view",
      "type": "function"
    },
    {
      "constant": true,
      "inputs": [],
      "name": "currentMonarch",
      "outputs": [
        {
          "name": "etherAddress",
          "type": "address"
        },
        {
          "name": "name",
          "type": "string"
        },
        {
          "name": "claimPrice",
          "type": "uint256"
        },
        {
          "name": "coronationTimestamp",
          "type": "uint256"
        }
      ],
      "payable": false,
      "stateMutability": "view",
      "type": "function"
    },
    {
      "inputs": [],
      "payable": false,
      "stateMutability": "nonpayable",
      "type": "constructor"
    },
    {
      "payable": true,
      "stateMutability": "payable",
      "type": "fallback"
    },
    {
      "anonymous": false,
      "inputs": [
        {
          "indexed": false,
          "name": "usurperEtherAddress",
          "type": "address"
        },
        {
          "indexed": false,
          "name": "usurperName",
          "type": "string"
        },
        {
          "indexed": false,
          "name": "newClaimPrice",
          "type": "uint256"
        }
      ],
      "name": "ThroneClaimed",
      "type": "event"
    },
    {
      "constant": true,
      "inputs": [],
      "name": "numberOfMonarchs",
      "outputs": [
        {
          "name": "n",
          "type": "uint256"
        }
      ],
      "payable": false,
      "stateMutability": "view",
      "type": "function"
    },
    {
      "constant": false,
      "inputs": [
        {
          "name": "name",
          "type": "string"
        }
      ],
      "name": "claimThrone",
      "outputs": [],
      "payable": true,
      "stateMutability": "payable",
      "type": "function"
    },
    {
      "constant": false,
      "inputs": [
        {
          "name": "amount",
          "type": "uint256"
        }
      ],
      "name": "sweepCommission",
      "outputs": [],
      "payable": false,
      "stateMutability": "nonpayable",
      "type": "function"
    },
    {
      "constant": false,
      "inputs": [
        {
          "name": "newOwner",
          "type": "address"
        }
      ],
      "name": "transferOwnership",
      "outputs": [],
      "payable": false,
      "stateMutability": "nonpayable",
      "type": "function"
    }
  ],
  "bytecode": "0x6060604052341561000f57600080fd5b336000806101000a81548173ffffffffffffffffffffffffffffffffffffffff021916908373ffffffffffffffffffffffffffffffffffffffff16021790555067016345785d8a00006001819055506080604051908101604052806000809054906101000a900473ffffffffffffffffffffffffffffffffffffffff1673ffffffffffffffffffffffffffffffffffffffff1681526020016040805190810160405280600881526020017f5b566163616e745d00000000000000000000000000000000000000000000000081525081526020016000815260200142815250600260008201518160000160006101000a81548173ffffffffffffffffffffffffffffffffffffffff021916908373ffffffffffffffffffffffffffffffffffffffff160217905550602082015181600101908051906020019061015292919061016f565b506040820151816002015560608201518160030155905050610214565b828054600181600116156101000203166002900490600052602060002090601f016020900481019282601f106101b057805160ff19168380011785556101de565b828001600101855582156101de579182015b828111156101dd5782518255916020019190600101906101c2565b5b5090506101eb91906101ef565b5090565b61021191905b8082111561020d5760008160009055506001016101f5565b5090565b90565b610da4806102236000396000f300606060405260043610610083576000357c0100000000000000000000000000000000000000000000000000000000900463ffffffff1680630eb3f5a0146100c157806364325ddb146100e45780637842c52d1461010d578063b66a323c14610207578063c8fdc89114610259578063e40d0ac314610282578063f2fde38b1461036e575b6100bf6000368080601f0160208091040260200160405190810160405280939291908181526020018383808284378201915050505050506103a7565b005b34156100cc57600080fd5b6100e26004808035906020019091905050610975565b005b34156100ef57600080fd5b6100f7610a25565b6040518082815260200191505060405180910390f35b341561011857600080fd5b61012e6004808035906020019091905050610a2b565b604051808573ffffffffffffffffffffffffffffffffffffffff1673ffffffffffffffffffffffffffffffffffffffff168152602001806020018481526020018381526020018281038252858181546001816001161561010002031660029004815260200191508054600181600116156101000203166002900480156101f55780601f106101ca576101008083540402835291602001916101f5565b820191906000526020600020905b8154815290600101906020018083116101d857829003601f168201915b50509550505050505060405180910390f35b610257600480803590602001908201803590602001908080601f016020809104026020016040519081016040528093929190818152602001838380828437820191505050505050919050506103a7565b005b341561026457600080fd5b61026c610a89565b6040518082815260200191505060405180910390f35b341561028d57600080fd5b610295610a96565b604051808573ffffffffffffffffffffffffffffffffffffffff1673ffffffffffffffffffffffffffffffffffffffff1681526020018060200184815260200183815260200182810382528581815460018160011615610100020316600290048152602001915080546001816001161561010002031660029004801561035c5780601f106103315761010080835404028352916020019161035c565b820191906000526020600020905b81548152906001019060200180831161033f57829003601f168201915b50509550505050505060405180910390f35b341561037957600080fd5b6103a5600480803573ffffffffffffffffffffffffffffffffffffffff16906020019091905050610ad3565b005b60008060008060003494506001548510156103f7573373ffffffffffffffffffffffffffffffffffffffff166108fc869081150290604051600060405180830381858888f193505050505061096d565b60015485111561044457600154850393503373ffffffffffffffffffffffffffffffffffffffff166108fc859081150290604051600060405180830381858888f193505050505083850394505b60646001860281151561045357fe5b04925082850391506000809054906101000a900473ffffffffffffffffffffffffffffffffffffffff1673ffffffffffffffffffffffffffffffffffffffff16600260000160009054906101000a900473ffffffffffffffffffffffffffffffffffffffff1673ffffffffffffffffffffffffffffffffffffffff1614151561053657600260000160009054906101000a900473ffffffffffffffffffffffffffffffffffffffff1673ffffffffffffffffffffffffffffffffffffffff166108fc839081150290604051600060405180830381858888f1935050505050610537565b5b6006805480600101828161054b9190610b6c565b91600052602060002090600402016000600290919091506000820160009054906101000a900473ffffffffffffffffffffffffffffffffffffffff168160000160006101000a81548173ffffffffffffffffffffffffffffffffffffffff021916908373ffffffffffffffffffffffffffffffffffffffff160217905550600182018160010190805460018160011615610100020316600290046105f0929190610b9e565b5060028201548160020155600382015481600301555050506080604051908101604052803373ffffffffffffffffffffffffffffffffffffffff16815260200187815260200186815260200142815250600260008201518160000160006101000a81548173ffffffffffffffffffffffffffffffffffffffff021916908373ffffffffffffffffffffffffffffffffffffffff16021790555060208201518160010190805190602001906106a5929190610c25565b50604082015181600201556060820151816003015590505060026003600154028115156106ce57fe5b049050662386f26fc100008110156106ec578060018190555061084c565b67016345785d8a000081101561072157655af3107a40008181151561070d57fe5b04655af3107a40000260018190555061084b565b670de0b6b3a76400008110156107585766038d7ea4c680008181151561074357fe5b0466038d7ea4c680000260018190555061084a565b678ac7230489e8000081101561078f57662386f26fc100008181151561077a57fe5b04662386f26fc1000002600181905550610849565b68056bc75e2d631000008110156107c95767016345785d8a0000818115156107b357fe5b0467016345785d8a000002600181905550610848565b683635c9adc5dea0000081101561080357670de0b6b3a7640000818115156107ed57fe5b04670de0b6b3a764000002600181905550610847565b69021e19e0c9bab240000081101561083e57678ac7230489e800008181151561082857fe5b04678ac7230489e8000002600181905550610846565b806001819055505b5b5b5b5b5b5b7f66dd2fa17295ffce5da0fb78b9a7146bc2c19cfbab9752e98fd016cfde14e0de600260000160009054906101000a900473ffffffffffffffffffffffffffffffffffffffff166002600101600154604051808473ffffffffffffffffffffffffffffffffffffffff1673ffffffffffffffffffffffffffffffffffffffff1681526020018060200183815260200182810382528481815460018160011615610100020316600290048152602001915080546001816001161561010002031660029004801561095c5780601f106109315761010080835404028352916020019161095c565b820191906000526020600020905b81548152906001019060200180831161093f57829003601f168201915b505094505050505060405180910390a15b505050505050565b6000809054906101000a900473ffffffffffffffffffffffffffffffffffffffff1673ffffffffffffffffffffffffffffffffffffffff163373ffffffffffffffffffffffffffffffffffffffff161415610a22576000809054906101000a900473ffffffffffffffffffffffffffffffffffffffff1673ffffffffffffffffffffffffffffffffffffffff166108fc829081150290604051600060405180830381858888f19350505050505b50565b60015481565b600681815481101515610a3a57fe5b90600052602060002090600402016000915090508060000160009054906101000a900473ffffffffffffffffffffffffffffffffffffffff169080600101908060020154908060030154905084565b6000600680549050905090565b60028060000160009054906101000a900473ffffffffffffffffffffffffffffffffffffffff169080600101908060020154908060030154905084565b6000809054906101000a900473ffffffffffffffffffffffffffffffffffffffff1673ffffffffffffffffffffffffffffffffffffffff163373ffffffffffffffffffffffffffffffffffffffff161415610b6957806000806101000a81548173ffffffffffffffffffffffffffffffffffffffff021916908373ffffffffffffffffffffffffffffffffffffffff1602179055505b50565b815481835581811511610b9957600402816004028360005260206000209182019101610b989190610ca5565b5b505050565b828054600181600116156101000203166002900490600052602060002090601f016020900481019282601f10610bd75780548555610c14565b82800160010185558215610c1457600052602060002091601f016020900482015b82811115610c13578254825591600101919060010190610bf8565b5b509050610c219190610d0b565b5090565b828054600181600116156101000203166002900490600052602060002090601f016020900481019282601f10610c6657805160ff1916838001178555610c94565b82800160010185558215610c94579182015b82811115610c93578251825591602001919060010190610c78565b5b509050610ca19190610d0b565b5090565b610d0891905b80821115610d0457600080820160006101000a81549073ffffffffffffffffffffffffffffffffffffffff0219169055600182016000610ceb9190610d30565b6002820160009055600382016000905550600401610cab565b5090565b90565b610d2d91905b80821115610d29576000816000905550600101610d11565b5090565b90565b50805460018160011615610100020316600290046000825580601f10610d565750610d75565b601f016020900490600052602060002090810190610d749190610d0b565b5b505600a165627a7a723058209923ae2b2f3649d5775f062a49f978a1337a55cd61093792b728a2da14d5ea360029",
  "source": "// A chain-game contract that maintains a 'throne' which agents may pay to rule.\n// See www.kingoftheether.com & https://github.com/kieranelby/KingOfTheEtherThrone .\n// (c) Kieran Elby 2016. All rights reserved.\n// v0.4.0.\n// Inspired by ethereumpyramid.com and the (now-gone?) \"magnificent bitcoin gem\".\n\n// This contract lives on the blockchain at 0xb336a86e2feb1e87a328fcb7dd4d04de3df254d0\n// and was compiled (using optimization) with:\n// Solidity version: 0.2.1-fad2d4df/.-Emscripten/clang/int linked to libethereum\n\n// For future versions it would be nice to ...\n// TODO - enforce time-limit on reign (can contracts do that without external action)?\n// TODO - add a random reset?\n// TODO - add bitcoin bridge so agents can pay in bitcoin?\n// TODO - maybe allow different return payment address?\npragma solidity ^0.4.19;\n\ncontract KingOfTheEtherThrone {\n\n    struct Monarch {\n        // Address to which their compensation will be sent.\n        address etherAddress;\n        // A name by which they wish to be known.\n        // NB: Unfortunately \"string\" seems to expose some bugs in web3.\n        string name;\n        // How much did they pay to become monarch?\n        uint claimPrice;\n        // When did their rule start (based on block.timestamp)?\n        uint coronationTimestamp;\n    }\n\n    // The wizard is the hidden power behind the throne; they\n    // occupy the throne during gaps in succession and collect fees.\n    address wizardAddress;\n\n    // Used to ensure only the wizard can do some things.\n    modifier onlywizard { if (msg.sender == wizardAddress) _; }\n\n    // How much must the first monarch pay?\n    uint constant startingClaimPrice = 100 finney;\n\n    // The next claimPrice is calculated from the previous claimFee\n    // by multiplying by claimFeeAdjustNum and dividing by claimFeeAdjustDen -\n    // for example, num=3 and den=2 would cause a 50% increase.\n    uint constant claimPriceAdjustNum = 3;\n    uint constant claimPriceAdjustDen = 2;\n\n    // How much of each claimFee goes to the wizard (expressed as a fraction)?\n    // e.g. num=1 and den=100 would deduct 1% for the wizard, leaving 99% as\n    // the compensation fee for the usurped monarch.\n    uint constant wizardCommissionFractionNum = 1;\n    uint constant wizardCommissionFractionDen = 100;\n\n    // How much must an agent pay now to become the monarch?\n    uint public currentClaimPrice;\n\n    // The King (or Queen) of the Ether.\n    Monarch public currentMonarch;\n\n    // Earliest-first list of previous throne holders.\n    Monarch[] public pastMonarchs;\n\n    // Create a new throne, with the creator as wizard and first ruler.\n    // Sets up some hopefully sensible defaults.\n    function KingOfTheEtherThrone() {\n        wizardAddress = msg.sender;\n        currentClaimPrice = startingClaimPrice;\n        currentMonarch = Monarch(\n            wizardAddress,\n            \"[Vacant]\",\n            0,\n            block.timestamp\n        );\n    }\n\n    function numberOfMonarchs() constant returns (uint n) {\n        return pastMonarchs.length;\n    }\n\n    // Fired when the throne is claimed.\n    // In theory can be used to help build a front-end.\n    event ThroneClaimed(\n        address usurperEtherAddress,\n        string usurperName,\n        uint newClaimPrice\n    );\n\n    // Fallback function - simple transactions trigger this.\n    // Assume the message data is their desired name.\n    function() payable {\n        claimThrone(string(msg.data));\n    }\n\n    // Claim the throne for the given name by paying the currentClaimFee.\n    function claimThrone(string name) payable {\n\n        uint valuePaid = msg.value;\n\n        // If they paid too little, reject claim and refund their money.\n        if (valuePaid < currentClaimPrice) {\n            msg.sender.send(valuePaid);\n            return;\n        }\n\n        // If they paid too much, continue with claim but refund the excess.\n        if (valuePaid > currentClaimPrice) {\n            uint excessPaid = valuePaid - currentClaimPrice;\n            msg.sender.send(excessPaid);\n            valuePaid = valuePaid - excessPaid;\n        }\n\n        // The claim price payment goes to the current monarch as compensation\n        // (with a commission held back for the wizard). We let the wizard's\n        // payments accumulate to avoid wasting gas sending small fees.\n\n        uint wizardCommission = (valuePaid * wizardCommissionFractionNum) / wizardCommissionFractionDen;\n\n        uint compensation = valuePaid - wizardCommission;\n\n        if (currentMonarch.etherAddress != wizardAddress) {\n            currentMonarch.etherAddress.send(compensation);\n        } else {\n            // When the throne is vacant, the fee accumulates for the wizard.\n        }\n\n        // Usurp the current monarch, replacing them with the new one.\n        pastMonarchs.push(currentMonarch);\n        currentMonarch = Monarch(\n            msg.sender,\n            name,\n            valuePaid,\n            block.timestamp\n        );\n\n        // Increase the claim fee for next time.\n        // Stop number of trailing decimals getting silly - we round it a bit.\n        uint rawNewClaimPrice = currentClaimPrice * claimPriceAdjustNum / claimPriceAdjustDen;\n        if (rawNewClaimPrice < 10 finney) {\n            currentClaimPrice = rawNewClaimPrice;\n        } else if (rawNewClaimPrice < 100 finney) {\n            currentClaimPrice = 100 szabo * (rawNewClaimPrice / 100 szabo);\n        } else if (rawNewClaimPrice < 1 ether) {\n            currentClaimPrice = 1 finney * (rawNewClaimPrice / 1 finney);\n        } else if (rawNewClaimPrice < 10 ether) {\n            currentClaimPrice = 10 finney * (rawNewClaimPrice / 10 finney);\n        } else if (rawNewClaimPrice < 100 ether) {\n            currentClaimPrice = 100 finney * (rawNewClaimPrice / 100 finney);\n        } else if (rawNewClaimPrice < 1000 ether) {\n            currentClaimPrice = 1 ether * (rawNewClaimPrice / 1 ether);\n        } else if (rawNewClaimPrice < 10000 ether) {\n            currentClaimPrice = 10 ether * (rawNewClaimPrice / 10 ether);\n        } else {\n            currentClaimPrice = rawNewClaimPrice;\n        }\n\n        // Hail the new monarch!\n        ThroneClaimed(currentMonarch.etherAddress, currentMonarch.name, currentClaimPrice);\n    }\n\n    // Used only by the wizard to collect his commission.\n    function sweepCommission(uint amount) onlywizard {\n        wizardAddress.send(amount);\n    }\n\n    // Used only by the wizard to collect his commission.\n    function transferOwnership(address newOwner) onlywizard {\n        wizardAddress = newOwner;\n    }\n\n}\n",
  "sourcePath": "/Users/stefan/Documents/PhD/SolMOSA/RWContracts/KotET/contracts/KotET.sol",
  "compiler": {
    "name": "solc",
    "version": "0.4.19+commit.c4cbbb05.Emscripten.clang"
  },
  "schemaVersion": "3.0.19",
  "updatedAt": "2020-02-20T10:11:19.090Z",
  "devdoc": {
    "methods": {}
  },
  "userdoc": {
    "methods": {}
  }
}