{
  "contractName": "AddressArrayUtilsContract",
  "abi": [
    {
      "constant": true,
      "inputs": [
        {
          "name": "",
          "type": "uint256"
        }
      ],
      "name": "addressesA",
      "outputs": [
        {
          "name": "",
          "type": "address"
        }
      ],
      "payable": false,
      "stateMutability": "view",
      "type": "function"
    },
    {
      "inputs": [
        {
          "name": "A",
          "type": "address[]"
        }
      ],
      "payable": false,
      "stateMutability": "nonpayable",
      "type": "constructor"
    },
    {
      "constant": true,
      "inputs": [],
      "name": "getAddressesA",
      "outputs": [
        {
          "name": "",
          "type": "address[]"
        }
      ],
      "payable": false,
      "stateMutability": "view",
      "type": "function"
    },
    {
      "constant": false,
      "inputs": [
        {
          "name": "A",
          "type": "address[]"
        }
      ],
      "name": "setAddressesA",
      "outputs": [],
      "payable": false,
      "stateMutability": "nonpayable",
      "type": "function"
    },
    {
      "constant": false,
      "inputs": [
        {
          "name": "A",
          "type": "address[]"
        },
        {
          "name": "a",
          "type": "address"
        }
      ],
      "name": "indexOf",
      "outputs": [
        {
          "name": "",
          "type": "uint256"
        },
        {
          "name": "",
          "type": "bool"
        }
      ],
      "payable": false,
      "stateMutability": "nonpayable",
      "type": "function"
    },
    {
      "constant": false,
      "inputs": [
        {
          "name": "A",
          "type": "address[]"
        },
        {
          "name": "a",
          "type": "address"
        }
      ],
      "name": "contains",
      "outputs": [
        {
          "name": "",
          "type": "bool"
        }
      ],
      "payable": false,
      "stateMutability": "nonpayable",
      "type": "function"
    },
    {
      "constant": false,
      "inputs": [
        {
          "name": "A",
          "type": "address[]"
        },
        {
          "name": "a",
          "type": "address"
        }
      ],
      "name": "indexOfFromEnd",
      "outputs": [
        {
          "name": "",
          "type": "uint256"
        },
        {
          "name": "",
          "type": "bool"
        }
      ],
      "payable": false,
      "stateMutability": "nonpayable",
      "type": "function"
    },
    {
      "constant": false,
      "inputs": [
        {
          "name": "A",
          "type": "address[]"
        },
        {
          "name": "B",
          "type": "address[]"
        }
      ],
      "name": "extend",
      "outputs": [
        {
          "name": "",
          "type": "address[]"
        }
      ],
      "payable": false,
      "stateMutability": "nonpayable",
      "type": "function"
    },
    {
      "constant": false,
      "inputs": [
        {
          "name": "A",
          "type": "address[]"
        },
        {
          "name": "B",
          "type": "address[]"
        }
      ],
      "name": "intersect",
      "outputs": [
        {
          "name": "",
          "type": "address[]"
        }
      ],
      "payable": false,
      "stateMutability": "nonpayable",
      "type": "function"
    },
    {
      "constant": false,
      "inputs": [
        {
          "name": "A",
          "type": "address[]"
        },
        {
          "name": "B",
          "type": "address[]"
        }
      ],
      "name": "union",
      "outputs": [
        {
          "name": "",
          "type": "address[]"
        }
      ],
      "payable": false,
      "stateMutability": "nonpayable",
      "type": "function"
    },
    {
      "constant": false,
      "inputs": [
        {
          "name": "A",
          "type": "address[]"
        },
        {
          "name": "B",
          "type": "address[]"
        }
      ],
      "name": "unionB",
      "outputs": [
        {
          "name": "",
          "type": "address[]"
        }
      ],
      "payable": false,
      "stateMutability": "nonpayable",
      "type": "function"
    },
    {
      "constant": false,
      "inputs": [
        {
          "name": "A",
          "type": "address[]"
        },
        {
          "name": "B",
          "type": "address[]"
        }
      ],
      "name": "difference",
      "outputs": [
        {
          "name": "",
          "type": "address[]"
        }
      ],
      "payable": false,
      "stateMutability": "nonpayable",
      "type": "function"
    },
    {
      "constant": false,
      "inputs": [
        {
          "name": "A",
          "type": "address[]"
        },
        {
          "name": "index",
          "type": "uint256"
        }
      ],
      "name": "pop",
      "outputs": [
        {
          "name": "",
          "type": "address[]"
        },
        {
          "name": "",
          "type": "address"
        }
      ],
      "payable": false,
      "stateMutability": "nonpayable",
      "type": "function"
    },
    {
      "constant": false,
      "inputs": [
        {
          "name": "A",
          "type": "address[]"
        },
        {
          "name": "a",
          "type": "address"
        }
      ],
      "name": "remove",
      "outputs": [
        {
          "name": "",
          "type": "address[]"
        }
      ],
      "payable": false,
      "stateMutability": "nonpayable",
      "type": "function"
    },
    {
      "constant": false,
      "inputs": [
        {
          "name": "index",
          "type": "uint256"
        }
      ],
      "name": "sPop",
      "outputs": [
        {
          "name": "",
          "type": "address"
        }
      ],
      "payable": false,
      "stateMutability": "nonpayable",
      "type": "function"
    },
    {
      "constant": false,
      "inputs": [
        {
          "name": "index",
          "type": "uint256"
        }
      ],
      "name": "sPopCheap",
      "outputs": [
        {
          "name": "",
          "type": "address"
        }
      ],
      "payable": false,
      "stateMutability": "nonpayable",
      "type": "function"
    },
    {
      "constant": false,
      "inputs": [
        {
          "name": "a",
          "type": "address"
        }
      ],
      "name": "sRemoveCheap",
      "outputs": [],
      "payable": false,
      "stateMutability": "nonpayable",
      "type": "function"
    },
    {
      "constant": false,
      "inputs": [
        {
          "name": "A",
          "type": "address[]"
        }
      ],
      "name": "hasDuplicate",
      "outputs": [
        {
          "name": "",
          "type": "bool"
        }
      ],
      "payable": false,
      "stateMutability": "nonpayable",
      "type": "function"
    },
    {
      "constant": false,
      "inputs": [
        {
          "name": "A",
          "type": "address[]"
        },
        {
          "name": "B",
          "type": "address[]"
        }
      ],
      "name": "isEqual",
      "outputs": [
        {
          "name": "",
          "type": "bool"
        }
      ],
      "payable": false,
      "stateMutability": "nonpayable",
      "type": "function"
    },
    {
      "constant": false,
      "inputs": [
        {
          "name": "A",
          "type": "address[]"
        },
        {
          "name": "indexArray",
          "type": "uint256[]"
        }
      ],
      "name": "argGet",
      "outputs": [
        {
          "name": "",
          "type": "address[]"
        }
      ],
      "payable": false,
      "stateMutability": "nonpayable",
      "type": "function"
    }
  ],
  "bytecode": "0x60806040523480156200001157600080fd5b50604051620023ee380380620023ee8339810180604052810190808051820192919050505080600090805190602001906200004e92919062000056565b50506200012b565b828054828255906000526020600020908101928215620000d2579160200282015b82811115620000d15782518260006101000a81548173ffffffffffffffffffffffffffffffffffffffff021916908373ffffffffffffffffffffffffffffffffffffffff1602179055509160200191906001019062000077565b5b509050620000e19190620000e5565b5090565b6200012891905b808211156200012457600081816101000a81549073ffffffffffffffffffffffffffffffffffffffff021916905550600101620000ec565b5090565b90565b6122b3806200013b6000396000f300608060405260043610610105576000357c0100000000000000000000000000000000000000000000000000000000900463ffffffff168062775c1a1461010a578062f04761146101cb5780630a4502ad146102705780630f9da801146102dd57806320af660c146103db5780632bff89b9146104d95780633294c3cd146105d1578063380fa29a146106145780633c3300c5146107125780633da80d661461077e57806350bd2aba1461081c578063566a691b1461088957806364c20abc1461096457806378537808146109e25780639ea98d5514610ae05780639fce5c8e14610bde578063a839649c14610c83578063d124dd8e14610cf0578063d761eb7214610dee575b600080fd5b34801561011657600080fd5b506101b16004803603810190808035906020019082018035906020019080806020026020016040519081016040528093929190818152602001838360200280828437820191505050505050919291929080359060200190820180359060200190808060200260200160405190810160405280939291908181526020018383602002808284378201915050505050509192919290505050610e54565b604051808215151515815260200191505060405180910390f35b3480156101d757600080fd5b5061024f60048036038101908080359060200190820180359060200190808060200260200160405190810160405280939291908181526020018383602002808284378201915050505050509192919290803573ffffffffffffffffffffffffffffffffffffffff169060200190929190505050610e68565b60405180838152602001821515151581526020019250505060405180910390f35b34801561027c57600080fd5b5061029b60048036038101908080359060200190929190505050610e80565b604051808273ffffffffffffffffffffffffffffffffffffffff1673ffffffffffffffffffffffffffffffffffffffff16815260200191505060405180910390f35b3480156102e957600080fd5b506103846004803603810190808035906020019082018035906020019080806020026020016040519081016040528093929190818152602001838360200280828437820191505050505050919291929080359060200190820180359060200190808060200260200160405190810160405280939291908181526020018383602002808284378201915050505050509192919290505050610e94565b6040518080602001828103825283818151815260200191508051906020019060200280838360005b838110156103c75780820151818401526020810190506103ac565b505050509050019250505060405180910390f35b3480156103e757600080fd5b506104826004803603810190808035906020019082018035906020019080806020026020016040519081016040528093929190818152602001838360200280828437820191505050505050919291929080359060200190820180359060200190808060200260200160405190810160405280939291908181526020018383602002808284378201915050505050509192919290505050610ea8565b6040518080602001828103825283818151815260200191508051906020019060200280838360005b838110156104c55780820151818401526020810190506104aa565b505050509050019250505060405180910390f35b3480156104e557600080fd5b506105476004803603810190808035906020019082018035906020019080806020026020016040519081016040528093929190818152602001838360200280828437820191505050505050919291929080359060200190929190505050610ebc565b60405180806020018373ffffffffffffffffffffffffffffffffffffffff1673ffffffffffffffffffffffffffffffffffffffff168152602001828103825284818151815260200191508051906020019060200280838360005b838110156105bc5780820151818401526020810190506105a1565b50505050905001935050505060405180910390f35b3480156105dd57600080fd5b50610612600480360381019080803573ffffffffffffffffffffffffffffffffffffffff169060200190929190505050610ed5565b005b34801561062057600080fd5b506106bb6004803603810190808035906020019082018035906020019080806020026020016040519081016040528093929190818152602001838360200280828437820191505050505050919291929080359060200190820180359060200190808060200260200160405190810160405280939291908181526020018383602002808284378201915050505050509192919290505050610ee3565b6040518080602001828103825283818151815260200191508051906020019060200280838360005b838110156106fe5780820151818401526020810190506106e3565b505050509050019250505060405180910390f35b34801561071e57600080fd5b50610727610ef7565b6040518080602001828103825283818151815260200191508051906020019060200280838360005b8381101561076a57808201518184015260208101905061074f565b505050509050019250505060405180910390f35b34801561078a57600080fd5b5061080260048036038101908080359060200190820180359060200190808060200260200160405190810160405280939291908181526020018383602002808284378201915050505050509192919290803573ffffffffffffffffffffffffffffffffffffffff169060200190929190505050610f85565b604051808215151515815260200191505060405180910390f35b34801561082857600080fd5b5061084760048036038101908080359060200190929190505050610f99565b604051808273ffffffffffffffffffffffffffffffffffffffff1673ffffffffffffffffffffffffffffffffffffffff16815260200191505060405180910390f35b34801561089557600080fd5b5061090d60048036038101908080359060200190820180359060200190808060200260200160405190810160405280939291908181526020018383602002808284378201915050505050509192919290803573ffffffffffffffffffffffffffffffffffffffff169060200190929190505050610fad565b6040518080602001828103825283818151815260200191508051906020019060200280838360005b83811015610950578082015181840152602081019050610935565b505050509050019250505060405180910390f35b34801561097057600080fd5b506109c860048036038101908080359060200190820180359060200190808060200260200160405190810160405280939291908181526020018383602002808284378201915050505050509192919290505050610fc1565b604051808215151515815260200191505060405180910390f35b3480156109ee57600080fd5b50610a896004803603810190808035906020019082018035906020019080806020026020016040519081016040528093929190818152602001838360200280828437820191505050505050919291929080359060200190820180359060200190808060200260200160405190810160405280939291908181526020018383602002808284378201915050505050509192919290505050610fd3565b6040518080602001828103825283818151815260200191508051906020019060200280838360005b83811015610acc578082015181840152602081019050610ab1565b505050509050019250505060405180910390f35b348015610aec57600080fd5b50610b876004803603810190808035906020019082018035906020019080806020026020016040519081016040528093929190818152602001838360200280828437820191505050505050919291929080359060200190820180359060200190808060200260200160405190810160405280939291908181526020018383602002808284378201915050505050509192919290505050610fe7565b6040518080602001828103825283818151815260200191508051906020019060200280838360005b83811015610bca578082015181840152602081019050610baf565b505050509050019250505060405180910390f35b348015610bea57600080fd5b50610c6260048036038101908080359060200190820180359060200190808060200260200160405190810160405280939291908181526020018383602002808284378201915050505050509192919290803573ffffffffffffffffffffffffffffffffffffffff169060200190929190505050610ffb565b60405180838152602001821515151581526020019250505060405180910390f35b348015610c8f57600080fd5b50610cae60048036038101908080359060200190929190505050611013565b604051808273ffffffffffffffffffffffffffffffffffffffff1673ffffffffffffffffffffffffffffffffffffffff16815260200191505060405180910390f35b348015610cfc57600080fd5b50610d976004803603810190808035906020019082018035906020019080806020026020016040519081016040528093929190818152602001838360200280828437820191505050505050919291929080359060200190820180359060200190808060200260200160405190810160405280939291908181526020018383602002808284378201915050505050509192919290505050611051565b6040518080602001828103825283818151815260200191508051906020019060200280838360005b83811015610dda578082015181840152602081019050610dbf565b505050509050019250505060405180910390f35b348015610dfa57600080fd5b50610e5260048036038101908080359060200190820180359060200190808060200260200160405190810160405280939291908181526020018383602002808284378201915050505050509192919290505050611065565b005b6000610e60838361107f565b905092915050565b600080610e758484611129565b915091509250929050565b6000610e8d6000836111bc565b9050919050565b6060610ea08383611377565b905092915050565b6060610eb48383611605565b905092915050565b60606000610eca8484611751565b915091509250929050565b610ee06000826118b7565b50565b6060610eef83836119d3565b905092915050565b60606000805480602002602001604051908101604052809291908181526020018280548015610f7b57602002820191906000526020600020905b8160009054906101000a900473ffffffffffffffffffffffffffffffffffffffff1673ffffffffffffffffffffffffffffffffffffffff1681526020019060010190808311610f31575b5050505050905090565b6000610f918383611aaa565b905092915050565b6000610fa6600083611ac4565b9050919050565b6060610fb98383611c52565b905092915050565b6000610fcc82611c8c565b9050919050565b6060610fdf8383611d55565b905092915050565b6060610ff38383611d9d565b905092915050565b6000806110088484611f38565b915091509250929050565b60008181548110151561102257fe5b906000526020600020016000915054906101000a900473ffffffffffffffffffffffffffffffffffffffff1681565b606061105d8383611fc7565b905092915050565b806000908051906020019061107b929190612169565b5050565b600080825184511415156110965760009150611122565b600090505b835181101561111d5782818151811015156110b257fe5b9060200190602002015173ffffffffffffffffffffffffffffffffffffffff1684828151811015156110e057fe5b9060200190602002015173ffffffffffffffffffffffffffffffffffffffff161415156111105760009150611122565b808060010191505061109b565b600191505b5092915050565b600080600080855191508190505b60008111156111a8578473ffffffffffffffffffffffffffffffffffffffff16866001830381518110151561116857fe5b9060200190602002015173ffffffffffffffffffffffffffffffffffffffff16141561119a57806001935093506111b3565b808060019003915050611137565b600080819150935093505b50509250929050565b600080600084805490509150818410151561123f576040517f08c379a000000000000000000000000000000000000000000000000000000000815260040180806020018281038252601a8152602001807f4572726f723a20696e646578206f7574206f6620626f756e647300000000000081525060200191505060405180910390fd5b848481548110151561124d57fe5b9060005260206000200160009054906101000a900473ffffffffffffffffffffffffffffffffffffffff169050600182038414151561135757846001830381548110151561129757fe5b9060005260206000200160009054906101000a900473ffffffffffffffffffffffffffffffffffffffff1685858154811015156112d057fe5b9060005260206000200160006101000a81548173ffffffffffffffffffffffffffffffffffffffff021916908373ffffffffffffffffffffffffffffffffffffffff160217905550846001830381548110151561132957fe5b9060005260206000200160006101000a81549073ffffffffffffffffffffffffffffffffffffffff02191690555b8480548091906001900361136b91906121f3565b50809250505092915050565b6060806000806060600086518851016040519080825280602002602001820160405280156113b45781602001602082028038833980820191505090505b5094506000935060009250600093505b875184101561140657600185858151811015156113dd57fe5b9060200190602002019015159081151581525050828060010193505083806001019450506113c4565b600093505b86518410156114785761143588888681518110151561142657fe5b90602001906020020151611aaa565b151561146b57600185858a510181518110151561144e57fe5b906020019060200201901515908115158152505082806001019350505b838060010194505061140b565b826040519080825280602002602001820160405280156114a75781602001602082028038833980820191505090505b50915060009050600093505b87518410156115515784848151811015156114ca57fe5b90602001906020020151156115445787848151811015156114e757fe5b9060200190602002015182828151811015156114ff57fe5b9060200190602002019073ffffffffffffffffffffffffffffffffffffffff16908173ffffffffffffffffffffffffffffffffffffffff168152505080806001019150505b83806001019450506114b3565b600093505b86518410156115f757848489510181518110151561157057fe5b90602001906020020151156115ea57868481518110151561158d57fe5b9060200190602002015182828151811015156115a557fe5b9060200190602002019073ffffffffffffffffffffffffffffffffffffffff16908173ffffffffffffffffffffffffffffffffffffffff168152505080806001019150505b8380600101945050611556565b819550505050505092915050565b60606000806060600086519350855192508284016040519080825280602002602001820160405280156116475781602001602082028038833980820191505090505b509150600090505b838110156116c657868181518110151561166557fe5b90602001906020020151828281518110151561167d57fe5b9060200190602002019073ffffffffffffffffffffffffffffffffffffffff16908173ffffffffffffffffffffffffffffffffffffffff1681525050808060010191505061164f565b600090505b828110156117445785818151811015156116e157fe5b90602001906020020151828286018151811015156116fb57fe5b9060200190602002019073ffffffffffffffffffffffffffffffffffffffff16908173ffffffffffffffffffffffffffffffffffffffff168152505080806001019150506116cb565b8194505050505092915050565b60606000806060600086519250600183036040519080825280602002602001820160405280156117905781602001602082028038833980820191505090505b509150600090505b8581101561180f5786818151811015156117ae57fe5b9060200190602002015182828151811015156117c657fe5b9060200190602002019073ffffffffffffffffffffffffffffffffffffffff16908173ffffffffffffffffffffffffffffffffffffffff16815250508080600101915050611798565b6001860190505b8281101561189057868181518110151561182c57fe5b90602001906020020151826001830381518110151561184757fe5b9060200190602002019073ffffffffffffffffffffffffffffffffffffffff16908173ffffffffffffffffffffffffffffffffffffffff16815250508080600101915050611816565b81878781518110151561189f57fe5b90602001906020020151945094505050509250929050565b6000806119498480548060200260200160405190810160405280929190818152602001828054801561193e57602002820191906000526020600020905b8160009054906101000a900473ffffffffffffffffffffffffffffffffffffffff1673ffffffffffffffffffffffffffffffffffffffff16815260200190600101908083116118f4575b505050505084611f38565b915091508015156119c2576040517f08c379a00000000000000000000000000000000000000000000000000000000081526004018080602001828103825260168152602001807f4572726f723a20656e747279206e6f7420666f756e640000000000000000000081525060200191505060405180910390fd5b6119cc84836111bc565b5050505050565b60608060008351604051908082528060200260200182016040528015611a085781602001602082028038833980820191505090505b509150600090505b8351811015611a9f57848482815181101515611a2857fe5b90602001906020020151815181101515611a3e57fe5b906020019060200201518282815181101515611a5657fe5b9060200190602002019073ffffffffffffffffffffffffffffffffffffffff16908173ffffffffffffffffffffffffffffffffffffffff16815250508080600101915050611a10565b819250505092915050565b600080611ab78484611f38565b9150508091505092915050565b600080600080858054905092508285101515611b48576040517f08c379a000000000000000000000000000000000000000000000000000000000815260040180806020018281038252601a8152602001807f4572726f723a20696e646578206f7574206f6620626f756e647300000000000081525060200191505060405180910390fd5b8585815481101515611b5657fe5b9060005260206000200160009054906101000a900473ffffffffffffffffffffffffffffffffffffffff1691508490505b60018303811015611c31578560018201815481101515611ba357fe5b9060005260206000200160009054906101000a900473ffffffffffffffffffffffffffffffffffffffff168682815481101515611bdc57fe5b9060005260206000200160006101000a81548173ffffffffffffffffffffffffffffffffffffffff021916908373ffffffffffffffffffffffffffffffffffffffff1602179055508080600101915050611b87565b85805480919060019003611c4591906121f3565b5081935050505092915050565b60606000806060611c638686611f38565b92509250811515611c7357600080fd5b611c7d8684611751565b50905080935050505092915050565b60008060008084511415611ca35760009250611d4e565b600091505b6001845103821015611d49576001820190505b8351811015611d3c578381815181101515611cd257fe5b9060200190602002015173ffffffffffffffffffffffffffffffffffffffff168483815181101515611d0057fe5b9060200190602002015173ffffffffffffffffffffffffffffffffffffffff161415611d2f5760019250611d4e565b8080600101915050611cbb565b8180600101925050611ca8565b600092505b5050919050565b606080606080611d658686611fc7565b9250611d718587611fc7565b9150611d7d8686611d9d565b9050611d9283611d8d8385611605565b611605565b935050505092915050565b606060006060600080606060008851955085604051908082528060200260200182016040528015611ddd5781602001602082028038833980820191505090505b50945060009350600092505b85831015611e5157611e12888a85815181101515611e0357fe5b90602001906020020151611aaa565b15611e445760018584815181101515611e2757fe5b906020019060200201901515908115158152505083806001019450505b8280600101935050611de9565b83604051908082528060200260200182016040528015611e805781602001602082028038833980820191505090505b50915060009050600092505b85831015611f29578483815181101515611ea257fe5b9060200190602002015115611f1c578883815181101515611ebf57fe5b906020019060200201518282815181101515611ed757fe5b9060200190602002019073ffffffffffffffffffffffffffffffffffffffff16908173ffffffffffffffffffffffffffffffffffffffff168152505080806001019150505b8280600101935050611e8c565b81965050505050505092915050565b60008060008085519150600090505b81811015611fb3578473ffffffffffffffffffffffffffffffffffffffff168682815181101515611f7457fe5b9060200190602002015173ffffffffffffffffffffffffffffffffffffffff161415611fa65780600193509350611fbe565b8080600101915050611f47565b600080819150935093505b50509250929050565b60606000606060008060006060600089519650866040519080825280602002602001820160405280156120095781602001602082028038833980820191505090505b50955060009450600093505b8684101561208157898481518110151561202b57fe5b9060200190602002015192506120418984611aaa565b1515612074576001868581518110151561205757fe5b906020019060200201901515908115158152505084806001019550505b8380600101945050612015565b846040519080825280602002602001820160405280156120b05781602001602082028038833980820191505090505b50915060009050600093505b868410156121595785848151811015156120d257fe5b906020019060200201511561214c5789848151811015156120ef57fe5b90602001906020020151828281518110151561210757fe5b9060200190602002019073ffffffffffffffffffffffffffffffffffffffff16908173ffffffffffffffffffffffffffffffffffffffff168152505080806001019150505b83806001019450506120bc565b8197505050505050505092915050565b8280548282559060005260206000209081019282156121e2579160200282015b828111156121e15782518260006101000a81548173ffffffffffffffffffffffffffffffffffffffff021916908373ffffffffffffffffffffffffffffffffffffffff16021790555091602001919060010190612189565b5b5090506121ef919061221f565b5090565b81548183558181111561221a578183600052602060002091820191016122199190612262565b5b505050565b61225f91905b8082111561225b57600081816101000a81549073ffffffffffffffffffffffffffffffffffffffff021916905550600101612225565b5090565b90565b61228491905b80821115612280576000816000905550600101612268565b5090565b905600a165627a7a72305820b456021bcc73bc4f7843321fe04296eb3de63724086d831acaa951dfdd7be52f0029",
  "source": "// TODO: Ideally this file is  auto-generated\npragma solidity 0.4.24;\n\n\nimport \"./AddressArrayUtils.sol\";\n\n\n// `pure` was removed from all functions so eth-gas-reporter measures them\ncontract AddressArrayUtilsContract {\n\n  address[] public addressesA;\n\n  function AddressArrayUtilsContract(address[] memory A) public {\n    addressesA = A;\n  }\n\n  function getAddressesA() public view returns (address[]) {\n    return addressesA;\n  }\n\n  function setAddressesA(address[] memory A) public {\n    addressesA = A;\n  }\n\n  function indexOf(address[] memory A, address a) public returns (uint256, bool) {\n    return AddressArrayUtils.indexOf(A, a);\n  }\n\n  function contains(address[] memory A, address a) public returns (bool) {\n    return AddressArrayUtils.contains(A, a);\n  }\n\n  function indexOfFromEnd(address[] A, address a) public returns (uint256, bool) {\n    return AddressArrayUtils.indexOfFromEnd(A, a);\n  }\n\n  function extend(address[] memory A, address[] memory B) public returns (address[] memory) {\n    return AddressArrayUtils.extend(A, B);\n  }\n\n  //function sExtend(address[] storage A, address[] storage B) public {\n    //return AddressArrayUtils.sExtend(A, B);\n  //}\n\n  function intersect(address[] memory A, address[] memory B) public returns (address[] memory) {\n    return AddressArrayUtils.intersect(A, B);\n  }\n\n  function union(address[] memory A, address[] memory B) public returns (address[] memory) {\n    return AddressArrayUtils.union(A, B);\n  }\n\n  function unionB(address[] memory A, address[] memory B) public returns (address[] memory) {\n    return AddressArrayUtils.unionB(A, B);\n  }\n\n  function difference(address[] memory A, address[] memory B) public returns (address[] memory) {\n    return AddressArrayUtils.difference(A, B);\n  }\n\n  //function sReverse(address[] storage A) public {\n    //return AddressArrayUtils.sReverse(A);\n  //}\n\n  function pop(address[] memory A, uint256 index)\n    public\n    returns (address[] memory, address)\n  {\n    return AddressArrayUtils.pop(A, index);\n  }\n\n  function remove(address[] memory A, address a)\n    public\n    returns (address[] memory)\n  {\n    return AddressArrayUtils.remove(A, a);\n  }\n\n  function sPop(uint256 index) public returns (address) {\n    return AddressArrayUtils.sPop(addressesA, index);\n  }\n\n  function sPopCheap(uint256 index) public returns (address) {\n    return AddressArrayUtils.sPopCheap(addressesA, index);\n  }\n\n  function sRemoveCheap(address a) public {\n    return AddressArrayUtils.sRemoveCheap(addressesA, a);\n  }\n\n  function hasDuplicate(address[] A) public returns (bool) {\n    return AddressArrayUtils.hasDuplicate(A);\n  }\n\n  function isEqual(address[] A, address[] B) public returns (bool) {\n    return AddressArrayUtils.isEqual(A, B);\n  }\n\n  function argGet(address[] memory A, uint256[] memory indexArray)\n    returns (address[] memory)\n  {\n    return AddressArrayUtils.argGet(A, indexArray);\n  }\n\n}\n",
  "sourcePath": "/Users/stefan/Documents/PhD/SolMOSA/Smart Contracts/SmallContracts/array-utils/contracts/AddressArrayUtilsContract.sol",
  "compiler": {
    "name": "solc",
    "version": "0.4.24+commit.e67f0147.Emscripten.clang"
  },
  "schemaVersion": "3.0.19",
  "updatedAt": "2020-02-26T10:11:54.393Z",
  "devdoc": {
    "methods": {}
  },
  "userdoc": {
    "methods": {}
  }
}