{
  "contractName": "Lottery10Users",
  "abi": [
    {
      "constant": false,
      "inputs": [],
      "name": "join",
      "outputs": [],
      "payable": true,
      "stateMutability": "payable",
      "type": "function"
    }
  ],
  "bytecode": "0x60806040526000600a60006101000a81548160ff021916908360ff1602179055506000600b5534801561003157600080fd5b506105e0806100416000396000f300608060405260043610610041576000357c0100000000000000000000000000000000000000000000000000000000900463ffffffff168063b688a36314610046575b600080fd5b61004e610050565b005b67016345785d8a0000341415156100cf576040517f08c379a00000000000000000000000000000000000000000000000000000000081526004018080602001828103825260138152602001807f4d7573742073656e6420302e312065746865720000000000000000000000000081525060200191505060405180910390fd5b600a8060009054906101000a900460ff1660ff16101515610158576040517f08c379a00000000000000000000000000000000000000000000000000000000081526004018080602001828103825260128152602001807f55736572206c696d69742072656163686564000000000000000000000000000081525060200191505060405180910390fd5b6000151561016533610295565b15151415156101dc576040517f08c379a00000000000000000000000000000000000000000000000000000000081526004018080602001828103825260138152602001807f5573657220616c7265616479206a6f696e65640000000000000000000000000081525060200191505060405180910390fd5b336000600a60009054906101000a900460ff1660ff16600a811015156101fe57fe5b0160006101000a81548173ffffffffffffffffffffffffffffffffffffffff021916908373ffffffffffffffffffffffffffffffffffffffff160217905550600a600081819054906101000a900460ff168092919060010191906101000a81548160ff021916908360ff16021790555050600a8060009054906101000a900460ff1660ff1614156102935761029161032b565b505b565b6000806000809150600090505b600a811015610321578373ffffffffffffffffffffffffffffffffffffffff16600082600a811015156102d157fe5b0160009054906101000a900473ffffffffffffffffffffffffffffffffffffffff1673ffffffffffffffffffffffffffffffffffffffff16141561031457600191505b80806001019150506102a2565b8192505050919050565b600080600a8060009054906101000a900460ff1660ff161415156103b7576040517f08c379a00000000000000000000000000000000000000000000000000000000081526004018080602001828103825260168152602001807f57616974696e6720666f72206d6f72652075736572730000000000000000000081525060200191505060405180910390fd5b60006103c161047f565b600a811015156103cd57fe5b0160009054906101000a900473ffffffffffffffffffffffffffffffffffffffff1690508073ffffffffffffffffffffffffffffffffffffffff166108fc3073ffffffffffffffffffffffffffffffffffffffff16319081150290604051600060405180830381858888f1935050505015801561044e573d6000803e3d6000fd5b5060008061045c919061057c565b6000600a60006101000a81548160ff021916908360ff1602179055508091505090565b600080600a4233600b54604051602001808481526020018373ffffffffffffffffffffffffffffffffffffffff1673ffffffffffffffffffffffffffffffffffffffff166c0100000000000000000000000002815260140182815260200193505050506040516020818303038152906040526040518082805190602001908083835b6020831015156105265780518252602082019150602081019050602083039250610501565b6001836020036101000a03801982511681845116808217855250505050505090500191505060405180910390206001900481151561056057fe5b069050600b600081548092919060010191905055508091505090565b5080600a019061058c919061058f565b50565b6105b191905b808211156105ad576000816000905550600101610595565b5090565b905600a165627a7a72305820c3cd7024f203ef7afb18ec9b5a826bb37a24a39980c17a6af75d860fc7e519d80029",
  "source": "pragma solidity ^0.4.23;\n\ncontract Lottery10Users {\n    address[10] participants;\n    uint8 participantsCount = 0;\n    uint randNonce = 0;\n\n    function join() public payable {\n        require(msg.value == 0.1 ether, \"Must send 0.1 ether\");\n        require(participantsCount < 10, \"User limit reached\");\n        require(joinedAlready(msg.sender) == false, \"User already joined\");\n        participants[participantsCount] = msg.sender;\n        participantsCount++;\n        if (participantsCount == 10) {\n            selectWinner();\n        }\n    }\n\n    function joinedAlready(address _participant) private view returns(bool) {\n        bool containsParticipant = false;\n        for(uint i = 0; i < 10; i++) {\n            if (participants[i] == _participant) {\n                containsParticipant = true;\n            }\n        }\n        return containsParticipant;\n    }\n\n    function selectWinner() private returns(address) {\n        require(participantsCount == 10, \"Waiting for more users\");\n        address winner = participants[randomNumber()];\n        winner.transfer(address(this).balance);\n        delete participants;\n        participantsCount = 0;\n        return winner;\n    }\n\n    function randomNumber() private returns(uint) {\n        uint rand = uint(keccak256(abi.encodePacked(now, msg.sender, randNonce))) % 10;\n        randNonce++;\n        return rand;\n    }\n\n}\n",
  "sourcePath": "/Users/stefan/Documents/PhD/SolMOSA/RWContracts/learning-solidity-2018/Lottery10Users/contracts/Lottery10Users.sol",
  "compiler": {
    "name": "solc",
    "version": "0.4.23+commit.124ca40d.Emscripten.clang"
  },
  "schemaVersion": "3.0.19",
  "updatedAt": "2020-01-22T12:40:18.820Z",
  "devdoc": {
    "methods": {}
  },
  "userdoc": {
    "methods": {}
  }
}