{
  "contractName": "DosAuction",
  "abi": [
    {
      "constant": false,
      "inputs": [],
      "name": "bid",
      "outputs": [],
      "payable": true,
      "type": "function"
    }
  ],
  "bytecode": "0x6060604052341561000f57600080fd5b5b6101738061001f6000396000f30060606040526000357c0100000000000000000000000000000000000000000000000000000000900463ffffffff1680631998aeef1461003e575b600080fd5b610046610048565b005b6001543411151561005857600080fd5b60008060009054906101000a900473ffffffffffffffffffffffffffffffffffffffff1673ffffffffffffffffffffffffffffffffffffffff161415156100fd576000809054906101000a900473ffffffffffffffffffffffffffffffffffffffff1673ffffffffffffffffffffffffffffffffffffffff166108fc6001549081150290604051600060405180830381858888f1935050505015156100fc57600080fd5b5b336000806101000a81548173ffffffffffffffffffffffffffffffffffffffff021916908373ffffffffffffffffffffffffffffffffffffffff160217905550346001819055505b5600a165627a7a723058203a6b872f3a70caa30c95663ab0b979d47a54b88efb3546fcdbc7df4e6009c8570029",
  "source": "pragma solidity ^0.4.15;\n\n//Auction susceptible to DoS attack\ncontract DosAuction {\n  address currentFrontrunner;\n  uint currentBid;\n\n  //Takes in bid, refunding the frontrunner if they are outbid\n  function bid() payable {\n    require(msg.value > currentBid);\n\n    //If the refund fails, the entire transaction reverts.\n    //Therefore a frontrunner who always fails will win\n    if (currentFrontrunner != 0) {\n      //E.g. if recipients fallback function is just revert()\n      require(currentFrontrunner.send(currentBid));\n    }\n\n    currentFrontrunner = msg.sender;\n    currentBid         = msg.value;\n  }\n}\n",
  "sourcePath": "/Users/stefan/Documents/PhD/SolMOSA/RWContracts/Auction/DosAuction/contracts/DosAction.sol",
  "compiler": {
    "name": "solc",
    "version": "0.4.15+commit.bbb8e64f.Emscripten.clang"
  },
  "schemaVersion": "3.0.19",
  "updatedAt": "2020-01-24T09:59:20.586Z",
  "devdoc": {
    "methods": {}
  },
  "userdoc": {
    "methods": {}
  }
}