{
  "contractName": "TestContract",
  "abi": [
    {
      "inputs": [],
      "payable": false,
      "stateMutability": "nonpayable",
      "type": "constructor"
    },
    {
      "constant": true,
      "inputs": [
        {
          "internalType": "uint256",
          "name": "a",
          "type": "uint256"
        }
      ],
      "name": "TestOne",
      "outputs": [
        {
          "internalType": "bool",
          "name": "success",
          "type": "bool"
        }
      ],
      "payable": false,
      "stateMutability": "view",
      "type": "function"
    },
    {
      "constant": true,
      "inputs": [
        {
          "internalType": "uint256",
          "name": "b",
          "type": "uint256"
        }
      ],
      "name": "TestTwo",
      "outputs": [
        {
          "internalType": "bool",
          "name": "success",
          "type": "bool"
        }
      ],
      "payable": false,
      "stateMutability": "view",
      "type": "function"
    },
    {
      "constant": true,
      "inputs": [
        {
          "internalType": "uint256",
          "name": "c",
          "type": "uint256"
        }
      ],
      "name": "TestThree",
      "outputs": [
        {
          "internalType": "bool",
          "name": "success",
          "type": "bool"
        }
      ],
      "payable": false,
      "stateMutability": "view",
      "type": "function"
    },
    {
      "constant": true,
      "inputs": [
        {
          "internalType": "uint256",
          "name": "d",
          "type": "uint256"
        }
      ],
      "name": "TestFour",
      "outputs": [
        {
          "internalType": "bool",
          "name": "success",
          "type": "bool"
        }
      ],
      "payable": false,
      "stateMutability": "view",
      "type": "function"
    },
    {
      "constant": true,
      "inputs": [
        {
          "internalType": "uint256",
          "name": "e",
          "type": "uint256"
        }
      ],
      "name": "TestFive",
      "outputs": [
        {
          "internalType": "bool",
          "name": "success",
          "type": "bool"
        }
      ],
      "payable": false,
      "stateMutability": "view",
      "type": "function"
    },
    {
      "constant": true,
      "inputs": [
        {
          "internalType": "uint256",
          "name": "f",
          "type": "uint256"
        }
      ],
      "name": "TestSix",
      "outputs": [
        {
          "internalType": "bool",
          "name": "success",
          "type": "bool"
        }
      ],
      "payable": false,
      "stateMutability": "view",
      "type": "function"
    },
    {
      "constant": true,
      "inputs": [
        {
          "internalType": "uint256",
          "name": "g",
          "type": "uint256"
        }
      ],
      "name": "TestSeven",
      "outputs": [
        {
          "internalType": "bool",
          "name": "success",
          "type": "bool"
        }
      ],
      "payable": false,
      "stateMutability": "view",
      "type": "function"
    },
    {
      "constant": true,
      "inputs": [
        {
          "internalType": "uint256",
          "name": "h",
          "type": "uint256"
        }
      ],
      "name": "TestEight",
      "outputs": [
        {
          "internalType": "bool",
          "name": "success",
          "type": "bool"
        }
      ],
      "payable": false,
      "stateMutability": "view",
      "type": "function"
    },
    {
      "constant": true,
      "inputs": [
        {
          "internalType": "uint256",
          "name": "i",
          "type": "uint256"
        }
      ],
      "name": "TestNine",
      "outputs": [
        {
          "internalType": "bool",
          "name": "success",
          "type": "bool"
        }
      ],
      "payable": false,
      "stateMutability": "view",
      "type": "function"
    },
    {
      "constant": true,
      "inputs": [
        {
          "internalType": "uint256",
          "name": "j",
          "type": "uint256"
        }
      ],
      "name": "TestTen",
      "outputs": [
        {
          "internalType": "bool",
          "name": "success",
          "type": "bool"
        }
      ],
      "payable": false,
      "stateMutability": "view",
      "type": "function"
    }
  ],
  "bytecode": "0x608060405234801561001057600080fd5b506104c0806100206000396000f3fe608060405234801561001057600080fd5b506004361061009e5760003560e01c806372fdcfd31161006657806372fdcfd314610201578063ad6fc25914610247578063bd76f3ba1461028d578063c63e6427146102d3578063eed687c7146103195761009e565b8063066c36e2146100a35780631a5e90f9146100e95780632650b6c51461012f57806354d31552146101755780635a2cd2f3146101bb575b600080fd5b6100cf600480360360208110156100b957600080fd5b810190808035906020019092919050505061035f565b604051808215151515815260200191505060405180910390f35b610115600480360360208110156100ff57600080fd5b810190808035906020019092919050505061037d565b604051808215151515815260200191505060405180910390f35b61015b6004803603602081101561014557600080fd5b810190808035906020019092919050505061039b565b604051808215151515815260200191505060405180910390f35b6101a16004803603602081101561018b57600080fd5b81019080803590602001909291905050506103b9565b604051808215151515815260200191505060405180910390f35b6101e7600480360360208110156101d157600080fd5b81019080803590602001909291905050506103d7565b604051808215151515815260200191505060405180910390f35b61022d6004803603602081101561021757600080fd5b81019080803590602001909291905050506103f5565b604051808215151515815260200191505060405180910390f35b6102736004803603602081101561025d57600080fd5b8101908080359060200190929190505050610413565b604051808215151515815260200191505060405180910390f35b6102b9600480360360208110156102a357600080fd5b8101908080359060200190929190505050610431565b604051808215151515815260200191505060405180910390f35b6102ff600480360360208110156102e957600080fd5b810190808035906020019092919050505061044f565b604051808215151515815260200191505060405180910390f35b6103456004803603602081101561032f57600080fd5b810190808035906020019092919050505061046d565b604051808215151515815260200191505060405180910390f35b6000600d8210156103735760009050610378565b600190505b919050565b6000600d8210156103915760009050610396565b600190505b919050565b6000600d8210156103af57600090506103b4565b600190505b919050565b6000600d8210156103cd57600090506103d2565b600190505b919050565b6000600d8210156103eb57600090506103f0565b600190505b919050565b6000600d821015610409576000905061040e565b600190505b919050565b6000600d821015610427576000905061042c565b600190505b919050565b6000600d821015610445576000905061044a565b600190505b919050565b6000600d8210156104635760009050610468565b600190505b919050565b6000600d8210156104815760009050610486565b600190505b91905056fea265627a7a72315820267b4a2918cfcffbaf4fe5b26898e7ab90476ddc0267144239decdf8f73fdd8664736f6c634300050c0032",
  "source": "pragma solidity ^0.5.0;\n\ncontract TestContract{\n\nconstructor() public {\n}\n\nfunction TestOne(uint a) public view returns(bool success){\n  if (a < 13){\n    return false;\n  }\n  else{\n      return true;\n  }\n}\n\nfunction TestTwo(uint b) public view returns(bool success){\n  if (b < 13){\n    return false;\n  }\n  else{\n      return true;\n  }\n}\n\nfunction TestThree(uint c) public view returns(bool success){\n  if (c < 13){\n    return false;\n  }\n  else{\n      return true;\n  }\n}\n\nfunction TestFour(uint d) public view returns(bool success){\n  if (d < 13){\n    return false;\n  }\n  else{\n      return true;\n  }\n}\n\nfunction TestFive(uint e) public view returns(bool success){\n  if (e < 13){\n    return false;\n  }\n  else{\n      return true;\n  }\n}\n\nfunction TestSix(uint f) public view returns(bool success){\n  if (f < 13){\n    return false;\n  }\n  else{\n      return true;\n  }\n}\n\nfunction TestSeven(uint g) public view returns(bool success){\n  if (g < 13){\n    return false;\n  }\n  else{\n      return true;\n  }\n}\n\nfunction TestEight(uint h) public view returns(bool success){\n  if (h < 13){\n    return false;\n  }\n  else{\n      return true;\n  }\n}\n\nfunction TestNine(uint i) public view returns(bool success){\n  if (i < 13){\n    return false;\n  }\n  else{\n      return true;\n  }\n}\n\nfunction TestTen(uint j) public view returns(bool success){\n  if (j < 13){\n    return false;\n  }\n  else{\n      return true;\n  }\n}\n}\n",
  "sourcePath": "/Users/stefan/Documents/PhD/SolMOSA/Smart Contracts/leq20101/contracts/TestContract.sol",
  "compiler": {
    "name": "solc",
    "version": "0.5.12+commit.7709ece9.Emscripten.clang"
  },
  "schemaVersion": "3.0.19",
  "updatedAt": "2019-12-06T11:13:01.558Z",
  "devdoc": {
    "methods": {}
  },
  "userdoc": {
    "methods": {}
  }
}