{
  "contractName": "SecureAuction",
  "abi": [
    {
      "constant": false,
      "inputs": [],
      "name": "bid",
      "outputs": [],
      "payable": true,
      "type": "function"
    },
    {
      "constant": false,
      "inputs": [],
      "name": "withdraw",
      "outputs": [],
      "payable": false,
      "type": "function"
    }
  ],
  "bytecode": "0x6060604052341561000f57600080fd5b5b6102638061001f6000396000f30060606040526000357c0100000000000000000000000000000000000000000000000000000000900463ffffffff1680631998aeef146100495780633ccfd60b14610053575b600080fd5b610051610068565b005b341561005e57600080fd5b610066610174565b005b6001543411151561007857600080fd5b60008060009054906101000a900473ffffffffffffffffffffffffffffffffffffffff1673ffffffffffffffffffffffffffffffffffffffff1614151561012a57600154600260008060009054906101000a900473ffffffffffffffffffffffffffffffffffffffff1673ffffffffffffffffffffffffffffffffffffffff1673ffffffffffffffffffffffffffffffffffffffff168152602001908152602001600020600082825401925050819055505b336000806101000a81548173ffffffffffffffffffffffffffffffffffffffff021916908373ffffffffffffffffffffffffffffffffffffffff160217905550346001819055505b565b6000600260003373ffffffffffffffffffffffffffffffffffffffff1673ffffffffffffffffffffffffffffffffffffffff1681526020019081526020016000205490506000600260003373ffffffffffffffffffffffffffffffffffffffff1673ffffffffffffffffffffffffffffffffffffffff168152602001908152602001600020819055503373ffffffffffffffffffffffffffffffffffffffff166108fc829081150290604051600060405180830381858888f19350505050505b505600a165627a7a72305820bd1af9abdd1008071ab627bb662a3552355d48d9f5086f04a7fe1a4fa134ea180029",
  "source": "pragma solidity ^0.4.15;\n\n//Secure auction that cannot be DoS'd\ncontract SecureAuction {\n  address currentFrontrunner;\n  uint    currentBid;\n  //Store refunds in mapping to avoid DoS\n  mapping(address => uint) refunds;\n\n  //Avoids \"pushing\" balance to users favoring \"pull\" architecture\n  function bid() payable external {\n    require(msg.value > currentBid);\n\n    if (currentFrontrunner != 0) {\n      refunds[currentFrontrunner] += currentBid;\n    }\n\n    currentFrontrunner = msg.sender;\n    currentBid         = msg.value;\n  }\n\n  //Allows users to get their refund from auction\n  function withdraw() external {\n    //Do all state manipulation before external call to\n    //avoid reentrancy attack\n    uint refund = refunds[msg.sender];\n    refunds[msg.sender] = 0;\n\n    msg.sender.send(refund);\n  }\n}\n",
  "sourcePath": "/Users/stefan/Documents/PhD/SolMOSA/RWContracts/Auction/Auction/contracts/Auction.sol",
  "compiler": {
    "name": "solc",
    "version": "0.4.15+commit.bbb8e64f.Emscripten.clang"
  },
  "schemaVersion": "3.0.19",
  "updatedAt": "2020-01-27T17:47:49.964Z",
  "devdoc": {
    "methods": {}
  },
  "userdoc": {
    "methods": {}
  }
}