{
  "contractName": "Log",
  "abi": [
    {
      "constant": true,
      "inputs": [
        {
          "name": "",
          "type": "uint256"
        }
      ],
      "name": "History",
      "outputs": [
        {
          "name": "Sender",
          "type": "address"
        },
        {
          "name": "Data",
          "type": "string"
        },
        {
          "name": "Val",
          "type": "uint256"
        },
        {
          "name": "Time",
          "type": "uint256"
        }
      ],
      "payable": false,
      "stateMutability": "view",
      "type": "function"
    },
    {
      "constant": false,
      "inputs": [
        {
          "name": "_adr",
          "type": "address"
        },
        {
          "name": "_val",
          "type": "uint256"
        },
        {
          "name": "_data",
          "type": "string"
        }
      ],
      "name": "AddMessage",
      "outputs": [],
      "payable": false,
      "stateMutability": "nonpayable",
      "type": "function"
    }
  ],
  "bytecode": "0x6060604052341561000f57600080fd5b6105ad8061001e6000396000f30060606040526004361061004c576000357c0100000000000000000000000000000000000000000000000000000000900463ffffffff1680634c2f04a414610051578063a21f0368146100d6575b600080fd5b341561005c57600080fd5b6100d4600480803573ffffffffffffffffffffffffffffffffffffffff1690602001909190803590602001909190803590602001908201803590602001908080601f016020809104026020016040519081016040528093929190818152602001838380828437820191505050505050919050506101d0565b005b34156100e157600080fd5b6100f76004808035906020019091905050610317565b604051808573ffffffffffffffffffffffffffffffffffffffff1673ffffffffffffffffffffffffffffffffffffffff168152602001806020018481526020018381526020018281038252858181546001816001161561010002031660029004815260200191508054600181600116156101000203166002900480156101be5780601f10610193576101008083540402835291602001916101be565b820191906000526020600020905b8154815290600101906020018083116101a157829003601f168201915b50509550505050505060405180910390f35b82600160000160006101000a81548173ffffffffffffffffffffffffffffffffffffffff021916908373ffffffffffffffffffffffffffffffffffffffff160217905550426001600301819055508160016002018190555080600180019080519060200190610240929190610375565b506000805480600101828161025591906103f5565b91600052602060002090600402016000600190919091506000820160009054906101000a900473ffffffffffffffffffffffffffffffffffffffff168160000160006101000a81548173ffffffffffffffffffffffffffffffffffffffff021916908373ffffffffffffffffffffffffffffffffffffffff160217905550600182018160010190805460018160011615610100020316600290046102fa929190610427565b506002820154816002015560038201548160030155505050505050565b60008181548110151561032657fe5b90600052602060002090600402016000915090508060000160009054906101000a900473ffffffffffffffffffffffffffffffffffffffff169080600101908060020154908060030154905084565b828054600181600116156101000203166002900490600052602060002090601f016020900481019282601f106103b657805160ff19168380011785556103e4565b828001600101855582156103e4579182015b828111156103e35782518255916020019190600101906103c8565b5b5090506103f191906104ae565b5090565b8154818355818115116104225760040281600402836000526020600020918201910161042191906104d3565b5b505050565b828054600181600116156101000203166002900490600052602060002090601f016020900481019282601f10610460578054855561049d565b8280016001018555821561049d57600052602060002091601f016020900482015b8281111561049c578254825591600101919060010190610481565b5b5090506104aa91906104ae565b5090565b6104d091905b808211156104cc5760008160009055506001016104b4565b5090565b90565b61053691905b8082111561053257600080820160006101000a81549073ffffffffffffffffffffffffffffffffffffffff02191690556001820160006105199190610539565b60028201600090556003820160009055506004016104d9565b5090565b90565b50805460018160011615610100020316600290046000825580601f1061055f575061057e565b601f01602090049060005260206000209081019061057d91906104ae565b5b505600a165627a7a72305820594b18974e54a0e6a4159e032926ab4d31121b757b7109fdb0caa9b7f60fab8b0029",
  "source": "pragma solidity ^0.4.19;\n\ncontract Private_Bank\n{\n    mapping (address => uint) public balances;\n\n    uint public MinDeposit = 1 ether;\n\n    Log TransferLog;\n\n    function Private_Bank(address _log)\n    {\n        TransferLog = Log(_log);\n    }\n\n    function Deposit()\n    public\n    payable\n    {\n        if(msg.value >= MinDeposit)\n        {\n            balances[msg.sender]+=msg.value;\n            TransferLog.AddMessage(msg.sender,msg.value,\"Deposit\");\n        }\n    }\n\n    function CashOut(uint _am)\n    {\n        if(_am<=balances[msg.sender])\n        {\n\n            if(msg.sender.call.value(_am)())\n            {\n                balances[msg.sender]-=_am;\n                TransferLog.AddMessage(msg.sender,_am,\"CashOut\");\n            }\n        }\n    }\n\n    function() public payable{}\n\n}\n\ncontract Log\n{\n\n    struct Message\n    {\n        address Sender;\n        string  Data;\n        uint Val;\n        uint  Time;\n    }\n\n    Message[] public History;\n\n    Message LastMsg;\n\n    function AddMessage(address _adr,uint _val,string _data)\n    public\n    {\n        LastMsg.Sender = _adr;\n        LastMsg.Time = now;\n        LastMsg.Val = _val;\n        LastMsg.Data = _data;\n        History.push(LastMsg);\n    }\n}\n",
  "sourcePath": "/Users/stefan/Documents/PhD/SolMOSA/Smart Contracts/RWContracts/Private_Bank/contracts/Private_Bank.sol",
  "compiler": {
    "name": "solc",
    "version": "0.4.19+commit.c4cbbb05.Emscripten.clang"
  },
  "schemaVersion": "3.0.19",
  "updatedAt": "2020-04-02T08:57:33.784Z",
  "devdoc": {
    "methods": {}
  },
  "userdoc": {
    "methods": {}
  }
}