{
  "contractName": "Private_Bank",
  "abi": [
    {
      "constant": true,
      "inputs": [],
      "name": "MinDeposit",
      "outputs": [
        {
          "name": "",
          "type": "uint256"
        }
      ],
      "payable": false,
      "stateMutability": "view",
      "type": "function"
    },
    {
      "constant": true,
      "inputs": [
        {
          "name": "",
          "type": "address"
        }
      ],
      "name": "balances",
      "outputs": [
        {
          "name": "",
          "type": "uint256"
        }
      ],
      "payable": false,
      "stateMutability": "view",
      "type": "function"
    },
    {
      "inputs": [
        {
          "name": "_log",
          "type": "address"
        }
      ],
      "payable": false,
      "stateMutability": "nonpayable",
      "type": "constructor"
    },
    {
      "payable": true,
      "stateMutability": "payable",
      "type": "fallback"
    },
    {
      "constant": false,
      "inputs": [],
      "name": "Deposit",
      "outputs": [],
      "payable": true,
      "stateMutability": "payable",
      "type": "function"
    },
    {
      "constant": false,
      "inputs": [
        {
          "name": "_am",
          "type": "uint256"
        }
      ],
      "name": "CashOut",
      "outputs": [],
      "payable": false,
      "stateMutability": "nonpayable",
      "type": "function"
    }
  ],
  "bytecode": "0x6060604052670de0b6b3a7640000600155341561001b57600080fd5b6040516020806105228339810160405280805190602001909190505080600260006101000a81548173ffffffffffffffffffffffffffffffffffffffff021916908373ffffffffffffffffffffffffffffffffffffffff1602179055505061049a806100886000396000f300606060405260043610610062576000357c0100000000000000000000000000000000000000000000000000000000900463ffffffff16806311bcd8301461006457806327e235e31461008d5780639ffa0711146100da578063ed21248c146100fd575b005b341561006f57600080fd5b610077610107565b6040518082815260200191505060405180910390f35b341561009857600080fd5b6100c4600480803573ffffffffffffffffffffffffffffffffffffffff1690602001909190505061010d565b6040518082815260200191505060405180910390f35b34156100e557600080fd5b6100fb6004808035906020019091905050610125565b005b610105610303565b005b60015481565b60006020528060005260406000206000915090505481565b6000803373ffffffffffffffffffffffffffffffffffffffff1673ffffffffffffffffffffffffffffffffffffffff1681526020019081526020016000205481111515610300573373ffffffffffffffffffffffffffffffffffffffff168160405160006040518083038185876187965a03f192505050156102ff57806000803373ffffffffffffffffffffffffffffffffffffffff1673ffffffffffffffffffffffffffffffffffffffff16815260200190815260200160002060008282540392505081905550600260009054906101000a900473ffffffffffffffffffffffffffffffffffffffff1673ffffffffffffffffffffffffffffffffffffffff16634c2f04a433836040518363ffffffff167c0100000000000000000000000000000000000000000000000000000000028152600401808373ffffffffffffffffffffffffffffffffffffffff1673ffffffffffffffffffffffffffffffffffffffff16815260200182815260200180602001828103825260078152602001807f436173684f7574000000000000000000000000000000000000000000000000008152506020019350505050600060405180830381600087803b15156102ea57600080fd5b6102c65a03f115156102fb57600080fd5b5050505b5b50565b6001543410151561046c57346000803373ffffffffffffffffffffffffffffffffffffffff1673ffffffffffffffffffffffffffffffffffffffff16815260200190815260200160002060008282540192505081905550600260009054906101000a900473ffffffffffffffffffffffffffffffffffffffff1673ffffffffffffffffffffffffffffffffffffffff16634c2f04a433346040518363ffffffff167c0100000000000000000000000000000000000000000000000000000000028152600401808373ffffffffffffffffffffffffffffffffffffffff1673ffffffffffffffffffffffffffffffffffffffff16815260200182815260200180602001828103825260078152602001807f4465706f736974000000000000000000000000000000000000000000000000008152506020019350505050600060405180830381600087803b151561045757600080fd5b6102c65a03f1151561046857600080fd5b5050505b5600a165627a7a723058203e231252fb5e9300b414eed52c3d75422c7cf2d45c41442c86da2938af3fb3a00029",
  "source": "pragma solidity ^0.4.19;\n\ncontract Private_Bank\n{\n    mapping (address => uint) public balances;\n\n    uint public MinDeposit = 1 ether;\n\n    Log TransferLog;\n\n    function Private_Bank(address _log)\n    {\n        TransferLog = Log(_log);\n    }\n\n    function Deposit()\n    public\n    payable\n    {\n        if(msg.value >= MinDeposit)\n        {\n            balances[msg.sender]+=msg.value;\n            TransferLog.AddMessage(msg.sender,msg.value,\"Deposit\");\n        }\n    }\n\n    function CashOut(uint _am)\n    {\n        if(_am<=balances[msg.sender])\n        {\n\n            if(msg.sender.call.value(_am)())\n            {\n                balances[msg.sender]-=_am;\n                TransferLog.AddMessage(msg.sender,_am,\"CashOut\");\n            }\n        }\n    }\n\n    function() public payable{}\n\n}\n\ncontract Log\n{\n\n    struct Message\n    {\n        address Sender;\n        string  Data;\n        uint Val;\n        uint  Time;\n    }\n\n    Message[] public History;\n\n    Message LastMsg;\n\n    function AddMessage(address _adr,uint _val,string _data)\n    public\n    {\n        LastMsg.Sender = _adr;\n        LastMsg.Time = now;\n        LastMsg.Val = _val;\n        LastMsg.Data = _data;\n        History.push(LastMsg);\n    }\n}\n",
  "sourcePath": "/Users/stefan/Documents/PhD/SolMOSA/Smart Contracts/RWContracts/Private_Bank/contracts/Private_Bank.sol",
  "compiler": {
    "name": "solc",
    "version": "0.4.19+commit.c4cbbb05.Emscripten.clang"
  },
  "schemaVersion": "3.0.19",
  "updatedAt": "2020-04-02T08:57:33.787Z",
  "devdoc": {
    "methods": {}
  },
  "userdoc": {
    "methods": {}
  }
}