{
  "contractName": "TestContract",
  "abi": [
    {
      "inputs": [],
      "payable": false,
      "stateMutability": "nonpayable",
      "type": "constructor"
    },
    {
      "constant": true,
      "inputs": [
        {
          "internalType": "uint256",
          "name": "a",
          "type": "uint256"
        }
      ],
      "name": "TestOne",
      "outputs": [
        {
          "internalType": "bool",
          "name": "success",
          "type": "bool"
        }
      ],
      "payable": false,
      "stateMutability": "view",
      "type": "function"
    },
    {
      "constant": true,
      "inputs": [
        {
          "internalType": "uint256",
          "name": "b",
          "type": "uint256"
        }
      ],
      "name": "TestTwo",
      "outputs": [
        {
          "internalType": "bool",
          "name": "success",
          "type": "bool"
        }
      ],
      "payable": false,
      "stateMutability": "view",
      "type": "function"
    },
    {
      "constant": true,
      "inputs": [
        {
          "internalType": "uint256",
          "name": "c",
          "type": "uint256"
        }
      ],
      "name": "TestThree",
      "outputs": [
        {
          "internalType": "bool",
          "name": "success",
          "type": "bool"
        }
      ],
      "payable": false,
      "stateMutability": "view",
      "type": "function"
    },
    {
      "constant": true,
      "inputs": [
        {
          "internalType": "uint256",
          "name": "d",
          "type": "uint256"
        }
      ],
      "name": "TestFour",
      "outputs": [
        {
          "internalType": "bool",
          "name": "success",
          "type": "bool"
        }
      ],
      "payable": false,
      "stateMutability": "view",
      "type": "function"
    },
    {
      "constant": true,
      "inputs": [
        {
          "internalType": "uint256",
          "name": "e",
          "type": "uint256"
        }
      ],
      "name": "TestFive",
      "outputs": [
        {
          "internalType": "bool",
          "name": "success",
          "type": "bool"
        }
      ],
      "payable": false,
      "stateMutability": "view",
      "type": "function"
    },
    {
      "constant": true,
      "inputs": [
        {
          "internalType": "uint256",
          "name": "f",
          "type": "uint256"
        }
      ],
      "name": "TestSix",
      "outputs": [
        {
          "internalType": "bool",
          "name": "success",
          "type": "bool"
        }
      ],
      "payable": false,
      "stateMutability": "view",
      "type": "function"
    },
    {
      "constant": true,
      "inputs": [
        {
          "internalType": "uint256",
          "name": "g",
          "type": "uint256"
        }
      ],
      "name": "TestSeven",
      "outputs": [
        {
          "internalType": "bool",
          "name": "success",
          "type": "bool"
        }
      ],
      "payable": false,
      "stateMutability": "view",
      "type": "function"
    },
    {
      "constant": true,
      "inputs": [
        {
          "internalType": "uint256",
          "name": "h",
          "type": "uint256"
        }
      ],
      "name": "TestEight",
      "outputs": [
        {
          "internalType": "bool",
          "name": "success",
          "type": "bool"
        }
      ],
      "payable": false,
      "stateMutability": "view",
      "type": "function"
    },
    {
      "constant": true,
      "inputs": [
        {
          "internalType": "uint256",
          "name": "i",
          "type": "uint256"
        }
      ],
      "name": "TestNine",
      "outputs": [
        {
          "internalType": "bool",
          "name": "success",
          "type": "bool"
        }
      ],
      "payable": false,
      "stateMutability": "view",
      "type": "function"
    },
    {
      "constant": true,
      "inputs": [
        {
          "internalType": "uint256",
          "name": "j",
          "type": "uint256"
        }
      ],
      "name": "TestTen",
      "outputs": [
        {
          "internalType": "bool",
          "name": "success",
          "type": "bool"
        }
      ],
      "payable": false,
      "stateMutability": "view",
      "type": "function"
    },
    {
      "constant": true,
      "inputs": [
        {
          "internalType": "uint256",
          "name": "k",
          "type": "uint256"
        }
      ],
      "name": "TestEleven",
      "outputs": [
        {
          "internalType": "bool",
          "name": "success",
          "type": "bool"
        }
      ],
      "payable": false,
      "stateMutability": "view",
      "type": "function"
    },
    {
      "constant": true,
      "inputs": [
        {
          "internalType": "uint256",
          "name": "l",
          "type": "uint256"
        }
      ],
      "name": "TestTwelve",
      "outputs": [
        {
          "internalType": "bool",
          "name": "success",
          "type": "bool"
        }
      ],
      "payable": false,
      "stateMutability": "view",
      "type": "function"
    },
    {
      "constant": true,
      "inputs": [
        {
          "internalType": "uint256",
          "name": "m",
          "type": "uint256"
        }
      ],
      "name": "TestThirteen",
      "outputs": [
        {
          "internalType": "bool",
          "name": "success",
          "type": "bool"
        }
      ],
      "payable": false,
      "stateMutability": "view",
      "type": "function"
    },
    {
      "constant": true,
      "inputs": [
        {
          "internalType": "uint256",
          "name": "n",
          "type": "uint256"
        }
      ],
      "name": "TestFourteen",
      "outputs": [
        {
          "internalType": "bool",
          "name": "success",
          "type": "bool"
        }
      ],
      "payable": false,
      "stateMutability": "view",
      "type": "function"
    },
    {
      "constant": true,
      "inputs": [
        {
          "internalType": "uint256",
          "name": "o",
          "type": "uint256"
        }
      ],
      "name": "TestFifteen",
      "outputs": [
        {
          "internalType": "bool",
          "name": "success",
          "type": "bool"
        }
      ],
      "payable": false,
      "stateMutability": "view",
      "type": "function"
    },
    {
      "constant": true,
      "inputs": [
        {
          "internalType": "uint256",
          "name": "p",
          "type": "uint256"
        }
      ],
      "name": "TestSixteen",
      "outputs": [
        {
          "internalType": "bool",
          "name": "success",
          "type": "bool"
        }
      ],
      "payable": false,
      "stateMutability": "view",
      "type": "function"
    },
    {
      "constant": true,
      "inputs": [
        {
          "internalType": "uint256",
          "name": "q",
          "type": "uint256"
        }
      ],
      "name": "TestSeventeen",
      "outputs": [
        {
          "internalType": "bool",
          "name": "success",
          "type": "bool"
        }
      ],
      "payable": false,
      "stateMutability": "view",
      "type": "function"
    },
    {
      "constant": true,
      "inputs": [
        {
          "internalType": "uint256",
          "name": "r",
          "type": "uint256"
        }
      ],
      "name": "TestEighteen",
      "outputs": [
        {
          "internalType": "bool",
          "name": "success",
          "type": "bool"
        }
      ],
      "payable": false,
      "stateMutability": "view",
      "type": "function"
    },
    {
      "constant": true,
      "inputs": [
        {
          "internalType": "uint256",
          "name": "s",
          "type": "uint256"
        }
      ],
      "name": "TestNineteen",
      "outputs": [
        {
          "internalType": "bool",
          "name": "success",
          "type": "bool"
        }
      ],
      "payable": false,
      "stateMutability": "view",
      "type": "function"
    },
    {
      "constant": true,
      "inputs": [
        {
          "internalType": "uint256",
          "name": "t",
          "type": "uint256"
        }
      ],
      "name": "TestTwenty",
      "outputs": [
        {
          "internalType": "bool",
          "name": "success",
          "type": "bool"
        }
      ],
      "payable": false,
      "stateMutability": "view",
      "type": "function"
    },
    {
      "constant": true,
      "inputs": [
        {
          "internalType": "uint256",
          "name": "u",
          "type": "uint256"
        }
      ],
      "name": "TestTwentyOne",
      "outputs": [
        {
          "internalType": "bool",
          "name": "success",
          "type": "bool"
        }
      ],
      "payable": false,
      "stateMutability": "view",
      "type": "function"
    },
    {
      "constant": true,
      "inputs": [
        {
          "internalType": "uint256",
          "name": "v",
          "type": "uint256"
        }
      ],
      "name": "TestTwentyTwo",
      "outputs": [
        {
          "internalType": "bool",
          "name": "success",
          "type": "bool"
        }
      ],
      "payable": false,
      "stateMutability": "view",
      "type": "function"
    },
    {
      "constant": true,
      "inputs": [
        {
          "internalType": "uint256",
          "name": "w",
          "type": "uint256"
        }
      ],
      "name": "TestTwentyThree",
      "outputs": [
        {
          "internalType": "bool",
          "name": "success",
          "type": "bool"
        }
      ],
      "payable": false,
      "stateMutability": "view",
      "type": "function"
    },
    {
      "constant": true,
      "inputs": [
        {
          "internalType": "uint256",
          "name": "x",
          "type": "uint256"
        }
      ],
      "name": "TestTwentyFour",
      "outputs": [
        {
          "internalType": "bool",
          "name": "success",
          "type": "bool"
        }
      ],
      "payable": false,
      "stateMutability": "view",
      "type": "function"
    },
    {
      "constant": true,
      "inputs": [
        {
          "internalType": "uint256",
          "name": "o",
          "type": "uint256"
        }
      ],
      "name": "TestTwentyFive",
      "outputs": [
        {
          "internalType": "bool",
          "name": "success",
          "type": "bool"
        }
      ],
      "payable": false,
      "stateMutability": "view",
      "type": "function"
    },
    {
      "constant": true,
      "inputs": [
        {
          "internalType": "uint256",
          "name": "p",
          "type": "uint256"
        }
      ],
      "name": "TestTwentySix",
      "outputs": [
        {
          "internalType": "bool",
          "name": "success",
          "type": "bool"
        }
      ],
      "payable": false,
      "stateMutability": "view",
      "type": "function"
    },
    {
      "constant": true,
      "inputs": [
        {
          "internalType": "uint256",
          "name": "q",
          "type": "uint256"
        }
      ],
      "name": "TestTwentySeven",
      "outputs": [
        {
          "internalType": "bool",
          "name": "success",
          "type": "bool"
        }
      ],
      "payable": false,
      "stateMutability": "view",
      "type": "function"
    },
    {
      "constant": true,
      "inputs": [
        {
          "internalType": "uint256",
          "name": "r",
          "type": "uint256"
        }
      ],
      "name": "TestTwentyEight",
      "outputs": [
        {
          "internalType": "bool",
          "name": "success",
          "type": "bool"
        }
      ],
      "payable": false,
      "stateMutability": "view",
      "type": "function"
    },
    {
      "constant": true,
      "inputs": [
        {
          "internalType": "uint256",
          "name": "s",
          "type": "uint256"
        }
      ],
      "name": "TestTwentyNine",
      "outputs": [
        {
          "internalType": "bool",
          "name": "success",
          "type": "bool"
        }
      ],
      "payable": false,
      "stateMutability": "view",
      "type": "function"
    },
    {
      "constant": true,
      "inputs": [
        {
          "internalType": "uint256",
          "name": "t",
          "type": "uint256"
        }
      ],
      "name": "TestThirty",
      "outputs": [
        {
          "internalType": "bool",
          "name": "success",
          "type": "bool"
        }
      ],
      "payable": false,
      "stateMutability": "view",
      "type": "function"
    }
  ],
  "bytecode": "0x608060405234801561001057600080fd5b50610dcb806100206000396000f3fe608060405234801561001057600080fd5b50600436106101d95760003560e01c8063ac35763211610104578063cb959b63116100a2578063ecc9a7d711610071578063ecc9a7d7146108fa578063eed687c714610940578063f9392b5914610986578063fc78699e146109cc576101d9565b8063cb959b63146107e2578063d7667f9914610828578063df80efd61461086e578063e2b9dcd5146108b4576101d9565b8063bd76f3ba116100de578063bd76f3ba146106ca578063c1e0e10014610710578063c63e642714610756578063c7823ae81461079c576101d9565b8063ac357632146105f8578063ad6fc2591461063e578063ba5278d314610684576101d9565b806356208a6d1161017c57806372fdcfd31161014b57806372fdcfd3146104e0578063770748ee1461052657806384efc0001461056c5780638f10e3a0146105b2576101d9565b806356208a6d146103c85780635a2cd2f31461040e5780636623e5f41461045457806367e65b241461049a576101d9565b80632650b6c5116101b85780632650b6c5146102b05780633e11eb64146102f65780634e4727dd1461033c57806354d3155214610382576101d9565b80622ec82f146101de578063066c36e2146102245780631a5e90f91461026a575b600080fd5b61020a600480360360208110156101f457600080fd5b8101908080359060200190929190505050610a12565b604051808215151515815260200191505060405180910390f35b6102506004803603602081101561023a57600080fd5b8101908080359060200190929190505050610a30565b604051808215151515815260200191505060405180910390f35b6102966004803603602081101561028057600080fd5b8101908080359060200190929190505050610a4e565b604051808215151515815260200191505060405180910390f35b6102dc600480360360208110156102c657600080fd5b8101908080359060200190929190505050610a6c565b604051808215151515815260200191505060405180910390f35b6103226004803603602081101561030c57600080fd5b8101908080359060200190929190505050610a8a565b604051808215151515815260200191505060405180910390f35b6103686004803603602081101561035257600080fd5b8101908080359060200190929190505050610aa8565b604051808215151515815260200191505060405180910390f35b6103ae6004803603602081101561039857600080fd5b8101908080359060200190929190505050610ac6565b604051808215151515815260200191505060405180910390f35b6103f4600480360360208110156103de57600080fd5b8101908080359060200190929190505050610ae4565b604051808215151515815260200191505060405180910390f35b61043a6004803603602081101561042457600080fd5b8101908080359060200190929190505050610b02565b604051808215151515815260200191505060405180910390f35b6104806004803603602081101561046a57600080fd5b8101908080359060200190929190505050610b20565b604051808215151515815260200191505060405180910390f35b6104c6600480360360208110156104b057600080fd5b8101908080359060200190929190505050610b3e565b604051808215151515815260200191505060405180910390f35b61050c600480360360208110156104f657600080fd5b8101908080359060200190929190505050610b5c565b604051808215151515815260200191505060405180910390f35b6105526004803603602081101561053c57600080fd5b8101908080359060200190929190505050610b7a565b604051808215151515815260200191505060405180910390f35b6105986004803603602081101561058257600080fd5b8101908080359060200190929190505050610b98565b604051808215151515815260200191505060405180910390f35b6105de600480360360208110156105c857600080fd5b8101908080359060200190929190505050610bb6565b604051808215151515815260200191505060405180910390f35b6106246004803603602081101561060e57600080fd5b8101908080359060200190929190505050610bd4565b604051808215151515815260200191505060405180910390f35b61066a6004803603602081101561065457600080fd5b8101908080359060200190929190505050610bf2565b604051808215151515815260200191505060405180910390f35b6106b06004803603602081101561069a57600080fd5b8101908080359060200190929190505050610c10565b604051808215151515815260200191505060405180910390f35b6106f6600480360360208110156106e057600080fd5b8101908080359060200190929190505050610c2e565b604051808215151515815260200191505060405180910390f35b61073c6004803603602081101561072657600080fd5b8101908080359060200190929190505050610c4c565b604051808215151515815260200191505060405180910390f35b6107826004803603602081101561076c57600080fd5b8101908080359060200190929190505050610c6a565b604051808215151515815260200191505060405180910390f35b6107c8600480360360208110156107b257600080fd5b8101908080359060200190929190505050610c88565b604051808215151515815260200191505060405180910390f35b61080e600480360360208110156107f857600080fd5b8101908080359060200190929190505050610ca6565b604051808215151515815260200191505060405180910390f35b6108546004803603602081101561083e57600080fd5b8101908080359060200190929190505050610cc4565b604051808215151515815260200191505060405180910390f35b61089a6004803603602081101561088457600080fd5b8101908080359060200190929190505050610ce2565b604051808215151515815260200191505060405180910390f35b6108e0600480360360208110156108ca57600080fd5b8101908080359060200190929190505050610d00565b604051808215151515815260200191505060405180910390f35b6109266004803603602081101561091057600080fd5b8101908080359060200190929190505050610d1e565b604051808215151515815260200191505060405180910390f35b61096c6004803603602081101561095657600080fd5b8101908080359060200190929190505050610d3c565b604051808215151515815260200191505060405180910390f35b6109b26004803603602081101561099c57600080fd5b8101908080359060200190929190505050610d5a565b604051808215151515815260200191505060405180910390f35b6109f8600480360360208110156109e257600080fd5b8101908080359060200190929190505050610d78565b604051808215151515815260200191505060405180910390f35b60006080821415610a265760009050610a2b565b600190505b919050565b60006080821415610a445760009050610a49565b600190505b919050565b60006080821415610a625760009050610a67565b600190505b919050565b60006080821415610a805760009050610a85565b600190505b919050565b60006080821415610a9e5760009050610aa3565b600190505b919050565b60006080821415610abc5760009050610ac1565b600190505b919050565b60006080821415610ada5760009050610adf565b600190505b919050565b60006080821415610af85760009050610afd565b600190505b919050565b60006080821415610b165760009050610b1b565b600190505b919050565b60006080821415610b345760009050610b39565b600190505b919050565b60006080821415610b525760009050610b57565b600190505b919050565b60006080821415610b705760009050610b75565b600190505b919050565b60006080821415610b8e5760009050610b93565b600190505b919050565b60006080821415610bac5760009050610bb1565b600190505b919050565b60006080821415610bca5760009050610bcf565b600190505b919050565b60006080821415610be85760009050610bed565b600190505b919050565b60006080821415610c065760009050610c0b565b600190505b919050565b60006080821415610c245760009050610c29565b600190505b919050565b60006080821415610c425760009050610c47565b600190505b919050565b60006080821415610c605760009050610c65565b600190505b919050565b60006080821415610c7e5760009050610c83565b600190505b919050565b60006080821415610c9c5760009050610ca1565b600190505b919050565b60006080821415610cba5760009050610cbf565b600190505b919050565b60006080821415610cd85760009050610cdd565b600190505b919050565b60006080821415610cf65760009050610cfb565b600190505b919050565b60006080821415610d145760009050610d19565b600190505b919050565b60006080821415610d325760009050610d37565b600190505b919050565b60006080821415610d505760009050610d55565b600190505b919050565b60006080821415610d6e5760009050610d73565b600190505b919050565b60006080821415610d8c5760009050610d91565b600190505b91905056fea265627a7a7231582063c88b31b747ba3fb13eeb3a5ba20805cc65466a1f64715ac290bc7d669cb65464736f6c634300050c0032",
  "source": "pragma solidity ^0.5.0;\n\ncontract TestContract{\n\nconstructor() public {\n}\n\nfunction TestOne(uint a) public view returns(bool success){\n  if (a == 128){\n    return false;\n  }\n  else{\n      return true;\n  }\n}\n\nfunction TestTwo(uint b) public view returns(bool success){\n  if (b == 128){\n    return false;\n  }\n  else{\n      return true;\n  }\n}\n\nfunction TestThree(uint c) public view returns(bool success){\n  if (c == 128){\n    return false;\n  }\n  else{\n      return true;\n  }\n}\n\nfunction TestFour(uint d) public view returns(bool success){\n  if (d == 128){\n    return false;\n  }\n  else{\n      return true;\n  }\n}\n\nfunction TestFive(uint e) public view returns(bool success){\n  if (e == 128){\n    return false;\n  }\n  else{\n      return true;\n  }\n}\n\nfunction TestSix(uint f) public view returns(bool success){\n  if (f == 128){\n    return false;\n  }\n  else{\n      return true;\n  }\n}\n\nfunction TestSeven(uint g) public view returns(bool success){\n  if (g == 128){\n    return false;\n  }\n  else{\n      return true;\n  }\n}\n\nfunction TestEight(uint h) public view returns(bool success){\n  if (h == 128){\n    return false;\n  }\n  else{\n      return true;\n  }\n}\n\nfunction TestNine(uint i) public view returns(bool success){\n  if (i == 128){\n    return false;\n  }\n  else{\n      return true;\n  }\n}\n\nfunction TestTen(uint j) public view returns(bool success){\n  if (j == 128){\n    return false;\n  }\n  else{\n      return true;\n  }\n}\n\nfunction TestEleven(uint k) public view returns(bool success){\n  if (k == 128){\n    return false;\n  }\n  else{\n      return true;\n  }\n}\n\nfunction TestTwelve(uint l) public view returns(bool success){\n  if (l == 128){\n    return false;\n  }\n  else{\n      return true;\n  }\n}\n\nfunction TestThirteen(uint m) public view returns(bool success){\n  if (m == 128){\n    return false;\n  }\n  else{\n      return true;\n  }\n}\n\nfunction TestFourteen(uint n) public view returns(bool success){\n  if (n == 128){\n    return false;\n  }\n  else{\n      return true;\n  }\n}\n\nfunction TestFifteen(uint o) public view returns(bool success){\n  if (o == 128){\n    return false;\n  }\n  else{\n      return true;\n  }\n}\n\nfunction TestSixteen(uint p) public view returns(bool success){\n  if (p == 128){\n    return false;\n  }\n  else{\n      return true;\n  }\n}\n\nfunction TestSeventeen(uint q) public view returns(bool success){\n  if (q == 128){\n    return false;\n  }\n  else{\n      return true;\n  }\n}\n\nfunction TestEighteen(uint r) public view returns(bool success){\n  if (r == 128){\n    return false;\n  }\n  else{\n      return true;\n  }\n}\n\nfunction TestNineteen(uint s) public view returns(bool success){\n  if (s == 128){\n    return false;\n  }\n  else{\n      return true;\n  }\n}\n\nfunction TestTwenty(uint t) public view returns(bool success){\n  if (t == 128){\n    return false;\n  }\n  else{\n      return true;\n  }\n}\n\nfunction TestTwentyOne(uint u) public view returns(bool success){\n  if (u == 128){\n    return false;\n  }\n  else{\n      return true;\n  }\n}\n\nfunction TestTwentyTwo(uint v) public view returns(bool success){\n  if (v == 128){\n    return false;\n  }\n  else{\n      return true;\n  }\n}\n\nfunction TestTwentyThree(uint w) public view returns(bool success){\n  if (w == 128){\n    return false;\n  }\n  else{\n      return true;\n  }\n}\n\nfunction TestTwentyFour(uint x) public view returns(bool success){\n  if (x == 128){\n    return false;\n  }\n  else{\n      return true;\n  }\n}\n\nfunction TestTwentyFive(uint o) public view returns(bool success){\n  if (o == 128){\n    return false;\n  }\n  else{\n      return true;\n  }\n}\n\nfunction TestTwentySix(uint p) public view returns(bool success){\n  if (p == 128){\n    return false;\n  }\n  else{\n      return true;\n  }\n}\n\nfunction TestTwentySeven(uint q) public view returns(bool success){\n  if (q == 128){\n    return false;\n  }\n  else{\n      return true;\n  }\n}\n\nfunction TestTwentyEight(uint r) public view returns(bool success){\n  if (r == 128){\n    return false;\n  }\n  else{\n      return true;\n  }\n}\n\nfunction TestTwentyNine(uint s) public view returns(bool success){\n  if (s == 128){\n    return false;\n  }\n  else{\n      return true;\n  }\n}\n\nfunction TestThirty(uint t) public view returns(bool success){\n  if (t == 128){\n    return false;\n  }\n  else{\n      return true;\n  }\n}\n}\n",
  "sourcePath": "/Users/stefan/Documents/PhD/SolMOSA/Smart Contracts/eq60301/contracts/TestContract.sol",
  "compiler": {
    "name": "solc",
    "version": "0.5.12+commit.7709ece9.Emscripten.clang"
  },
  "schemaVersion": "3.0.19",
  "updatedAt": "2019-12-06T11:10:31.843Z",
  "devdoc": {
    "methods": {}
  },
  "userdoc": {
    "methods": {}
  }
}