{
  "contractName": "TestContract",
  "abi": [
    {
      "inputs": [],
      "payable": false,
      "stateMutability": "nonpayable",
      "type": "constructor"
    },
    {
      "constant": true,
      "inputs": [
        {
          "name": "a",
          "type": "uint256"
        },
        {
          "name": "b",
          "type": "uint256"
        },
        {
          "name": "c",
          "type": "uint256"
        },
        {
          "name": "d",
          "type": "uint256"
        },
        {
          "name": "e",
          "type": "uint256"
        },
        {
          "name": "f",
          "type": "uint256"
        },
        {
          "name": "g",
          "type": "uint256"
        },
        {
          "name": "h",
          "type": "uint256"
        },
        {
          "name": "i",
          "type": "uint256"
        }
      ],
      "name": "TestOne",
      "outputs": [
        {
          "name": "success",
          "type": "bool"
        }
      ],
      "payable": false,
      "stateMutability": "view",
      "type": "function"
    }
  ],
  "bytecode": "0x608060405234801561001057600080fd5b506101e7806100206000396000f3fe608060405260043610610041576000357c0100000000000000000000000000000000000000000000000000000000900463ffffffff1680637a83316214610046575b600080fd5b34801561005257600080fd5b506100d0600480360361012081101561006a57600080fd5b810190808035906020019092919080359060200190929190803590602001909291908035906020019092919080359060200190929190803590602001909291908035906020019092919080359060200190929190803590602001909291905050506100ea565b604051808215151515815260200191505060405180910390f35b60008060009050600d8b1015610105576001810190506101a9565b600d8a1015610119576001810190506101a8565b600d89101561012d576001810190506101a7565b600d881015610141576001810190506101a6565b600d871015610155576001810190506101a5565b600d861015610169576001810190506101a4565b600d85101561017d576001810190506101a3565b600d841015610191576001810190506101a2565b600d8310156101a1576001810190505b5b5b5b5b5b5b5b5b6001915050999850505050505050505056fea165627a7a7230582095fd4ace282fe3743a8dc15febfcd2f044a5a248c1872803f01d8c0754a4b2e30029",
  "source": "pragma solidity ^0.5.0;\n\ncontract TestContract{\n\nconstructor() public {\n}\n\nfunction TestOne(uint a, uint b, uint c, uint d, uint e, uint f, uint g, uint h, uint i) public view returns(bool success){\n  uint ans = 0;\n  if (a < 13){\n    ans = ans + 1;\n  }\n  else if (b < 13){\n    ans = ans + 1;\n  }\n  else if (c < 13){\n    ans = ans + 1;\n  }\n  else if (d < 13){\n    ans = ans + 1;\n  }\n  else if (e < 13){\n    ans = ans + 1;\n  }\n  else if (f < 13){\n    ans = ans + 1;\n  }\n  else if (g < 13){\n    ans = ans + 1;\n  }\n  else if (h < 13){\n    ans = ans + 1;\n  }\n  else if (i < 13){\n    ans = ans + 1;\n  }\n  return true;\n}\n}\n",
  "sourcePath": "/home/stefan/JADS/Scriptie/Master_Thesis/Code/Smart Contracts/leq1019/contracts/TestContract.sol",
  "compiler": {
    "name": "solc",
    "version": "0.5.0+commit.1d4f565a.Emscripten.clang"
  },
  "schemaVersion": "3.0.9",
  "updatedAt": "2019-05-30T19:47:47.078Z",
  "devdoc": {
    "methods": {}
  },
  "userdoc": {
    "methods": {}
  }
}