{
  "contractName": "LotteryMultipleWinners",
  "abi": [
    {
      "inputs": [],
      "payable": false,
      "stateMutability": "nonpayable",
      "type": "constructor"
    },
    {
      "constant": false,
      "inputs": [
        {
          "name": "_chosenNumber",
          "type": "uint8"
        }
      ],
      "name": "join",
      "outputs": [],
      "payable": true,
      "stateMutability": "payable",
      "type": "function"
    },
    {
      "constant": false,
      "inputs": [],
      "name": "selectWinners",
      "outputs": [
        {
          "name": "",
          "type": "uint256"
        }
      ],
      "payable": false,
      "stateMutability": "nonpayable",
      "type": "function"
    },
    {
      "constant": false,
      "inputs": [],
      "name": "withdrawReward",
      "outputs": [],
      "payable": false,
      "stateMutability": "nonpayable",
      "type": "function"
    },
    {
      "constant": true,
      "inputs": [],
      "name": "isWinner",
      "outputs": [
        {
          "name": "",
          "type": "bool"
        }
      ],
      "payable": false,
      "stateMutability": "view",
      "type": "function"
    }
  ],
  "bytecode": "0x6080604052600060015534801561001557600080fd5b50336000806101000a81548173ffffffffffffffffffffffffffffffffffffffff021916908373ffffffffffffffffffffffffffffffffffffffff1602179055506000600460006101000a81548160ff0219169083600181111561007557fe5b02179055506108ae806100896000396000f300608060405260043610610062576000357c0100000000000000000000000000000000000000000000000000000000900463ffffffff1680631a0de74c146100675780631a9b0b7c14610092578063c885bc58146100c1578063cb3e9b84146100d8575b600080fd5b34801561007357600080fd5b5061007c6100fb565b6040518082815260200191505060405180910390f35b34801561009e57600080fd5b506100a761024b565b604051808215151515815260200191505060405180910390f35b3480156100cd57600080fd5b506100d66102e3565b005b6100f9600480360381019080803560ff1690602001909291905050506104cb565b005b6000806000809054906101000a900473ffffffffffffffffffffffffffffffffffffffff1673ffffffffffffffffffffffffffffffffffffffff163373ffffffffffffffffffffffffffffffffffffffff161415156101c2576040517f08c379a000000000000000000000000000000000000000000000000000000000815260040180806020018281038252600d8152602001807f4d757374206265206f776e65720000000000000000000000000000000000000081525060200191505060405180910390fd5b6001600460006101000a81548160ff021916908360018111156101e157fe5b021790555060016101f260646106ef565b0190506006600082815260200190815260200160002060029080546102189291906107ed565b506002805490503073ffffffffffffffffffffffffffffffffffffffff163181151561024057fe5b046003819055505090565b600080600090506002805490508110156102de573373ffffffffffffffffffffffffffffffffffffffff1660028281548110151561028557fe5b9060005260206000200160009054906101000a900473ffffffffffffffffffffffffffffffffffffffff1673ffffffffffffffffffffffffffffffffffffffff1614156102d557600191506102df565b600091506102df565b5b5090565b6102eb61024b565b151561035f576040517f08c379a00000000000000000000000000000000000000000000000000000000081526004018080602001828103825260148152602001807f596f75206d75737420626520612077696e6e657200000000000000000000000081525060200191505060405180910390fd5b60011515600560003373ffffffffffffffffffffffffffffffffffffffff1673ffffffffffffffffffffffffffffffffffffffff16815260200190815260200160002060009054906101000a900460ff16151514151515610428576040517f08c379a00000000000000000000000000000000000000000000000000000000081526004018080602001828103825260188152602001807f596f75206861766520676f7420796f757220726577617264000000000000000081525060200191505060405180910390fd5b6001600560003373ffffffffffffffffffffffffffffffffffffffff1673ffffffffffffffffffffffffffffffffffffffff16815260200190815260200160002060006101000a81548160ff0219169083151502179055503373ffffffffffffffffffffffffffffffffffffffff166108fc6003549081150290604051600060405180830381858888f193505050501580156104c8573d6000803e3d6000fd5b50565b60008160ff161180156104e2575060648160ff1611155b1515610556576040517f08c379a00000000000000000000000000000000000000000000000000000000081526004018080602001828103825260178152602001807f4e756d626572206d75737420626520696e20312d31303000000000000000000081525060200191505060405180910390fd5b67016345785d8a0000341415156105d5576040517f08c379a00000000000000000000000000000000000000000000000000000000081526004018080602001828103825260188152602001807f5472616e7366657220302e312045746820746f206a6f696e000000000000000081525060200191505060405180910390fd5b600060018111156105e257fe5b600460009054906101000a900460ff1660018111156105fd57fe5b141515610672576040517f08c379a00000000000000000000000000000000000000000000000000000000081526004018080602001828103825260118152602001807f4c6f747465727920697320636c6f73656400000000000000000000000000000081525060200191505060405180910390fd5b600660008260ff1681526020019081526020016000203390806001815401808255809150509060018203906000526020600020016000909192909190916101000a81548173ffffffffffffffffffffffffffffffffffffffff021916908373ffffffffffffffffffffffffffffffffffffffff1602179055505050565b600080824233600154604051602001808481526020018373ffffffffffffffffffffffffffffffffffffffff1673ffffffffffffffffffffffffffffffffffffffff166c0100000000000000000000000002815260140182815260200193505050506040516020818303038152906040526040518082805190602001908083835b6020831015156107955780518252602082019150602081019050602083039250610770565b6001836020036101000a0380198251168184511680821785525050505050509050019150506040518091039020600190048115156107cf57fe5b06905060016000815480929190600101919050555080915050919050565b82805482825590600052602060002090810192821561082e5760005260206000209182015b8281111561082d578254825591600101919060010190610812565b5b50905061083b919061083f565b5090565b61087f91905b8082111561087b57600081816101000a81549073ffffffffffffffffffffffffffffffffffffffff021916905550600101610845565b5090565b905600a165627a7a723058200a59a91702f0d4f56ee2825b46260ab74b053fc1974960ae4eda9f91bdbb29ba0029",
  "source": "pragma solidity ^0.4.23;\n\ncontract LotteryMultipleWinners {\n    address owner;\n    uint randNonce = 0;\n    address[] winners;\n    uint prize;\n\n    enum LotteryState { Accepting, Finished }\n    LotteryState state;\n\n    mapping (address => bool) gotReward;\n    mapping (uint => address[]) choices;\n\n    modifier isOwner {\n        require(msg.sender == owner, \"Must be owner\");\n        _;\n    }\n\n    constructor() public {\n        owner = msg.sender;\n        state = LotteryState.Accepting;\n    }\n\n    function join(uint8 _chosenNumber) payable public {\n        require(_chosenNumber > 0 && _chosenNumber <= 100, \"Number must be in 1-100\");\n        require(msg.value == 0.1 ether, \"Transfer 0.1 Eth to join\");\n        require(state == LotteryState.Accepting, \"Lottery is closed\");\n        choices[_chosenNumber].push(msg.sender);\n    }\n\n    function selectWinners() public isOwner returns(uint) {\n        state = LotteryState.Finished;\n        uint chosen = randomNumber(100) + 1;\n        winners = choices[chosen];\n        prize = address(this).balance / winners.length;\n    }\n\n    function withdrawReward() public {\n        require(isWinner(), \"You must be a winner\");\n        require(gotReward[msg.sender] != true, \"You have got your reward\");\n        gotReward[msg.sender] = true;\n        msg.sender.transfer(prize);\n    }\n\n    function isWinner() public view returns(bool) {\n        for(uint i = 0; i < winners.length; i++) {\n            if (winners[i] == msg.sender) {\n                return true;\n            } else {\n                return false;\n            }\n        }\n    }\n\n    function randomNumber(uint _limit) internal returns(uint) {\n        uint rand = uint(keccak256(abi.encodePacked(now, msg.sender, randNonce))) % _limit;\n        randNonce++;\n        return rand;\n    }\n\n}\n",
  "sourcePath": "/Users/stefan/Documents/PhD/SolMOSA/Smart Contracts/RWContracts/learning-solidity-2018/LotteryMultipleWinners/contracts/LotteryMultipleWinners.sol",
  "compiler": {
    "name": "solc",
    "version": "0.4.23+commit.124ca40d.Emscripten.clang"
  },
  "schemaVersion": "3.0.19",
  "updatedAt": "2020-03-26T10:16:43.090Z",
  "devdoc": {
    "methods": {}
  },
  "userdoc": {
    "methods": {}
  }
}