{
  "contractName": "BadAuction",
  "abi": [
    {
      "constant": false,
      "inputs": [],
      "name": "bid",
      "outputs": [],
      "payable": true,
      "stateMutability": "payable",
      "type": "function"
    }
  ],
  "bytecode": "0x6060604052341561000f57600080fd5b61017b8061001e6000396000f300606060405260043610610041576000357c0100000000000000000000000000000000000000000000000000000000900463ffffffff1680631998aeef14610046575b600080fd5b61004e610050565b005b600154341015151561006157600080fd5b60008060009054906101000a900473ffffffffffffffffffffffffffffffffffffffff1673ffffffffffffffffffffffffffffffffffffffff16141515610106576000809054906101000a900473ffffffffffffffffffffffffffffffffffffffff1673ffffffffffffffffffffffffffffffffffffffff166108fc6001549081150290604051600060405180830381858888f19350505050151561010557600080fd5b5b336000806101000a81548173ffffffffffffffffffffffffffffffffffffffff021916908373ffffffffffffffffffffffffffffffffffffffff160217905550346001819055505600a165627a7a7230582010b7730a94ceb0e538f9cb24d651d18cbeea2128c1db5b0fa42842214811ea940029",
  "source": "// This code contains deliberate errors. Do not use.\n\npragma solidity ^0.4.21;\n\ncontract BadAuction {\n\n    address highestBidder;\n    uint highestBid;\n\n    function bid() public payable {\n        require(msg.value >= highestBid);\n\n        if (highestBidder != 0) {\n            highestBidder.transfer(highestBid);\n        }\n\n        highestBidder = msg.sender;\n        highestBid = msg.value;\n    }\n}\n",
  "sourcePath": "/Users/stefan/Documents/PhD/SolMOSA/Smart Contracts/RWContracts/PullOverPush/contracts/BadAuction.sol",
  "compiler": {
    "name": "solc",
    "version": "0.4.21+commit.dfe3193c.Emscripten.clang"
  },
  "schemaVersion": "3.0.19",
  "updatedAt": "2020-04-02T12:35:52.579Z",
  "devdoc": {
    "methods": {}
  },
  "userdoc": {
    "methods": {}
  }
}