{
  "contractName": "MyAdvancedToken",
  "abi": [
    {
      "constant": true,
      "inputs": [],
      "name": "name",
      "outputs": [
        {
          "name": "",
          "type": "string"
        }
      ],
      "payable": false,
      "stateMutability": "view",
      "type": "function"
    },
    {
      "constant": false,
      "inputs": [
        {
          "name": "_spender",
          "type": "address"
        },
        {
          "name": "_value",
          "type": "uint256"
        }
      ],
      "name": "approve",
      "outputs": [
        {
          "name": "success",
          "type": "bool"
        }
      ],
      "payable": false,
      "stateMutability": "nonpayable",
      "type": "function"
    },
    {
      "constant": true,
      "inputs": [],
      "name": "totalSupply",
      "outputs": [
        {
          "name": "",
          "type": "uint256"
        }
      ],
      "payable": false,
      "stateMutability": "view",
      "type": "function"
    },
    {
      "constant": false,
      "inputs": [
        {
          "name": "_from",
          "type": "address"
        },
        {
          "name": "_to",
          "type": "address"
        },
        {
          "name": "_value",
          "type": "uint256"
        }
      ],
      "name": "transferFrom",
      "outputs": [
        {
          "name": "success",
          "type": "bool"
        }
      ],
      "payable": false,
      "stateMutability": "nonpayable",
      "type": "function"
    },
    {
      "constant": true,
      "inputs": [],
      "name": "decimals",
      "outputs": [
        {
          "name": "",
          "type": "uint8"
        }
      ],
      "payable": false,
      "stateMutability": "view",
      "type": "function"
    },
    {
      "constant": true,
      "inputs": [
        {
          "name": "",
          "type": "address"
        }
      ],
      "name": "balanceOf",
      "outputs": [
        {
          "name": "",
          "type": "uint256"
        }
      ],
      "payable": false,
      "stateMutability": "view",
      "type": "function"
    },
    {
      "constant": true,
      "inputs": [],
      "name": "owner",
      "outputs": [
        {
          "name": "",
          "type": "address"
        }
      ],
      "payable": false,
      "stateMutability": "view",
      "type": "function"
    },
    {
      "constant": true,
      "inputs": [],
      "name": "symbol",
      "outputs": [
        {
          "name": "",
          "type": "string"
        }
      ],
      "payable": false,
      "stateMutability": "view",
      "type": "function"
    },
    {
      "constant": false,
      "inputs": [
        {
          "name": "_to",
          "type": "address"
        },
        {
          "name": "_value",
          "type": "uint256"
        }
      ],
      "name": "transfer",
      "outputs": [
        {
          "name": "success",
          "type": "bool"
        }
      ],
      "payable": false,
      "stateMutability": "nonpayable",
      "type": "function"
    },
    {
      "constant": true,
      "inputs": [
        {
          "name": "",
          "type": "address"
        }
      ],
      "name": "frozenAccount",
      "outputs": [
        {
          "name": "",
          "type": "bool"
        }
      ],
      "payable": false,
      "stateMutability": "view",
      "type": "function"
    },
    {
      "constant": false,
      "inputs": [
        {
          "name": "_spender",
          "type": "address"
        },
        {
          "name": "_value",
          "type": "uint256"
        },
        {
          "name": "_extraData",
          "type": "bytes"
        }
      ],
      "name": "approveAndCall",
      "outputs": [
        {
          "name": "success",
          "type": "bool"
        }
      ],
      "payable": false,
      "stateMutability": "nonpayable",
      "type": "function"
    },
    {
      "constant": true,
      "inputs": [
        {
          "name": "",
          "type": "address"
        },
        {
          "name": "",
          "type": "address"
        }
      ],
      "name": "allowance",
      "outputs": [
        {
          "name": "",
          "type": "uint256"
        }
      ],
      "payable": false,
      "stateMutability": "view",
      "type": "function"
    },
    {
      "constant": false,
      "inputs": [
        {
          "name": "newOwner",
          "type": "address"
        }
      ],
      "name": "transferOwnership",
      "outputs": [],
      "payable": false,
      "stateMutability": "nonpayable",
      "type": "function"
    },
    {
      "inputs": [
        {
          "name": "tokenName",
          "type": "string"
        },
        {
          "name": "tokenSymbol",
          "type": "string"
        }
      ],
      "payable": false,
      "stateMutability": "nonpayable",
      "type": "constructor"
    },
    {
      "anonymous": false,
      "inputs": [
        {
          "indexed": false,
          "name": "target",
          "type": "address"
        },
        {
          "indexed": false,
          "name": "frozen",
          "type": "bool"
        }
      ],
      "name": "FrozenFunds",
      "type": "event"
    },
    {
      "anonymous": false,
      "inputs": [
        {
          "indexed": true,
          "name": "from",
          "type": "address"
        },
        {
          "indexed": true,
          "name": "to",
          "type": "address"
        },
        {
          "indexed": false,
          "name": "value",
          "type": "uint256"
        }
      ],
      "name": "Transfer",
      "type": "event"
    },
    {
      "anonymous": false,
      "inputs": [
        {
          "indexed": true,
          "name": "_owner",
          "type": "address"
        },
        {
          "indexed": true,
          "name": "_spender",
          "type": "address"
        },
        {
          "indexed": false,
          "name": "_value",
          "type": "uint256"
        }
      ],
      "name": "Approval",
      "type": "event"
    },
    {
      "constant": false,
      "inputs": [],
      "name": "buy",
      "outputs": [],
      "payable": true,
      "stateMutability": "payable",
      "type": "function"
    },
    {
      "constant": false,
      "inputs": [],
      "name": "migrate_and_destroy",
      "outputs": [],
      "payable": false,
      "stateMutability": "nonpayable",
      "type": "function"
    }
  ],
  "bytecode": "0x60606040526012600360006101000a81548160ff021916908360ff160217905550341561002b57600080fd5b6040516200118938038062001189833981016040528080518201919060200180518201919050508181336000806101000a81548173ffffffffffffffffffffffffffffffffffffffff021916908373ffffffffffffffffffffffffffffffffffffffff16021790555081600190805190602001906100aa9291906100cb565b5080600290805190602001906100c19291906100cb565b5050505050610170565b828054600181600116156101000203166002900490600052602060002090601f016020900481019282601f1061010c57805160ff191683800117855561013a565b8280016001018555821561013a579182015b8281111561013957825182559160200191906001019061011e565b5b509050610147919061014b565b5090565b61016d91905b80821115610169576000816000905550600101610151565b5090565b90565b61100980620001806000396000f3006060604052600436106100db576000357c0100000000000000000000000000000000000000000000000000000000900463ffffffff16806306fdde03146100e0578063095ea7b31461016e57806312c7f982146101c857806318160ddd146101dd57806323b872dd14610206578063313ce5671461027f57806370a08231146102ae5780638da5cb5b146102fb57806395d89b4114610350578063a6f2ae3a146103de578063a9059cbb146103e8578063b414d4b614610442578063cae9ca5114610493578063dd62ed3e14610530578063f2fde38b1461059c575b600080fd5b34156100eb57600080fd5b6100f36105d5565b6040518080602001828103825283818151815260200191508051906020019080838360005b83811015610133578082015181840152602081019050610118565b50505050905090810190601f1680156101605780820380516001836020036101000a031916815260200191505b509250505060405180910390f35b341561017957600080fd5b6101ae600480803573ffffffffffffffffffffffffffffffffffffffff16906020019091908035906020019091905050610673565b604051808215151515815260200191505060405180910390f35b34156101d357600080fd5b6101db610765565b005b34156101e857600080fd5b6101f061081e565b6040518082815260200191505060405180910390f35b341561021157600080fd5b610265600480803573ffffffffffffffffffffffffffffffffffffffff1690602001909190803573ffffffffffffffffffffffffffffffffffffffff16906020019091908035906020019091905050610824565b604051808215151515815260200191505060405180910390f35b341561028a57600080fd5b610292610951565b604051808260ff1660ff16815260200191505060405180910390f35b34156102b957600080fd5b6102e5600480803573ffffffffffffffffffffffffffffffffffffffff16906020019091905050610964565b6040518082815260200191505060405180910390f35b341561030657600080fd5b61030e61097c565b604051808273ffffffffffffffffffffffffffffffffffffffff1673ffffffffffffffffffffffffffffffffffffffff16815260200191505060405180910390f35b341561035b57600080fd5b6103636109a1565b6040518080602001828103825283818151815260200191508051906020019080838360005b838110156103a3578082015181840152602081019050610388565b50505050905090810190601f1680156103d05780820380516001836020036101000a031916815260200191505b509250505060405180910390f35b6103e6610a3f565b005b34156103f357600080fd5b610428600480803573ffffffffffffffffffffffffffffffffffffffff16906020019091908035906020019091905050610ab0565b604051808215151515815260200191505060405180910390f35b341561044d57600080fd5b610479600480803573ffffffffffffffffffffffffffffffffffffffff16906020019091905050610ac7565b604051808215151515815260200191505060405180910390f35b341561049e57600080fd5b610516600480803573ffffffffffffffffffffffffffffffffffffffff1690602001909190803590602001909190803590602001908201803590602001908080601f01602080910402602001604051908101604052809392919081815260200183838082843782019150505050505091905050610ae7565b604051808215151515815260200191505060405180910390f35b341561053b57600080fd5b610586600480803573ffffffffffffffffffffffffffffffffffffffff1690602001909190803573ffffffffffffffffffffffffffffffffffffffff16906020019091905050610c61565b6040518082815260200191505060405180910390f35b34156105a757600080fd5b6105d3600480803573ffffffffffffffffffffffffffffffffffffffff16906020019091905050610c86565b005b60018054600181600116156101000203166002900480601f01602080910402602001604051908101604052809291908181526020018280546001816001161561010002031660029004801561066b5780601f106106405761010080835404028352916020019161066b565b820191906000526020600020905b81548152906001019060200180831161064e57829003601f168201915b505050505081565b600081600660003373ffffffffffffffffffffffffffffffffffffffff1673ffffffffffffffffffffffffffffffffffffffff16815260200190815260200160002060008573ffffffffffffffffffffffffffffffffffffffff1673ffffffffffffffffffffffffffffffffffffffff168152602001908152602001600020819055508273ffffffffffffffffffffffffffffffffffffffff163373ffffffffffffffffffffffffffffffffffffffff167f8c5be1e5ebec7d5bd14f71427d1e84f3dd0314c0f7b2291e5b200ac8c7c3b925846040518082815260200191505060405180910390a36001905092915050565b6000809054906101000a900473ffffffffffffffffffffffffffffffffffffffff1673ffffffffffffffffffffffffffffffffffffffff163373ffffffffffffffffffffffffffffffffffffffff161415156107c057600080fd5b6004543073ffffffffffffffffffffffffffffffffffffffff16311415156107e457fe5b6000809054906101000a900473ffffffffffffffffffffffffffffffffffffffff1673ffffffffffffffffffffffffffffffffffffffff16ff5b60045481565b6000600660008573ffffffffffffffffffffffffffffffffffffffff1673ffffffffffffffffffffffffffffffffffffffff16815260200190815260200160002060003373ffffffffffffffffffffffffffffffffffffffff1673ffffffffffffffffffffffffffffffffffffffff1681526020019081526020016000205482111515156108b157600080fd5b81600660008673ffffffffffffffffffffffffffffffffffffffff1673ffffffffffffffffffffffffffffffffffffffff16815260200190815260200160002060003373ffffffffffffffffffffffffffffffffffffffff1673ffffffffffffffffffffffffffffffffffffffff16815260200190815260200160002060008282540392505081905550610946848484610d24565b600190509392505050565b600360009054906101000a900460ff1681565b60056020528060005260406000206000915090505481565b6000809054906101000a900473ffffffffffffffffffffffffffffffffffffffff1681565b60028054600181600116156101000203166002900480601f016020809104026020016040519081016040528092919081815260200182805460018160011615610100020316600290048015610a375780601f10610a0c57610100808354040283529160200191610a37565b820191906000526020600020905b815481529060010190602001808311610a1a57829003601f168201915b505050505081565b600034905080600560003373ffffffffffffffffffffffffffffffffffffffff1673ffffffffffffffffffffffffffffffffffffffff1681526020019081526020016000206000828254019250508190555080600460008282540192505081905550610aad60003383610d24565b50565b6000610abd338484610d24565b6001905092915050565b60076020528060005260406000206000915054906101000a900460ff1681565b600080849050610af78585610673565b15610c58578073ffffffffffffffffffffffffffffffffffffffff16638f4ffcb1338630876040518563ffffffff167c0100000000000000000000000000000000000000000000000000000000028152600401808573ffffffffffffffffffffffffffffffffffffffff1673ffffffffffffffffffffffffffffffffffffffff1681526020018481526020018373ffffffffffffffffffffffffffffffffffffffff1673ffffffffffffffffffffffffffffffffffffffff16815260200180602001828103825283818151815260200191508051906020019080838360005b83811015610bf1578082015181840152602081019050610bd6565b50505050905090810190601f168015610c1e5780820380516001836020036101000a031916815260200191505b5095505050505050600060405180830381600087803b1515610c3f57600080fd5b5af11515610c4c57600080fd5b50505060019150610c59565b5b509392505050565b6006602052816000526040600020602052806000526040600020600091509150505481565b6000809054906101000a900473ffffffffffffffffffffffffffffffffffffffff1673ffffffffffffffffffffffffffffffffffffffff163373ffffffffffffffffffffffffffffffffffffffff16141515610ce157600080fd5b806000806101000a81548173ffffffffffffffffffffffffffffffffffffffff021916908373ffffffffffffffffffffffffffffffffffffffff16021790555050565b60008273ffffffffffffffffffffffffffffffffffffffff1614151515610d4a57600080fd5b80600560008573ffffffffffffffffffffffffffffffffffffffff1673ffffffffffffffffffffffffffffffffffffffff1681526020019081526020016000205410151515610d9857600080fd5b600560008373ffffffffffffffffffffffffffffffffffffffff1673ffffffffffffffffffffffffffffffffffffffff1681526020019081526020016000205481600560008573ffffffffffffffffffffffffffffffffffffffff1673ffffffffffffffffffffffffffffffffffffffff168152602001908152602001600020540110151515610e2757600080fd5b600760008473ffffffffffffffffffffffffffffffffffffffff1673ffffffffffffffffffffffffffffffffffffffff16815260200190815260200160002060009054906101000a900460ff16151515610e8057600080fd5b600760008373ffffffffffffffffffffffffffffffffffffffff1673ffffffffffffffffffffffffffffffffffffffff16815260200190815260200160002060009054906101000a900460ff16151515610ed957600080fd5b80600560008573ffffffffffffffffffffffffffffffffffffffff1673ffffffffffffffffffffffffffffffffffffffff1681526020019081526020016000206000828254039250508190555080600560008473ffffffffffffffffffffffffffffffffffffffff1673ffffffffffffffffffffffffffffffffffffffff168152602001908152602001600020600082825401925050819055508173ffffffffffffffffffffffffffffffffffffffff168373ffffffffffffffffffffffffffffffffffffffff167fddf252ad1be2c89b69c2b068fc378daa952ba7f163c4a11628f55a4df523b3ef836040518082815260200191505060405180910390a35050505600a165627a7a723058202c73cbdf1b0889a0acf55586d5c4bc449ef9b8bf51e8913bf8ab625ce97a05350029",
  "source": "// taken from https://www.ethereum.org/token#the-coin (4/9/2018)\n\npragma solidity ^0.4.16;\n\ncontract owned {\n    address public owner;\n\n    function owned() public {\n        owner = msg.sender;\n    }\n\n    modifier onlyOwner {\n        require(msg.sender == owner);\n        _;\n    }\n\n    function transferOwnership(address newOwner) onlyOwner public {\n        owner = newOwner;\n    }\n}\n\ninterface tokenRecipient { function receiveApproval(address _from, uint256 _value, address _token, bytes _extraData) external; }\n\ncontract TokenERC20 {\n    // Public variables of the token\n    string public name;\n    string public symbol;\n    uint8 public decimals = 18;\n    // 18 decimals is the strongly suggested default, avoid changing it\n    uint256 public totalSupply;\n\n    // This creates an array with all balances\n    mapping (address => uint256) public balanceOf;\n    mapping (address => mapping (address => uint256)) public allowance;\n\n    // This generates a public event on the blockchain that will notify clients\n    event Transfer(address indexed from, address indexed to, uint256 value);\n\n    // This generates a public event on the blockchain that will notify clients\n    event Approval(address indexed _owner, address indexed _spender, uint256 _value);\n\n    /**\n     * Constrctor function\n     *\n     * Initializes contract with initial supply tokens to the creator of the contract\n     */\n    function TokenERC20(\n        string tokenName,\n        string tokenSymbol\n    ) public {\n        name = tokenName;                                   // Set the name for display purposes\n        symbol = tokenSymbol;                               // Set the symbol for display purposes\n    }\n\n    /**\n     * Internal transfer, only can be called by this contract\n     */\n    function _transfer(address _from, address _to, uint _value) internal {\n        // Prevent transfer to 0x0 address.\n        require(_to != 0x0);\n        // Check if the sender has enough\n        require(balanceOf[_from] >= _value);\n        // Check for overflows\n        require(balanceOf[_to] + _value > balanceOf[_to]);\n        // Save this for an assertion in the future\n        uint previousBalances = balanceOf[_from] + balanceOf[_to];\n        // Subtract from the sender\n        balanceOf[_from] -= _value;\n        // Add the same to the recipient\n        balanceOf[_to] += _value;\n        emit Transfer(_from, _to, _value);\n        // Asserts are used to use static analysis to find bugs in your code. They should never fail\n        assert(balanceOf[_from] + balanceOf[_to] == previousBalances);\n    }\n\n    /**\n     * Transfer tokens\n     *\n     * Send `_value` tokens to `_to` from your account\n     *\n     * @param _to The address of the recipient\n     * @param _value the amount to send\n     */\n    function transfer(address _to, uint256 _value) public returns (bool success) {\n        _transfer(msg.sender, _to, _value);\n        return true;\n    }\n\n    /**\n     * Transfer tokens from other address\n     *\n     * Send `_value` tokens to `_to` in behalf of `_from`\n     *\n     * @param _from The address of the sender\n     * @param _to The address of the recipient\n     * @param _value the amount to send\n     */\n    function transferFrom(address _from, address _to, uint256 _value) public returns (bool success) {\n        require(_value <= allowance[_from][msg.sender]);     // Check allowance\n        allowance[_from][msg.sender] -= _value;\n        _transfer(_from, _to, _value);\n        return true;\n    }\n\n    /**\n     * Set allowance for other address\n     *\n     * Allows `_spender` to spend no more than `_value` tokens in your behalf\n     *\n     * @param _spender The address authorized to spend\n     * @param _value the max amount they can spend\n     */\n    function approve(address _spender, uint256 _value) public\n        returns (bool success) {\n        allowance[msg.sender][_spender] = _value;\n        emit Approval(msg.sender, _spender, _value);\n        return true;\n    }\n\n    /**\n     * Set allowance for other address and notify\n     *\n     * Allows `_spender` to spend no more than `_value` tokens in your behalf, and then ping the contract about it\n     *\n     * @param _spender The address authorized to spend\n     * @param _value the max amount they can spend\n     * @param _extraData some extra information to send to the approved contract\n     */\n    function approveAndCall(address _spender, uint256 _value, bytes _extraData)\n        public\n        returns (bool success) {\n        tokenRecipient spender = tokenRecipient(_spender);\n        if (approve(_spender, _value)) {\n            spender.receiveApproval(msg.sender, _value, this, _extraData);\n            return true;\n        }\n    }\n\n}\n\n/******************************************/\n/*       ADVANCED TOKEN STARTS HERE       */\n/******************************************/\n\ncontract MyAdvancedToken is owned, TokenERC20 {\n\n    mapping (address => bool) public frozenAccount;\n\n    /* This generates a public event on the blockchain that will notify clients */\n    event FrozenFunds(address target, bool frozen);\n\n    /* Initializes contract with initial supply tokens to the creator of the contract */\n    function MyAdvancedToken(\n        string tokenName,\n        string tokenSymbol\n    ) TokenERC20(tokenName, tokenSymbol) public {}\n\n    /* Internal transfer, only can be called by this contract */\n    function _transfer(address _from, address _to, uint _value) internal {\n        require (_to != 0x0);                               // Prevent transfer to 0x0 address.\n        require (balanceOf[_from] >= _value);               // Check if the sender has enough\n        require (balanceOf[_to] + _value >= balanceOf[_to]); // Check for overflows\n        require(!frozenAccount[_from]);                     // Check if sender is frozen\n        require(!frozenAccount[_to]);                       // Check if recipient is frozen\n        balanceOf[_from] -= _value;                         // Subtract from the sender\n        balanceOf[_to] += _value;                           // Add the same to the recipient\n        emit Transfer(_from, _to, _value);\n    }\n\n    /// @notice Buy tokens from contract by sending ether\n    function buy() payable public {\n        uint amount = msg.value;                          // calculates the amount\n\tbalanceOf[msg.sender] += amount;                  // updates the balance\n        totalSupply += amount;                            // updates the total supply\n        _transfer(address(0x0), msg.sender, amount);      // makes the transfer\n    }\n\n    /* Migration function */\n    function migrate_and_destroy() onlyOwner {\n\tassert(this.balance == totalSupply);                 // consistency check\n\tsuicide(owner);                                      // transfer the ether to the owner and kill the contract\n    }\n}\n",
  "sourcePath": "/Users/stefan/Documents/PhD/SolMOSA/Smart Contracts/RWContracts/the-coin/contracts/the-coin.sol",
  "compiler": {
    "name": "solc",
    "version": "0.4.21+commit.dfe3193c.Emscripten.clang"
  },
  "schemaVersion": "3.0.19",
  "updatedAt": "2020-04-08T08:53:47.344Z",
  "devdoc": {
    "methods": {
      "approve(address,uint256)": {
        "params": {
          "_spender": "The address authorized to spend",
          "_value": "the max amount they can spend"
        }
      },
      "approveAndCall(address,uint256,bytes)": {
        "params": {
          "_extraData": "some extra information to send to the approved contract",
          "_spender": "The address authorized to spend",
          "_value": "the max amount they can spend"
        }
      },
      "transfer(address,uint256)": {
        "params": {
          "_to": "The address of the recipient",
          "_value": "the amount to send"
        }
      },
      "transferFrom(address,address,uint256)": {
        "params": {
          "_from": "The address of the sender",
          "_to": "The address of the recipient",
          "_value": "the amount to send"
        }
      }
    }
  },
  "userdoc": {
    "methods": {
      "approve(address,uint256)": {
        "notice": "Set allowance for other address     * Allows `_spender` to spend no more than `_value` tokens in your behalf"
      },
      "approveAndCall(address,uint256,bytes)": {
        "notice": "Set allowance for other address and notify     * Allows `_spender` to spend no more than `_value` tokens in your behalf, and then ping the contract about it"
      },
      "buy()": {
        "notice": "Buy tokens from contract by sending ether"
      },
      "transfer(address,uint256)": {
        "notice": "Transfer tokens     * Send `_value` tokens to `_to` from your account"
      },
      "transferFrom(address,address,uint256)": {
        "notice": "Transfer tokens from other address     * Send `_value` tokens to `_to` in behalf of `_from`"
      }
    }
  }
}