{
  "contractName": "TestContract",
  "abi": [
    {
      "inputs": [],
      "payable": false,
      "stateMutability": "nonpayable",
      "type": "constructor"
    },
    {
      "constant": true,
      "inputs": [
        {
          "name": "a",
          "type": "uint256"
        },
        {
          "name": "b",
          "type": "uint256"
        },
        {
          "name": "c",
          "type": "uint256"
        },
        {
          "name": "d",
          "type": "uint256"
        },
        {
          "name": "e",
          "type": "uint256"
        },
        {
          "name": "f",
          "type": "uint256"
        },
        {
          "name": "g",
          "type": "uint256"
        },
        {
          "name": "h",
          "type": "uint256"
        },
        {
          "name": "i",
          "type": "uint256"
        }
      ],
      "name": "TestOne",
      "outputs": [
        {
          "name": "success",
          "type": "bool"
        }
      ],
      "payable": false,
      "stateMutability": "view",
      "type": "function"
    }
  ],
  "bytecode": "0x608060405234801561001057600080fd5b506101e3806100206000396000f3fe608060405260043610610041576000357c0100000000000000000000000000000000000000000000000000000000900463ffffffff1680637a83316214610046575b600080fd5b34801561005257600080fd5b506100d0600480360361012081101561006a57600080fd5b810190808035906020019092919080359060200190929190803590602001909291908035906020019092919080359060200190929190803590602001909291908035906020019092919080359060200190929190803590602001909291905050506100ea565b604051808215151515815260200191505060405180910390f35b6000806000905060808b1415610105576001810190506101a9565b60808a1415610119576001810190506101a8565b608089141561012d576001810190506101a7565b6080881415610141576001810190506101a6565b6080871415610155576001810190506101a5565b6080861415610169576001810190506101a4565b608085141561017d576001810190506101a3565b6080841415610191576001810190506101a2565b60808314156101a1576001810190505b5b5b5b5b5b5b5b5b50999850505050505050505056fea165627a7a72305820d308baffee5528e4488e0ac3506f20575fc5856cecd93d8bc91c3b23416f87b80029",
  "source": "pragma solidity ^0.5.0;\n\ncontract TestContract{\n\nconstructor() public {\n}\n\nfunction TestOne(uint a, uint b, uint c, uint d, uint e, uint f, uint g, uint h, uint i) public view returns(bool success){\n  uint ans = 0;\n  if (a == 128){\n    ans = ans + 1;\n  }\n  else if (b == 128){\n    ans = ans + 1;\n  }\n  else if (c == 128){\n    ans = ans + 1;\n  }\n  else if (d == 128){\n    ans = ans + 1;\n  }\n  else if (e == 128){\n    ans = ans + 1;\n  }\n  else if (f == 128){\n    ans = ans + 1;\n  }\n  else if (g == 128){\n    ans = ans + 1;\n  }\n  else if (h == 128){\n    ans = ans + 1;\n  }\n  else if (i == 128){\n    ans = ans + 1;\n  }\n}\n}\n",
  "sourcePath": "/home/stefan/JADS/Scriptie/Master_Thesis/Code/Smart Contracts/eq1019/contracts/TestContract.sol",
  "compiler": {
    "name": "solc",
    "version": "0.5.0+commit.1d4f565a.Emscripten.clang"
  },
  "schemaVersion": "3.0.9",
  "updatedAt": "2019-05-30T19:40:15.797Z",
  "devdoc": {
    "methods": {}
  },
  "userdoc": {
    "methods": {}
  }
}