{
  "contractName": "Identity",
  "abi": [
    {
      "inputs": [
        {
          "name": "account",
          "type": "address"
        }
      ],
      "payable": false,
      "stateMutability": "nonpayable",
      "type": "constructor"
    },
    {
      "constant": false,
      "inputs": [
        {
          "name": "newMender",
          "type": "address"
        }
      ],
      "name": "addMender",
      "outputs": [],
      "payable": false,
      "stateMutability": "nonpayable",
      "type": "function"
    },
    {
      "constant": false,
      "inputs": [
        {
          "name": "caller",
          "type": "address"
        }
      ],
      "name": "addPermission",
      "outputs": [],
      "payable": false,
      "stateMutability": "nonpayable",
      "type": "function"
    },
    {
      "constant": true,
      "inputs": [
        {
          "name": "name",
          "type": "string"
        }
      ],
      "name": "getHighestVote",
      "outputs": [
        {
          "name": "",
          "type": "uint256"
        }
      ],
      "payable": false,
      "stateMutability": "view",
      "type": "function"
    },
    {
      "constant": true,
      "inputs": [
        {
          "name": "name",
          "type": "string"
        }
      ],
      "name": "getValue",
      "outputs": [
        {
          "name": "value",
          "type": "uint256"
        },
        {
          "name": "voteCount",
          "type": "uint256"
        }
      ],
      "payable": false,
      "stateMutability": "view",
      "type": "function"
    },
    {
      "constant": true,
      "inputs": [
        {
          "name": "caller",
          "type": "address"
        }
      ],
      "name": "hasPermission",
      "outputs": [
        {
          "name": "has",
          "type": "bool"
        }
      ],
      "payable": false,
      "stateMutability": "view",
      "type": "function"
    },
    {
      "constant": true,
      "inputs": [
        {
          "name": "account",
          "type": "address"
        }
      ],
      "name": "isOwner",
      "outputs": [
        {
          "name": "",
          "type": "bool"
        }
      ],
      "payable": false,
      "stateMutability": "view",
      "type": "function"
    },
    {
      "constant": false,
      "inputs": [
        {
          "name": "newOwner",
          "type": "address"
        }
      ],
      "name": "recover",
      "outputs": [
        {
          "name": "success",
          "type": "bool"
        }
      ],
      "payable": false,
      "stateMutability": "nonpayable",
      "type": "function"
    },
    {
      "constant": false,
      "inputs": [
        {
          "name": "mender",
          "type": "address"
        }
      ],
      "name": "removeMender",
      "outputs": [
        {
          "name": "success",
          "type": "bool"
        }
      ],
      "payable": false,
      "stateMutability": "nonpayable",
      "type": "function"
    },
    {
      "constant": false,
      "inputs": [
        {
          "name": "caller",
          "type": "address"
        }
      ],
      "name": "removePermission",
      "outputs": [],
      "payable": false,
      "stateMutability": "nonpayable",
      "type": "function"
    },
    {
      "constant": false,
      "inputs": [
        {
          "name": "name",
          "type": "string"
        },
        {
          "name": "value",
          "type": "uint256"
        }
      ],
      "name": "vote",
      "outputs": [],
      "payable": false,
      "stateMutability": "nonpayable",
      "type": "function"
    }
  ],
  "bytecode": "0x6060604052341561000f57600080fd5b604051602080610fdf8339810160405280805190602001909190505080600160006101000a81548173ffffffffffffffffffffffffffffffffffffffff021916908373ffffffffffffffffffffffffffffffffffffffff16021790555050610f638061007c6000396000f300606060405236156100a2576000357c0100000000000000000000000000000000000000000000000000000000900463ffffffff1680630cd865ec146100a75780632f54bf6e146100f85780634d0a5dbd146101495780636851e18b1461018257806379552bea146101bb578063960384a01461022c57806397128e00146102a4578063a6385803146102f5578063db8264801461035b578063e074bb47146103ac575b600080fd5b34156100b257600080fd5b6100de600480803573ffffffffffffffffffffffffffffffffffffffff169060200190919050506103e5565b604051808215151515815260200191505060405180910390f35b341561010357600080fd5b61012f600480803573ffffffffffffffffffffffffffffffffffffffff16906020019091905050610459565b604051808215151515815260200191505060405180910390f35b341561015457600080fd5b610180600480803573ffffffffffffffffffffffffffffffffffffffff169060200190919050506104b3565b005b341561018d57600080fd5b6101b9600480803573ffffffffffffffffffffffffffffffffffffffff1690602001909190505061052c565b005b34156101c657600080fd5b610216600480803590602001908201803590602001908080601f016020809104026020016040519081016040528093929190818152602001838380828437820191505050505050919050506105bb565b6040518082815260200191505060405180910390f35b341561023757600080fd5b610287600480803590602001908201803590602001908080601f01602080910402602001604051908101604052809392919081815260200183838082843782019150505050505091905050610633565b604051808381526020018281526020019250505060405180910390f35b34156102af57600080fd5b6102db600480803573ffffffffffffffffffffffffffffffffffffffff1690602001909190505061094e565b604051808215151515815260200191505060405180910390f35b341561030057600080fd5b610359600480803590602001908201803590602001908080601f016020809104026020016040519081016040528093929190818152602001838380828437820191505050505050919080359060200190919050506109b3565b005b341561036657600080fd5b610392600480803573ffffffffffffffffffffffffffffffffffffffff16906020019091905050610c20565b604051808215151515815260200191505060405180910390f35b34156103b757600080fd5b6103e3600480803573ffffffffffffffffffffffffffffffffffffffff16906020019091905050610d2b565b005b60006103f033610d99565b8061040057506103ff33610459565b5b1561044f5781600160006101000a81548173ffffffffffffffffffffffffffffffffffffffff021916908373ffffffffffffffffffffffffffffffffffffffff16021790555060019050610454565b600090505b919050565b6000600160009054906101000a900473ffffffffffffffffffffffffffffffffffffffff1673ffffffffffffffffffffffffffffffffffffffff168273ffffffffffffffffffffffffffffffffffffffff16149050919050565b6104bc33610459565b806104cc57506104cb3361094e565b5b156105295760016000808373ffffffffffffffffffffffffffffffffffffffff1673ffffffffffffffffffffffffffffffffffffffff16815260200190815260200160002060006101000a81548160ff0219169083151502179055505b50565b61053533610459565b151561054057600080fd5b61054981610d99565b15151561055557600080fd5b600280548060010182816105699190610ebe565b9160005260206000209001600083909190916101000a81548173ffffffffffffffffffffffffffffffffffffffff021916908373ffffffffffffffffffffffffffffffffffffffff1602179055505050565b60006003826040518082805190602001908083835b6020831015156105f557805182526020820191506020810190506020830392506105d0565b6001836020036101000a0380198251168184511680821785525050505050509050019150509081526020016040518091039020600001549050919050565b6000806000610640610eea565b600080600080336000808273ffffffffffffffffffffffffffffffffffffffff1673ffffffffffffffffffffffffffffffffffffffff16815260200190815260200160002060009054906101000a900460ff16806106a357506106a281610459565b5b15156106ae57600080fd5b6106b78a6105bb565b9650866040518059106106c75750595b90808252806020026020018201604052509550600093505b60038a6040518082805190602001908083835b60208310151561071757805182526020820191506020810190506020830392506106f2565b6001836020036101000a0380198251168184511680821785525050505050509050019150509081526020016040518091039020600201805490508410156108dc5760038a6040518082805190602001908083835b602083101515610790578051825260208201915060208101905060208303925061076b565b6001836020036101000a0380198251168184511680821785525050505050509050019150509081526020016040518091039020600101600060038c6040518082805190602001908083835b60208310151561080057805182526020820191506020810190506020830392506107db565b6001836020036101000a03801982511681845116808217855250505050505090500191505090815260200160405180910390206002018681548110151561084357fe5b906000526020600020900160009054906101000a900473ffffffffffffffffffffffffffffffffffffffff1673ffffffffffffffffffffffffffffffffffffffff1673ffffffffffffffffffffffffffffffffffffffff16815260200190815260200160002054945085858151811015156108ba57fe5b90602001906020020180518091906001018152505083806001019450506106df565b6000925060009150600093505b855184101561093c5782868581518110151561090157fe5b90602001906020020151111561092f57839150858481518110151561092257fe5b9060200190602002015192505b83806001019450506108e9565b81839850985050505050505050915091565b60008060008373ffffffffffffffffffffffffffffffffffffffff1673ffffffffffffffffffffffffffffffffffffffff16815260200190815260200160002060009054906101000a900460ff16806109ac57506109ab82610459565b5b9050919050565b6003826040518082805190602001908083835b6020831015156109eb57805182526020820191506020810190506020830392506109c6565b6001836020036101000a03801982511681845116808217855250505050505090500191505090815260200160405180910390206002018054806001018281610a339190610ebe565b9160005260206000209001600033909190916101000a81548173ffffffffffffffffffffffffffffffffffffffff021916908373ffffffffffffffffffffffffffffffffffffffff16021790555050806003836040518082805190602001908083835b602083101515610abb5780518252602082019150602081019050602083039250610a96565b6001836020036101000a038019825116818451168082178552505050505050905001915050908152602001604051809103902060010160003373ffffffffffffffffffffffffffffffffffffffff1673ffffffffffffffffffffffffffffffffffffffff16815260200190815260200160002081905550806003836040518082805190602001908083835b602083101515610b6b5780518252602082019150602081019050602083039250610b46565b6001836020036101000a0380198251168184511680821785525050505050509050019150509081526020016040518091039020600001541015610c1c57806003836040518082805190602001908083835b602083101515610be15780518252602082019150602081019050602083039250610bbc565b6001836020036101000a0380198251168184511680821785525050505050509050019150509081526020016040518091039020600001819055505b5050565b600080610c2c33610459565b1515610c3757600080fd5b82610c4181610d99565b1515610c4c57600080fd5b600091505b600280549050821015610d1f578373ffffffffffffffffffffffffffffffffffffffff16600283815481101515610c8457fe5b906000526020600020900160009054906101000a900473ffffffffffffffffffffffffffffffffffffffff1673ffffffffffffffffffffffffffffffffffffffff161415610d1257600282815481101515610cdb57fe5b906000526020600020900160006101000a81549073ffffffffffffffffffffffffffffffffffffffff021916905560019250610d24565b8180600101925050610c51565b600092505b5050919050565b610d3433610459565b1515610d3f57600080fd5b60008060008373ffffffffffffffffffffffffffffffffffffffff1673ffffffffffffffffffffffffffffffffffffffff16815260200190815260200160002060006101000a81548160ff02191690831515021790555050565b6000610da3610efe565b6000610dad610e2a565b9150600090505b8151811015610e1e578181815181101515610dcb57fe5b9060200190602002015173ffffffffffffffffffffffffffffffffffffffff168473ffffffffffffffffffffffffffffffffffffffff161415610e115760019250610e23565b8080600101915050610db4565b600092505b5050919050565b610e32610efe565b6002805480602002602001604051908101604052809291908181526020018280548015610eb457602002820191906000526020600020905b8160009054906101000a900473ffffffffffffffffffffffffffffffffffffffff1673ffffffffffffffffffffffffffffffffffffffff1681526020019060010190808311610e6a575b5050505050905090565b815481835581811511610ee557818360005260206000209182019101610ee49190610f12565b5b505050565b602060405190810160405280600081525090565b602060405190810160405280600081525090565b610f3491905b80821115610f30576000816000905550600101610f18565b5090565b905600a165627a7a72305820343d1a79cc6cf8781657084ae7c1575c52617f1f593abe8a957afcf384b34a690029",
  "source": "pragma solidity ^0.4.17;\n\ncontract Identity {\n\n    modifier requiresMender(address mender) {\n        require(isMender(mender));\n        _;\n    }\n\n    modifier requiresOwner() {\n        require(isOwner(msg.sender));\n        _;\n    }\n\n    modifier requiresPermission(address sender) {\n        require(_approvedCallers[sender] || isOwner(sender));\n        _;\n    }\n\n    mapping (address => bool) private _approvedCallers;\n    address _owner;\n    address[] private _menders;\n    mapping (string => Voting) private _values;\n\n    struct Voting {\n        // Validator/voter => value\n        uint highestVote;\n        mapping (address => uint) votes;\n        address[] validators;\n    }\n\n    function Identity(address account) public {\n        _owner = account;\n    }\n\n    function addMender(address newMender) public requiresOwner() {\n        require(!isMender(newMender));\n        _menders.push(newMender);\n    }\n\n    function addPermission(address caller) public {\n        if (isOwner(msg.sender) || hasPermission(msg.sender)) {\n            _approvedCallers[caller] = true;\n        }\n    }\n\n    function getHighestVote(string name) public view returns (uint) {\n        return _values[name].highestVote;\n    }\n\n    function getMenders() private view returns (address[] menders) {\n        return _menders;\n    }\n\n    function getValue(string name) public requiresPermission(msg.sender) view returns (uint value, uint voteCount) {\n        uint highestVote = getHighestVote(name);\n        // value => votes\n        uint[] memory counting = new uint[](highestVote);\n        // For readabilitiy\n        uint currentValue;\n        for (uint i = 0; i < _values[name].validators.length; i++) {\n            currentValue = _values[name].votes[_values[name].validators[i]];\n            counting[currentValue]++;\n        }\n        uint highestCount = 0;\n        uint highestValue = 0;\n        for (i = 0; i < counting.length; i++) {\n            if (counting[i] > highestCount) {\n                highestValue = i;\n                highestCount = counting[i];\n            }\n        }\n        return (highestValue, highestCount);\n    }\n\n    function hasPermission(address caller) public view returns(bool has) {\n        return _approvedCallers[caller] || isOwner(caller);\n    }\n\n    function isMender(address mender) private view returns (bool) {\n        address[] memory menders = getMenders();\n        for (uint i = 0; i < menders.length; i++) {\n            if (mender == menders[i]) {\n                return true;\n            }\n        }\n        return false;\n    }\n\n    function isOwner(address account) public view returns(bool) {\n        return account == _owner;\n    }\n\n    function recover(address newOwner) public returns (bool success) {\n        if (isMender(msg.sender) || isOwner(msg.sender)) {\n            _owner = newOwner;\n            return true;\n        }\n        return false;\n    }\n\n    function removeMender(address mender) public requiresOwner() requiresMender(mender) returns (bool success) {\n        for (uint i = 0; i < _menders.length; i++) {\n            if (_menders[i] == mender) {\n                delete _menders[i];\n                return true;\n            }\n        }\n        return false;\n    }\n\n    function removePermission(address caller) public requiresOwner {\n        _approvedCallers[caller] = false;\n    }\n\n    function vote(string name, uint value) public {\n        _values[name].validators.push(msg.sender);\n        _values[name].votes[msg.sender] = value;\n        if (_values[name].highestVote < value) {\n            _values[name].highestVote = value;\n        }\n    }\n\n}\n",
  "sourcePath": "/Users/stefan/Documents/PhD/SolMOSA/Smart Contracts/RWContracts/teamforus/Identity/contracts/Identity.sol",
  "compiler": {
    "name": "solc",
    "version": "0.4.17+commit.bdeb9e52.Emscripten.clang"
  },
  "schemaVersion": "3.0.19",
  "updatedAt": "2020-04-07T09:28:50.537Z",
  "devdoc": {
    "methods": {}
  },
  "userdoc": {
    "methods": {}
  }
}