{
  "contractName": "CheckBalance",
  "abi": [
    {
      "constant": false,
      "inputs": [
        {
          "name": "addr",
          "type": "address"
        }
      ],
      "name": "balance",
      "outputs": [
        {
          "name": "bal",
          "type": "uint256"
        }
      ],
      "payable": true,
      "stateMutability": "payable",
      "type": "function"
    }
  ],
  "bytecode": "0x6060604052341561000f57600080fd5b60d18061001d6000396000f300606060405260043610603f576000357c0100000000000000000000000000000000000000000000000000000000900463ffffffff168063e3d670d7146044575b600080fd5b606e600480803573ffffffffffffffffffffffffffffffffffffffff169060200190919050506084565b6040518082815260200191505060405180910390f35b60008173ffffffffffffffffffffffffffffffffffffffff163190509190505600a165627a7a723058200bfeac03da3ed219040a70c9a1115da160628d0c6385055fd63b1f7240c1fd090029",
  "source": "pragma solidity ^0.4.21;\n\ncontract CheckBalance{\n\n  function balance(address addr) payable public returns(uint bal){\n    return addr.balance;\n  }\n}\n",
  "sourcePath": "/Users/stefan/Documents/PhD/SolMOSA/Smart Contracts/TestContracts/CheckBalance/contracts/CheckBalance.sol",
  "compiler": {
    "name": "solc",
    "version": "0.4.21+commit.dfe3193c.Emscripten.clang"
  },
  "schemaVersion": "3.0.19",
  "updatedAt": "2020-02-21T16:15:22.141Z",
  "networkType": "ethereum",
  "devdoc": {
    "methods": {}
  },
  "userdoc": {
    "methods": {}
  }
}