{
  "contractName": "TestContract",
  "abi": [
    {
      "inputs": [],
      "payable": false,
      "stateMutability": "nonpayable",
      "type": "constructor"
    },
    {
      "constant": true,
      "inputs": [
        {
          "name": "a",
          "type": "uint256"
        }
      ],
      "name": "TestOne",
      "outputs": [
        {
          "name": "success",
          "type": "bool"
        }
      ],
      "payable": false,
      "stateMutability": "view",
      "type": "function"
    }
  ],
  "bytecode": "0x608060405234801561001057600080fd5b5060db8061001f6000396000f3fe608060405260043610603f576000357c0100000000000000000000000000000000000000000000000000000000900463ffffffff16806354d31552146044575b600080fd5b348015604f57600080fd5b50607960048036036020811015606457600080fd5b81019080803590602001909291905050506093565b604051808215151515815260200191505060405180910390f35b6000600d82101560a5576000905060aa565b600190505b91905056fea165627a7a72305820ba62c1ac250d294c1a81b0fde7e9837a3d1c9e7715617a1aa02e1a33fee089260029",
  "source": "pragma solidity ^0.5.0;\n\ncontract TestContract{\n\nconstructor() public {\n}\n\nfunction TestOne(uint a) public view returns(bool success){\n  if (a < 13){\n    return false;\n  }\n  else{\n      return true;\n  }\n}\n}\n",
  "sourcePath": "/home/stefan/JADS/Scriptie/Master_Thesis/Code/Smart Contracts/leq211/contracts/TestContract.sol",
  "compiler": {
    "name": "solc",
    "version": "0.5.0+commit.1d4f565a.Emscripten.clang"
  },
  "schemaVersion": "3.0.9",
  "updatedAt": "2019-05-30T19:43:00.087Z",
  "devdoc": {
    "methods": {}
  },
  "userdoc": {
    "methods": {}
  }
}