{
  "contractName": "LotteryFor10",
  "abi": [
    {
      "constant": true,
      "inputs": [],
      "name": "_registeredLimit",
      "outputs": [
        {
          "name": "",
          "type": "uint256"
        }
      ],
      "payable": false,
      "stateMutability": "view",
      "type": "function"
    },
    {
      "constant": true,
      "inputs": [],
      "name": "lotterySolved",
      "outputs": [
        {
          "name": "",
          "type": "bool"
        }
      ],
      "payable": false,
      "stateMutability": "view",
      "type": "function"
    },
    {
      "constant": true,
      "inputs": [],
      "name": "registeredCount",
      "outputs": [
        {
          "name": "",
          "type": "uint256"
        }
      ],
      "payable": false,
      "stateMutability": "view",
      "type": "function"
    },
    {
      "constant": true,
      "inputs": [],
      "name": "waitingStartBlockNumber",
      "outputs": [
        {
          "name": "",
          "type": "uint256"
        }
      ],
      "payable": false,
      "stateMutability": "view",
      "type": "function"
    },
    {
      "constant": true,
      "inputs": [],
      "name": "WAIT_BLOCKS_LIMIT",
      "outputs": [
        {
          "name": "",
          "type": "uint256"
        }
      ],
      "payable": false,
      "stateMutability": "view",
      "type": "function"
    },
    {
      "inputs": [
        {
          "name": "_limit",
          "type": "uint256"
        }
      ],
      "payable": false,
      "stateMutability": "nonpayable",
      "type": "constructor"
    },
    {
      "payable": true,
      "stateMutability": "payable",
      "type": "fallback"
    },
    {
      "anonymous": false,
      "inputs": [
        {
          "indexed": false,
          "name": "blockNum",
          "type": "uint256"
        }
      ],
      "name": "ClosingList",
      "type": "event"
    },
    {
      "anonymous": false,
      "inputs": [
        {
          "indexed": false,
          "name": "adr",
          "type": "address"
        }
      ],
      "name": "UserRegistered",
      "type": "event"
    },
    {
      "anonymous": false,
      "inputs": [
        {
          "indexed": false,
          "name": "adr",
          "type": "address"
        },
        {
          "indexed": false,
          "name": "blockNum",
          "type": "uint256"
        }
      ],
      "name": "UseRewarded",
      "type": "event"
    }
  ],
  "bytecode": "0x608060405234801561001057600080fd5b50604051602080610a1b833981018060405281019080805190602001909291905050506000600481905550600060028190555080600381905550506109c18061005a6000396000f30060806040526004361061006d576000357c0100000000000000000000000000000000000000000000000000000000900463ffffffff1680630f2ee7c91461038057806310c9a7f9146103ab578063210ff9bb146103da578063a693794514610405578063d9260eaf14610430575b60016100784361045b565b141561008c57610087336104dc565b61037e565b60026100974361045b565b141561015a57600034141515610115576040517f08c379a000000000000000000000000000000000000000000000000000000000815260040180806020018281038252601b8152602001807f6e6f206164646974696f6e616c207374616b6520616c6c6f776564000000000081525060200191505060405180910390fd5b436004819055507f30ec788bce0748a593d48e0e382494bc6d380617e17dc850e60b86402887a40d6004546040518082815260200191505060405180910390a161037d565b60036101654361045b565b1415610277576000341415156101e3576040517f08c379a000000000000000000000000000000000000000000000000000000000815260040180806020018281038252601b8152602001807f6e6f206164646974696f6e616c207374616b6520616c6c6f776564000000000081525060200191505060405180910390fd5b6040517f08c379a00000000000000000000000000000000000000000000000000000000081526004018080602001828103825260378152602001807f546f206c6974746c652074696d65207061737365642c2077616974206174206c81526020017f6561737420574149545f424c4f434b535f4c494d49542000000000000000000081525060400191505060405180910390fd5b60046102824361045b565b141561030e57600034141515610300576040517f08c379a000000000000000000000000000000000000000000000000000000000815260040180806020018281038252601b8152602001807f6e6f206164646974696f6e616c207374616b6520616c6c6f776564000000000081525060200191505060405180910390fd5b610309436107f2565b61037c565b6040517f08c379a000000000000000000000000000000000000000000000000000000000815260040180806020018281038252600f8152602001807f4c6f747465727920436c6f73656420000000000000000000000000000000000081525060200191505060405180910390fd5b5b5b005b34801561038c57600080fd5b5061039561096b565b6040518082815260200191505060405180910390f35b3480156103b757600080fd5b506103c0610971565b604051808215151515815260200191505060405180910390f35b3480156103e657600080fd5b506103ef610984565b6040518082815260200191505060405180910390f35b34801561041157600080fd5b5061041a61098a565b6040518082815260200191505060405180910390f35b34801561043c57600080fd5b50610445610990565b6040518082815260200191505060405180910390f35b6000600354600254101561047257600190506104d7565b600060045414806104895750610100600454830310155b1561049757600290506104d7565b6003600454830310156104ad57600390506104d7565b60011515600560009054906101000a900460ff16151514156104d257600590506104d7565b600490505b919050565b66038d7ea4c680003414151561055a576040517f08c379a00000000000000000000000000000000000000000000000000000000081526004018080602001828103825260158152602001807f4d7573742073656e6420302e303031206574686572000000000000000000000081525060200191505060405180910390fd5b60001515600160008373ffffffffffffffffffffffffffffffffffffffff1673ffffffffffffffffffffffffffffffffffffffff16815260200190815260200160002060009054906101000a900460ff161515141515610648576040517f08c379a00000000000000000000000000000000000000000000000000000000081526004018080602001828103825260248152602001807f4f6e6520616464726573732063616e2070657269636970617465206f6e6c792081526020017f6f6e63650000000000000000000000000000000000000000000000000000000081525060400191505060405180910390fd5b6003546002541015156106c3576040517f08c379a000000000000000000000000000000000000000000000000000000000815260040180806020018281038252601a8152602001807f757073206765745374616765282920646f206e6f7420776f726b00000000000081525060200191505060405180910390fd5b60018060008373ffffffffffffffffffffffffffffffffffffffff1673ffffffffffffffffffffffffffffffffffffffff16815260200190815260200160002060006101000a81548160ff02191690831515021790555060008190806001815401808255809150509060018203906000526020600020016000909192909190916101000a81548173ffffffffffffffffffffffffffffffffffffffff021916908373ffffffffffffffffffffffffffffffffffffffff160217905550506001600254016002819055507f54db7a5cb4735e1aac1f53db512d3390390bb6637bd30ad4bf9fc98667d9b9b981604051808273ffffffffffffffffffffffffffffffffffffffff1673ffffffffffffffffffffffffffffffffffffffff16815260200191505060405180910390a150565b6000600360045401406001900490506003548181151561080e57fe5b06905060008181548110151561082057fe5b9060005260206000200160009054906101000a900473ffffffffffffffffffffffffffffffffffffffff1673ffffffffffffffffffffffffffffffffffffffff166108fc3073ffffffffffffffffffffffffffffffffffffffff16319081150290604051600060405180830381858888f193505050501580156108a7573d6000803e3d6000fd5b507fc07a2d9be254a0c842f24d7b0b64d7a51a651d2c531765abb5e73016c7a6236a6000828154811015156108d857fe5b9060005260206000200160009054906101000a900473ffffffffffffffffffffffffffffffffffffffff1683604051808373ffffffffffffffffffffffffffffffffffffffff1673ffffffffffffffffffffffffffffffffffffffff1681526020018281526020019250505060405180910390a16001600560006101000a81548160ff0219169083151502179055505050565b60035481565b600560009054906101000a900460ff1681565b60025481565b60045481565b6003815600a165627a7a72305820291c00a73303ecb97446d3e3446e40502cc114c39b8a2312fa18898624d403c80029",
  "source": "pragma solidity ^0.4.24;\n\n\n/*\n    Lottery is safe under the assumption that miners do not interfere,\n    no smart contract can hack me (If You can prove me otherwise :D )\n*/\ncontract LotteryFor10{\n\n    address[] users;\n    mapping(address => bool) participated;\n    uint256 public constant WAIT_BLOCKS_LIMIT = 3 ;\n    uint256 public registeredCount ;\n    uint256 public _registeredLimit ;\n    uint256 constant REGISTERING_PARTICIPANTS = 1;\n    uint256 constant REGISTERING_FINISHED = 2;\n    uint256 constant WAITING_FOR_RANDOMNESS = 3;\n    uint256 constant SOLVING_LOTERRY = 4;\n    uint256 constant LOTTERY_SOLVED = 5;\n    uint256 public waitingStartBlockNumber;\n    bool public lotterySolved;\n\n    constructor(uint256 _limit) public{\n        waitingStartBlockNumber = 0;\n        registeredCount = 0;//good habit not to rely on defaults if You do not have to\n        _registeredLimit = _limit;\n    }\n\n\n\n    function () public payable{\n\n        if(getStage(block.number)==REGISTERING_PARTICIPANTS){\n            processAddingUser(msg.sender);\n        }\n        else{ // this else is crutial so we never enter two stages in same call\n            if(getStage(block.number)==REGISTERING_FINISHED){\n                require(msg.value == 0,\"no additional stake allowed\");\n                waitingStartBlockNumber = block.number;\n                emit ClosingList(waitingStartBlockNumber);\n            }\n            else{\n                if(getStage(block.number)==WAITING_FOR_RANDOMNESS){\n                        require(msg.value == 0,\"no additional stake allowed\");\n\n                        revert(\"To little time passed, wait at least WAIT_BLOCKS_LIMIT \");\n                }\n                else{\n                    if(getStage(block.number)==SOLVING_LOTERRY){\n                        require(msg.value == 0,\"no additional stake allowed\");\n                        processSolvingLottery(block.number);\n                    }\n                    else{\n                        revert(\"Lottery Closed \");\n                    }\n                }\n            }\n        }\n    }\n\n\n    function getStage(uint256 blockNum) private view returns(uint256) {\n        if(registeredCount<_registeredLimit){\n            return REGISTERING_PARTICIPANTS;\n        }\n        else{\n            if(waitingStartBlockNumber==0 //start waiting block has been never set\n                || blockNum-waitingStartBlockNumber>=256 //start waiting block has been set long time ago\n                ){\n                return REGISTERING_FINISHED;\n            }\n            else\n            {\n                if(blockNum-waitingStartBlockNumber<WAIT_BLOCKS_LIMIT){\n                    return WAITING_FOR_RANDOMNESS;\n                }\n                else{\n                    if(lotterySolved == true){\n                        return LOTTERY_SOLVED;\n                    }\n                    else{\n                        return SOLVING_LOTERRY;\n                    }\n                }\n            }\n        }\n    }\n\n    function processAddingUser(address sender) private{\n        require(msg.value==1 finney,\"Must send 0.001 ether\");\n        require(participated[sender]==false,\"One address can pericipate only once\");\n        require(registeredCount<_registeredLimit,\"ups getStage() do not work\");\n        participated[sender] = true;\n        users.push(sender);\n        registeredCount = registeredCount+1;\n        emit UserRegistered(sender);\n    }\n\n    function processSolvingLottery(uint256 blockNum) private{\n        uint256 luckyNumber = uint256(blockhash(waitingStartBlockNumber+WAIT_BLOCKS_LIMIT));\n        luckyNumber = luckyNumber % _registeredLimit;\n        users[luckyNumber].transfer(address(this).balance);\n        emit UseRewarded(users[luckyNumber],blockNum);\n        lotterySolved = true;\n    }\n\n    event ClosingList(uint256 blockNum);\n    event UserRegistered(address adr);\n    event UseRewarded(address adr,uint256 blockNum);\n}\n",
  "sourcePath": "/Users/stefan/Documents/PhD/SolMOSA/Smart Contracts/TestContracts/LotteryFor10/contracts/LotteryFor10.sol",
  "compiler": {
    "name": "solc",
    "version": "0.4.24+commit.e67f0147.Emscripten.clang"
  },
  "schemaVersion": "3.0.19",
  "updatedAt": "2020-03-26T15:54:11.746Z",
  "devdoc": {
    "methods": {}
  },
  "userdoc": {
    "methods": {}
  }
}