{
  "contractName": "Greeter",
  "abi": [
    {
      "constant": true,
      "inputs": [
        {
          "name": "lang",
          "type": "uint8"
        }
      ],
      "name": "sayHello",
      "outputs": [
        {
          "name": "",
          "type": "string"
        }
      ],
      "payable": false,
      "stateMutability": "view",
      "type": "function"
    },
    {
      "constant": false,
      "inputs": [
        {
          "name": "lang",
          "type": "uint8"
        },
        {
          "name": "_hello",
          "type": "string"
        }
      ],
      "name": "changeHello",
      "outputs": [],
      "payable": false,
      "stateMutability": "nonpayable",
      "type": "function"
    },
    {
      "constant": true,
      "inputs": [
        {
          "name": "lang",
          "type": "uint8"
        }
      ],
      "name": "sayGoodbye",
      "outputs": [
        {
          "name": "",
          "type": "string"
        }
      ],
      "payable": false,
      "stateMutability": "view",
      "type": "function"
    },
    {
      "constant": false,
      "inputs": [
        {
          "name": "lang",
          "type": "uint8"
        },
        {
          "name": "_goodbye",
          "type": "string"
        }
      ],
      "name": "changeGoodbye",
      "outputs": [],
      "payable": false,
      "stateMutability": "nonpayable",
      "type": "function"
    }
  ],
  "bytecode": "0x60806040526040805190810160405280600781526020017fec9588eb85953f000000000000000000000000000000000000000000000000008152506000908051906020019061004f929190610146565b506040805190810160405280600781526020017fec9e98eab08021000000000000000000000000000000000000000000000000008152506001908051906020019061009b929190610146565b506040805190810160405280600581526020017f48656c6c6f000000000000000000000000000000000000000000000000000000815250600290805190602001906100e7929190610146565b506040805190810160405280600881526020017f476f6f646279652100000000000000000000000000000000000000000000000081525060039080519060200190610133929190610146565b5034801561014057600080fd5b506101eb565b828054600181600116156101000203166002900490600052602060002090601f016020900481019282601f1061018757805160ff19168380011785556101b5565b828001600101855582156101b5579182015b828111156101b4578251825591602001919060010190610199565b5b5090506101c291906101c6565b5090565b6101e891905b808211156101e45760008160009055506001016101cc565b5090565b90565b610772806101fa6000396000f300608060405260043610610062576000357c0100000000000000000000000000000000000000000000000000000000900463ffffffff16806313ee648c146100675780632feae5c81461011057806366cad460146101b9578063f8f7a5141461022f575b600080fd5b34801561007357600080fd5b50610095600480360381019080803560ff1690602001909291905050506102a5565b6040518080602001828103825283818151815260200191508051906020019080838360005b838110156100d55780820151818401526020810190506100ba565b50505050905090810190601f1680156101025780820380516001836020036101000a031916815260200191505b509250505060405180910390f35b34801561011c57600080fd5b5061013e600480360381019080803560ff169060200190929190505050610437565b6040518080602001828103825283818151815260200191508051906020019080838360005b8381101561017e578082015181840152602081019050610163565b50505050905090810190601f1680156101ab5780820380516001836020036101000a031916815260200191505b509250505060405180910390f35b3480156101c557600080fd5b5061022d600480360381019080803560ff169060200190929190803590602001908201803590602001908080601f01602080910402602001604051908101604052809392919081815260200183838082843782019150505050505091929192905050506105c9565b005b34801561023b57600080fd5b506102a3600480360381019080803560ff169060200190929190803590602001908201803590602001908080601f0160208091040260200160405190810160405280939291908181526020018383808284378201915050505050509192919290505050610635565b005b6060600060018111156102b457fe5b60ff168260ff1614156103635760008054600181600116156101000203166002900480601f0160208091040260200160405190810160405280929190818152602001828054600181600116156101000203166002900480156103575780601f1061032c57610100808354040283529160200191610357565b820191906000526020600020905b81548152906001019060200180831161033a57829003601f168201915b50505050509050610432565b60018081111561036f57fe5b60ff168260ff16141561041e5760028054600181600116156101000203166002900480601f0160208091040260200160405190810160405280929190818152602001828054600181600116156101000203166002900480156104125780601f106103e757610100808354040283529160200191610412565b820191906000526020600020905b8154815290600101906020018083116103f557829003601f168201915b50505050509050610432565b602060405190810160405280600081525090505b919050565b60606000600181111561044657fe5b60ff168260ff1614156104f55760018054600181600116156101000203166002900480601f0160208091040260200160405190810160405280929190818152602001828054600181600116156101000203166002900480156104e95780601f106104be576101008083540402835291602001916104e9565b820191906000526020600020905b8154815290600101906020018083116104cc57829003601f168201915b505050505090506105c4565b60018081111561050157fe5b60ff168260ff1614156105b05760038054600181600116156101000203166002900480601f0160208091040260200160405190810160405280929190818152602001828054600181600116156101000203166002900480156105a45780601f10610579576101008083540402835291602001916105a4565b820191906000526020600020905b81548152906001019060200180831161058757829003601f168201915b505050505090506105c4565b602060405190810160405280600081525090505b919050565b600060018111156105d657fe5b60ff168260ff1614156105ff5780600190805190602001906105f99291906106a1565b50610631565b60018081111561060b57fe5b60ff168260ff16141561063057806003908051906020019061062e9291906106a1565b505b5b5050565b6000600181111561064257fe5b60ff168260ff16141561066b5780600090805190602001906106659291906106a1565b5061069d565b60018081111561067757fe5b60ff168260ff16141561069c57806002908051906020019061069a9291906106a1565b505b5b5050565b828054600181600116156101000203166002900490600052602060002090601f016020900481019282601f106106e257805160ff1916838001178555610710565b82800160010185558215610710579182015b8281111561070f5782518255916020019190600101906106f4565b5b50905061071d9190610721565b5090565b61074391905b8082111561073f576000816000905550600101610727565b5090565b905600a165627a7a72305820ac8784a3d143139ae9e2133dcc1e70ccce3062b89749456000bfb1717a1a3a660029",
  "source": "pragma solidity ^0.4.24;\n\n/// @title Ch.4.2 Greeter 스마트 컨트랙트 - 04-02 enum 변수를 이용해서 다국어 지원\n/// @author Seongil Lee\n/// @notice 코어 이더리움 프로그램 책에 나와 있는 예제입니다.\n/// @dev 개인 공부용으로 작성했습니다.\n/// @dev 숫자로 선택하던 언어를 enum 타입을 정의해서 가독성을 높입니다.\ncontract Greeter {\n    string helloKorean = \"안녕?\";\n    string goodbyeKorean = \"잘가!\";\n    string helloEnglish = \"Hello\";\n    string goodbyeEnglish = \"Goodbye!\";\n\n    enum Lang { Korean, English }\n\n    /// @notice 선택한 언어의 만날 때 인사말을 가져옵니다.\n    /// @dev enum 타입 사용 시 lang이 uint8이므로 명시적 형 변환 필수!\n    /// @param lang 언어를 선택하기 위한 enum value (Korean : 0, English: 1)\n    /// @return lang에 맞는 만날 때 인사말\n    function sayHello(uint8 lang) public view returns (string) {\n        if (lang == uint8(Lang.Korean)) {\n            return helloKorean;\n        } else if (lang == uint8(Lang.English)) {\n            return helloEnglish;\n        } else {\n            return \"\";\n        }\n    }\n\n    /// @notice 선택한 언어의 만날 때 인사말을 변경합니다.\n    /// @param lang 언어를 선택하기 위한 enum value (Korean : 0, English: 1)\n    /// @param _hello 변경 하고자 하는 만날 때 인사말\n    function changeHello(uint8 lang, string _hello) public {\n        if (lang == uint8(Lang.Korean)) {\n            helloKorean = _hello;\n        } else if (lang == uint8(Lang.English)) {\n            helloEnglish = _hello;\n        }\n    }\n\n    /// @notice 선택한 언어의 헤어질 때 인사말을 가져옵니다.\n    /// @dev enum 타입 사용 시 lang이 uint8이므로 명시적 형 변환 필수!\n    /// @param lang 언어를 선택하기 위한 enum value (Korean : 0, English: 1)\n    /// @return lang에 맞는 헤어질 때 인사말\n    function sayGoodbye(uint8 lang) public view returns (string) {\n        if (lang == uint8(Lang.Korean)) {\n            return goodbyeKorean;\n        } else if (lang == uint8(Lang.English)) {\n            return goodbyeEnglish;\n        } else {\n            return \"\";\n        }\n    }\n\n    /// @notice 선택한 언어의 헤어질 때 인사말을 변경합니다.\n    /// @param lang 언어를 선택하기 위한 enum value (Korean : 0, English: 1)\n    /// @param _goodbye 변경 하고자 하는 헤어질 때 인사말\n    function changeGoodbye(uint8 lang, string _goodbye) public {\n        if (lang == uint8(Lang.Korean)) {\n            goodbyeKorean = _goodbye;\n        } else if (lang == uint8(Lang.English)) {\n            goodbyeEnglish = _goodbye;\n        }\n    }\n}\n",
  "sourcePath": "/Users/stefan/Documents/PhD/SolMOSA/RWContracts/CoreEthereumProgrammer/Greeter/contracts/Greeter.sol",
  "compiler": {
    "name": "solc",
    "version": "0.4.24+commit.e67f0147.Emscripten.clang"
  },
  "schemaVersion": "3.0.19",
  "updatedAt": "2020-02-07T08:58:33.971Z",
  "devdoc": {
    "author": "Seongil Lee",
    "methods": {
      "changeGoodbye(uint8,string)": {
        "params": {
          "_goodbye": "변경 하고자 하는 헤어질 때 인사말",
          "lang": "언어를 선택하기 위한 enum value (Korean : 0, English: 1)"
        }
      },
      "changeHello(uint8,string)": {
        "params": {
          "_hello": "변경 하고자 하는 만날 때 인사말",
          "lang": "언어를 선택하기 위한 enum value (Korean : 0, English: 1)"
        }
      },
      "sayGoodbye(uint8)": {
        "details": "enum 타입 사용 시 lang이 uint8이므로 명시적 형 변환 필수!",
        "params": {
          "lang": "언어를 선택하기 위한 enum value (Korean : 0, English: 1)"
        },
        "return": "lang에 맞는 헤어질 때 인사말"
      },
      "sayHello(uint8)": {
        "details": "enum 타입 사용 시 lang이 uint8이므로 명시적 형 변환 필수!",
        "params": {
          "lang": "언어를 선택하기 위한 enum value (Korean : 0, English: 1)"
        },
        "return": "lang에 맞는 만날 때 인사말"
      }
    },
    "title": "Ch.4.2 Greeter 스마트 컨트랙트 - 04-02 enum 변수를 이용해서 다국어 지원"
  },
  "userdoc": {
    "methods": {
      "changeGoodbye(uint8,string)": {
        "notice": "선택한 언어의 헤어질 때 인사말을 변경합니다."
      },
      "changeHello(uint8,string)": {
        "notice": "선택한 언어의 만날 때 인사말을 변경합니다."
      },
      "sayGoodbye(uint8)": {
        "notice": "선택한 언어의 헤어질 때 인사말을 가져옵니다."
      },
      "sayHello(uint8)": {
        "notice": "선택한 언어의 만날 때 인사말을 가져옵니다."
      }
    }
  }
}