{
  "contractName": "TestContract",
  "abi": [
    {
      "inputs": [],
      "payable": false,
      "stateMutability": "nonpayable",
      "type": "constructor"
    },
    {
      "constant": true,
      "inputs": [
        {
          "name": "a",
          "type": "uint256"
        },
        {
          "name": "b",
          "type": "uint256"
        }
      ],
      "name": "TestOne",
      "outputs": [
        {
          "name": "success",
          "type": "bool"
        }
      ],
      "payable": false,
      "stateMutability": "view",
      "type": "function"
    },
    {
      "constant": true,
      "inputs": [
        {
          "name": "c",
          "type": "uint256"
        },
        {
          "name": "d",
          "type": "uint256"
        }
      ],
      "name": "TestTwo",
      "outputs": [
        {
          "name": "success",
          "type": "bool"
        }
      ],
      "payable": false,
      "stateMutability": "view",
      "type": "function"
    },
    {
      "constant": true,
      "inputs": [
        {
          "name": "e",
          "type": "uint256"
        },
        {
          "name": "f",
          "type": "uint256"
        }
      ],
      "name": "TestThree",
      "outputs": [
        {
          "name": "success",
          "type": "bool"
        }
      ],
      "payable": false,
      "stateMutability": "view",
      "type": "function"
    }
  ],
  "bytecode": "0x608060405234801561001057600080fd5b506101f9806100206000396000f3fe608060405260043610610057576000357c0100000000000000000000000000000000000000000000000000000000900463ffffffff16806333742d9e1461005c578063463cedf1146100b9578063c953dc1614610116575b600080fd5b34801561006857600080fd5b5061009f6004803603604081101561007f57600080fd5b810190808035906020019092919080359060200190929190505050610173565b604051808215151515815260200191505060405180910390f35b3480156100c557600080fd5b506100fc600480360360408110156100dc57600080fd5b810190808035906020019092919080359060200190929190505050610191565b604051808215151515815260200191505060405180910390f35b34801561012257600080fd5b506101596004803603604081101561013957600080fd5b8101908080359060200190929190803590602001909291905050506101af565b604051808215151515815260200191505060405180910390f35b600081831015610186576000905061018b565b600190505b92915050565b6000818310156101a457600090506101a9565b600190505b92915050565b6000818310156101c257600090506101c7565b600190505b9291505056fea165627a7a72305820565f748cea82c042ad3cd593a1fa45532fce7166a22fa1c3aa52ff614e5eebc90029",
  "source": "pragma solidity ^0.5.0;\n\ncontract TestContract{\n\nconstructor() public {\n}\n\nfunction TestOne(uint a, uint b) public view returns(bool success){\n  if (a < b){\n    return false;\n  }\n  else{\n      return true;\n  }\n}\n\nfunction TestTwo(uint c, uint d) public view returns(bool success){\n  if (c < d){\n    return false;\n  }\n  else{\n      return true;\n  }\n}\n\nfunction TestThree(uint e, uint f) public view returns(bool success){\n  if (e < f){\n    return false;\n  }\n  else{\n      return true;\n  }\n}}\n",
  "sourcePath": "/home/stefan/JADS/Scriptie/Master_Thesis/Code/Smart Contracts/leq631/contracts/TestContract.sol",
  "compiler": {
    "name": "solc",
    "version": "0.5.0+commit.1d4f565a.Emscripten.clang"
  },
  "schemaVersion": "3.0.9",
  "updatedAt": "2019-05-30T19:45:45.809Z",
  "devdoc": {
    "methods": {}
  },
  "userdoc": {
    "methods": {}
  }
}