{
  "contractName": "TestContract",
  "abi": [
    {
      "inputs": [],
      "payable": false,
      "stateMutability": "nonpayable",
      "type": "constructor"
    },
    {
      "constant": true,
      "inputs": [
        {
          "internalType": "uint256",
          "name": "a",
          "type": "uint256"
        },
        {
          "internalType": "uint256",
          "name": "b",
          "type": "uint256"
        },
        {
          "internalType": "uint256",
          "name": "c",
          "type": "uint256"
        },
        {
          "internalType": "uint256",
          "name": "d",
          "type": "uint256"
        },
        {
          "internalType": "uint256",
          "name": "e",
          "type": "uint256"
        }
      ],
      "name": "TestOne",
      "outputs": [
        {
          "internalType": "bool",
          "name": "success",
          "type": "bool"
        }
      ],
      "payable": false,
      "stateMutability": "view",
      "type": "function"
    }
  ],
  "bytecode": "0x608060405234801561001057600080fd5b5061014c806100206000396000f3fe608060405234801561001057600080fd5b506004361061002b5760003560e01c80639613fa6a14610030575b600080fd5b610084600480360360a081101561004657600080fd5b81019080803590602001909291908035906020019092919080359060200190929190803590602001909291908035906020019092919050505061009e565b604051808215151515815260200191505060405180910390f35b6000806000905060808714156100b957600181019050610109565b60808614156100cd57600181019050610108565b60808514156100e157600181019050610107565b60808414156100f557600181019050610106565b6080831415610105576001810190505b5b5b5b5b60019150509594505050505056fea265627a7a72315820f30bdee5806df89a0822ed1e3471d6d031660bbd1bd008c6befe2d7b3bba789164736f6c634300050c0032",
  "source": "pragma solidity ^0.5.0;\n\ncontract TestContract{\n\nconstructor() public {\n}\n\nfunction TestOne(uint a, uint b, uint c, uint d, uint e) public view returns(bool success){\n  uint ans = 0;\n  if (a == 128){\n    ans = ans + 1;\n  }\n  else if (b == 128){\n    ans = ans + 1;\n  }\n  else if (c == 128){\n    ans = ans + 1;\n  }\n  else if (d == 128){\n    ans = ans + 1;\n  }\n  else if (e == 128){\n    ans = ans + 1;\n  }\n  return true;\n}\n}\n",
  "sourcePath": "/Users/stefan/Documents/PhD/SolMOSA/SmallContracts/eq615/contracts/TestContract.sol",
  "compiler": {
    "name": "solc",
    "version": "0.5.12+commit.7709ece9.Emscripten.clang"
  },
  "schemaVersion": "3.0.19",
  "updatedAt": "2020-01-15T09:24:03.855Z",
  "networkType": "ethereum",
  "devdoc": {
    "methods": {}
  },
  "userdoc": {
    "methods": {}
  }
}