{
  "contractName": "Prover",
  "abi": [
    {
      "inputs": [],
      "payable": false,
      "stateMutability": "nonpayable",
      "type": "constructor"
    },
    {
      "payable": false,
      "stateMutability": "nonpayable",
      "type": "fallback"
    },
    {
      "constant": true,
      "inputs": [],
      "name": "registeredUsers",
      "outputs": [
        {
          "name": "unique_addresses",
          "type": "address[]"
        }
      ],
      "payable": false,
      "stateMutability": "view",
      "type": "function"
    },
    {
      "constant": true,
      "inputs": [
        {
          "name": "target",
          "type": "address"
        }
      ],
      "name": "userEntries",
      "outputs": [
        {
          "name": "entries",
          "type": "bytes32[]"
        }
      ],
      "payable": false,
      "stateMutability": "view",
      "type": "function"
    },
    {
      "constant": true,
      "inputs": [
        {
          "name": "target",
          "type": "address"
        },
        {
          "name": "dataHash",
          "type": "bytes32"
        }
      ],
      "name": "entryInformation",
      "outputs": [
        {
          "name": "proved",
          "type": "bool"
        },
        {
          "name": "time",
          "type": "uint256"
        },
        {
          "name": "staked",
          "type": "uint256"
        }
      ],
      "payable": false,
      "stateMutability": "view",
      "type": "function"
    },
    {
      "constant": false,
      "inputs": [
        {
          "name": "dataHash",
          "type": "bytes32"
        }
      ],
      "name": "addEntry",
      "outputs": [],
      "payable": true,
      "stateMutability": "payable",
      "type": "function"
    },
    {
      "constant": false,
      "inputs": [
        {
          "name": "dataHash",
          "type": "bytes32"
        }
      ],
      "name": "deleteEntry",
      "outputs": [],
      "payable": false,
      "stateMutability": "nonpayable",
      "type": "function"
    },
    {
      "constant": false,
      "inputs": [],
      "name": "selfDestruct",
      "outputs": [],
      "payable": false,
      "stateMutability": "nonpayable",
      "type": "function"
    }
  ],
  "bytecode": "0x6060604052341561000f57600080fd5b336000806101000a81548173ffffffffffffffffffffffffffffffffffffffff021916908373ffffffffffffffffffffffffffffffffffffffff160217905550610efe8061005e6000396000f300606060405260043610610078576000357c0100000000000000000000000000000000000000000000000000000000900463ffffffff168063492c981b146100885780635910a18b146100f4578063660d5887146101105780639cb8a26a1461017a5780639f10a9901461018f578063ef8dd09b1461021d575b341561008357600080fd5b600080fd5b341561009357600080fd5b6100cc600480803573ffffffffffffffffffffffffffffffffffffffff1690602001909190803560001916906020019091905050610244565b6040518084151515158152602001838152602001828152602001935050505060405180910390f35b61010e600480803560001916906020019091905050610368565b005b341561011b57600080fd5b6101236104c3565b6040518080602001828103825283818151815260200191508051906020019060200280838360005b8381101561016657808201518184015260208101905061014b565b505050509050019250505060405180910390f35b341561018557600080fd5b61018d61055a565b005b341561019a57600080fd5b6101c6600480803573ffffffffffffffffffffffffffffffffffffffff16906020019091905050610600565b6040518080602001828103825283818151815260200191508051906020019060200280838360005b838110156102095780820151818401526020810190506101ee565b505050509050019250505060405180910390f35b341561022857600080fd5b6102426004808035600019169060200190919050506106a7565b005b600080600061029d84600360008873ffffffffffffffffffffffffffffffffffffffff1673ffffffffffffffffffffffffffffffffffffffff1681526020019081526020016000206000016108ea90919063ffffffff16565b600360008773ffffffffffffffffffffffffffffffffffffffff1673ffffffffffffffffffffffffffffffffffffffff1681526020019081526020016000206002016000866000191660001916815260200190815260200160002060000154600360008873ffffffffffffffffffffffffffffffffffffffff1673ffffffffffffffffffffffffffffffffffffffff16815260200190815260200160002060020160008760001916600019168152602001908152602001600020600101549250925092509250925092565b338160008015156103c383600360008773ffffffffffffffffffffffffffffffffffffffff1673ffffffffffffffffffffffffffffffffffffffff1681526020019081526020016000206000016108ea90919063ffffffff16565b15151415156103ce57fe5b6103e233600161091490919063ffffffff16565b61043684600360003373ffffffffffffffffffffffffffffffffffffffff1673ffffffffffffffffffffffffffffffffffffffff168152602001908152602001600020600001610a0f90919063ffffffff16565b604080519081016040528042815260200134815250600360003373ffffffffffffffffffffffffffffffffffffffff1673ffffffffffffffffffffffffffffffffffffffff16815260200190815260200160002060020160008660001916600019168152602001908152602001600020600082015181600001556020820151816001015590505050505050565b6104cb610db0565b600160000180548060200260200160405190810160405280929190818152602001828054801561055057602002820191906000526020600020905b8160009054906101000a900473ffffffffffffffffffffffffffffffffffffffff1673ffffffffffffffffffffffffffffffffffffffff1681526020019060010190808311610506575b5050505050905090565b6000809054906101000a900473ffffffffffffffffffffffffffffffffffffffff1673ffffffffffffffffffffffffffffffffffffffff163373ffffffffffffffffffffffffffffffffffffffff161480156105bf575060006105bd6001610ab2565b145b156105fe576000809054906101000a900473ffffffffffffffffffffffffffffffffffffffff1673ffffffffffffffffffffffffffffffffffffffff16ff5b565b610608610dc4565b600360008373ffffffffffffffffffffffffffffffffffffffff1673ffffffffffffffffffffffffffffffffffffffff16815260200190815260200160002060000160000180548060200260200160405190810160405280929190818152602001828054801561069b57602002820191906000526020600020905b81546000191681526020019060010190808311610683575b50505050509050919050565b60003382600180151561070483600360008773ffffffffffffffffffffffffffffffffffffffff1673ffffffffffffffffffffffffffffffffffffffff1681526020019081526020016000206000016108ea90919063ffffffff16565b151514151561070f57fe5b600360003373ffffffffffffffffffffffffffffffffffffffff1673ffffffffffffffffffffffffffffffffffffffff16815260200190815260200160002060020160008660001916600019168152602001908152602001600020600101549350600360003373ffffffffffffffffffffffffffffffffffffffff1673ffffffffffffffffffffffffffffffffffffffff168152602001908152602001600020600201600086600019166000191681526020019081526020016000206000808201600090556001820160009055505061083285600360003373ffffffffffffffffffffffffffffffffffffffff1673ffffffffffffffffffffffffffffffffffffffff168152602001908152602001600020600001610ac390919063ffffffff16565b600061087e600360003373ffffffffffffffffffffffffffffffffffffffff1673ffffffffffffffffffffffffffffffffffffffff168152602001908152602001600020600001610ba9565b141561089957610898336001610bba90919063ffffffff16565b5b60008411156108e3573373ffffffffffffffffffffffffffffffffffffffff166108fc859081150290604051600060405180830381858888f1935050505015156108e257600080fd5b5b5050505050565b60008083600101600084600019166000191681526020019081526020016000205411905092915050565b61091e8282610d62565b1515610a0b577fffffffffffffffffffffffffffffffffffffffffffffffffffffffffffffffff61094e83610ab2565b10151561095757fe5b81600001805480600101828161096d9190610dd8565b9160005260206000209001600083909190916101000a81548173ffffffffffffffffffffffffffffffffffffffff021916908373ffffffffffffffffffffffffffffffffffffffff160217905550506109c582610ab2565b8260010160008373ffffffffffffffffffffffffffffffffffffffff1673ffffffffffffffffffffffffffffffffffffffff168152602001908152602001600020819055505b5050565b610a1982826108ea565b1515610aae577fffffffffffffffffffffffffffffffffffffffffffffffffffffffffffffffff610a4983610ba9565b101515610a5257fe5b816000018054806001018281610a689190610e04565b916000526020600020900160008390919091509060001916905550610a8c82610ba9565b8260010160008360001916600019168152602001908152602001600020819055505b5050565b600081600001805490509050919050565b600080610ad084846108ea565b15610ba3578360010160008460001916600019168152602001908152602001600020549150836000016001610b0486610ba9565b03815481101515610b1157fe5b9060005260206000209001549050808460000160018403815481101515610b3457fe5b9060005260206000209001816000191690555083600001805480919060019003610b5e9190610e30565b50818460010160008360001916600019168152602001908152602001600020819055508360010160008460001916600019168152602001908152602001600020600090555b50505050565b600081600001805490509050919050565b600080610bc78484610d62565b15610d5c578360010160008473ffffffffffffffffffffffffffffffffffffffff1673ffffffffffffffffffffffffffffffffffffffff168152602001908152602001600020549150836000016001610c1f86610ab2565b03815481101515610c2c57fe5b906000526020600020900160009054906101000a900473ffffffffffffffffffffffffffffffffffffffff169050808460000160018403815481101515610c6f57fe5b906000526020600020900160006101000a81548173ffffffffffffffffffffffffffffffffffffffff021916908373ffffffffffffffffffffffffffffffffffffffff16021790555083600001805480919060019003610ccf9190610e5c565b50818460010160008373ffffffffffffffffffffffffffffffffffffffff1673ffffffffffffffffffffffffffffffffffffffff168152602001908152602001600020819055508360010160008473ffffffffffffffffffffffffffffffffffffffff1673ffffffffffffffffffffffffffffffffffffffff168152602001908152602001600020600090555b50505050565b6000808360010160008473ffffffffffffffffffffffffffffffffffffffff1673ffffffffffffffffffffffffffffffffffffffff1681526020019081526020016000205411905092915050565b602060405190810160405280600081525090565b602060405190810160405280600081525090565b815481835581811511610dff57818360005260206000209182019101610dfe9190610e88565b5b505050565b815481835581811511610e2b57818360005260206000209182019101610e2a9190610ead565b5b505050565b815481835581811511610e5757818360005260206000209182019101610e569190610ead565b5b505050565b815481835581811511610e8357818360005260206000209182019101610e829190610e88565b5b505050565b610eaa91905b80821115610ea6576000816000905550600101610e8e565b5090565b90565b610ecf91905b80821115610ecb576000816000905550600101610eb3565b5090565b905600a165627a7a72305820f1a02d2fe335ffbb9ab5de1d6cc80226398d56ff0b2d150c4442373ef8096c2b0029",
  "source": "pragma solidity ^0.4.18;\n\nimport {Sets} from \"./Sets.sol\";\n\ncontract Prover {\n    // attach library\n    using Sets for Sets.addressSet;\n    using Sets for Sets.bytes32Set;\n\n    // storage vars\n    address owner;\n    Sets.addressSet users;\n    mapping(address => Account) internal accounts;\n\n    // structs\n    struct Account {\n        Sets.bytes32Set entries;\n        mapping(bytes32 => Entry) values;\n    }\n\n    struct Entry {\n        uint time;\n        uint staked;\n    }\n\n    // constructor\n    function Prover() public {\n        owner = msg.sender;\n    }\n\n    // fallback\n    function() internal {\n        revert();\n    }\n\n\n    // modifier to check if a target address has a particular entry\n    modifier entryExists(address target, bytes32 dataHash, bool exists) {\n        assert(accounts[target].entries.contains(dataHash) == exists);\n        _;\n    }\n\n    // external functions\n    // allow access to our structs via functions with convenient return values\n    function registeredUsers()\n        external\n        view\n        returns (address[] unique_addresses) {\n        return users.members;\n    }\n    function userEntries(address target)\n        external\n        view\n        returns (bytes32[] entries) {\n        return accounts[target].entries.members;\n    }\n    function entryInformation(address target, bytes32 dataHash)\n        external\n        view\n        returns (bool proved, uint time, uint staked) {\n        return (accounts[target].entries.contains(dataHash),\n                accounts[target].values[dataHash].time,\n                accounts[target].values[dataHash].staked);\n    }\n\n    // public functions\n    // adding entries\n    function addEntry(bytes32 dataHash)\n        public\n        payable\n        entryExists(msg.sender, dataHash, false){\n        users.insert(msg.sender);\n        accounts[msg.sender].entries.insert(dataHash);\n        accounts[msg.sender].values[dataHash] = Entry(now, msg.value);\n    }\n\n    // deleting entries\n    function deleteEntry(bytes32 dataHash)\n        public\n        entryExists(msg.sender, dataHash, true) {\n        uint rebate = accounts[msg.sender].values[dataHash].staked;\n        // update user account\n        delete accounts[msg.sender].values[dataHash];\n        accounts[msg.sender].entries.remove(dataHash);\n        // delete from users if this was the user's last entry\n        if (accounts[msg.sender].entries.length() == 0) {\n            users.remove(msg.sender);\n        }\n        // send the rebate\n        if (rebate > 0) msg.sender.transfer(rebate);\n    }\n\n    // allow owner to delete contract if no accounts exist\n    function selfDestruct() public {\n        if ((msg.sender == owner) && (users.length() == 0)) {\n            selfdestruct(owner);\n        }\n    }\n}\n",
  "sourcePath": "/Users/stefan/Documents/PhD/SolMOSA/Smart Contracts/BatchContracts/ProveIt/contracts/Prover.sol",
  "compiler": {
    "name": "solc",
    "version": "0.4.18+commit.9cf6e910.Emscripten.clang"
  },
  "schemaVersion": "3.0.19",
  "updatedAt": "2020-04-02T12:14:46.921Z",
  "devdoc": {
    "methods": {}
  },
  "userdoc": {
    "methods": {}
  }
}