{
  "contractName": "TestContract",
  "abi": [
    {
      "inputs": [],
      "payable": false,
      "stateMutability": "nonpayable",
      "type": "constructor"
    },
    {
      "constant": true,
      "inputs": [
        {
          "name": "a",
          "type": "uint256"
        },
        {
          "name": "b",
          "type": "uint256"
        },
        {
          "name": "c",
          "type": "uint256"
        },
        {
          "name": "d",
          "type": "uint256"
        },
        {
          "name": "e",
          "type": "uint256"
        }
      ],
      "name": "TestOne",
      "outputs": [
        {
          "name": "success",
          "type": "bool"
        }
      ],
      "payable": false,
      "stateMutability": "view",
      "type": "function"
    }
  ],
  "bytecode": "0x608060405234801561001057600080fd5b50610166806100206000396000f3fe608060405260043610610041576000357c0100000000000000000000000000000000000000000000000000000000900463ffffffff1680639613fa6a14610046575b600080fd5b34801561005257600080fd5b506100a7600480360360a081101561006957600080fd5b8101908080359060200190929190803590602001909291908035906020019092919080359060200190929190803590602001909291905050506100c1565b604051808215151515815260200191505060405180910390f35b60008060009050600d8710156100dc5760018101905061012c565b600d8610156100f05760018101905061012b565b600d8510156101045760018101905061012a565b600d84101561011857600181019050610129565b600d831015610128576001810190505b5b5b5b5b60019150509594505050505056fea165627a7a72305820fe91e4a9cf6a7c977f67fcc57d1f67dd72899b4c47b038ab2616f84dd27166dd0029",
  "source": "pragma solidity ^0.5.0;\n\ncontract TestContract{\n\nconstructor() public {\n}\n\nfunction TestOne(uint a, uint b, uint c, uint d, uint e) public view returns(bool success){\n  uint ans = 0;\n  if (a < 13){\n    ans = ans + 1;\n  }\n  else if (b < 13){\n    ans = ans + 1;\n  }\n  else if (c < 13){\n    ans = ans + 1;\n  }\n  else if (d < 13){\n    ans = ans + 1;\n  }\n  else if (e < 13){\n    ans = ans + 1;\n  }\n  return true;\n}\n}\n",
  "sourcePath": "/home/stefan/JADS/Scriptie/Master_Thesis/Code/Smart Contracts/leq615/contracts/TestContract.sol",
  "compiler": {
    "name": "solc",
    "version": "0.5.0+commit.1d4f565a.Emscripten.clang"
  },
  "schemaVersion": "3.0.9",
  "updatedAt": "2019-05-30T19:44:18.716Z",
  "devdoc": {
    "methods": {}
  },
  "userdoc": {
    "methods": {}
  }
}