{
  "contractName": "MemoryArrayBuildingCheap",
  "abi": [
    {
      "constant": true,
      "inputs": [
        {
          "name": "",
          "type": "address"
        }
      ],
      "name": "ownerItemCount",
      "outputs": [
        {
          "name": "",
          "type": "uint256"
        }
      ],
      "payable": false,
      "stateMutability": "view",
      "type": "function"
    },
    {
      "constant": true,
      "inputs": [
        {
          "name": "",
          "type": "uint256"
        }
      ],
      "name": "items",
      "outputs": [
        {
          "name": "name",
          "type": "string"
        },
        {
          "name": "category",
          "type": "string"
        },
        {
          "name": "owner",
          "type": "address"
        },
        {
          "name": "zipcode",
          "type": "uint32"
        },
        {
          "name": "price",
          "type": "uint32"
        }
      ],
      "payable": false,
      "stateMutability": "view",
      "type": "function"
    },
    {
      "constant": true,
      "inputs": [
        {
          "name": "_owner",
          "type": "address"
        }
      ],
      "name": "getItemsbyOwner",
      "outputs": [
        {
          "name": "",
          "type": "uint256[]"
        }
      ],
      "payable": false,
      "stateMutability": "view",
      "type": "function"
    },
    {
      "constant": false,
      "inputs": [
        {
          "name": "_add1",
          "type": "address"
        },
        {
          "name": "_add2",
          "type": "address"
        }
      ],
      "name": "initialize",
      "outputs": [],
      "payable": false,
      "stateMutability": "nonpayable",
      "type": "function"
    }
  ],
  "bytecode": "0x6060604052341561000f57600080fd5b611baf8061001e6000396000f300606060405260043610610062576000357c0100000000000000000000000000000000000000000000000000000000900463ffffffff168063485cc955146100675780634c798473146100bf578063b6b70dfb1461010c578063bfb231d21461019a575b600080fd5b341561007257600080fd5b6100bd600480803573ffffffffffffffffffffffffffffffffffffffff1690602001909190803573ffffffffffffffffffffffffffffffffffffffff16906020019091905050610335565b005b34156100ca57600080fd5b6100f6600480803573ffffffffffffffffffffffffffffffffffffffff16906020019091905050611774565b6040518082815260200191505060405180910390f35b341561011757600080fd5b610143600480803573ffffffffffffffffffffffffffffffffffffffff1690602001909190505061178c565b6040518080602001828103825283818151815260200191508051906020019060200280838360005b8381101561018657808201518184015260208101905061016b565b505050509050019250505060405180910390f35b34156101a557600080fd5b6101bb60048080359060200190919050506118c7565b6040518080602001806020018673ffffffffffffffffffffffffffffffffffffffff1673ffffffffffffffffffffffffffffffffffffffff1681526020018563ffffffff1663ffffffff1681526020018463ffffffff1663ffffffff16815260200183810383528881815460018160011615610100020316600290048152602001915080546001816001161561010002031660029004801561029e5780601f106102735761010080835404028352916020019161029e565b820191906000526020600020905b81548152906001019060200180831161028157829003601f168201915b50508381038252878181546001816001161561010002031660029004815260200191508054600181600116156101000203166002900480156103215780601f106102f657610100808354040283529160200191610321565b820191906000526020600020905b81548152906001019060200180831161030457829003601f168201915b505097505050505050505060405180910390f35b61033d61194a565b60a0604051908101604052806040805190810160405280600581526020017f746573743100000000000000000000000000000000000000000000000000000081525081526020016040805190810160405280600581526020017f686f75736500000000000000000000000000000000000000000000000000000081525081526020018473ffffffffffffffffffffffffffffffffffffffff168152602001620139cb63ffffffff16815260200160d463ffffffff1681525090506000805480600101828161040b91906119a8565b91600052602060002090600302016000839091909150600082015181600001908051906020019061043d9291906119da565b50602082015181600101908051906020019061045a9291906119da565b5060408201518160020160006101000a81548173ffffffffffffffffffffffffffffffffffffffff021916908373ffffffffffffffffffffffffffffffffffffffff16021790555060608201518160020160146101000a81548163ffffffff021916908363ffffffff16021790555060808201518160020160186101000a81548163ffffffff021916908363ffffffff160217905550505050600160008473ffffffffffffffffffffffffffffffffffffffff1673ffffffffffffffffffffffffffffffffffffffff1681526020019081526020016000206000815480929190600101919050555060a0604051908101604052806040805190810160405280600581526020017f746573743200000000000000000000000000000000000000000000000000000081525081526020016040805190810160405280600581526020017f686f75736500000000000000000000000000000000000000000000000000000081525081526020018373ffffffffffffffffffffffffffffffffffffffff168152602001620139cb63ffffffff16815260200160d463ffffffff1681525090506000805480600101828161061091906119a8565b9160005260206000209060030201600083909190915060008201518160000190805190602001906106429291906119da565b50602082015181600101908051906020019061065f9291906119da565b5060408201518160020160006101000a81548173ffffffffffffffffffffffffffffffffffffffff021916908373ffffffffffffffffffffffffffffffffffffffff16021790555060608201518160020160146101000a81548163ffffffff021916908363ffffffff16021790555060808201518160020160186101000a81548163ffffffff021916908363ffffffff160217905550505050600160008373ffffffffffffffffffffffffffffffffffffffff1673ffffffffffffffffffffffffffffffffffffffff1681526020019081526020016000206000815480929190600101919050555060a0604051908101604052806040805190810160405280600581526020017f746573743300000000000000000000000000000000000000000000000000000081525081526020016040805190810160405280600581526020017f686f75736500000000000000000000000000000000000000000000000000000081525081526020018473ffffffffffffffffffffffffffffffffffffffff168152602001620139cb63ffffffff16815260200160d463ffffffff1681525090506000805480600101828161081591906119a8565b9160005260206000209060030201600083909190915060008201518160000190805190602001906108479291906119da565b5060208201518160010190805190602001906108649291906119da565b5060408201518160020160006101000a81548173ffffffffffffffffffffffffffffffffffffffff021916908373ffffffffffffffffffffffffffffffffffffffff16021790555060608201518160020160146101000a81548163ffffffff021916908363ffffffff16021790555060808201518160020160186101000a81548163ffffffff021916908363ffffffff160217905550505050600160008473ffffffffffffffffffffffffffffffffffffffff1673ffffffffffffffffffffffffffffffffffffffff1681526020019081526020016000206000815480929190600101919050555060a0604051908101604052806040805190810160405280600581526020017f746573743400000000000000000000000000000000000000000000000000000081525081526020016040805190810160405280600581526020017f686f75736500000000000000000000000000000000000000000000000000000081525081526020018373ffffffffffffffffffffffffffffffffffffffff168152602001620139cb63ffffffff16815260200160d463ffffffff16815250905060008054806001018281610a1a91906119a8565b916000526020600020906003020160008390919091506000820151816000019080519060200190610a4c9291906119da565b506020820151816001019080519060200190610a699291906119da565b5060408201518160020160006101000a81548173ffffffffffffffffffffffffffffffffffffffff021916908373ffffffffffffffffffffffffffffffffffffffff16021790555060608201518160020160146101000a81548163ffffffff021916908363ffffffff16021790555060808201518160020160186101000a81548163ffffffff021916908363ffffffff160217905550505050600160008373ffffffffffffffffffffffffffffffffffffffff1673ffffffffffffffffffffffffffffffffffffffff1681526020019081526020016000206000815480929190600101919050555060a0604051908101604052806040805190810160405280600581526020017f746573743500000000000000000000000000000000000000000000000000000081525081526020016040805190810160405280600581526020017f686f75736500000000000000000000000000000000000000000000000000000081525081526020018373ffffffffffffffffffffffffffffffffffffffff168152602001620139cb63ffffffff16815260200160d463ffffffff16815250905060008054806001018281610c1f91906119a8565b916000526020600020906003020160008390919091506000820151816000019080519060200190610c519291906119da565b506020820151816001019080519060200190610c6e9291906119da565b5060408201518160020160006101000a81548173ffffffffffffffffffffffffffffffffffffffff021916908373ffffffffffffffffffffffffffffffffffffffff16021790555060608201518160020160146101000a81548163ffffffff021916908363ffffffff16021790555060808201518160020160186101000a81548163ffffffff021916908363ffffffff160217905550505050600160008373ffffffffffffffffffffffffffffffffffffffff1673ffffffffffffffffffffffffffffffffffffffff1681526020019081526020016000206000815480929190600101919050555060a0604051908101604052806040805190810160405280600581526020017f746573743600000000000000000000000000000000000000000000000000000081525081526020016040805190810160405280600581526020017f686f75736500000000000000000000000000000000000000000000000000000081525081526020018373ffffffffffffffffffffffffffffffffffffffff168152602001620139cb63ffffffff16815260200160d463ffffffff16815250905060008054806001018281610e2491906119a8565b916000526020600020906003020160008390919091506000820151816000019080519060200190610e569291906119da565b506020820151816001019080519060200190610e739291906119da565b5060408201518160020160006101000a81548173ffffffffffffffffffffffffffffffffffffffff021916908373ffffffffffffffffffffffffffffffffffffffff16021790555060608201518160020160146101000a81548163ffffffff021916908363ffffffff16021790555060808201518160020160186101000a81548163ffffffff021916908363ffffffff160217905550505050600160008373ffffffffffffffffffffffffffffffffffffffff1673ffffffffffffffffffffffffffffffffffffffff1681526020019081526020016000206000815480929190600101919050555060a0604051908101604052806040805190810160405280600581526020017f746573743700000000000000000000000000000000000000000000000000000081525081526020016040805190810160405280600581526020017f686f75736500000000000000000000000000000000000000000000000000000081525081526020018373ffffffffffffffffffffffffffffffffffffffff168152602001620139cb63ffffffff16815260200160d463ffffffff1681525090506000805480600101828161102991906119a8565b91600052602060002090600302016000839091909150600082015181600001908051906020019061105b9291906119da565b5060208201518160010190805190602001906110789291906119da565b5060408201518160020160006101000a81548173ffffffffffffffffffffffffffffffffffffffff021916908373ffffffffffffffffffffffffffffffffffffffff16021790555060608201518160020160146101000a81548163ffffffff021916908363ffffffff16021790555060808201518160020160186101000a81548163ffffffff021916908363ffffffff160217905550505050600160008373ffffffffffffffffffffffffffffffffffffffff1673ffffffffffffffffffffffffffffffffffffffff1681526020019081526020016000206000815480929190600101919050555060a0604051908101604052806040805190810160405280600581526020017f746573743800000000000000000000000000000000000000000000000000000081525081526020016040805190810160405280600581526020017f686f75736500000000000000000000000000000000000000000000000000000081525081526020018373ffffffffffffffffffffffffffffffffffffffff168152602001620139cb63ffffffff16815260200160d463ffffffff1681525090506000805480600101828161122e91906119a8565b9160005260206000209060030201600083909190915060008201518160000190805190602001906112609291906119da565b50602082015181600101908051906020019061127d9291906119da565b5060408201518160020160006101000a81548173ffffffffffffffffffffffffffffffffffffffff021916908373ffffffffffffffffffffffffffffffffffffffff16021790555060608201518160020160146101000a81548163ffffffff021916908363ffffffff16021790555060808201518160020160186101000a81548163ffffffff021916908363ffffffff160217905550505050600160008373ffffffffffffffffffffffffffffffffffffffff1673ffffffffffffffffffffffffffffffffffffffff1681526020019081526020016000206000815480929190600101919050555060a0604051908101604052806040805190810160405280600581526020017f746573743900000000000000000000000000000000000000000000000000000081525081526020016040805190810160405280600581526020017f686f75736500000000000000000000000000000000000000000000000000000081525081526020018373ffffffffffffffffffffffffffffffffffffffff168152602001620139cb63ffffffff16815260200160d463ffffffff1681525090506000805480600101828161143391906119a8565b9160005260206000209060030201600083909190915060008201518160000190805190602001906114659291906119da565b5060208201518160010190805190602001906114829291906119da565b5060408201518160020160006101000a81548173ffffffffffffffffffffffffffffffffffffffff021916908373ffffffffffffffffffffffffffffffffffffffff16021790555060608201518160020160146101000a81548163ffffffff021916908363ffffffff16021790555060808201518160020160186101000a81548163ffffffff021916908363ffffffff160217905550505050600160008373ffffffffffffffffffffffffffffffffffffffff1673ffffffffffffffffffffffffffffffffffffffff1681526020019081526020016000206000815480929190600101919050555060a0604051908101604052806040805190810160405280600681526020017f746573743130000000000000000000000000000000000000000000000000000081525081526020016040805190810160405280600581526020017f686f75736500000000000000000000000000000000000000000000000000000081525081526020018373ffffffffffffffffffffffffffffffffffffffff168152602001620139cb63ffffffff16815260200160d463ffffffff1681525090506000805480600101828161163891906119a8565b91600052602060002090600302016000839091909150600082015181600001908051906020019061166a9291906119da565b5060208201518160010190805190602001906116879291906119da565b5060408201518160020160006101000a81548173ffffffffffffffffffffffffffffffffffffffff021916908373ffffffffffffffffffffffffffffffffffffffff16021790555060608201518160020160146101000a81548163ffffffff021916908363ffffffff16021790555060808201518160020160186101000a81548163ffffffff021916908363ffffffff160217905550505050600160008373ffffffffffffffffffffffffffffffffffffffff1673ffffffffffffffffffffffffffffffffffffffff16815260200190815260200160002060008154809291906001019190505550505050565b60016020528060005260406000206000915090505481565b611794611a5a565b61179c611a5a565b600080600160008673ffffffffffffffffffffffffffffffffffffffff1673ffffffffffffffffffffffffffffffffffffffff168152602001908152602001600020546040518059106117ec5750595b9080825280602002602001820160405250925060009150600090505b6000805490508110156118bc578473ffffffffffffffffffffffffffffffffffffffff1660008281548110151561183b57fe5b906000526020600020906003020160020160009054906101000a900473ffffffffffffffffffffffffffffffffffffffff1673ffffffffffffffffffffffffffffffffffffffff1614156118af5780838381518110151561189857fe5b906020019060200201818152505081806001019250505b8080600101915050611808565b829350505050919050565b6000818154811015156118d657fe5b9060005260206000209060030201600091509050806000019080600101908060020160009054906101000a900473ffffffffffffffffffffffffffffffffffffffff16908060020160149054906101000a900463ffffffff16908060020160189054906101000a900463ffffffff16905085565b60a06040519081016040528061195e611a6e565b815260200161196b611a6e565b8152602001600073ffffffffffffffffffffffffffffffffffffffff168152602001600063ffffffff168152602001600063ffffffff1681525090565b8154818355818115116119d5576003028160030283600052602060002091820191016119d49190611a82565b5b505050565b828054600181600116156101000203166002900490600052602060002090601f016020900481019282601f10611a1b57805160ff1916838001178555611a49565b82800160010185558215611a49579182015b82811115611a48578251825591602001919060010190611a2d565b5b509050611a569190611b16565b5090565b602060405190810160405280600081525090565b602060405190810160405280600081525090565b611b1391905b80821115611b0f5760008082016000611aa19190611b3b565b600182016000611ab19190611b3b565b6002820160006101000a81549073ffffffffffffffffffffffffffffffffffffffff02191690556002820160146101000a81549063ffffffff02191690556002820160186101000a81549063ffffffff021916905550600301611a88565b5090565b90565b611b3891905b80821115611b34576000816000905550600101611b1c565b5090565b90565b50805460018160011615610100020316600290046000825580601f10611b615750611b80565b601f016020900490600052602060002090810190611b7f9190611b16565b5b505600a165627a7a7230582014e9ffc51165e3448614977f2431d041621fea918d36582be8f270478df1a97c0029",
  "source": "pragma solidity ^0.4.20;\n\ncontract MemoryArrayBuildingCheap {\n\n    struct Item {\n        string name;\n        string category;\n        address owner;\n        uint32 zipcode;\n        uint32 price;\n    }\n\n    Item[] public items;\n\n    mapping(address => uint) public ownerItemCount;\n\n    function getItemsbyOwner(address _owner) public view returns (uint[]) {\n        uint[] memory result = new uint[](ownerItemCount[_owner]);\n\n        uint counter = 0;\n        for (uint i = 0; i < items.length; i++) {\n            if (items[i].owner == _owner) {\n                result[counter] = i;\n                counter++;\n            }\n        }\n        return result;\n    }\n\n    function initialize(address _add1, address _add2) public {\n        Item memory tempItem = Item(\"test1\", \"house\", _add1, 80331, 212);\n        items.push(tempItem);\n        ownerItemCount[_add1]++;\n\n        tempItem = Item(\"test2\", \"house\", _add2, 80331, 212);\n        items.push(tempItem);\n        ownerItemCount[_add2]++;\n\n        tempItem = Item(\"test3\", \"house\", _add1, 80331, 212);\n        items.push(tempItem);\n        ownerItemCount[_add1]++;\n\n        tempItem = Item(\"test4\", \"house\", _add2, 80331, 212);\n        items.push(tempItem);\n        ownerItemCount[_add2]++;\n\n        tempItem = Item(\"test5\", \"house\", _add2, 80331, 212);\n        items.push(tempItem);\n        ownerItemCount[_add2]++;\n\n        tempItem = Item(\"test6\", \"house\", _add2, 80331, 212);\n        items.push(tempItem);\n        ownerItemCount[_add2]++;\n\n        tempItem = Item(\"test7\", \"house\", _add2, 80331, 212);\n        items.push(tempItem);\n        ownerItemCount[_add2]++;\n\n        tempItem = Item(\"test8\", \"house\", _add2, 80331, 212);\n        items.push(tempItem);\n        ownerItemCount[_add2]++;\n\n        tempItem = Item(\"test9\", \"house\", _add2, 80331, 212);\n        items.push(tempItem);\n        ownerItemCount[_add2]++;\n\n        tempItem = Item(\"test10\", \"house\", _add2, 80331, 212);\n        items.push(tempItem);\n        ownerItemCount[_add2]++;\n    }\n}\n",
  "sourcePath": "/Users/stefan/Documents/PhD/SolMOSA/RWContracts/MemoryArrayBuilding/contracts/MemoryArrayBuildingCheap.sol",
  "compiler": {
    "name": "solc",
    "version": "0.4.20+commit.3155dd80.Emscripten.clang"
  },
  "schemaVersion": "3.0.19",
  "updatedAt": "2020-01-10T08:08:40.345Z",
  "networkType": "ethereum",
  "devdoc": {
    "methods": {}
  },
  "userdoc": {
    "methods": {}
  }
}