{
  "contractName": "EtherBank",
  "abi": [
    {
      "constant": true,
      "inputs": [
        {
          "name": "",
          "type": "address"
        }
      ],
      "name": "balances",
      "outputs": [
        {
          "name": "",
          "type": "uint256"
        }
      ],
      "payable": false,
      "stateMutability": "view",
      "type": "function"
    },
    {
      "inputs": [],
      "payable": true,
      "stateMutability": "payable",
      "type": "constructor"
    },
    {
      "constant": false,
      "inputs": [],
      "name": "deposit",
      "outputs": [],
      "payable": true,
      "stateMutability": "payable",
      "type": "function"
    },
    {
      "constant": false,
      "inputs": [
        {
          "name": "_amount",
          "type": "uint256"
        }
      ],
      "name": "withdraw",
      "outputs": [],
      "payable": false,
      "stateMutability": "nonpayable",
      "type": "function"
    },
    {
      "constant": false,
      "inputs": [],
      "name": "refund",
      "outputs": [],
      "payable": false,
      "stateMutability": "nonpayable",
      "type": "function"
    },
    {
      "constant": true,
      "inputs": [
        {
          "name": "addr",
          "type": "address"
        }
      ],
      "name": "getBalance",
      "outputs": [
        {
          "name": "",
          "type": "uint256"
        }
      ],
      "payable": false,
      "stateMutability": "view",
      "type": "function"
    },
    {
      "constant": true,
      "inputs": [],
      "name": "getBankBalance",
      "outputs": [
        {
          "name": "",
          "type": "uint256"
        }
      ],
      "payable": false,
      "stateMutability": "view",
      "type": "function"
    }
  ],
  "bytecode": "0x6080604052670de0b6b3a7640000600155678ac7230489e800003414151561002657600080fd5b61048f806100356000396000f3fe608060405260043610610078576000357c0100000000000000000000000000000000000000000000000000000000900463ffffffff16806327e235e31461007d5780632e1a7d4d146100e2578063590e1ae31461011d5780637b83b50b14610134578063d0e30db01461015f578063f8b2cb4f14610169575b600080fd5b34801561008957600080fd5b506100cc600480360360208110156100a057600080fd5b81019080803573ffffffffffffffffffffffffffffffffffffffff1690602001909291905050506101ce565b6040518082815260200191505060405180910390f35b3480156100ee57600080fd5b5061011b6004803603602081101561010557600080fd5b81019080803590602001909291905050506101e6565b005b34801561012957600080fd5b506101326102da565b005b34801561014057600080fd5b506101496103ae565b6040518082815260200191505060405180910390f35b6101676103cd565b005b34801561017557600080fd5b506101b86004803603602081101561018c57600080fd5b81019080803573ffffffffffffffffffffffffffffffffffffffff16906020019092919050505061041b565b6040518082815260200191505060405180910390f35b60006020528060005260406000206000915090505481565b60015481101515156101f757600080fd5b806000803373ffffffffffffffffffffffffffffffffffffffff1673ffffffffffffffffffffffffffffffffffffffff168152602001908152602001600020541015151561024457600080fd5b806000803373ffffffffffffffffffffffffffffffffffffffff1673ffffffffffffffffffffffffffffffffffffffff168152602001908152602001600020600082825403925050819055503373ffffffffffffffffffffffffffffffffffffffff166108fc829081150290604051600060405180830381858888f193505050501580156102d6573d6000803e3d6000fd5b5050565b60008060003373ffffffffffffffffffffffffffffffffffffffff1673ffffffffffffffffffffffffffffffffffffffff1681526020019081526020016000205411151561032757600080fd5b3373ffffffffffffffffffffffffffffffffffffffff166108fc6000803373ffffffffffffffffffffffffffffffffffffffff1673ffffffffffffffffffffffffffffffffffffffff168152602001908152602001600020549081150290604051600060405180830381858888f193505050501580156103ab573d6000803e3d6000fd5b50565b60003073ffffffffffffffffffffffffffffffffffffffff1631905090565b346000803373ffffffffffffffffffffffffffffffffffffffff1673ffffffffffffffffffffffffffffffffffffffff16815260200190815260200160002060008282540192505081905550565b60008060008373ffffffffffffffffffffffffffffffffffffffff1673ffffffffffffffffffffffffffffffffffffffff16815260200190815260200160002054905091905056fea165627a7a723058209a07979caf4de09fac8847788d42239eeff5e3738532f04420a0a1b8857972de0029",
  "source": "pragma solidity ^0.5.0;\n\ncontract EtherBank {\n  mapping (address => uint) public balances;\n  uint min_withdraw = 1 ether;\n\n  constructor() public payable{\n      require(msg.value == 10 ether);\n  }\n\n  function deposit() payable public {\n    balances[msg.sender] += msg.value;\n  }\n\n  function withdraw(uint _amount) public {\n    require(_amount >= min_withdraw);\n    require(balances[msg.sender] >= _amount);\n    balances[msg.sender] -= _amount;\n    msg.sender.transfer(_amount);\n  }\n\n  function refund() public {\n    require(balances[msg.sender] > 0);\n    msg.sender.transfer(balances[msg.sender]);\n  }\n  function getBalance(address addr) view public returns(uint){\n    return balances[addr];\n  }\n\n  function getBankBalance() view public returns(uint){\n    return address(this).balance;\n  }\n\n}\n",
  "sourcePath": "/Users/stefan/Documents/PhD/SolMOSA/Smart Contracts/RWContracts/mythx-playground/EtherBank/contracts/EtherBank.sol",
  "compiler": {
    "name": "solc",
    "version": "0.5.0+commit.1d4f565a.Emscripten.clang"
  },
  "schemaVersion": "3.0.19",
  "updatedAt": "2020-04-01T12:21:02.055Z",
  "devdoc": {
    "methods": {}
  },
  "userdoc": {
    "methods": {}
  }
}