{
  "contractName": "EasyPayAndWithDraw",
  "abi": [
    {
      "constant": true,
      "inputs": [
        {
          "name": "",
          "type": "address"
        }
      ],
      "name": "balances",
      "outputs": [
        {
          "name": "",
          "type": "uint256"
        }
      ],
      "payable": false,
      "stateMutability": "view",
      "type": "function"
    },
    {
      "payable": true,
      "stateMutability": "payable",
      "type": "fallback"
    },
    {
      "constant": false,
      "inputs": [
        {
          "name": "value",
          "type": "uint256"
        }
      ],
      "name": "withdraw",
      "outputs": [],
      "payable": false,
      "stateMutability": "nonpayable",
      "type": "function"
    }
  ],
  "bytecode": "0x608060405234801561001057600080fd5b506102c2806100206000396000f30060806040526004361061004c576000357c0100000000000000000000000000000000000000000000000000000000900463ffffffff16806327e235e3146100d15780632e1a7d4d14610128575b346000803373ffffffffffffffffffffffffffffffffffffffff1673ffffffffffffffffffffffffffffffffffffffff16815260200190815260200160002054016000803373ffffffffffffffffffffffffffffffffffffffff1673ffffffffffffffffffffffffffffffffffffffff16815260200190815260200160002081905550005b3480156100dd57600080fd5b50610112600480360381019080803573ffffffffffffffffffffffffffffffffffffffff169060200190929190505050610155565b6040518082815260200191505060405180910390f35b34801561013457600080fd5b506101536004803603810190808035906020019092919050505061016d565b005b60006020528060005260406000206000915090505481565b806000803373ffffffffffffffffffffffffffffffffffffffff1673ffffffffffffffffffffffffffffffffffffffff16815260200190815260200160002054101515156101ba57600080fd5b6000811115156101c957600080fd5b806000803373ffffffffffffffffffffffffffffffffffffffff1673ffffffffffffffffffffffffffffffffffffffff16815260200190815260200160002054036000803373ffffffffffffffffffffffffffffffffffffffff1673ffffffffffffffffffffffffffffffffffffffff168152602001908152602001600020819055503373ffffffffffffffffffffffffffffffffffffffff166108fc829081150290604051600060405180830381858888f19350505050158015610292573d6000803e3d6000fd5b50505600a165627a7a723058203d8559c13f8c8207f133a0debbe8d4ca9b0358e28372054d92cb5e34a1de0c6d0029",
  "source": "pragma solidity ^0.4.24;\n\ncontract EasyPayAndWithDraw {\n\n    mapping (address => uint) public balances;\n\n    // fallback\n    function () payable public {\n        balances[msg.sender] = balances[msg.sender] + msg.value;\n    }\n\n    function withdraw(uint value) public {\n        require(balances[msg.sender] >= value);\n        require(value > 0);\n\n        balances[msg.sender] = balances[msg.sender] - value;\n\n        msg.sender.transfer(value);\n    }\n\n}\n",
  "sourcePath": "/Users/stefan/Documents/PhD/SolMOSA/RWContracts/Smart-Contract-Modular-Template/EasyPayAndWithDraw/contracts/EasyPayAndWithDraw.sol",
  "compiler": {
    "name": "solc",
    "version": "0.4.24+commit.e67f0147.Emscripten.clang"
  },
  "schemaVersion": "3.0.19",
  "updatedAt": "2020-01-14T15:31:17.550Z",
  "devdoc": {
    "methods": {}
  },
  "userdoc": {
    "methods": {}
  }
}