{
  "contractName": "TestDateTime",
  "abi": [
    {
      "constant": true,
      "inputs": [],
      "name": "nextYear",
      "outputs": [
        {
          "name": "",
          "type": "uint256"
        }
      ],
      "payable": false,
      "stateMutability": "view",
      "type": "function"
    },
    {
      "constant": false,
      "inputs": [],
      "name": "test",
      "outputs": [],
      "payable": false,
      "stateMutability": "nonpayable",
      "type": "function"
    },
    {
      "constant": true,
      "inputs": [
        {
          "name": "year",
          "type": "uint256"
        },
        {
          "name": "month",
          "type": "uint256"
        },
        {
          "name": "day",
          "type": "uint256"
        }
      ],
      "name": "timestampFromDate",
      "outputs": [
        {
          "name": "timestamp",
          "type": "uint256"
        }
      ],
      "payable": false,
      "stateMutability": "pure",
      "type": "function"
    },
    {
      "constant": true,
      "inputs": [
        {
          "name": "year",
          "type": "uint256"
        },
        {
          "name": "month",
          "type": "uint256"
        },
        {
          "name": "day",
          "type": "uint256"
        },
        {
          "name": "hour",
          "type": "uint256"
        },
        {
          "name": "minute",
          "type": "uint256"
        },
        {
          "name": "second",
          "type": "uint256"
        }
      ],
      "name": "timestampFromDateTime",
      "outputs": [
        {
          "name": "timestamp",
          "type": "uint256"
        }
      ],
      "payable": false,
      "stateMutability": "pure",
      "type": "function"
    },
    {
      "constant": true,
      "inputs": [
        {
          "name": "timestamp",
          "type": "uint256"
        }
      ],
      "name": "timestampToDate",
      "outputs": [
        {
          "name": "year",
          "type": "uint256"
        },
        {
          "name": "month",
          "type": "uint256"
        },
        {
          "name": "day",
          "type": "uint256"
        }
      ],
      "payable": false,
      "stateMutability": "pure",
      "type": "function"
    },
    {
      "constant": true,
      "inputs": [
        {
          "name": "timestamp",
          "type": "uint256"
        }
      ],
      "name": "timestampToDateTime",
      "outputs": [
        {
          "name": "year",
          "type": "uint256"
        },
        {
          "name": "month",
          "type": "uint256"
        },
        {
          "name": "day",
          "type": "uint256"
        },
        {
          "name": "hour",
          "type": "uint256"
        },
        {
          "name": "minute",
          "type": "uint256"
        },
        {
          "name": "second",
          "type": "uint256"
        }
      ],
      "payable": false,
      "stateMutability": "pure",
      "type": "function"
    },
    {
      "constant": true,
      "inputs": [
        {
          "name": "timestamp",
          "type": "uint256"
        }
      ],
      "name": "isLeapYear",
      "outputs": [
        {
          "name": "leapYear",
          "type": "bool"
        }
      ],
      "payable": false,
      "stateMutability": "pure",
      "type": "function"
    },
    {
      "constant": true,
      "inputs": [
        {
          "name": "year",
          "type": "uint256"
        }
      ],
      "name": "_isLeapYear",
      "outputs": [
        {
          "name": "leapYear",
          "type": "bool"
        }
      ],
      "payable": false,
      "stateMutability": "pure",
      "type": "function"
    },
    {
      "constant": true,
      "inputs": [
        {
          "name": "timestamp",
          "type": "uint256"
        }
      ],
      "name": "isWeekDay",
      "outputs": [
        {
          "name": "weekDay",
          "type": "bool"
        }
      ],
      "payable": false,
      "stateMutability": "pure",
      "type": "function"
    },
    {
      "constant": true,
      "inputs": [
        {
          "name": "timestamp",
          "type": "uint256"
        }
      ],
      "name": "isWeekEnd",
      "outputs": [
        {
          "name": "weekEnd",
          "type": "bool"
        }
      ],
      "payable": false,
      "stateMutability": "pure",
      "type": "function"
    },
    {
      "constant": true,
      "inputs": [
        {
          "name": "timestamp",
          "type": "uint256"
        }
      ],
      "name": "getDaysInMonth",
      "outputs": [
        {
          "name": "daysInMonth",
          "type": "uint256"
        }
      ],
      "payable": false,
      "stateMutability": "pure",
      "type": "function"
    },
    {
      "constant": true,
      "inputs": [
        {
          "name": "year",
          "type": "uint256"
        },
        {
          "name": "month",
          "type": "uint256"
        }
      ],
      "name": "_getDaysInMonth",
      "outputs": [
        {
          "name": "daysInMonth",
          "type": "uint256"
        }
      ],
      "payable": false,
      "stateMutability": "pure",
      "type": "function"
    },
    {
      "constant": true,
      "inputs": [
        {
          "name": "timestamp",
          "type": "uint256"
        }
      ],
      "name": "getDayOfWeek",
      "outputs": [
        {
          "name": "dayOfWeek",
          "type": "uint256"
        }
      ],
      "payable": false,
      "stateMutability": "pure",
      "type": "function"
    },
    {
      "constant": true,
      "inputs": [
        {
          "name": "year",
          "type": "uint256"
        },
        {
          "name": "month",
          "type": "uint256"
        },
        {
          "name": "day",
          "type": "uint256"
        }
      ],
      "name": "isValidDate",
      "outputs": [
        {
          "name": "valid",
          "type": "bool"
        }
      ],
      "payable": false,
      "stateMutability": "pure",
      "type": "function"
    },
    {
      "constant": true,
      "inputs": [
        {
          "name": "year",
          "type": "uint256"
        },
        {
          "name": "month",
          "type": "uint256"
        },
        {
          "name": "day",
          "type": "uint256"
        },
        {
          "name": "hour",
          "type": "uint256"
        },
        {
          "name": "minute",
          "type": "uint256"
        },
        {
          "name": "second",
          "type": "uint256"
        }
      ],
      "name": "isValidDateTime",
      "outputs": [
        {
          "name": "valid",
          "type": "bool"
        }
      ],
      "payable": false,
      "stateMutability": "pure",
      "type": "function"
    },
    {
      "constant": true,
      "inputs": [
        {
          "name": "timestamp",
          "type": "uint256"
        }
      ],
      "name": "getYear",
      "outputs": [
        {
          "name": "year",
          "type": "uint256"
        }
      ],
      "payable": false,
      "stateMutability": "pure",
      "type": "function"
    },
    {
      "constant": true,
      "inputs": [
        {
          "name": "timestamp",
          "type": "uint256"
        }
      ],
      "name": "getMonth",
      "outputs": [
        {
          "name": "month",
          "type": "uint256"
        }
      ],
      "payable": false,
      "stateMutability": "pure",
      "type": "function"
    },
    {
      "constant": true,
      "inputs": [
        {
          "name": "timestamp",
          "type": "uint256"
        }
      ],
      "name": "getDay",
      "outputs": [
        {
          "name": "day",
          "type": "uint256"
        }
      ],
      "payable": false,
      "stateMutability": "pure",
      "type": "function"
    },
    {
      "constant": true,
      "inputs": [
        {
          "name": "timestamp",
          "type": "uint256"
        }
      ],
      "name": "getHour",
      "outputs": [
        {
          "name": "hour",
          "type": "uint256"
        }
      ],
      "payable": false,
      "stateMutability": "pure",
      "type": "function"
    },
    {
      "constant": true,
      "inputs": [
        {
          "name": "timestamp",
          "type": "uint256"
        }
      ],
      "name": "getMinute",
      "outputs": [
        {
          "name": "minute",
          "type": "uint256"
        }
      ],
      "payable": false,
      "stateMutability": "pure",
      "type": "function"
    },
    {
      "constant": true,
      "inputs": [
        {
          "name": "timestamp",
          "type": "uint256"
        }
      ],
      "name": "getSecond",
      "outputs": [
        {
          "name": "second",
          "type": "uint256"
        }
      ],
      "payable": false,
      "stateMutability": "pure",
      "type": "function"
    },
    {
      "constant": true,
      "inputs": [
        {
          "name": "timestamp",
          "type": "uint256"
        },
        {
          "name": "_years",
          "type": "uint256"
        }
      ],
      "name": "addYears",
      "outputs": [
        {
          "name": "newTimestamp",
          "type": "uint256"
        }
      ],
      "payable": false,
      "stateMutability": "pure",
      "type": "function"
    },
    {
      "constant": true,
      "inputs": [
        {
          "name": "timestamp",
          "type": "uint256"
        },
        {
          "name": "_months",
          "type": "uint256"
        }
      ],
      "name": "addMonths",
      "outputs": [
        {
          "name": "newTimestamp",
          "type": "uint256"
        }
      ],
      "payable": false,
      "stateMutability": "pure",
      "type": "function"
    },
    {
      "constant": true,
      "inputs": [
        {
          "name": "timestamp",
          "type": "uint256"
        },
        {
          "name": "_days",
          "type": "uint256"
        }
      ],
      "name": "addDays",
      "outputs": [
        {
          "name": "newTimestamp",
          "type": "uint256"
        }
      ],
      "payable": false,
      "stateMutability": "pure",
      "type": "function"
    },
    {
      "constant": true,
      "inputs": [
        {
          "name": "timestamp",
          "type": "uint256"
        },
        {
          "name": "_hours",
          "type": "uint256"
        }
      ],
      "name": "addHours",
      "outputs": [
        {
          "name": "newTimestamp",
          "type": "uint256"
        }
      ],
      "payable": false,
      "stateMutability": "pure",
      "type": "function"
    },
    {
      "constant": true,
      "inputs": [
        {
          "name": "timestamp",
          "type": "uint256"
        },
        {
          "name": "_minutes",
          "type": "uint256"
        }
      ],
      "name": "addMinutes",
      "outputs": [
        {
          "name": "newTimestamp",
          "type": "uint256"
        }
      ],
      "payable": false,
      "stateMutability": "pure",
      "type": "function"
    },
    {
      "constant": true,
      "inputs": [
        {
          "name": "timestamp",
          "type": "uint256"
        },
        {
          "name": "_seconds",
          "type": "uint256"
        }
      ],
      "name": "addSeconds",
      "outputs": [
        {
          "name": "newTimestamp",
          "type": "uint256"
        }
      ],
      "payable": false,
      "stateMutability": "pure",
      "type": "function"
    },
    {
      "constant": true,
      "inputs": [
        {
          "name": "timestamp",
          "type": "uint256"
        },
        {
          "name": "_years",
          "type": "uint256"
        }
      ],
      "name": "subYears",
      "outputs": [
        {
          "name": "newTimestamp",
          "type": "uint256"
        }
      ],
      "payable": false,
      "stateMutability": "pure",
      "type": "function"
    },
    {
      "constant": true,
      "inputs": [
        {
          "name": "timestamp",
          "type": "uint256"
        },
        {
          "name": "_months",
          "type": "uint256"
        }
      ],
      "name": "subMonths",
      "outputs": [
        {
          "name": "newTimestamp",
          "type": "uint256"
        }
      ],
      "payable": false,
      "stateMutability": "pure",
      "type": "function"
    },
    {
      "constant": true,
      "inputs": [
        {
          "name": "timestamp",
          "type": "uint256"
        },
        {
          "name": "_days",
          "type": "uint256"
        }
      ],
      "name": "subDays",
      "outputs": [
        {
          "name": "newTimestamp",
          "type": "uint256"
        }
      ],
      "payable": false,
      "stateMutability": "pure",
      "type": "function"
    },
    {
      "constant": true,
      "inputs": [
        {
          "name": "timestamp",
          "type": "uint256"
        },
        {
          "name": "_hours",
          "type": "uint256"
        }
      ],
      "name": "subHours",
      "outputs": [
        {
          "name": "newTimestamp",
          "type": "uint256"
        }
      ],
      "payable": false,
      "stateMutability": "pure",
      "type": "function"
    },
    {
      "constant": true,
      "inputs": [
        {
          "name": "timestamp",
          "type": "uint256"
        },
        {
          "name": "_minutes",
          "type": "uint256"
        }
      ],
      "name": "subMinutes",
      "outputs": [
        {
          "name": "newTimestamp",
          "type": "uint256"
        }
      ],
      "payable": false,
      "stateMutability": "pure",
      "type": "function"
    },
    {
      "constant": true,
      "inputs": [
        {
          "name": "timestamp",
          "type": "uint256"
        },
        {
          "name": "_seconds",
          "type": "uint256"
        }
      ],
      "name": "subSeconds",
      "outputs": [
        {
          "name": "newTimestamp",
          "type": "uint256"
        }
      ],
      "payable": false,
      "stateMutability": "pure",
      "type": "function"
    },
    {
      "constant": true,
      "inputs": [
        {
          "name": "fromTimestamp",
          "type": "uint256"
        },
        {
          "name": "toTimestamp",
          "type": "uint256"
        }
      ],
      "name": "diffYears",
      "outputs": [
        {
          "name": "_years",
          "type": "uint256"
        }
      ],
      "payable": false,
      "stateMutability": "pure",
      "type": "function"
    },
    {
      "constant": true,
      "inputs": [
        {
          "name": "fromTimestamp",
          "type": "uint256"
        },
        {
          "name": "toTimestamp",
          "type": "uint256"
        }
      ],
      "name": "diffMonths",
      "outputs": [
        {
          "name": "_months",
          "type": "uint256"
        }
      ],
      "payable": false,
      "stateMutability": "pure",
      "type": "function"
    },
    {
      "constant": true,
      "inputs": [
        {
          "name": "fromTimestamp",
          "type": "uint256"
        },
        {
          "name": "toTimestamp",
          "type": "uint256"
        }
      ],
      "name": "diffDays",
      "outputs": [
        {
          "name": "_days",
          "type": "uint256"
        }
      ],
      "payable": false,
      "stateMutability": "pure",
      "type": "function"
    },
    {
      "constant": true,
      "inputs": [
        {
          "name": "fromTimestamp",
          "type": "uint256"
        },
        {
          "name": "toTimestamp",
          "type": "uint256"
        }
      ],
      "name": "diffHours",
      "outputs": [
        {
          "name": "_hours",
          "type": "uint256"
        }
      ],
      "payable": false,
      "stateMutability": "pure",
      "type": "function"
    },
    {
      "constant": true,
      "inputs": [
        {
          "name": "fromTimestamp",
          "type": "uint256"
        },
        {
          "name": "toTimestamp",
          "type": "uint256"
        }
      ],
      "name": "diffMinutes",
      "outputs": [
        {
          "name": "_minutes",
          "type": "uint256"
        }
      ],
      "payable": false,
      "stateMutability": "pure",
      "type": "function"
    },
    {
      "constant": true,
      "inputs": [
        {
          "name": "fromTimestamp",
          "type": "uint256"
        },
        {
          "name": "toTimestamp",
          "type": "uint256"
        }
      ],
      "name": "diffSeconds",
      "outputs": [
        {
          "name": "_seconds",
          "type": "uint256"
        }
      ],
      "payable": false,
      "stateMutability": "pure",
      "type": "function"
    }
  ],
  "bytecode": "0x608060405234801561001057600080fd5b50611d39806100206000396000f3fe6080604052600436106101e2576000357c0100000000000000000000000000000000000000000000000000000000900463ffffffff168062501553146101e757806302e98e0d1461024057806310848ddf14610299578063146bea7b146102e857806314b2d6dc146103135780631f4f77b21461037a57806322f8a2b8146103dd5780632af123b81461042c5780633293d007146104855780633e239e1a1461050a5780633f9e0eb7146105595780634355644d146105b25780634371c4651461060b578063442b8c791461065e578063444fda82146106b75780634b321502146107105780635e05bd6d1461076957806362fb9697146107ea57806365c72840146108435780637217523c146108925780637be34109146108eb57806389a3a00d146109445780638aa001fc1461099d5780638d4a2d39146109ec57806392d6631314610a455780639e524caa14610a94578063a324ad2414610aed578063ad203bd414610b3c578063b05eb08d14610b95578063b8d16dbc14610be8578063c7b6fd6a14610c3b578063c9d3462214610c94578063d6582d0d14610ced578063de5101af14610d40578063ea1c169014610d9d578063f615ed5414610e0f578063f8a8fd6d14610e68578063fa93f88314610e7f578063ff2258cb14610ece575b600080fd5b3480156101f357600080fd5b5061022a6004803603604081101561020a57600080fd5b810190808035906020019092919080359060200190929190505050610f27565b6040518082815260200191505060405180910390f35b34801561024c57600080fd5b506102836004803603604081101561026357600080fd5b810190808035906020019092919080359060200190929190505050610f3b565b6040518082815260200191505060405180910390f35b3480156102a557600080fd5b506102d2600480360360208110156102bc57600080fd5b8101908080359060200190929190505050610f4f565b6040518082815260200191505060405180910390f35b3480156102f457600080fd5b506102fd610f61565b6040518082815260200191505060405180910390f35b34801561031f57600080fd5b506103606004803603606081101561033657600080fd5b81019080803590602001909291908035906020019092919080359060200190929190505050610f67565b604051808215151515815260200191505060405180910390f35b34801561038657600080fd5b506103c76004803603606081101561039d57600080fd5b81019080803590602001909291908035906020019092919080359060200190929190505050610f7d565b6040518082815260200191505060405180910390f35b3480156103e957600080fd5b506104166004803603602081101561040057600080fd5b8101908080359060200190929190505050610f93565b6040518082815260200191505060405180910390f35b34801561043857600080fd5b5061046f6004803603604081101561044f57600080fd5b810190808035906020019092919080359060200190929190505050610fa5565b6040518082815260200191505060405180910390f35b34801561049157600080fd5b506104f0600480360360c08110156104a857600080fd5b81019080803590602001909291908035906020019092919080359060200190929190803590602001909291908035906020019092919080359060200190929190505050610fb9565b604051808215151515815260200191505060405180910390f35b34801561051657600080fd5b506105436004803603602081101561052d57600080fd5b8101908080359060200190929190505050610fd5565b6040518082815260200191505060405180910390f35b34801561056557600080fd5b5061059c6004803603604081101561057c57600080fd5b810190808035906020019092919080359060200190929190505050610fe7565b6040518082815260200191505060405180910390f35b3480156105be57600080fd5b506105f5600480360360408110156105d557600080fd5b810190808035906020019092919080359060200190929190505050610ffb565b6040518082815260200191505060405180910390f35b34801561061757600080fd5b506106446004803603602081101561062e57600080fd5b810190808035906020019092919050505061100f565b604051808215151515815260200191505060405180910390f35b34801561066a57600080fd5b506106a16004803603604081101561068157600080fd5b810190808035906020019092919080359060200190929190505050611021565b6040518082815260200191505060405180910390f35b3480156106c357600080fd5b506106fa600480360360408110156106da57600080fd5b810190808035906020019092919080359060200190929190505050611035565b6040518082815260200191505060405180910390f35b34801561071c57600080fd5b506107536004803603604081101561073357600080fd5b810190808035906020019092919080359060200190929190505050611049565b6040518082815260200191505060405180910390f35b34801561077557600080fd5b506107d4600480360360c081101561078c57600080fd5b8101908080359060200190929190803590602001909291908035906020019092919080359060200190929190803590602001909291908035906020019092919050505061105d565b6040518082815260200191505060405180910390f35b3480156107f657600080fd5b5061082d6004803603604081101561080d57600080fd5b810190808035906020019092919080359060200190929190505050611079565b6040518082815260200191505060405180910390f35b34801561084f57600080fd5b5061087c6004803603602081101561086657600080fd5b810190808035906020019092919050505061108d565b6040518082815260200191505060405180910390f35b34801561089e57600080fd5b506108d5600480360360408110156108b557600080fd5b81019080803590602001909291908035906020019092919050505061109f565b6040518082815260200191505060405180910390f35b3480156108f757600080fd5b5061092e6004803603604081101561090e57600080fd5b8101908080359060200190929190803590602001909291905050506110b3565b6040518082815260200191505060405180910390f35b34801561095057600080fd5b506109876004803603604081101561096757600080fd5b8101908080359060200190929190803590602001909291905050506110c7565b6040518082815260200191505060405180910390f35b3480156109a957600080fd5b506109d6600480360360208110156109c057600080fd5b81019080803590602001909291905050506110db565b6040518082815260200191505060405180910390f35b3480156109f857600080fd5b50610a2f60048036036040811015610a0f57600080fd5b8101908080359060200190929190803590602001909291905050506110ed565b6040518082815260200191505060405180910390f35b348015610a5157600080fd5b50610a7e60048036036020811015610a6857600080fd5b8101908080359060200190929190505050611101565b6040518082815260200191505060405180910390f35b348015610aa057600080fd5b50610ad760048036036040811015610ab757600080fd5b810190808035906020019092919080359060200190929190505050611113565b6040518082815260200191505060405180910390f35b348015610af957600080fd5b50610b2660048036036020811015610b1057600080fd5b8101908080359060200190929190505050611127565b6040518082815260200191505060405180910390f35b348015610b4857600080fd5b50610b7f60048036036040811015610b5f57600080fd5b810190808035906020019092919080359060200190929190505050611139565b6040518082815260200191505060405180910390f35b348015610ba157600080fd5b50610bce60048036036020811015610bb857600080fd5b810190808035906020019092919050505061114d565b604051808215151515815260200191505060405180910390f35b348015610bf457600080fd5b50610c2160048036036020811015610c0b57600080fd5b810190808035906020019092919050505061115f565b604051808215151515815260200191505060405180910390f35b348015610c4757600080fd5b50610c7e60048036036040811015610c5e57600080fd5b810190808035906020019092919080359060200190929190505050611171565b6040518082815260200191505060405180910390f35b348015610ca057600080fd5b50610cd760048036036040811015610cb757600080fd5b810190808035906020019092919080359060200190929190505050611185565b6040518082815260200191505060405180910390f35b348015610cf957600080fd5b50610d2660048036036020811015610d1057600080fd5b8101908080359060200190929190505050611199565b604051808215151515815260200191505060405180910390f35b348015610d4c57600080fd5b50610d7960048036036020811015610d6357600080fd5b81019080803590602001909291905050506111ab565b60405180848152602001838152602001828152602001935050505060405180910390f35b348015610da957600080fd5b50610dd660048036036020811015610dc057600080fd5b81019080803590602001909291905050506111cc565b60405180878152602001868152602001858152602001848152602001838152602001828152602001965050505050505060405180910390f35b348015610e1b57600080fd5b50610e5260048036036040811015610e3257600080fd5b8101908080359060200190929190803590602001909291905050506111ff565b6040518082815260200191505060405180910390f35b348015610e7457600080fd5b50610e7d611213565b005b348015610e8b57600080fd5b50610eb860048036036020811015610ea257600080fd5b8101908080359060200190929190505050611235565b6040518082815260200191505060405180910390f35b348015610eda57600080fd5b50610f1160048036036040811015610ef157600080fd5b810190808035906020019092919080359060200190929190505050611247565b6040518082815260200191505060405180910390f35b6000610f33838361125b565b905092915050565b6000610f47838361127b565b905092915050565b6000610f5a826112a3565b9050919050565b60005481565b6000610f748484846112e0565b90509392505050565b6000610f8a848484611337565b90509392505050565b6000610f9e82611352565b9050919050565b6000610fb18383611381565b905092915050565b6000610fc98787878787876113aa565b90509695505050505050565b6000610fe0826113ed565b9050919050565b6000610ff38383611417565b905092915050565b600061100783836114a4565b905092915050565b600061101a82611550565b9050919050565b600061102d8383611566565b905092915050565b600061104183836115e9565b905092915050565b6000611055838361166c565b905092915050565b600061106d87878787878761168c565b90509695505050505050565b600061108583836116b7565b905092915050565b6000611098826116d3565b9050919050565b60006110ab8383611702565b905092915050565b60006110bf8383611723565b905092915050565b60006110d3838361179e565b905092915050565b60006110e6826117bd565b9050919050565b60006110f983836117d3565b905092915050565b600061110c826117ef565b9050919050565b600061111f838361181e565b905092915050565b60006111328261183d565b9050919050565b6000611145838361186c565b905092915050565b60006111588261191b565b9050919050565b600061116a82611964565b9050919050565b600061117d83836119a0565b905092915050565b600061119183836119c1565b905092915050565b60006111a4826119eb565b9050919050565b60008060006111b984611a01565b8093508194508295505050509193909250565b6000806000806000806111de87611a30565b809650819750829850839950849a50859b5050505050505091939550919395565b600061120b8383611ab7565b905092915050565b600042905061122c60018261156690919063ffffffff16565b60008190555050565b600061124082611ad3565b9050919050565b60006112538383611afb565b905092915050565b6000610e1082028303905082811115151561127557600080fd5b92915050565b600081831115151561128c57600080fd5b603c83830381151561129a57fe5b04905092915050565b6000806000806112c062015180868115156112ba57fe5b04611b6c565b8093508194508295505050506112d68383611417565b9350505050919050565b60006107b284101580156112f45750600083115b80156113015750600c8311155b156113305760006113128585611417565b90506000831180156113245750808311155b1561132e57600191505b505b9392505050565b600062015180611348858585611c4e565b0290509392505050565b600080620151808381151561136357fe5b049050600160076003830181151561137757fe5b0601915050919050565b600081831115151561139257600080fd5b610e108383038115156113a157fe5b04905092915050565b60006113b78787876112e0565b156113e3576018841080156113cc5750603c83105b80156113d85750603c82105b156113e257600190505b5b9695505050505050565b60008062015180838115156113fe57fe5b069050610e108181151561140e57fe5b04915050919050565b600060018214806114285750600382145b806114335750600582145b8061143e5750600782145b806114495750600882145b806114545750600a82145b8061145f5750600c82145b1561146d57601f905061149e565b60028214151561148057601e905061149d565b6114898361191b565b61149457601c611497565b601d5b60ff1690505b5b92915050565b6000806000806114c162015180878115156114bb57fe5b04611b6c565b8093508194508295505050508482019150600c600183038115156114e157fe5b04830192506001600c600184038115156114f757fe5b0601915060006115078484611417565b905080821115611515578091505b620151808781151561152357fe5b0662015180611533868686611c4e565b0201945086851015151561154657600080fd5b5050505092915050565b6000600661155d83611352565b10159050919050565b600080600080611583620151808781151561157d57fe5b04611b6c565b809350819450829550505050848301925060006115a08484611417565b9050808211156115ae578091505b62015180878115156115bc57fe5b06620151806115cc868686611c4e565b020194508685101515156115df57600080fd5b5050505092915050565b600080600080611606620151808781151561160057fe5b04611b6c565b809350819450829550505050848303925060006116238484611417565b905080821115611631578091505b620151808781151561163f57fe5b066201518061164f868686611c4e565b0201945086851115151561166257600080fd5b5050505092915050565b6000610e1082028301905082811015151561168657600080fd5b92915050565b600081603c8402610e108602620151806116a78b8b8b611c4e565b0201010190509695505050505050565b60008183111515156116c857600080fd5b828203905092915050565b60008060006116ef62015180858115156116e957fe5b04611b6c565b8095508193508294505050505050919050565b60006201518082028301905082811015151561171d57600080fd5b92915050565b600081831115151561173457600080fd5b600080600080600080611754620151808a81151561174e57fe5b04611b6c565b809650819750829850505050611777620151808981151561177157fe5b04611b6c565b80935081945082955050505084600c870283600c8602010303965050505050505092915050565b6000603c8202830190508281101515156117b757600080fd5b92915050565b6000603c828115156117cb57fe5b069050919050565b600081830190508281101515156117e957600080fd5b92915050565b600080600061180b620151808581151561180557fe5b04611b6c565b8093508194508295505050505050919050565b6000603c82028303905082811115151561183757600080fd5b92915050565b6000806000611859620151808581151561185357fe5b04611b6c565b8093508195508294505050505050919050565b600080600080611889620151808781151561188357fe5b04611b6c565b80935081945082955050505060008560018403600c860201039050600c818115156118b057fe5b0493506001600c828115156118c157fe5b0601925060006118d18585611417565b9050808311156118df578092505b62015180888115156118ed57fe5b06620151806118fd878787611c4e565b0201955087861115151561191057600080fd5b505050505092915050565b60008060048381151561192a57fe5b061480156119455750600060648381151561194157fe5b0614155b8061195d575060006101908381151561195a57fe5b06145b9050919050565b600080600080611981620151808681151561197b57fe5b04611b6c565b8093508194508295505050506119968361191b565b9350505050919050565b6000620151808202830390508281111515156119bb57600080fd5b92915050565b60008183111515156119d257600080fd5b620151808383038115156119e257fe5b04905092915050565b600060056119f883611352565b11159050919050565b6000806000611a1d6201518085811515611a1757fe5b04611b6c565b8093508194508295505050509193909250565b600080600080600080611a506201518088811515611a4a57fe5b04611b6c565b80965081975082985050505060006201518088811515611a6c57fe5b069050610e1081811515611a7c57fe5b049350610e1081811515611a8c57fe5b069050603c81811515611a9b57fe5b049250603c81811515611aaa57fe5b0691505091939550919395565b60008183039050828111151515611acd57600080fd5b92915050565b600080610e1083811515611ae357fe5b069050603c81811515611af257fe5b04915050919050565b6000818311151515611b0c57600080fd5b600080600080600080611b2c620151808a811515611b2657fe5b04611b6c565b809650819750829850505050611b4f6201518089811515611b4957fe5b04611b6c565b809350819450829550505050858303965050505050505092915050565b600080600080849050600062253d8c62010bd98301019050600062023ab182600402811515611b9757fe5b059050600460038262023ab10201811515611bae57fe5b0582039150600062164b0960018401610fa002811515611bca57fe5b059050601f6004826105b502811515611bdf57fe5b058403019250600061098f84605002811515611bf757fe5b059050600060508261098f02811515611c0c57fe5b0585039050600b82811515611c1d57fe5b05945084600c0260028301039150848360318603606402010192508298508197508096505050505050509193909250565b60006107b28410151515611c6157600080fd5b600084905060008490506000849050600062253d8c60046064600c600e8703811515611c8957fe5b05611324880101811515611c9957fe5b05600302811515611ca657fe5b05600c80600c600e8803811515611cb957fe5b0502600287030361016f02811515611ccd57fe5b056004600c600e8803811515611cdf57fe5b056112c08901016105b502811515611cf357fe5b05617d4b860301010303905080945050505050939250505056fea165627a7a72305820631d22309cb6d2431b1687cae1656433fb54017d151881ea36d97955546237900029",
  "source": "pragma solidity ^0.5.0;\n\nimport \"./BokkyPooBahsDateTimeLibrary.sol\";\n\n// ----------------------------------------------------------------------------\n// Testing BokkyPooBah's DateTime Library\n//\n// https://github.com/bokkypoobah/BokkyPooBahsDateTimeLibrary\n//\n// Enjoy. (c) BokkyPooBah / Bok Consulting Pty Ltd 2018-2019. The MIT Licence.\n// ----------------------------------------------------------------------------\n\ncontract TestDateTime {\n    using BokkyPooBahsDateTimeLibrary for uint;\n\n    uint public nextYear;\n\n    function test() public {\n        uint today = now;\n        nextYear = today.addYears(1);\n    }\n\n    function timestampFromDate(uint year, uint month, uint day) public pure returns (uint timestamp) {\n        return BokkyPooBahsDateTimeLibrary.timestampFromDate(year, month, day);\n    }\n    function timestampFromDateTime(uint year, uint month, uint day, uint hour, uint minute, uint second) public pure returns (uint timestamp) {\n        return BokkyPooBahsDateTimeLibrary.timestampFromDateTime(year, month, day, hour, minute, second);\n    }\n    function timestampToDate(uint timestamp) public pure returns (uint year, uint month, uint day) {\n        (year, month, day) = BokkyPooBahsDateTimeLibrary.timestampToDate(timestamp);\n    }\n    function timestampToDateTime(uint timestamp) public pure returns (uint year, uint month, uint day, uint hour, uint minute, uint second) {\n        (year, month, day, hour, minute, second) = BokkyPooBahsDateTimeLibrary.timestampToDateTime(timestamp);\n    }\n\n    function isLeapYear(uint timestamp) public pure returns (bool leapYear) {\n        leapYear = BokkyPooBahsDateTimeLibrary.isLeapYear(timestamp);\n    }\n    function _isLeapYear(uint year) public pure returns (bool leapYear) {\n        leapYear = BokkyPooBahsDateTimeLibrary._isLeapYear(year);\n    }\n    function isWeekDay(uint timestamp) public pure returns (bool weekDay) {\n        weekDay = BokkyPooBahsDateTimeLibrary.isWeekDay(timestamp);\n    }\n    function isWeekEnd(uint timestamp) public pure returns (bool weekEnd) {\n        weekEnd = BokkyPooBahsDateTimeLibrary.isWeekEnd(timestamp);\n    }\n\n    function getDaysInMonth(uint timestamp) public pure returns (uint daysInMonth) {\n        daysInMonth = BokkyPooBahsDateTimeLibrary.getDaysInMonth(timestamp);\n    }\n    function _getDaysInMonth(uint year, uint month) public pure returns (uint daysInMonth) {\n        daysInMonth = BokkyPooBahsDateTimeLibrary._getDaysInMonth(year, month);\n    }\n    function getDayOfWeek(uint timestamp) public pure returns (uint dayOfWeek) {\n        dayOfWeek = BokkyPooBahsDateTimeLibrary.getDayOfWeek(timestamp);\n    }\n\n    function isValidDate(uint year, uint month, uint day) public pure returns (bool valid) {\n        valid = BokkyPooBahsDateTimeLibrary.isValidDate(year, month, day);\n    }\n    function isValidDateTime(uint year, uint month, uint day, uint hour, uint minute, uint second) public pure returns (bool valid) {\n        valid = BokkyPooBahsDateTimeLibrary.isValidDateTime(year, month, day, hour, minute, second);\n    }\n\n    function getYear(uint timestamp) public pure returns (uint year) {\n        year = BokkyPooBahsDateTimeLibrary.getYear(timestamp);\n    }\n    function getMonth(uint timestamp) public pure returns (uint month) {\n        month = BokkyPooBahsDateTimeLibrary.getMonth(timestamp);\n    }\n    function getDay(uint timestamp) public pure returns (uint day) {\n        day = BokkyPooBahsDateTimeLibrary.getDay(timestamp);\n    }\n    function getHour(uint timestamp) public pure returns (uint hour) {\n        hour = BokkyPooBahsDateTimeLibrary.getHour(timestamp);\n    }\n    function getMinute(uint timestamp) public pure returns (uint minute) {\n        minute = BokkyPooBahsDateTimeLibrary.getMinute(timestamp);\n    }\n    function getSecond(uint timestamp) public pure returns (uint second) {\n        second = BokkyPooBahsDateTimeLibrary.getSecond(timestamp);\n    }\n\n    function addYears(uint timestamp, uint _years) public pure returns (uint newTimestamp) {\n        newTimestamp = BokkyPooBahsDateTimeLibrary.addYears(timestamp, _years);\n    }\n    function addMonths(uint timestamp, uint _months) public pure returns (uint newTimestamp) {\n        newTimestamp = BokkyPooBahsDateTimeLibrary.addMonths(timestamp, _months);\n    }\n    function addDays(uint timestamp, uint _days) public pure returns (uint newTimestamp) {\n        newTimestamp = BokkyPooBahsDateTimeLibrary.addDays(timestamp, _days);\n    }\n    function addHours(uint timestamp, uint _hours) public pure returns (uint newTimestamp) {\n        newTimestamp = BokkyPooBahsDateTimeLibrary.addHours(timestamp, _hours);\n    }\n    function addMinutes(uint timestamp, uint _minutes) public pure returns (uint newTimestamp) {\n        newTimestamp = BokkyPooBahsDateTimeLibrary.addMinutes(timestamp, _minutes);\n    }\n    function addSeconds(uint timestamp, uint _seconds) public pure returns (uint newTimestamp) {\n        newTimestamp = BokkyPooBahsDateTimeLibrary.addSeconds(timestamp, _seconds);\n    }\n\n    function subYears(uint timestamp, uint _years) public pure returns (uint newTimestamp) {\n        newTimestamp = BokkyPooBahsDateTimeLibrary.subYears(timestamp, _years);\n    }\n    function subMonths(uint timestamp, uint _months) public pure returns (uint newTimestamp) {\n        newTimestamp = BokkyPooBahsDateTimeLibrary.subMonths(timestamp, _months);\n    }\n    function subDays(uint timestamp, uint _days) public pure returns (uint newTimestamp) {\n        newTimestamp = BokkyPooBahsDateTimeLibrary.subDays(timestamp, _days);\n    }\n    function subHours(uint timestamp, uint _hours) public pure returns (uint newTimestamp) {\n        newTimestamp = BokkyPooBahsDateTimeLibrary.subHours(timestamp, _hours);\n    }\n    function subMinutes(uint timestamp, uint _minutes) public pure returns (uint newTimestamp) {\n        newTimestamp = BokkyPooBahsDateTimeLibrary.subMinutes(timestamp, _minutes);\n    }\n    function subSeconds(uint timestamp, uint _seconds) public pure returns (uint newTimestamp) {\n        newTimestamp = BokkyPooBahsDateTimeLibrary.subSeconds(timestamp, _seconds);\n    }\n\n    function diffYears(uint fromTimestamp, uint toTimestamp) public pure returns (uint _years) {\n        _years = BokkyPooBahsDateTimeLibrary.diffYears(fromTimestamp, toTimestamp);\n    }\n    function diffMonths(uint fromTimestamp, uint toTimestamp) public pure returns (uint _months) {\n        _months = BokkyPooBahsDateTimeLibrary.diffMonths(fromTimestamp, toTimestamp);\n    }\n    function diffDays(uint fromTimestamp, uint toTimestamp) public pure returns (uint _days) {\n        _days = BokkyPooBahsDateTimeLibrary.diffDays(fromTimestamp, toTimestamp);\n    }\n    function diffHours(uint fromTimestamp, uint toTimestamp) public pure returns (uint _hours) {\n        _hours = BokkyPooBahsDateTimeLibrary.diffHours(fromTimestamp, toTimestamp);\n    }\n    function diffMinutes(uint fromTimestamp, uint toTimestamp) public pure returns (uint _minutes) {\n        _minutes = BokkyPooBahsDateTimeLibrary.diffMinutes(fromTimestamp, toTimestamp);\n    }\n    function diffSeconds(uint fromTimestamp, uint toTimestamp) public pure returns (uint _seconds) {\n        _seconds = BokkyPooBahsDateTimeLibrary.diffSeconds(fromTimestamp, toTimestamp);\n    }\n}\n",
  "sourcePath": "/Users/stefan/Documents/PhD/SolMOSA/Smart Contracts/RWContracts/BokkyPooBahsDateTimeLibrary/contracts/TestDateTime.sol",
  "compiler": {
    "name": "solc",
    "version": "0.5.0+commit.1d4f565a.Emscripten.clang"
  },
  "schemaVersion": "3.0.19",
  "updatedAt": "2020-03-26T13:05:40.343Z",
  "devdoc": {
    "methods": {}
  },
  "userdoc": {
    "methods": {}
  }
}