{
  "contractName": "FundRaising",
  "abi": [
    {
      "constant": true,
      "inputs": [],
      "name": "total",
      "outputs": [
        {
          "name": "",
          "type": "uint256"
        }
      ],
      "payable": false,
      "stateMutability": "view",
      "type": "function"
    },
    {
      "constant": true,
      "inputs": [],
      "name": "endTime",
      "outputs": [
        {
          "name": "",
          "type": "uint256"
        }
      ],
      "payable": false,
      "stateMutability": "view",
      "type": "function"
    },
    {
      "constant": true,
      "inputs": [],
      "name": "goal",
      "outputs": [
        {
          "name": "",
          "type": "uint256"
        }
      ],
      "payable": false,
      "stateMutability": "view",
      "type": "function"
    },
    {
      "inputs": [
        {
          "name": "_goal",
          "type": "uint256"
        },
        {
          "name": "_timeLimit",
          "type": "uint256"
        }
      ],
      "payable": false,
      "stateMutability": "nonpayable",
      "type": "constructor"
    },
    {
      "constant": false,
      "inputs": [],
      "name": "add",
      "outputs": [],
      "payable": true,
      "stateMutability": "payable",
      "type": "function"
    },
    {
      "constant": false,
      "inputs": [],
      "name": "withdrawOwner",
      "outputs": [],
      "payable": false,
      "stateMutability": "nonpayable",
      "type": "function"
    },
    {
      "constant": false,
      "inputs": [],
      "name": "withdraw",
      "outputs": [],
      "payable": false,
      "stateMutability": "nonpayable",
      "type": "function"
    }
  ],
  "bytecode": "0x6080604052600060035534801561001557600080fd5b506040516040806107a08339810180604052810190808051906020019092919080519060200190929190505050336000806101000a81548173ffffffffffffffffffffffffffffffffffffffff021916908373ffffffffffffffffffffffffffffffffffffffff1602179055508160018190555080420160028190555050506106fd806100a36000396000f300608060405260043610610078576000357c0100000000000000000000000000000000000000000000000000000000900463ffffffff1680632ddbd13a1461007d5780633197cbb6146100a85780633ccfd60b146100d357806340193883146100ea5780634f2be91f14610115578063e8cc00ad1461011f575b600080fd5b34801561008957600080fd5b50610092610136565b6040518082815260200191505060405180910390f35b3480156100b457600080fd5b506100bd61013c565b6040518082815260200191505060405180910390f35b3480156100df57600080fd5b506100e8610142565b005b3480156100f657600080fd5b506100ff61033f565b6040518082815260200191505060405180910390f35b61011d610345565b005b34801561012b57600080fd5b50610134610510565b005b60035481565b60025481565b6000600254421115156101bd576040517f08c379a00000000000000000000000000000000000000000000000000000000081526004018080602001828103825260168152602001807f46756e6472616973696e67206e6f7420636c6f7365640000000000000000000081525060200191505060405180910390fd5b60015460035410151561025e576040517f08c379a00000000000000000000000000000000000000000000000000000000081526004018080602001828103825260308152602001807f43616e206e6f74207769746864726177207768656e2066756e6472616973696e81526020017f6720776173207375636365737366756c0000000000000000000000000000000081525060400191505060405180910390fd5b600460003373ffffffffffffffffffffffffffffffffffffffff1673ffffffffffffffffffffffffffffffffffffffff168152602001908152602001600020549050806003600082825403925050819055506000600460003373ffffffffffffffffffffffffffffffffffffffff1673ffffffffffffffffffffffffffffffffffffffff168152602001908152602001600020819055503373ffffffffffffffffffffffffffffffffffffffff166108fc829081150290604051600060405180830381858888f1935050505015801561033b573d6000803e3d6000fd5b5050565b60015481565b600254421015156103be576040517f08c379a00000000000000000000000000000000000000000000000000000000081526004018080602001828103825260168152602001807f46756e6472616973696e6720697320636c6f7365642e0000000000000000000081525060200191505060405180910390fd5b600154600354101515610439576040517f08c379a00000000000000000000000000000000000000000000000000000000081526004018080602001828103825260128152602001807f57652072656163686564206120676f616c2e000000000000000000000000000081525060200191505060405180910390fd5b6000341115156104b1576040517f08c379a000000000000000000000000000000000000000000000000000000000815260040180806020018281038252601b8152602001807f596f75206e65656420746f2073656e6420736f6d65206574686572000000000081525060200191505060405180910390fd5b34600460003373ffffffffffffffffffffffffffffffffffffffff1673ffffffffffffffffffffffffffffffffffffffff1681526020019081526020016000206000828254019250508190555034600360008282540192505081905550565b6000809054906101000a900473ffffffffffffffffffffffffffffffffffffffff1673ffffffffffffffffffffffffffffffffffffffff163373ffffffffffffffffffffffffffffffffffffffff161415156105d4576040517f08c379a00000000000000000000000000000000000000000000000000000000081526004018080602001828103825260118152602001807f596f75206d757374206265206f776e657200000000000000000000000000000081525060200191505060405180910390fd5b60015460035410151515610650576040517f08c379a000000000000000000000000000000000000000000000000000000000815260040180806020018281038252601a8152602001807f46756e6472616973696e67206e6f7420636c6f7365642079657400000000000081525060200191505060405180910390fd5b6000809054906101000a900473ffffffffffffffffffffffffffffffffffffffff1673ffffffffffffffffffffffffffffffffffffffff166108fc3073ffffffffffffffffffffffffffffffffffffffff16319081150290604051600060405180830381858888f193505050501580156106ce573d6000803e3d6000fd5b505600a165627a7a72305820247e875493265cfc8f271b04f5170aa87de1777810e538bd2a098c0dda72cc8b0029",
  "source": "pragma solidity ^0.4.22;\n\ncontract FundRaising {\n    address owner;\n    uint public goal;\n    uint public endTime;\n    uint public total = 0;\n\n    mapping(address=>uint) donations;\n\n    constructor(uint _goal, uint _timeLimit) public {\n        owner = msg.sender;\n        goal = _goal;\n        endTime = now + _timeLimit;\n    }\n\n    function add() payable public {\n        require(now < endTime, \"Fundraising is closed.\");\n        require(total < goal, \"We reached a goal.\");\n        require(msg.value > 0, \"You need to send some ether\");\n        donations[msg.sender] += msg.value;\n        total += msg.value;\n    }\n\n    function withdrawOwner() public {\n        require(msg.sender == owner, \"You must be owner\");\n        require(total >= goal, \"Fundraising not closed yet\");\n        owner.transfer(address(this).balance);\n    }\n\n    function withdraw() public {\n        require(now > endTime, \"Fundraising not closed\");\n        require(total < goal, \"Can not withdraw when fundraising was successful\");\n        uint amount = donations[msg.sender];\n        total -= amount;\n        donations[msg.sender] = 0;\n        address(msg.sender).transfer(amount);\n    }\n}\n",
  "sourcePath": "/Users/stefan/Documents/PhD/SolMOSA/Smart Contracts/RWContracts/learning-solidity-2018/FundRaising/contracts/FundRaising.sol",
  "compiler": {
    "name": "solc",
    "version": "0.4.22+commit.4cb486ee.Emscripten.clang"
  },
  "schemaVersion": "3.0.19",
  "updatedAt": "2020-02-26T15:00:16.239Z",
  "devdoc": {
    "methods": {}
  },
  "userdoc": {
    "methods": {}
  }
}