{
  "contractName": "TestContract",
  "abi": [
    {
      "inputs": [],
      "payable": false,
      "stateMutability": "nonpayable",
      "type": "constructor"
    },
    {
      "constant": true,
      "inputs": [
        {
          "internalType": "uint256",
          "name": "a",
          "type": "uint256"
        }
      ],
      "name": "TestOne",
      "outputs": [
        {
          "internalType": "bool",
          "name": "success",
          "type": "bool"
        }
      ],
      "payable": false,
      "stateMutability": "view",
      "type": "function"
    }
  ],
  "bytecode": "0x608060405234801561001057600080fd5b5060c18061001f6000396000f3fe6080604052348015600f57600080fd5b506004361060285760003560e01c806354d3155214602d575b600080fd5b605660048036036020811015604157600080fd5b81019080803590602001909291905050506070565b604051808215151515815260200191505060405180910390f35b60006080821415608257600090506087565b600190505b91905056fea265627a7a72315820747855677619fd368b71e916053cc7eed33230545bf3c548431ff9ab17a0657264736f6c634300050c0032",
  "source": "pragma solidity ^0.5.0;\n\ncontract TestContract{\n\nconstructor() public {\n}\n\nfunction TestOne(uint a) public view returns(bool success){\n  if (a == 128){\n    return false;\n  }\n  else{\n      return true;\n  }\n}\n}\n",
  "sourcePath": "/Users/stefan/Documents/PhD/SolMOSA/Smart Contracts/eq211/contracts/TestContract.sol",
  "compiler": {
    "name": "solc",
    "version": "0.5.12+commit.7709ece9.Emscripten.clang"
  },
  "schemaVersion": "3.0.19",
  "updatedAt": "2019-12-12T15:42:43.149Z",
  "networkType": "ethereum",
  "devdoc": {
    "methods": {}
  },
  "userdoc": {
    "methods": {}
  }
}