{
  "contractName": "TestContract",
  "abi": [
    {
      "inputs": [],
      "payable": false,
      "stateMutability": "nonpayable",
      "type": "constructor"
    },
    {
      "constant": true,
      "inputs": [
        {
          "name": "a",
          "type": "uint256"
        },
        {
          "name": "b",
          "type": "uint256"
        }
      ],
      "name": "TestOne",
      "outputs": [
        {
          "name": "success",
          "type": "bool"
        }
      ],
      "payable": false,
      "stateMutability": "view",
      "type": "function"
    },
    {
      "constant": true,
      "inputs": [
        {
          "name": "c",
          "type": "uint256"
        },
        {
          "name": "d",
          "type": "uint256"
        }
      ],
      "name": "TestTwo",
      "outputs": [
        {
          "name": "success",
          "type": "bool"
        }
      ],
      "payable": false,
      "stateMutability": "view",
      "type": "function"
    },
    {
      "constant": true,
      "inputs": [
        {
          "name": "e",
          "type": "uint256"
        },
        {
          "name": "f",
          "type": "uint256"
        }
      ],
      "name": "TestThree",
      "outputs": [
        {
          "name": "success",
          "type": "bool"
        }
      ],
      "payable": false,
      "stateMutability": "view",
      "type": "function"
    },
    {
      "constant": true,
      "inputs": [
        {
          "name": "g",
          "type": "uint256"
        },
        {
          "name": "h",
          "type": "uint256"
        }
      ],
      "name": "TestFour",
      "outputs": [
        {
          "name": "success",
          "type": "bool"
        }
      ],
      "payable": false,
      "stateMutability": "view",
      "type": "function"
    },
    {
      "constant": true,
      "inputs": [
        {
          "name": "i",
          "type": "uint256"
        },
        {
          "name": "j",
          "type": "uint256"
        }
      ],
      "name": "TestFive",
      "outputs": [
        {
          "name": "success",
          "type": "bool"
        }
      ],
      "payable": false,
      "stateMutability": "view",
      "type": "function"
    },
    {
      "constant": true,
      "inputs": [
        {
          "name": "k",
          "type": "uint256"
        },
        {
          "name": "l",
          "type": "uint256"
        }
      ],
      "name": "TestSix",
      "outputs": [
        {
          "name": "success",
          "type": "bool"
        }
      ],
      "payable": false,
      "stateMutability": "view",
      "type": "function"
    },
    {
      "constant": true,
      "inputs": [
        {
          "name": "m",
          "type": "uint256"
        },
        {
          "name": "n",
          "type": "uint256"
        }
      ],
      "name": "TestSeven",
      "outputs": [
        {
          "name": "success",
          "type": "bool"
        }
      ],
      "payable": false,
      "stateMutability": "view",
      "type": "function"
    },
    {
      "constant": true,
      "inputs": [
        {
          "name": "o",
          "type": "uint256"
        },
        {
          "name": "p",
          "type": "uint256"
        }
      ],
      "name": "TestEight",
      "outputs": [
        {
          "name": "success",
          "type": "bool"
        }
      ],
      "payable": false,
      "stateMutability": "view",
      "type": "function"
    },
    {
      "constant": true,
      "inputs": [
        {
          "name": "q",
          "type": "uint256"
        },
        {
          "name": "r",
          "type": "uint256"
        }
      ],
      "name": "TestNine",
      "outputs": [
        {
          "name": "success",
          "type": "bool"
        }
      ],
      "payable": false,
      "stateMutability": "view",
      "type": "function"
    },
    {
      "constant": true,
      "inputs": [
        {
          "name": "s",
          "type": "uint256"
        },
        {
          "name": "t",
          "type": "uint256"
        }
      ],
      "name": "TestTen",
      "outputs": [
        {
          "name": "success",
          "type": "bool"
        }
      ],
      "payable": false,
      "stateMutability": "view",
      "type": "function"
    }
  ],
  "bytecode": "0x608060405234801561001057600080fd5b506104ef806100206000396000f3fe6080604052600436106100a4576000357c0100000000000000000000000000000000000000000000000000000000900463ffffffff16806333742d9e146100a95780633f55a83814610106578063463cedf1146101635780635a268fc1146101c057806383b92a381461021d578063918203c71461027a578063c953dc16146102d7578063e248bc6214610334578063e9a617d314610391578063f92c8800146103ee575b600080fd5b3480156100b557600080fd5b506100ec600480360360408110156100cc57600080fd5b81019080803590602001909291908035906020019092919050505061044b565b604051808215151515815260200191505060405180910390f35b34801561011257600080fd5b506101496004803603604081101561012957600080fd5b810190808035906020019092919080359060200190929190505050610457565b604051808215151515815260200191505060405180910390f35b34801561016f57600080fd5b506101a66004803603604081101561018657600080fd5b810190808035906020019092919080359060200190929190505050610463565b604051808215151515815260200191505060405180910390f35b3480156101cc57600080fd5b50610203600480360360408110156101e357600080fd5b81019080803590602001909291908035906020019092919050505061046f565b604051808215151515815260200191505060405180910390f35b34801561022957600080fd5b506102606004803603604081101561024057600080fd5b81019080803590602001909291908035906020019092919050505061047b565b604051808215151515815260200191505060405180910390f35b34801561028657600080fd5b506102bd6004803603604081101561029d57600080fd5b810190808035906020019092919080359060200190929190505050610487565b604051808215151515815260200191505060405180910390f35b3480156102e357600080fd5b5061031a600480360360408110156102fa57600080fd5b810190808035906020019092919080359060200190929190505050610493565b604051808215151515815260200191505060405180910390f35b34801561034057600080fd5b506103776004803603604081101561035757600080fd5b81019080803590602001909291908035906020019092919050505061049f565b604051808215151515815260200191505060405180910390f35b34801561039d57600080fd5b506103d4600480360360408110156103b457600080fd5b8101908080359060200190929190803590602001909291905050506104ab565b604051808215151515815260200191505060405180910390f35b3480156103fa57600080fd5b506104316004803603604081101561041157600080fd5b8101908080359060200190929190803590602001909291905050506104b7565b604051808215151515815260200191505060405180910390f35b60006001905092915050565b60006001905092915050565b60006001905092915050565b60006001905092915050565b60006001905092915050565b60006001905092915050565b60006001905092915050565b60006001905092915050565b60006001905092915050565b6000600190509291505056fea165627a7a72305820d4be6355681cc3d4156b008c22143eaa97d41b516798e423eb85b18c86b9913a0029",
  "source": "pragma solidity ^0.5.0;\n\ncontract TestContract{\n\nconstructor() public {\n}\n\nfunction TestOne(uint a, uint b) public view returns(bool success){\n  return true;\n}\n\nfunction TestTwo(uint c, uint d) public view returns(bool success){\n  return true;\n}\n\nfunction TestThree(uint e, uint f) public view returns(bool success){\n  return true;\n}\n\nfunction TestFour(uint g, uint h) public view returns(bool success){\n  return true;\n}\n\nfunction TestFive(uint i, uint j) public view returns(bool success){\n  return true;\n}\n\nfunction TestSix(uint k, uint l) public view returns(bool success){\n  return true;\n}\n\nfunction TestSeven(uint m, uint n) public view returns(bool success){\n  return true;\n}\n\nfunction TestEight(uint o, uint p) public view returns(bool success){\n  return true;\n}\n\nfunction TestNine(uint q, uint r) public view returns(bool success){\n  return true;\n}\n\nfunction TestTen(uint s, uint t) public view returns(bool success){\n  return true;\n}\n\n}\n",
  "sourcePath": "/home/stefan/JADS/Scriptie/Master_Thesis/Code/Smart Contracts/10100/contracts/TestContract.sol",
  "compiler": {
    "name": "solc",
    "version": "0.5.0+commit.1d4f565a.Emscripten.clang"
  },
  "schemaVersion": "3.0.9",
  "updatedAt": "2019-05-30T13:34:30.264Z",
  "devdoc": {
    "methods": {}
  },
  "userdoc": {
    "methods": {}
  }
}