{
  "contractName": "TestContract",
  "abi": [
    {
      "inputs": [],
      "payable": false,
      "stateMutability": "nonpayable",
      "type": "constructor"
    },
    {
      "constant": true,
      "inputs": [
        {
          "name": "a",
          "type": "uint256"
        },
        {
          "name": "b",
          "type": "uint256"
        }
      ],
      "name": "TestOne",
      "outputs": [
        {
          "name": "success",
          "type": "bool"
        }
      ],
      "payable": false,
      "stateMutability": "view",
      "type": "function"
    },
    {
      "constant": true,
      "inputs": [
        {
          "name": "c",
          "type": "uint256"
        },
        {
          "name": "d",
          "type": "uint256"
        }
      ],
      "name": "TestTwo",
      "outputs": [
        {
          "name": "success",
          "type": "bool"
        }
      ],
      "payable": false,
      "stateMutability": "view",
      "type": "function"
    }
  ],
  "bytecode": "0x608060405234801561001057600080fd5b5061014f806100206000396000f3fe60806040526004361061004c576000357c0100000000000000000000000000000000000000000000000000000000900463ffffffff168063463cedf114610051578063c953dc16146100ae575b600080fd5b34801561005d57600080fd5b506100946004803603604081101561007457600080fd5b81019080803590602001909291908035906020019092919050505061010b565b604051808215151515815260200191505060405180910390f35b3480156100ba57600080fd5b506100f1600480360360408110156100d157600080fd5b810190808035906020019092919080359060200190929190505050610117565b604051808215151515815260200191505060405180910390f35b60006001905092915050565b6000600190509291505056fea165627a7a723058201276a00a26dde06685639cee4d07fd476b414950b628ecf50e7f0559386c6e0e0029",
  "source": "pragma solidity ^0.5.0;\n\ncontract TestContract{\n\nconstructor() public {\n}\n\nfunction TestOne(uint a, uint b) public view returns(bool success){\n  return true;\n}\n\nfunction TestTwo(uint c, uint d) public view returns(bool success){\n  return true;\n}\n\n}\n",
  "sourcePath": "/home/stefan/JADS/Scriptie/Master_Thesis/Code/Smart Contracts/220/contracts/TestContract.sol",
  "compiler": {
    "name": "solc",
    "version": "0.5.0+commit.1d4f565a.Emscripten.clang"
  },
  "schemaVersion": "3.0.9",
  "updatedAt": "2019-05-30T13:33:51.945Z",
  "devdoc": {
    "methods": {}
  },
  "userdoc": {
    "methods": {}
  }
}