{
  "contractName": "TimeBased",
  "abi": [
    {
      "constant": true,
      "inputs": [
        {
          "internalType": "address",
          "name": "",
          "type": "address"
        }
      ],
      "name": "_balanceOf",
      "outputs": [
        {
          "internalType": "uint256",
          "name": "",
          "type": "uint256"
        }
      ],
      "payable": false,
      "stateMutability": "view",
      "type": "function"
    },
    {
      "constant": true,
      "inputs": [
        {
          "internalType": "address",
          "name": "",
          "type": "address"
        }
      ],
      "name": "_expiryOf",
      "outputs": [
        {
          "internalType": "uint256",
          "name": "",
          "type": "uint256"
        }
      ],
      "payable": false,
      "stateMutability": "view",
      "type": "function"
    },
    {
      "constant": false,
      "inputs": [],
      "name": "lease",
      "outputs": [
        {
          "internalType": "bool",
          "name": "",
          "type": "bool"
        }
      ],
      "payable": true,
      "stateMutability": "payable",
      "type": "function"
    },
    {
      "constant": false,
      "inputs": [
        {
          "internalType": "address",
          "name": "_addr",
          "type": "address"
        }
      ],
      "name": "balanceOf",
      "outputs": [
        {
          "internalType": "uint256",
          "name": "",
          "type": "uint256"
        }
      ],
      "payable": false,
      "stateMutability": "nonpayable",
      "type": "function"
    },
    {
      "constant": false,
      "inputs": [],
      "name": "balanceOf",
      "outputs": [
        {
          "internalType": "uint256",
          "name": "",
          "type": "uint256"
        }
      ],
      "payable": false,
      "stateMutability": "nonpayable",
      "type": "function"
    },
    {
      "constant": false,
      "inputs": [],
      "name": "expiryOf",
      "outputs": [
        {
          "internalType": "uint256",
          "name": "",
          "type": "uint256"
        }
      ],
      "payable": false,
      "stateMutability": "nonpayable",
      "type": "function"
    },
    {
      "constant": false,
      "inputs": [
        {
          "internalType": "address",
          "name": "_addr",
          "type": "address"
        }
      ],
      "name": "expiryOf",
      "outputs": [
        {
          "internalType": "uint256",
          "name": "",
          "type": "uint256"
        }
      ],
      "payable": false,
      "stateMutability": "nonpayable",
      "type": "function"
    }
  ],
  "bytecode": "0x608060405261025860025534801561001657600080fd5b50610701806100266000396000f3fe6080604052600436106100705760003560e01c80638497fab91161004e5780638497fab914610130578063c998eef414610195578063cca3e832146101b7578063dc99dc351461021c57610070565b806359c6d24b1461007557806370a08231146100a0578063722713f714610105575b600080fd5b34801561008157600080fd5b5061008a610281565b6040518082815260200191505060405180910390f35b3480156100ac57600080fd5b506100ef600480360360208110156100c357600080fd5b81019080803573ffffffffffffffffffffffffffffffffffffffff169060200190929190505050610291565b6040518082815260200191505060405180910390f35b34801561011157600080fd5b5061011a6103ab565b6040518082815260200191505060405180910390f35b34801561013c57600080fd5b5061017f6004803603602081101561015357600080fd5b81019080803573ffffffffffffffffffffffffffffffffffffffff1690602001909291905050506103bb565b6040518082815260200191505060405180910390f35b61019d6104d6565b604051808215151515815260200191505060405180910390f35b3480156101c357600080fd5b50610206600480360360208110156101da57600080fd5b81019080803573ffffffffffffffffffffffffffffffffffffffff16906020019092919050505061069c565b6040518082815260200191505060405180910390f35b34801561022857600080fd5b5061026b6004803603602081101561023f57600080fd5b81019080803573ffffffffffffffffffffffffffffffffffffffff1690602001909291905050506106b4565b6040518082815260200191505060405180910390f35b600061028c336103bb565b905090565b60008142600160008373ffffffffffffffffffffffffffffffffffffffff1673ffffffffffffffffffffffffffffffffffffffff1681526020019081526020016000205410610364576000600160008373ffffffffffffffffffffffffffffffffffffffff1673ffffffffffffffffffffffffffffffffffffffff1681526020019081526020016000208190555060008060008373ffffffffffffffffffffffffffffffffffffffff1673ffffffffffffffffffffffffffffffffffffffff168152602001908152602001600020819055505b6000808473ffffffffffffffffffffffffffffffffffffffff1673ffffffffffffffffffffffffffffffffffffffff16815260200190815260200160002054915050919050565b60006103b633610291565b905090565b60008142600160008373ffffffffffffffffffffffffffffffffffffffff1673ffffffffffffffffffffffffffffffffffffffff168152602001908152602001600020541061048e576000600160008373ffffffffffffffffffffffffffffffffffffffff1673ffffffffffffffffffffffffffffffffffffffff1681526020019081526020016000208190555060008060008373ffffffffffffffffffffffffffffffffffffffff1673ffffffffffffffffffffffffffffffffffffffff168152602001908152602001600020819055505b600160008473ffffffffffffffffffffffffffffffffffffffff1673ffffffffffffffffffffffffffffffffffffffff16815260200190815260200160002054915050919050565b60003342600160008373ffffffffffffffffffffffffffffffffffffffff1673ffffffffffffffffffffffffffffffffffffffff16815260200190815260200160002054106105a9576000600160008373ffffffffffffffffffffffffffffffffffffffff1673ffffffffffffffffffffffffffffffffffffffff1681526020019081526020016000208190555060008060008373ffffffffffffffffffffffffffffffffffffffff1673ffffffffffffffffffffffffffffffffffffffff168152602001908152602001600020819055505b670de0b6b3a764000034146105bd57600080fd5b60008060003373ffffffffffffffffffffffffffffffffffffffff1673ffffffffffffffffffffffffffffffffffffffff168152602001908152602001600020541461060857600080fd5b60016000803373ffffffffffffffffffffffffffffffffffffffff1673ffffffffffffffffffffffffffffffffffffffff168152602001908152602001600020819055506002544201600160003373ffffffffffffffffffffffffffffffffffffffff1673ffffffffffffffffffffffffffffffffffffffff16815260200190815260200160002081905550600191505090565b60006020528060005260406000206000915090505481565b6001602052806000526040600020600091509050548156fea265627a7a72315820d2682b83a6a5c15631ec256e43529b65b18d4008001046f62a3510f789d5d17064736f6c634300050c0032",
  "source": "pragma solidity ^0.5.0;\n\ncontract TimeBased {\n\n    mapping(address => uint) public _balanceOf;\n    mapping(address => uint) public _expiryOf;\n\n    uint private leaseTime = 600;\n\n    modifier expire(address _addr) {\n        if (_expiryOf[_addr] >= block.timestamp) {\n            _expiryOf[_addr] = 0;\n            _balanceOf[_addr] = 0;\n        }\n        _;\n    }\n\n    function lease()\n        public\n        payable\n        expire(msg.sender)\n        returns (bool) {\n        require(msg.value == 1 ether);\n        require(_balanceOf[msg.sender] == 0);\n        _balanceOf[msg.sender] = 1;\n        _expiryOf[msg.sender] = block.timestamp + leaseTime;\n        return true;\n    }\n\n    function balanceOf()\n        public\n        returns (uint) {\n        return balanceOf(msg.sender);\n    }\n\n    function balanceOf(address _addr)\n        public\n        expire(_addr)\n        returns (uint) {\n        return _balanceOf[_addr];\n    }\n\n    function expiryOf()\n        public\n        returns (uint) {\n        return expiryOf(msg.sender);\n    }\n\n    function expiryOf(address _addr)\n        public\n        expire(_addr)\n        returns (uint) {\n        return _expiryOf[_addr];\n    }\n}\n",
  "sourcePath": "/Users/stefan/Documents/PhD/SolMOSA/Smart Contracts/RWContracts/Time-Based/contracts/TimeBased.sol",
  "compiler": {
    "name": "solc",
    "version": "0.5.12+commit.7709ece9.Emscripten.clang"
  },
  "schemaVersion": "3.0.19",
  "updatedAt": "2020-04-10T08:13:37.567Z",
  "devdoc": {
    "methods": {}
  },
  "userdoc": {
    "methods": {}
  }
}