{
  "contractName": "Greeter2",
  "abi": [
    {
      "inputs": [],
      "payable": false,
      "stateMutability": "nonpayable",
      "type": "constructor"
    },
    {
      "constant": true,
      "inputs": [
        {
          "name": "lang",
          "type": "uint8"
        }
      ],
      "name": "sayHello",
      "outputs": [
        {
          "name": "",
          "type": "string"
        }
      ],
      "payable": false,
      "stateMutability": "view",
      "type": "function"
    },
    {
      "constant": false,
      "inputs": [
        {
          "name": "lang",
          "type": "uint8"
        },
        {
          "name": "_hello",
          "type": "string"
        }
      ],
      "name": "changeHello",
      "outputs": [],
      "payable": false,
      "stateMutability": "nonpayable",
      "type": "function"
    },
    {
      "constant": true,
      "inputs": [
        {
          "name": "lang",
          "type": "uint8"
        }
      ],
      "name": "sayGoodbye",
      "outputs": [
        {
          "name": "",
          "type": "string"
        }
      ],
      "payable": false,
      "stateMutability": "view",
      "type": "function"
    },
    {
      "constant": false,
      "inputs": [
        {
          "name": "lang",
          "type": "uint8"
        },
        {
          "name": "_goodbye",
          "type": "string"
        }
      ],
      "name": "changeGoodbye",
      "outputs": [],
      "payable": false,
      "stateMutability": "nonpayable",
      "type": "function"
    }
  ],
  "bytecode": "0x60806040526040805190810160405280600781526020017fec9e98eab08021000000000000000000000000000000000000000000000000008152506001908051906020019061004f929190610188565b506040805190810160405280600881526020017f476f6f64627965210000000000000000000000000000000000000000000000008152506002908051906020019061009b929190610188565b503480156100a857600080fd5b506040805190810160405280600781526020017fec9588eb85953f000000000000000000000000000000000000000000000000008152506000808060018111156100ee57fe5b60ff1660ff1681526020019081526020016000209080519060200190610115929190610188565b506040805190810160405280600581526020017f48656c6c6f00000000000000000000000000000000000000000000000000000081525060008060018081111561015b57fe5b60ff1660ff1681526020019081526020016000209080519060200190610182929190610188565b5061022d565b828054600181600116156101000203166002900490600052602060002090601f016020900481019282601f106101c957805160ff19168380011785556101f7565b828001600101855582156101f7579182015b828111156101f65782518255916020019190600101906101db565b5b5090506102049190610208565b5090565b61022a91905b8082111561022657600081600090555060010161020e565b5090565b90565b61065f8061023c6000396000f300608060405260043610610062576000357c0100000000000000000000000000000000000000000000000000000000900463ffffffff16806313ee648c146100675780632feae5c81461011057806366cad460146101b9578063f8f7a5141461022f575b600080fd5b34801561007357600080fd5b50610095600480360381019080803560ff1690602001909291905050506102a5565b6040518080602001828103825283818151815260200191508051906020019080838360005b838110156100d55780820151818401526020810190506100ba565b50505050905090810190601f1680156101025780820380516001836020036101000a031916815260200191505b509250505060405180910390f35b34801561011c57600080fd5b5061013e600480360381019080803560ff16906020019092919050505061035f565b6040518080602001828103825283818151815260200191508051906020019080838360005b8381101561017e578082015181840152602081019050610163565b50505050905090810190601f1680156101ab5780820380516001836020036101000a031916815260200191505b509250505060405180910390f35b3480156101c557600080fd5b5061022d600480360381019080803560ff169060200190929190803590602001908201803590602001908080601f01602080910402602001604051908101604052809392919081815260200183838082843782019150505050505091929192905050506104f1565b005b34801561023b57600080fd5b506102a3600480360381019080803560ff169060200190929190803590602001908201803590602001908080601f016020809104026020016040519081016040528093929190818152602001838380828437820191505050505050919291929050505061055d565b005b60606000808360ff1660ff1681526020019081526020016000208054600181600116156101000203166002900480601f0160208091040260200160405190810160405280929190818152602001828054600181600116156101000203166002900480156103535780601f1061032857610100808354040283529160200191610353565b820191906000526020600020905b81548152906001019060200180831161033657829003601f168201915b50505050509050919050565b60606000600181111561036e57fe5b60ff168260ff16141561041d5760018054600181600116156101000203166002900480601f0160208091040260200160405190810160405280929190818152602001828054600181600116156101000203166002900480156104115780601f106103e657610100808354040283529160200191610411565b820191906000526020600020905b8154815290600101906020018083116103f457829003601f168201915b505050505090506104ec565b60018081111561042957fe5b60ff168260ff1614156104d85760028054600181600116156101000203166002900480601f0160208091040260200160405190810160405280929190818152602001828054600181600116156101000203166002900480156104cc5780601f106104a1576101008083540402835291602001916104cc565b820191906000526020600020905b8154815290600101906020018083116104af57829003601f168201915b505050505090506104ec565b602060405190810160405280600081525090505b919050565b600060018111156104fe57fe5b60ff168260ff16141561052757806001908051906020019061052192919061058e565b50610559565b60018081111561053357fe5b60ff168260ff16141561055857806002908051906020019061055692919061058e565b505b5b5050565b806000808460ff1660ff168152602001908152602001600020908051906020019061058992919061058e565b505050565b828054600181600116156101000203166002900490600052602060002090601f016020900481019282601f106105cf57805160ff19168380011785556105fd565b828001600101855582156105fd579182015b828111156105fc5782518255916020019190600101906105e1565b5b50905061060a919061060e565b5090565b61063091905b8082111561062c576000816000905550600101610614565b5090565b905600a165627a7a72305820a6ff08047919e7c6e8e805b13886e3e5c99546965b3ac308c21980a5a6e0fec70029",
  "source": "pragma solidity ^0.4.24;\n\n/// @title Ch.4.2 Greeter 스마트 컨트랙트 - 04-03 mapping 변수를 이용해서 다국어 지원\n/// @author Seongil Lee\n/// @notice 코어 이더리움 프로그램 책에 나와 있는 예제입니다.\n/// @dev 개인 공부용으로 작성했습니다.\n/// @dev mapping 상태 변수를 정의하고, 생성자에서 초기 값을 설정해 줍니다.\ncontract Greeter2 {\n    /// @dev mapping (Lang => string) helloByLang 처럼 정의하고 싶지만,\n    /// @dev 솔리티디에서는 enum 타입으로 key 타입을 지정할 수 없습니다.\n    /// @dev value 타입으로는 모든 타입이 가능\n    mapping (uint8 => string) helloByLang;\n\n    string goodbyeKorean = \"잘가!\";\n    string goodbyeEnglish = \"Goodbye!\";\n\n    enum Lang { Korean, English }\n\n    /// @notice contract를 생성하며 만날 때 인사말을 지정합니다.\n    constructor() public {\n        helloByLang[uint8(Lang.Korean)] = \"안녕?\";\n        helloByLang[uint8(Lang.English)] = \"Hello\";\n    }\n\n    /// @notice 선택한 언어의 만날 때 인사말을 가져옵니다.\n    /// @param lang 언어를 선택하기 위한 enum value (Korean : 0, English: 1)\n    /// @return helloByLang의 lang 인덱스에 들어 있는 인사말\n    function sayHello(uint8 lang) public view returns (string) {\n        return helloByLang[lang];\n    }\n\n    /// @notice 선택한 언어의 만날 때 인사말을 변경합니다.\n    /// @param lang 언어를 선택하기 위한 enum value (Korean : 0, English: 1)\n    /// @param _hello 변경 하고자 하는 만날 때 인사말\n    function changeHello(uint8 lang, string _hello) public {\n        helloByLang[lang] = _hello;\n    }\n\n    /// @notice 선택한 언어의 헤어질 때 인사말을 가져옵니다.\n    /// @dev enum 타입 사용 시 lang이 uint8이므로 명시적 형 변환 필수!\n    /// @param lang 언어를 선택하기 위한 enum value (Korean : 0, English: 1)\n    /// @return lang에 맞는 헤어질 때 인사말\n    function sayGoodbye(uint8 lang) public view returns (string) {\n        if (lang == uint8(Lang.Korean)) {\n            return goodbyeKorean;\n        } else if (lang == uint8(Lang.English)) {\n            return goodbyeEnglish;\n        } else {\n            return \"\";\n        }\n    }\n\n    /// @notice 선택한 언어의 헤어질 때 인사말을 변경합니다.\n    /// @param lang 언어를 선택하기 위한 enum value (Korean : 0, English: 1)\n    /// @param _goodbye 변경 하고자 하는 헤어질 때 인사말\n    function changeGoodbye(uint8 lang, string _goodbye) public {\n        if (lang == uint8(Lang.Korean)) {\n            goodbyeKorean = _goodbye;\n        } else if (lang == uint8(Lang.English)) {\n            goodbyeEnglish = _goodbye;\n        }\n    }\n}\n",
  "sourcePath": "/Users/stefan/Documents/PhD/SolMOSA/RWContracts/CoreEthereumProgrammer/Greeter2/contracts/Greeter2.sol",
  "compiler": {
    "name": "solc",
    "version": "0.4.24+commit.e67f0147.Emscripten.clang"
  },
  "schemaVersion": "3.0.19",
  "updatedAt": "2020-02-07T09:00:54.712Z",
  "devdoc": {
    "author": "Seongil Lee",
    "methods": {
      "changeGoodbye(uint8,string)": {
        "params": {
          "_goodbye": "변경 하고자 하는 헤어질 때 인사말",
          "lang": "언어를 선택하기 위한 enum value (Korean : 0, English: 1)"
        }
      },
      "changeHello(uint8,string)": {
        "params": {
          "_hello": "변경 하고자 하는 만날 때 인사말",
          "lang": "언어를 선택하기 위한 enum value (Korean : 0, English: 1)"
        }
      },
      "sayGoodbye(uint8)": {
        "details": "enum 타입 사용 시 lang이 uint8이므로 명시적 형 변환 필수!",
        "params": {
          "lang": "언어를 선택하기 위한 enum value (Korean : 0, English: 1)"
        },
        "return": "lang에 맞는 헤어질 때 인사말"
      },
      "sayHello(uint8)": {
        "params": {
          "lang": "언어를 선택하기 위한 enum value (Korean : 0, English: 1)"
        },
        "return": "helloByLang의 lang 인덱스에 들어 있는 인사말"
      }
    },
    "title": "Ch.4.2 Greeter 스마트 컨트랙트 - 04-03 mapping 변수를 이용해서 다국어 지원"
  },
  "userdoc": {
    "methods": {
      "changeGoodbye(uint8,string)": {
        "notice": "선택한 언어의 헤어질 때 인사말을 변경합니다."
      },
      "changeHello(uint8,string)": {
        "notice": "선택한 언어의 만날 때 인사말을 변경합니다."
      },
      "sayGoodbye(uint8)": {
        "notice": "선택한 언어의 헤어질 때 인사말을 가져옵니다."
      },
      "sayHello(uint8)": {
        "notice": "선택한 언어의 만날 때 인사말을 가져옵니다."
      }
    }
  }
}