{
  "contractName": "TestContract",
  "abi": [
    {
      "inputs": [],
      "payable": false,
      "stateMutability": "nonpayable",
      "type": "constructor"
    },
    {
      "constant": true,
      "inputs": [
        {
          "name": "a",
          "type": "uint256"
        },
        {
          "name": "b",
          "type": "uint256"
        }
      ],
      "name": "TestOne",
      "outputs": [
        {
          "name": "success",
          "type": "bool"
        }
      ],
      "payable": false,
      "stateMutability": "view",
      "type": "function"
    },
    {
      "constant": true,
      "inputs": [
        {
          "name": "c",
          "type": "uint256"
        },
        {
          "name": "d",
          "type": "uint256"
        }
      ],
      "name": "TestTwo",
      "outputs": [
        {
          "name": "success",
          "type": "bool"
        }
      ],
      "payable": false,
      "stateMutability": "view",
      "type": "function"
    },
    {
      "constant": true,
      "inputs": [
        {
          "name": "e",
          "type": "uint256"
        },
        {
          "name": "f",
          "type": "uint256"
        }
      ],
      "name": "TestThree",
      "outputs": [
        {
          "name": "success",
          "type": "bool"
        }
      ],
      "payable": false,
      "stateMutability": "view",
      "type": "function"
    },
    {
      "constant": true,
      "inputs": [
        {
          "name": "g",
          "type": "uint256"
        },
        {
          "name": "h",
          "type": "uint256"
        }
      ],
      "name": "TestFour",
      "outputs": [
        {
          "name": "success",
          "type": "bool"
        }
      ],
      "payable": false,
      "stateMutability": "view",
      "type": "function"
    },
    {
      "constant": true,
      "inputs": [
        {
          "name": "i",
          "type": "uint256"
        },
        {
          "name": "j",
          "type": "uint256"
        }
      ],
      "name": "TestFive",
      "outputs": [
        {
          "name": "success",
          "type": "bool"
        }
      ],
      "payable": false,
      "stateMutability": "view",
      "type": "function"
    },
    {
      "constant": true,
      "inputs": [
        {
          "name": "k",
          "type": "uint256"
        },
        {
          "name": "l",
          "type": "uint256"
        }
      ],
      "name": "TestSix",
      "outputs": [
        {
          "name": "success",
          "type": "bool"
        }
      ],
      "payable": false,
      "stateMutability": "view",
      "type": "function"
    }
  ],
  "bytecode": "0x608060405234801561001057600080fd5b5061031f806100206000396000f3fe608060405260043610610078576000357c0100000000000000000000000000000000000000000000000000000000900463ffffffff16806333742d9e1461007d578063463cedf1146100da5780635a268fc11461013757806383b92a3814610194578063c953dc16146101f1578063f92c88001461024e575b600080fd5b34801561008957600080fd5b506100c0600480360360408110156100a057600080fd5b8101908080359060200190929190803590602001909291905050506102ab565b604051808215151515815260200191505060405180910390f35b3480156100e657600080fd5b5061011d600480360360408110156100fd57600080fd5b8101908080359060200190929190803590602001909291905050506102b7565b604051808215151515815260200191505060405180910390f35b34801561014357600080fd5b5061017a6004803603604081101561015a57600080fd5b8101908080359060200190929190803590602001909291905050506102c3565b604051808215151515815260200191505060405180910390f35b3480156101a057600080fd5b506101d7600480360360408110156101b757600080fd5b8101908080359060200190929190803590602001909291905050506102cf565b604051808215151515815260200191505060405180910390f35b3480156101fd57600080fd5b506102346004803603604081101561021457600080fd5b8101908080359060200190929190803590602001909291905050506102db565b604051808215151515815260200191505060405180910390f35b34801561025a57600080fd5b506102916004803603604081101561027157600080fd5b8101908080359060200190929190803590602001909291905050506102e7565b604051808215151515815260200191505060405180910390f35b60006001905092915050565b60006001905092915050565b60006001905092915050565b60006001905092915050565b60006001905092915050565b6000600190509291505056fea165627a7a72305820855c8b0f5525c2f14ddc6358f4ff3799303e484e4bb6e32102303b6ce3645fda0029",
  "source": "pragma solidity ^0.5.0;\n\ncontract TestContract{\n\nconstructor() public {\n}\n\nfunction TestOne(uint a, uint b) public view returns(bool success){\n  return true;\n}\n\nfunction TestTwo(uint c, uint d) public view returns(bool success){\n  return true;\n}\n\nfunction TestThree(uint e, uint f) public view returns(bool success){\n  return true;\n}\n\nfunction TestFour(uint g, uint h) public view returns(bool success){\n  return true;\n}\n\nfunction TestFive(uint i, uint j) public view returns(bool success){\n  return true;\n}\n\nfunction TestSix(uint k, uint l) public view returns(bool success){\n  return true;\n}\n\n}\n",
  "sourcePath": "/home/stefan/JADS/Scriptie/Master_Thesis/Code/Smart Contracts/660/contracts/TestContract.sol",
  "compiler": {
    "name": "solc",
    "version": "0.5.0+commit.1d4f565a.Emscripten.clang"
  },
  "schemaVersion": "3.0.9",
  "updatedAt": "2019-05-30T13:34:12.652Z",
  "devdoc": {
    "methods": {}
  },
  "userdoc": {
    "methods": {}
  }
}