{
  "contractName": "OpenAddressLottery",
  "abi": [
    {
      "inputs": [],
      "payable": false,
      "stateMutability": "nonpayable",
      "type": "constructor"
    },
    {
      "payable": true,
      "stateMutability": "payable",
      "type": "fallback"
    },
    {
      "constant": false,
      "inputs": [],
      "name": "participate",
      "outputs": [],
      "payable": true,
      "stateMutability": "payable",
      "type": "function"
    },
    {
      "constant": true,
      "inputs": [
        {
          "name": "addr",
          "type": "address"
        }
      ],
      "name": "luckyNumberOfAddress",
      "outputs": [
        {
          "name": "n",
          "type": "uint256"
        }
      ],
      "payable": false,
      "stateMutability": "view",
      "type": "function"
    },
    {
      "constant": false,
      "inputs": [],
      "name": "kill",
      "outputs": [],
      "payable": false,
      "stateMutability": "nonpayable",
      "type": "function"
    },
    {
      "constant": false,
      "inputs": [],
      "name": "forceReseed",
      "outputs": [],
      "payable": false,
      "stateMutability": "nonpayable",
      "type": "function"
    }
  ],
  "bytecode": "0x60606040526007600355341561001457600080fd5b336000806101000a81548173ffffffffffffffffffffffffffffffffffffffff021916908373ffffffffffffffffffffffffffffffffffffffff1602179055506100a76080604051908101604052804173ffffffffffffffffffffffffffffffffffffffff168152602001448152602001458152602001428152506100ac64010000000002610519176401000000009004565b6100fe565b8060000151816020015182604001518360600151604051808581526020018481526020018381526020018281526020019450505050506040518091039020600190046001819055504360028190555050565b6105978061010d6000396000f300606060405260043610610062576000357c0100000000000000000000000000000000000000000000000000000000900463ffffffff16806337354a68146100d757806341c0e1b51461012457806380ca7aec14610139578063d11711a21461014e575b67016345785d8a000034101580156100c757506000809054906101000a900473ffffffffffffffffffffffffffffffffffffffff1673ffffffffffffffffffffffffffffffffffffffff163373ffffffffffffffffffffffffffffffffffffffff1614155b156100d5576100d4610158565b5b005b34156100e257600080fd5b61010e600480803573ffffffffffffffffffffffffffffffffffffffff1690602001909190505061030c565b6040518082815260200191505060405180910390f35b341561012f57600080fd5b6101376103ab565b005b341561014457600080fd5b61014c61041f565b005b610156610158565b005b600067016345785d8a000034101561016f57610309565b60001515600460003373ffffffffffffffffffffffffffffffffffffffff1673ffffffffffffffffffffffffffffffffffffffff16815260200190815260200160002060009054906101000a900460ff1615151415156101ce57600080fd5b6003546101da3361030c565b14156102b9576001600460003373ffffffffffffffffffffffffffffffffffffffff1673ffffffffffffffffffffffffffffffffffffffff16815260200190815260200160002060006101000a81548160ff0219169083151502179055506007340290503073ffffffffffffffffffffffffffffffffffffffff1631811115610278573073ffffffffffffffffffffffffffffffffffffffff163190505b3373ffffffffffffffffffffffffffffffffffffffff166108fc829081150290604051600060405180830381858888f1935050505015156102b857600080fd5b5b6103e860025443031115610308576103076080604051908101604052804173ffffffffffffffffffffffffffffffffffffffff16815260200144815260200145815260200142815250610519565b5b5b50565b600060088273ffffffffffffffffffffffffffffffffffffffff1660015460405180838152602001828152602001925050506040518091039020600060208110151561035457fe5b1a7f0100000000000000000000000000000000000000000000000000000000000000027f010000000000000000000000000000000000000000000000000000000000000090048115156103a357fe5b069050919050565b6000809054906101000a900473ffffffffffffffffffffffffffffffffffffffff1673ffffffffffffffffffffffffffffffffffffffff163373ffffffffffffffffffffffffffffffffffffffff1614151561040657600080fd5b3373ffffffffffffffffffffffffffffffffffffffff16ff5b60008060009054906101000a900473ffffffffffffffffffffffffffffffffffffffff1673ffffffffffffffffffffffffffffffffffffffff163373ffffffffffffffffffffffffffffffffffffffff1614151561047c57600080fd5b3373ffffffffffffffffffffffffffffffffffffffff16816000018190555060014303406001900481600101819055504173ffffffffffffffffffffffffffffffffffffffff164402816002018190555060073a0281600301819055506105168160806040519081016040529081600082015481526020016001820154815260200160028201548152602001600382015481525050610519565b50565b80600001518160200151826040015183606001516040518085815260200184815260200183815260200182815260200194505050505060405180910390206001900460018190555043600281905550505600a165627a7a7230582017f0b4bc791c07a769552a17419360f666978042ae73dfa46700e420cd5c36830029",
  "source": "/*\n * This is a distributed lottery that chooses random addresses as lucky addresses. If these\n * participate, they get the jackpot: 7 times the price of their bet.\n * Of course one address can only win once. The owner regularly reseeds the secret\n * seed of the contract (based on which the lucky addresses are chosen), so if you did not win,\n * just wait for a reseed and try again!\n *\n * Jackpot chance:   1 in 8\n * Ticket price: Anything larger than (or equal to) 0.1 ETH\n * Jackpot size: 7 times the ticket price\n *\n * HOW TO PARTICIPATE: Just send any amount greater than (or equal to) 0.1 ETH to the contract's address\n * Keep in mind that your address can only win once\n *\n * If the contract doesn't have enough ETH to pay the jackpot, it sends the whole balance.\n*/\n\ncontract OpenAddressLottery{\n    struct SeedComponents{\n        uint component1;\n        uint component2;\n        uint component3;\n        uint component4;\n    }\n\n    address owner; //address of the owner\n    uint private secretSeed; //seed used to calculate number of an address\n    uint private lastReseed; //last reseed - used to automatically reseed the contract every 1000 blocks\n    uint LuckyNumber = 7; //if the number of an address equals 7, it wins\n\n    mapping (address => bool) winner; //keeping track of addresses that have already won\n\n    function OpenAddressLottery() {\n        owner = msg.sender;\n        reseed(SeedComponents((uint)(block.coinbase), block.difficulty, block.gaslimit, block.timestamp)); //generate a quality random seed\n    }\n\n    function participate() payable {\n        if(msg.value<0.1 ether)\n            return; //verify ticket price\n\n        // make sure he hasn't won already\n        require(winner[msg.sender] == false);\n\n        if(luckyNumberOfAddress(msg.sender) == LuckyNumber){ //check if it equals 7\n            winner[msg.sender] = true; // every address can only win once\n\n            uint win=msg.value*7; //win = 7 times the ticket price\n\n            if(win>this.balance) //if the balance isnt sufficient...\n                win=this.balance; //...send everything we've got\n            msg.sender.transfer(win);\n        }\n\n        if(block.number-lastReseed>1000) //reseed if needed\n            reseed(SeedComponents((uint)(block.coinbase), block.difficulty, block.gaslimit, block.timestamp)); //generate a quality random seed\n    }\n\n    function luckyNumberOfAddress(address addr) constant returns(uint n){\n        // calculate the number of current address - 1 in 8 chance\n        n = uint(keccak256(uint(addr), secretSeed)[0]) % 8;\n    }\n\n    function reseed(SeedComponents components) internal {\n        secretSeed = uint256(keccak256(\n            components.component1,\n            components.component2,\n            components.component3,\n            components.component4\n        )); //hash the incoming parameters and use the hash to (re)initialize the seed\n        lastReseed = block.number;\n    }\n\n    function kill() {\n        require(msg.sender==owner);\n\n        selfdestruct(msg.sender);\n    }\n\n    function forceReseed() { //reseed initiated by the owner - for testing purposes\n        require(msg.sender==owner);\n\n        SeedComponents s;\n        s.component1 = uint(msg.sender);\n        s.component2 = uint256(block.blockhash(block.number - 1));\n        s.component3 = block.difficulty*(uint)(block.coinbase);\n        s.component4 = tx.gasprice * 7;\n\n        reseed(s); //reseed\n    }\n\n    function () payable { //if someone sends money without any function call, just assume he wanted to participate\n        if(msg.value>=0.1 ether && msg.sender!=owner) //owner can't participate, he can only fund the jackpot\n            participate();\n    }\n\n}\n",
  "sourcePath": "/Users/stefan/Documents/PhD/SolMOSA/Smart Contracts/RWContracts/OpenAddressLottery/contracts/OpenAddressLottery.sol",
  "compiler": {
    "name": "solc",
    "version": "0.4.18+commit.9cf6e910.Emscripten.clang"
  },
  "schemaVersion": "3.0.19",
  "updatedAt": "2020-03-16T16:43:22.627Z",
  "devdoc": {
    "methods": {}
  },
  "userdoc": {
    "methods": {}
  }
}